{
  "contractName": "ChainlinkETHUSDPriceConsumer",
  "abi": [
    {
      "inputs": [],
      "stateMutability": "nonpayable",
      "type": "constructor"
    },
    {
      "inputs": [],
      "name": "getLatestPrice",
      "outputs": [
        {
          "internalType": "int256",
          "name": "",
          "type": "int256"
        }
      ],
      "stateMutability": "view",
      "type": "function",
      "constant": true
    },
    {
      "inputs": [],
      "name": "getDecimals",
      "outputs": [
        {
          "internalType": "uint8",
          "name": "",
          "type": "uint8"
        }
      ],
      "stateMutability": "view",
      "type": "function",
      "constant": true
    }
  ],
  "bytecode": "0x608060405234801561001057600080fd5b5061011a806100206000396000f3fe6080604052348015600f57600080fd5b506004361060325760003560e01c80638e15f473146037578063f0141d84146051575b600080fd5b603d606b565b60405160489190609b565b60405180910390f35b60576078565b6040516062919060b4565b60405180910390f35b60006407771a8dc0905090565b60006008905090565b60888160cd565b82525050565b60958160d7565b82525050565b600060208201905060ae60008301846081565b92915050565b600060208201905060c76000830184608e565b92915050565b6000819050919050565b600060ff8216905091905056fea264697066735822122073ff7551c36ab896f8016c0c9fffaa93b6be637eed16625dd9975401c705d56864736f6c634300060c0033",
  "immutableReferences": {},
  "source": "// SPDX-License-Identifier: MIT\npragma solidity ^0.6.0 <0.7.0;\npragma experimental ABIEncoderV2;\n\n// VERY IMPORTANT: UNCOMMENT THIS LATER\n// VERY IMPORTANT: UNCOMMENT THIS LATER\n// VERY IMPORTANT: UNCOMMENT THIS LATER\n// VERY IMPORTANT: UNCOMMENT THIS LATER\n// VERY IMPORTANT: UNCOMMENT THIS LATER\n// VERY IMPORTANT: UNCOMMENT THIS LATER\n// VERY IMPORTANT: UNCOMMENT THIS LATER\n// VERY IMPORTANT: UNCOMMENT THIS LATER\n// VERY IMPORTANT: UNCOMMENT THIS LATER\n// VERY IMPORTANT: UNCOMMENT THIS LATER\n// VERY IMPORTANT: UNCOMMENT THIS LATER\n// VERY IMPORTANT: UNCOMMENT THIS LATER\n// VERY IMPORTANT: UNCOMMENT THIS LATER\n// VERY IMPORTANT: UNCOMMENT THIS LATER\n// import \"@chainlink/contracts/src/v0.6/interfaces/AggregatorV3Interface.sol\";\n\ncontract ChainlinkETHUSDPriceConsumer {\n\n    // VERY IMPORTANT: UNCOMMENT THIS LATER\n    // VERY IMPORTANT: UNCOMMENT THIS LATER\n    // VERY IMPORTANT: UNCOMMENT THIS LATER\n    // VERY IMPORTANT: UNCOMMENT THIS LATER\n    // VERY IMPORTANT: UNCOMMENT THIS LATER\n    // VERY IMPORTANT: UNCOMMENT THIS LATER\n    // VERY IMPORTANT: UNCOMMENT THIS LATER\n    // VERY IMPORTANT: UNCOMMENT THIS LATER\n    // VERY IMPORTANT: UNCOMMENT THIS LATER\n    // VERY IMPORTANT: UNCOMMENT THIS LATER\n    // VERY IMPORTANT: UNCOMMENT THIS LATER\n    // VERY IMPORTANT: UNCOMMENT THIS LATER\n    // VERY IMPORTANT: UNCOMMENT THIS LATER\n    // VERY IMPORTANT: UNCOMMENT THIS LATER\n    // AggregatorV3Interface internal priceFeed;\n\n    /**\n     * Network: Kovan\n     * Aggregator: ETH/USD\n     * Address: 0x9326BFA02ADD2366b30bacB125260Af641031331\n     */\n    /**\n     * Network: Mainnet\n     * Aggregator: ETH/USD\n     * Address: 0x5f4eC3Df9cbd43714FE2740f5E3616155c5b8419\n     */\n\n     \n    constructor() public {\n        // VERY IMPORTANT: UNCOMMENT THIS LATER\n        // VERY IMPORTANT: UNCOMMENT THIS LATER\n        // VERY IMPORTANT: UNCOMMENT THIS LATER\n        // VERY IMPORTANT: UNCOMMENT THIS LATER\n        // VERY IMPORTANT: UNCOMMENT THIS LATER\n        // VERY IMPORTANT: UNCOMMENT THIS LATER\n        // VERY IMPORTANT: UNCOMMENT THIS LATER\n        // VERY IMPORTANT: UNCOMMENT THIS LATER\n        // VERY IMPORTANT: UNCOMMENT THIS LATER\n        // VERY IMPORTANT: UNCOMMENT THIS LATER\n        // VERY IMPORTANT: UNCOMMENT THIS LATER\n        // VERY IMPORTANT: UNCOMMENT THIS LATER\n        // VERY IMPORTANT: UNCOMMENT THIS LATER\n        // VERY IMPORTANT: UNCOMMENT THIS LATER\n        // priceFeed = AggregatorV3Interface(0x5f4eC3Df9cbd43714FE2740f5E3616155c5b8419);\n    }\n\n    /**\n     * Returns the latest price\n     */\n    function getLatestPrice() public view returns (int) {\n        // VERY IMPORTANT: UNCOMMENT THIS LATER\n        // VERY IMPORTANT: UNCOMMENT THIS LATER\n        // VERY IMPORTANT: UNCOMMENT THIS LATER\n        // VERY IMPORTANT: UNCOMMENT THIS LATER\n        // VERY IMPORTANT: UNCOMMENT THIS LATER\n        // VERY IMPORTANT: UNCOMMENT THIS LATER\n        // VERY IMPORTANT: UNCOMMENT THIS LATER\n        // VERY IMPORTANT: UNCOMMENT THIS LATER\n        // VERY IMPORTANT: UNCOMMENT THIS LATER\n        // VERY IMPORTANT: UNCOMMENT THIS LATER\n        // VERY IMPORTANT: UNCOMMENT THIS LATER\n        // VERY IMPORTANT: UNCOMMENT THIS LATER\n        // VERY IMPORTANT: UNCOMMENT THIS LATER\n        // VERY IMPORTANT: UNCOMMENT THIS LATER\n        // (\n        //     uint80 roundID, \n        //     int price,\n        //     uint startedAt,\n        //     uint timeStamp,\n        //     uint80 answeredInRound\n        // ) = priceFeed.latestRoundData();\n        // // If the round is not complete yet, timestamp is 0\n        // require(timeStamp > 0, \"Round not complete\");\n\n        // This will return something like 32063000000\n        // Divide this by getDecimals to get the \"true\" price\n        // You can can multiply the \"true\" price by 1e6 to get the frax ecosystem 'price'\n        // return price;\n\n        return 32063000000;\n    }\n\n    function getDecimals() public view returns (uint8) {\n        // VERY IMPORTANT: UNCOMMENT THIS LATER\n        // VERY IMPORTANT: UNCOMMENT THIS LATER\n        // VERY IMPORTANT: UNCOMMENT THIS LATER\n        // VERY IMPORTANT: UNCOMMENT THIS LATER\n        // VERY IMPORTANT: UNCOMMENT THIS LATER\n        // VERY IMPORTANT: UNCOMMENT THIS LATER\n        // VERY IMPORTANT: UNCOMMENT THIS LATER\n        // VERY IMPORTANT: UNCOMMENT THIS LATER\n        // VERY IMPORTANT: UNCOMMENT THIS LATER\n        // VERY IMPORTANT: UNCOMMENT THIS LATER\n        // VERY IMPORTANT: UNCOMMENT THIS LATER\n        // VERY IMPORTANT: UNCOMMENT THIS LATER\n        // VERY IMPORTANT: UNCOMMENT THIS LATER\n        // VERY IMPORTANT: UNCOMMENT THIS LATER\n        // return priceFeed.decimals();\n        return 8;\n    }\n}",
  "sourcePath": "/home/travis/Documents/Ubuntu_Shared/frax-price-feed/src/truffle/contracts/Oracle/ChainlinkETHUSDPriceConsumer.sol",
  "compiler": {
    "name": "solc",
    "version": "0.6.12+commit.27d51765.Emscripten.clang"
  },
  "schemaVersion": "3.2.4",
  "updatedAt": "2020-10-08T23:05:58.490Z",
  "networkType": "ethereum",
  "devdoc": {
    "kind": "dev",
    "methods": {},
    "version": 1
  },
  "userdoc": {
    "kind": "user",
    "methods": {
      "constructor": "Network: Mainnet Aggregator: ETH/USD Address: 0x5f4eC3Df9cbd43714FE2740f5E3616155c5b8419",
      "getLatestPrice()": {
        "notice": "Returns the latest price"
      }
    },
    "version": 1
  }
}