{
  "contractName": "FRAXShares",
  "abi": [
    {
      "inputs": [
        {
          "internalType": "string",
          "name": "_symbol",
          "type": "string"
        },
        {
          "internalType": "uint256",
          "name": "_genesis_supply",
          "type": "uint256"
        },
        {
          "internalType": "uint256",
          "name": "_maximum_supply",
          "type": "uint256"
        },
        {
          "internalType": "address",
          "name": "_oracle_address",
          "type": "address"
        },
        {
          "internalType": "address",
          "name": "_owner_address",
          "type": "address"
        },
        {
          "internalType": "address",
          "name": "_timelock_address",
          "type": "address"
        }
      ],
      "stateMutability": "nonpayable",
      "type": "constructor"
    },
    {
      "anonymous": false,
      "inputs": [
        {
          "indexed": true,
          "internalType": "address",
          "name": "owner",
          "type": "address"
        },
        {
          "indexed": true,
          "internalType": "address",
          "name": "spender",
          "type": "address"
        },
        {
          "indexed": false,
          "internalType": "uint256",
          "name": "value",
          "type": "uint256"
        }
      ],
      "name": "Approval",
      "type": "event"
    },
    {
      "anonymous": false,
      "inputs": [
        {
          "indexed": true,
          "internalType": "address",
          "name": "from",
          "type": "address"
        },
        {
          "indexed": true,
          "internalType": "address",
          "name": "to",
          "type": "address"
        },
        {
          "indexed": false,
          "internalType": "uint256",
          "name": "amount",
          "type": "uint256"
        }
      ],
      "name": "FXSBurned",
      "type": "event"
    },
    {
      "anonymous": false,
      "inputs": [
        {
          "indexed": true,
          "internalType": "bytes32",
          "name": "role",
          "type": "bytes32"
        },
        {
          "indexed": true,
          "internalType": "bytes32",
          "name": "previousAdminRole",
          "type": "bytes32"
        },
        {
          "indexed": true,
          "internalType": "bytes32",
          "name": "newAdminRole",
          "type": "bytes32"
        }
      ],
      "name": "RoleAdminChanged",
      "type": "event"
    },
    {
      "anonymous": false,
      "inputs": [
        {
          "indexed": true,
          "internalType": "bytes32",
          "name": "role",
          "type": "bytes32"
        },
        {
          "indexed": true,
          "internalType": "address",
          "name": "account",
          "type": "address"
        },
        {
          "indexed": true,
          "internalType": "address",
          "name": "sender",
          "type": "address"
        }
      ],
      "name": "RoleGranted",
      "type": "event"
    },
    {
      "anonymous": false,
      "inputs": [
        {
          "indexed": true,
          "internalType": "bytes32",
          "name": "role",
          "type": "bytes32"
        },
        {
          "indexed": true,
          "internalType": "address",
          "name": "account",
          "type": "address"
        },
        {
          "indexed": true,
          "internalType": "address",
          "name": "sender",
          "type": "address"
        }
      ],
      "name": "RoleRevoked",
      "type": "event"
    },
    {
      "anonymous": false,
      "inputs": [
        {
          "indexed": true,
          "internalType": "address",
          "name": "from",
          "type": "address"
        },
        {
          "indexed": true,
          "internalType": "address",
          "name": "to",
          "type": "address"
        },
        {
          "indexed": false,
          "internalType": "uint256",
          "name": "value",
          "type": "uint256"
        }
      ],
      "name": "Transfer",
      "type": "event"
    },
    {
      "anonymous": false,
      "inputs": [
        {
          "indexed": true,
          "internalType": "address",
          "name": "voter",
          "type": "address"
        },
        {
          "indexed": false,
          "internalType": "uint256",
          "name": "previousBalance",
          "type": "uint256"
        },
        {
          "indexed": false,
          "internalType": "uint256",
          "name": "newBalance",
          "type": "uint256"
        }
      ],
      "name": "VoterVotesChanged",
      "type": "event"
    },
    {
      "inputs": [],
      "name": "DEFAULT_ADMIN_ROLE",
      "outputs": [
        {
          "internalType": "bytes32",
          "name": "",
          "type": "bytes32"
        }
      ],
      "stateMutability": "view",
      "type": "function",
      "constant": true
    },
    {
      "inputs": [],
      "name": "FRAXStablecoinAdd",
      "outputs": [
        {
          "internalType": "address",
          "name": "",
          "type": "address"
        }
      ],
      "stateMutability": "view",
      "type": "function",
      "constant": true
    },
    {
      "inputs": [],
      "name": "FXS_DAO_min",
      "outputs": [
        {
          "internalType": "uint256",
          "name": "",
          "type": "uint256"
        }
      ],
      "stateMutability": "view",
      "type": "function",
      "constant": true
    },
    {
      "inputs": [
        {
          "internalType": "address",
          "name": "owner",
          "type": "address"
        },
        {
          "internalType": "address",
          "name": "spender",
          "type": "address"
        }
      ],
      "name": "allowance",
      "outputs": [
        {
          "internalType": "uint256",
          "name": "",
          "type": "uint256"
        }
      ],
      "stateMutability": "view",
      "type": "function",
      "constant": true
    },
    {
      "inputs": [
        {
          "internalType": "address",
          "name": "spender",
          "type": "address"
        },
        {
          "internalType": "uint256",
          "name": "amount",
          "type": "uint256"
        }
      ],
      "name": "approve",
      "outputs": [
        {
          "internalType": "bool",
          "name": "",
          "type": "bool"
        }
      ],
      "stateMutability": "nonpayable",
      "type": "function"
    },
    {
      "inputs": [
        {
          "internalType": "address",
          "name": "account",
          "type": "address"
        }
      ],
      "name": "balanceOf",
      "outputs": [
        {
          "internalType": "uint256",
          "name": "",
          "type": "uint256"
        }
      ],
      "stateMutability": "view",
      "type": "function",
      "constant": true
    },
    {
      "inputs": [
        {
          "internalType": "uint256",
          "name": "amount",
          "type": "uint256"
        }
      ],
      "name": "burn",
      "outputs": [],
      "stateMutability": "nonpayable",
      "type": "function"
    },
    {
      "inputs": [
        {
          "internalType": "address",
          "name": "account",
          "type": "address"
        },
        {
          "internalType": "uint256",
          "name": "amount",
          "type": "uint256"
        }
      ],
      "name": "burnFrom",
      "outputs": [],
      "stateMutability": "nonpayable",
      "type": "function"
    },
    {
      "inputs": [
        {
          "internalType": "address",
          "name": "",
          "type": "address"
        },
        {
          "internalType": "uint32",
          "name": "",
          "type": "uint32"
        }
      ],
      "name": "checkpoints",
      "outputs": [
        {
          "internalType": "uint32",
          "name": "fromBlock",
          "type": "uint32"
        },
        {
          "internalType": "uint96",
          "name": "votes",
          "type": "uint96"
        }
      ],
      "stateMutability": "view",
      "type": "function",
      "constant": true
    },
    {
      "inputs": [],
      "name": "decimals",
      "outputs": [
        {
          "internalType": "uint8",
          "name": "",
          "type": "uint8"
        }
      ],
      "stateMutability": "view",
      "type": "function",
      "constant": true
    },
    {
      "inputs": [
        {
          "internalType": "address",
          "name": "spender",
          "type": "address"
        },
        {
          "internalType": "uint256",
          "name": "subtractedValue",
          "type": "uint256"
        }
      ],
      "name": "decreaseAllowance",
      "outputs": [
        {
          "internalType": "bool",
          "name": "",
          "type": "bool"
        }
      ],
      "stateMutability": "nonpayable",
      "type": "function"
    },
    {
      "inputs": [
        {
          "internalType": "bytes32",
          "name": "role",
          "type": "bytes32"
        }
      ],
      "name": "getRoleAdmin",
      "outputs": [
        {
          "internalType": "bytes32",
          "name": "",
          "type": "bytes32"
        }
      ],
      "stateMutability": "view",
      "type": "function",
      "constant": true
    },
    {
      "inputs": [
        {
          "internalType": "bytes32",
          "name": "role",
          "type": "bytes32"
        },
        {
          "internalType": "uint256",
          "name": "index",
          "type": "uint256"
        }
      ],
      "name": "getRoleMember",
      "outputs": [
        {
          "internalType": "address",
          "name": "",
          "type": "address"
        }
      ],
      "stateMutability": "view",
      "type": "function",
      "constant": true
    },
    {
      "inputs": [
        {
          "internalType": "bytes32",
          "name": "role",
          "type": "bytes32"
        }
      ],
      "name": "getRoleMemberCount",
      "outputs": [
        {
          "internalType": "uint256",
          "name": "",
          "type": "uint256"
        }
      ],
      "stateMutability": "view",
      "type": "function",
      "constant": true
    },
    {
      "inputs": [
        {
          "internalType": "bytes32",
          "name": "role",
          "type": "bytes32"
        },
        {
          "internalType": "address",
          "name": "account",
          "type": "address"
        }
      ],
      "name": "grantRole",
      "outputs": [],
      "stateMutability": "nonpayable",
      "type": "function"
    },
    {
      "inputs": [
        {
          "internalType": "bytes32",
          "name": "role",
          "type": "bytes32"
        },
        {
          "internalType": "address",
          "name": "account",
          "type": "address"
        }
      ],
      "name": "hasRole",
      "outputs": [
        {
          "internalType": "bool",
          "name": "",
          "type": "bool"
        }
      ],
      "stateMutability": "view",
      "type": "function",
      "constant": true
    },
    {
      "inputs": [
        {
          "internalType": "address",
          "name": "spender",
          "type": "address"
        },
        {
          "internalType": "uint256",
          "name": "addedValue",
          "type": "uint256"
        }
      ],
      "name": "increaseAllowance",
      "outputs": [
        {
          "internalType": "bool",
          "name": "",
          "type": "bool"
        }
      ],
      "stateMutability": "nonpayable",
      "type": "function"
    },
    {
      "inputs": [],
      "name": "maximum_supply",
      "outputs": [
        {
          "internalType": "uint256",
          "name": "",
          "type": "uint256"
        }
      ],
      "stateMutability": "view",
      "type": "function",
      "constant": true
    },
    {
      "inputs": [
        {
          "internalType": "address",
          "name": "",
          "type": "address"
        }
      ],
      "name": "numCheckpoints",
      "outputs": [
        {
          "internalType": "uint32",
          "name": "",
          "type": "uint32"
        }
      ],
      "stateMutability": "view",
      "type": "function",
      "constant": true
    },
    {
      "inputs": [],
      "name": "oracle_address",
      "outputs": [
        {
          "internalType": "address",
          "name": "",
          "type": "address"
        }
      ],
      "stateMutability": "view",
      "type": "function",
      "constant": true
    },
    {
      "inputs": [],
      "name": "owner_address",
      "outputs": [
        {
          "internalType": "address",
          "name": "",
          "type": "address"
        }
      ],
      "stateMutability": "view",
      "type": "function",
      "constant": true
    },
    {
      "inputs": [
        {
          "internalType": "bytes32",
          "name": "role",
          "type": "bytes32"
        },
        {
          "internalType": "address",
          "name": "account",
          "type": "address"
        }
      ],
      "name": "renounceRole",
      "outputs": [],
      "stateMutability": "nonpayable",
      "type": "function"
    },
    {
      "inputs": [
        {
          "internalType": "bytes32",
          "name": "role",
          "type": "bytes32"
        },
        {
          "internalType": "address",
          "name": "account",
          "type": "address"
        }
      ],
      "name": "revokeRole",
      "outputs": [],
      "stateMutability": "nonpayable",
      "type": "function"
    },
    {
      "inputs": [],
      "name": "symbol",
      "outputs": [
        {
          "internalType": "string",
          "name": "",
          "type": "string"
        }
      ],
      "stateMutability": "view",
      "type": "function",
      "constant": true
    },
    {
      "inputs": [],
      "name": "timelock_address",
      "outputs": [
        {
          "internalType": "address",
          "name": "",
          "type": "address"
        }
      ],
      "stateMutability": "view",
      "type": "function",
      "constant": true
    },
    {
      "inputs": [],
      "name": "totalSupply",
      "outputs": [
        {
          "internalType": "uint256",
          "name": "",
          "type": "uint256"
        }
      ],
      "stateMutability": "view",
      "type": "function",
      "constant": true
    },
    {
      "inputs": [
        {
          "internalType": "address",
          "name": "new_oracle",
          "type": "address"
        }
      ],
      "name": "setOracle",
      "outputs": [],
      "stateMutability": "nonpayable",
      "type": "function"
    },
    {
      "inputs": [
        {
          "internalType": "address",
          "name": "frax_contract_address",
          "type": "address"
        }
      ],
      "name": "setFRAXAddress",
      "outputs": [],
      "stateMutability": "nonpayable",
      "type": "function"
    },
    {
      "inputs": [
        {
          "internalType": "uint256",
          "name": "min_FXS",
          "type": "uint256"
        }
      ],
      "name": "setFXSMinDAO",
      "outputs": [],
      "stateMutability": "nonpayable",
      "type": "function"
    },
    {
      "inputs": [
        {
          "internalType": "address",
          "name": "to",
          "type": "address"
        },
        {
          "internalType": "uint256",
          "name": "amount",
          "type": "uint256"
        }
      ],
      "name": "mint",
      "outputs": [],
      "stateMutability": "nonpayable",
      "type": "function"
    },
    {
      "inputs": [
        {
          "internalType": "address",
          "name": "m_address",
          "type": "address"
        },
        {
          "internalType": "uint256",
          "name": "m_amount",
          "type": "uint256"
        }
      ],
      "name": "pool_mint",
      "outputs": [],
      "stateMutability": "nonpayable",
      "type": "function"
    },
    {
      "inputs": [
        {
          "internalType": "address",
          "name": "b_address",
          "type": "address"
        },
        {
          "internalType": "uint256",
          "name": "b_amount",
          "type": "uint256"
        }
      ],
      "name": "pool_burn_from",
      "outputs": [],
      "stateMutability": "nonpayable",
      "type": "function"
    },
    {
      "inputs": [
        {
          "internalType": "address",
          "name": "recipient",
          "type": "address"
        },
        {
          "internalType": "uint256",
          "name": "amount",
          "type": "uint256"
        }
      ],
      "name": "transfer",
      "outputs": [
        {
          "internalType": "bool",
          "name": "",
          "type": "bool"
        }
      ],
      "stateMutability": "nonpayable",
      "type": "function"
    },
    {
      "inputs": [
        {
          "internalType": "address",
          "name": "sender",
          "type": "address"
        },
        {
          "internalType": "address",
          "name": "recipient",
          "type": "address"
        },
        {
          "internalType": "uint256",
          "name": "amount",
          "type": "uint256"
        }
      ],
      "name": "transferFrom",
      "outputs": [
        {
          "internalType": "bool",
          "name": "",
          "type": "bool"
        }
      ],
      "stateMutability": "nonpayable",
      "type": "function"
    },
    {
      "inputs": [
        {
          "internalType": "address",
          "name": "account",
          "type": "address"
        }
      ],
      "name": "getCurrentVotes",
      "outputs": [
        {
          "internalType": "uint96",
          "name": "",
          "type": "uint96"
        }
      ],
      "stateMutability": "view",
      "type": "function",
      "constant": true
    },
    {
      "inputs": [
        {
          "internalType": "address",
          "name": "account",
          "type": "address"
        },
        {
          "internalType": "uint256",
          "name": "blockNumber",
          "type": "uint256"
        }
      ],
      "name": "getPriorVotes",
      "outputs": [
        {
          "internalType": "uint96",
          "name": "",
          "type": "uint96"
        }
      ],
      "stateMutability": "view",
      "type": "function",
      "constant": true
    }
  ],
  "bytecode": "0x60806040526012600560006101000a81548160ff021916908360ff1602179055503480156200002d57600080fd5b5060405162004d4c38038062004d4c833981810160405281019062000053919062000a09565b85600490805190602001906200006b929190620008d9565b50846006819055508360078190555081600960006101000a81548173ffffffffffffffffffffffffffffffffffffffff021916908373ffffffffffffffffffffffffffffffffffffffff16021790555082600a60006101000a81548173ffffffffffffffffffffffffffffffffffffffff021916908373ffffffffffffffffffffffffffffffffffffffff16021790555080600b60006101000a81548173ffffffffffffffffffffffffffffffffffffffff021916908373ffffffffffffffffffffffffffffffffffffffff160217905550620001616000801b62000155620001dc60201b60201c565b620001e460201b60201c565b62000197600960009054906101000a900473ffffffffffffffffffffffffffffffffffffffff16600654620001fa60201b60201c565b620001d0600960009054906101000a900473ffffffffffffffffffffffffffffffffffffffff16600080600654620003a960201b60201c565b50505050505062000dad565b600033905090565b620001f68282620006aa60201b60201c565b5050565b600073ffffffffffffffffffffffffffffffffffffffff168273ffffffffffffffffffffffffffffffffffffffff1614156200026d576040517f08c379a0000000000000000000000000000000000000000000000000000000008152600401620002649062000be5565b60405180910390fd5b62000281600083836200074e60201b60201c565b6200029d816002546200075360201b62001b9a1790919060201c565b600281905550620002fb816000808573ffffffffffffffffffffffffffffffffffffffff1673ffffffffffffffffffffffffffffffffffffffff168152602001908152602001600020546200075360201b62001b9a1790919060201c565b6000808473ffffffffffffffffffffffffffffffffffffffff1673ffffffffffffffffffffffffffffffffffffffff168152602001908152602001600020819055508173ffffffffffffffffffffffffffffffffffffffff16600073ffffffffffffffffffffffffffffffffffffffff167fddf252ad1be2c89b69c2b068fc378daa952ba7f163c4a11628f55a4df523b3ef836040516200039d919062000c07565b60405180910390a35050565b6000620003d64360405180606001604052806034815260200162004d1860349139620007ab60201b60201c565b905060008463ffffffff161180156200046c57508063ffffffff16600d60008773ffffffffffffffffffffffffffffffffffffffff1673ffffffffffffffffffffffffffffffffffffffff16815260200190815260200160002060006001870363ffffffff1663ffffffff16815260200190815260200160002060000160009054906101000a900463ffffffff1663ffffffff16145b15620005095781600d60008773ffffffffffffffffffffffffffffffffffffffff1673ffffffffffffffffffffffffffffffffffffffff16815260200190815260200160002060006001870363ffffffff1663ffffffff16815260200190815260200160002060000160046101000a8154816bffffffffffffffffffffffff02191690836bffffffffffffffffffffffff16021790555062000651565b60405180604001604052808263ffffffff168152602001836bffffffffffffffffffffffff16815250600d60008773ffffffffffffffffffffffffffffffffffffffff1673ffffffffffffffffffffffffffffffffffffffff16815260200190815260200160002060008663ffffffff1663ffffffff16815260200190815260200160002060008201518160000160006101000a81548163ffffffff021916908363ffffffff16021790555060208201518160000160046101000a8154816bffffffffffffffffffffffff02191690836bffffffffffffffffffffffff16021790555090505060018401600e60008773ffffffffffffffffffffffffffffffffffffffff1673ffffffffffffffffffffffffffffffffffffffff16815260200190815260200160002060006101000a81548163ffffffff021916908363ffffffff1602179055505b8473ffffffffffffffffffffffffffffffffffffffff167f3eaa1c4be29b4a4c60e00300b5a17a8ec6c982b5b0ad5870cc84ebdc3b24d68e84846040516200069b92919062000c24565b60405180910390a25050505050565b620006d981600360008581526020019081526020016000206000016200080460201b62001bef1790919060201c565b156200074a57620006ef620001dc60201b60201c565b73ffffffffffffffffffffffffffffffffffffffff168173ffffffffffffffffffffffffffffffffffffffff16837f2f8788117e7eff1d82e926ec794901d17c78024a50270940304540a733656f0d60405160405180910390a45b5050565b505050565b600080828401905083811015620007a1576040517f08c379a0000000000000000000000000000000000000000000000000000000008152600401620007989062000bc3565b60405180910390fd5b8091505092915050565b600064010000000083108290620007fa576040517f08c379a0000000000000000000000000000000000000000000000000000000008152600401620007f1919062000b9f565b60405180910390fd5b5082905092915050565b600062000834836000018373ffffffffffffffffffffffffffffffffffffffff1660001b6200083c60201b60201c565b905092915050565b6000620008508383620008b660201b60201c565b620008ab578260000182908060018154018082558091505060019003906000526020600020016000909190919091505582600001805490508360010160008481526020019081526020016000208190555060019050620008b0565b600090505b92915050565b600080836001016000848152602001908152602001600020541415905092915050565b828054600181600116156101000203166002900490600052602060002090601f016020900481019282601f106200091c57805160ff19168380011785556200094d565b828001600101855582156200094d579182015b828111156200094c5782518255916020019190600101906200092f565b5b5090506200095c919062000960565b5090565b5b808211156200097b57600081600090555060010162000961565b5090565b600081519050620009908162000d79565b92915050565b600082601f830112620009a857600080fd5b8151620009bf620009b98262000c7f565b62000c51565b91508082526020830160208301858383011115620009dc57600080fd5b620009e983828462000d32565b50505092915050565b60008151905062000a038162000d93565b92915050565b60008060008060008060c0878903121562000a2357600080fd5b600087015167ffffffffffffffff81111562000a3e57600080fd5b62000a4c89828a0162000996565b965050602062000a5f89828a01620009f2565b955050604062000a7289828a01620009f2565b945050606062000a8589828a016200097f565b935050608062000a9889828a016200097f565b92505060a062000aab89828a016200097f565b9150509295509295509295565b600062000ac58262000cac565b62000ad1818562000cb7565b935062000ae381856020860162000d32565b62000aee8162000d68565b840191505092915050565b600062000b08601b8362000cb7565b91507f536166654d6174683a206164646974696f6e206f766572666c6f7700000000006000830152602082019050919050565b600062000b4a601f8362000cb7565b91507f45524332303a206d696e7420746f20746865207a65726f2061646472657373006000830152602082019050919050565b62000b888162000cfc565b82525050565b62000b998162000d1e565b82525050565b6000602082019050818103600083015262000bbb818462000ab8565b905092915050565b6000602082019050818103600083015262000bde8162000af9565b9050919050565b6000602082019050818103600083015262000c008162000b3b565b9050919050565b600060208201905062000c1e600083018462000b7d565b92915050565b600060408201905062000c3b600083018562000b8e565b62000c4a602083018462000b8e565b9392505050565b6000604051905081810181811067ffffffffffffffff8211171562000c7557600080fd5b8060405250919050565b600067ffffffffffffffff82111562000c9757600080fd5b601f19601f8301169050602081019050919050565b600081519050919050565b600082825260208201905092915050565b600062000cd58262000cdc565b9050919050565b600073ffffffffffffffffffffffffffffffffffffffff82169050919050565b6000819050919050565b60006bffffffffffffffffffffffff82169050919050565b600062000d2b8262000d06565b9050919050565b60005b8381101562000d5257808201518184015260208101905062000d35565b8381111562000d62576000848401525b50505050565b6000601f19601f8301169050919050565b62000d848162000cc8565b811462000d9057600080fd5b50565b62000d9e8162000cfc565b811462000daa57600080fd5b50565b613f5b8062000dbd6000396000f3fe608060405234801561001057600080fd5b506004361061021c5760003560e01c80637e0c179211610125578063a8a778ae116100ad578063ca15c8731161007c578063ca15c87314610687578063d547741f146106b7578063dc6663c7146106d3578063dd62ed3e146106f1578063f1127ed8146107215761021c565b8063a8a778ae146105ef578063a9059cbb1461060b578063b4b5ea571461063b578063b4f56b261461066b5761021c565b806391d14854116100f457806391d148541461053557806394ac91c61461056557806395d89b4114610583578063a217fddf146105a1578063a457c2d7146105bf5761021c565b80637e0c1792146104ab57806380edef8e146104c957806382a5a75d146104e75780639010d07c146105055761021c565b80633f22a488116101a85780636fcfff45116101775780636fcfff45146103e357806370a0823114610413578063782d6fe11461044357806379cc6790146104735780637adbf9731461048f5761021c565b80633f22a4881461037157806340c10f191461038f57806342966c68146103ab5780634b3161c2146103c75761021c565b80632f2ff15d116101ef5780632f2ff15d146102cf578063313ce567146102eb57806336568abe1461030957806337a30bbc1461032557806339509351146103415761021c565b8063095ea7b31461022157806318160ddd1461025157806323b872dd1461026f578063248a9ca31461029f575b600080fd5b61023b60048036038101906102369190613168565b610752565b6040516102489190613951565b60405180910390f35b610259610770565b6040516102669190613b89565b60405180910390f35b61028960048036038101906102849190613119565b61077a565b6040516102969190613951565b60405180910390f35b6102b960048036038101906102b49190613209565b61085e565b6040516102c6919061396c565b60405180910390f35b6102e960048036038101906102e49190613232565b61087e565b005b6102f36108f2565b6040516103009190613be8565b60405180910390f35b610323600480360381019061031e9190613232565b610905565b005b61033f600480360381019061033a91906132aa565b610988565b005b61035b60048036038101906103569190613168565b610a7a565b6040516103689190613951565b60405180910390f35b610379610b2d565b6040516103869190613b89565b60405180910390f35b6103a960048036038101906103a49190613168565b610b33565b005b6103c560048036038101906103c091906132aa565b610c7f565b005b6103e160048036038101906103dc91906130b4565b610c93565b005b6103fd60048036038101906103f891906130b4565b610dbf565b60405161040a9190613ba4565b60405180910390f35b61042d600480360381019061042891906130b4565b610de2565b60405161043a9190613b89565b60405180910390f35b61045d60048036038101906104589190613168565b610e2a565b60405161046a9190613c03565b60405180910390f35b61048d60048036038101906104889190613168565b611239565b005b6104a960048036038101906104a491906130b4565b61129b565b005b6104b36113c7565b6040516104c0919061391b565b60405180910390f35b6104d16113ed565b6040516104de919061391b565b60405180910390f35b6104ef611413565b6040516104fc9190613b89565b60405180910390f35b61051f600480360381019061051a919061326e565b611419565b60405161052c919061391b565b60405180910390f35b61054f600480360381019061054a9190613232565b61144b565b60405161055c9190613951565b60405180910390f35b61056d61147d565b60405161057a919061391b565b60405180910390f35b61058b6114a3565b6040516105989190613987565b60405180910390f35b6105a9611541565b6040516105b6919061396c565b60405180910390f35b6105d960048036038101906105d49190613168565b611548565b6040516105e69190613951565b60405180910390f35b61060960048036038101906106049190613168565b611615565b005b61062560048036038101906106209190613168565b611784565b6040516106329190613951565b60405180910390f35b610655600480360381019061065091906130b4565b6117b4565b6040516106629190613c03565b60405180910390f35b61068560048036038101906106809190613168565b6118a2565b005b6106a1600480360381019061069c9190613209565b6119f9565b6040516106ae9190613b89565b60405180910390f35b6106d160048036038101906106cc9190613232565b611a20565b005b6106db611a94565b6040516106e8919061391b565b60405180910390f35b61070b600480360381019061070691906130dd565b611aba565b6040516107189190613b89565b60405180910390f35b61073b600480360381019061073691906131a4565b611b41565b604051610749929190613bbf565b60405180910390f35b600061076661075f611c1f565b8484611c27565b6001905092915050565b6000600254905090565b6000610787848484611df2565b61084884610793611c1f565b61084385604051806060016040528060288152602001613e8e60289139600160008b73ffffffffffffffffffffffffffffffffffffffff1673ffffffffffffffffffffffffffffffffffffffff16815260200190815260200160002060006107f9611c1f565b73ffffffffffffffffffffffffffffffffffffffff1673ffffffffffffffffffffffffffffffffffffffff168152602001908152602001600020546120879092919063ffffffff16565b611c27565b6108538484846120e2565b600190509392505050565b600060036000838152602001908152602001600020600201549050919050565b6108a560036000848152602001908152602001600020600201546108a0611c1f565b61144b565b6108e4576040517f08c379a00000000000000000000000000000000000000000000000000000000081526004016108db90613a09565b60405180910390fd5b6108ee82826123dd565b5050565b600560009054906101000a900460ff1681565b61090d611c1f565b73ffffffffffffffffffffffffffffffffffffffff168173ffffffffffffffffffffffffffffffffffffffff161461097a576040517f08c379a000000000000000000000000000000000000000000000000000000000815260040161097190613b49565b60405180910390fd5b6109848282612471565b5050565b600a60009054906101000a900473ffffffffffffffffffffffffffffffffffffffff1673ffffffffffffffffffffffffffffffffffffffff163373ffffffffffffffffffffffffffffffffffffffff161480610a315750600b60009054906101000a900473ffffffffffffffffffffffffffffffffffffffff1673ffffffffffffffffffffffffffffffffffffffff163373ffffffffffffffffffffffffffffffffffffffff16145b610a70576040517f08c379a0000000000000000000000000000000000000000000000000000000008152600401610a67906139a9565b60405180910390fd5b8060088190555050565b6000610b23610a87611c1f565b84610b1e8560016000610a98611c1f565b73ffffffffffffffffffffffffffffffffffffffff1673ffffffffffffffffffffffffffffffffffffffff16815260200190815260200160002060008973ffffffffffffffffffffffffffffffffffffffff1673ffffffffffffffffffffffffffffffffffffffff16815260200190815260200160002054611b9a90919063ffffffff16565b611c27565b6001905092915050565b60085481565b60011515600c60009054906101000a900473ffffffffffffffffffffffffffffffffffffffff1673ffffffffffffffffffffffffffffffffffffffff166355189488336040518263ffffffff1660e01b8152600401610b929190613936565b60206040518083038186803b158015610baa57600080fd5b505afa158015610bbe573d6000803e3d6000fd5b505050506040513d601f19601f82011682018060405250810190610be291906131e0565b151514610c24576040517f08c379a0000000000000000000000000000000000000000000000000000000008152600401610c1b90613ac9565b60405180910390fd5b60075481610c30610770565b0110610c71576040517f08c379a0000000000000000000000000000000000000000000000000000000008152600401610c6890613a49565b60405180910390fd5b610c7b8282612505565b5050565b610c90610c8a611c1f565b82612699565b50565b600a60009054906101000a900473ffffffffffffffffffffffffffffffffffffffff1673ffffffffffffffffffffffffffffffffffffffff163373ffffffffffffffffffffffffffffffffffffffff161480610d3c5750600b60009054906101000a900473ffffffffffffffffffffffffffffffffffffffff1673ffffffffffffffffffffffffffffffffffffffff163373ffffffffffffffffffffffffffffffffffffffff16145b610d7b576040517f08c379a0000000000000000000000000000000000000000000000000000000008152600401610d72906139a9565b60405180910390fd5b80600c60006101000a81548173ffffffffffffffffffffffffffffffffffffffff021916908373ffffffffffffffffffffffffffffffffffffffff16021790555050565b600e6020528060005260406000206000915054906101000a900463ffffffff1681565b60008060008373ffffffffffffffffffffffffffffffffffffffff1673ffffffffffffffffffffffffffffffffffffffff168152602001908152602001600020549050919050565b6000438210610e6e576040517f08c379a0000000000000000000000000000000000000000000000000000000008152600401610e6590613a89565b60405180910390fd5b6000600e60008573ffffffffffffffffffffffffffffffffffffffff1673ffffffffffffffffffffffffffffffffffffffff16815260200190815260200160002060009054906101000a900463ffffffff16905060008163ffffffff161415610edb576000915050611233565b82600d60008673ffffffffffffffffffffffffffffffffffffffff1673ffffffffffffffffffffffffffffffffffffffff16815260200190815260200160002060006001840363ffffffff1663ffffffff16815260200190815260200160002060000160009054906101000a900463ffffffff1663ffffffff1611610fdd57600d60008573ffffffffffffffffffffffffffffffffffffffff1673ffffffffffffffffffffffffffffffffffffffff16815260200190815260200160002060006001830363ffffffff1663ffffffff16815260200190815260200160002060000160049054906101000a90046bffffffffffffffffffffffff16915050611233565b82600d60008673ffffffffffffffffffffffffffffffffffffffff1673ffffffffffffffffffffffffffffffffffffffff16815260200190815260200160002060008063ffffffff16815260200190815260200160002060000160009054906101000a900463ffffffff1663ffffffff16111561105e576000915050611233565b6000806001830390505b8163ffffffff168163ffffffff1611156111b5576000600283830363ffffffff168161109057fe5b048203905061109d61301d565b600d60008973ffffffffffffffffffffffffffffffffffffffff1673ffffffffffffffffffffffffffffffffffffffff16815260200190815260200160002060008363ffffffff1663ffffffff1681526020019081526020016000206040518060400160405290816000820160009054906101000a900463ffffffff1663ffffffff1663ffffffff1681526020016000820160049054906101000a90046bffffffffffffffffffffffff166bffffffffffffffffffffffff166bffffffffffffffffffffffff1681525050905086816000015163ffffffff16141561118d57806020015195505050505050611233565b86816000015163ffffffff1610156111a7578193506111ae565b6001820392505b5050611068565b600d60008773ffffffffffffffffffffffffffffffffffffffff1673ffffffffffffffffffffffffffffffffffffffff16815260200190815260200160002060008363ffffffff1663ffffffff16815260200190815260200160002060000160049054906101000a90046bffffffffffffffffffffffff1693505050505b92915050565b600061127882604051806060016040528060248152602001613eb66024913961126986611264611c1f565b611aba565b6120879092919063ffffffff16565b905061128c83611286611c1f565b83611c27565b6112968383612699565b505050565b600a60009054906101000a900473ffffffffffffffffffffffffffffffffffffffff1673ffffffffffffffffffffffffffffffffffffffff163373ffffffffffffffffffffffffffffffffffffffff1614806113445750600b60009054906101000a900473ffffffffffffffffffffffffffffffffffffffff1673ffffffffffffffffffffffffffffffffffffffff163373ffffffffffffffffffffffffffffffffffffffff16145b611383576040517f08c379a000000000000000000000000000000000000000000000000000000000815260040161137a906139a9565b60405180910390fd5b80600a60006101000a81548173ffffffffffffffffffffffffffffffffffffffff021916908373ffffffffffffffffffffffffffffffffffffffff16021790555050565b600a60009054906101000a900473ffffffffffffffffffffffffffffffffffffffff1681565b600960009054906101000a900473ffffffffffffffffffffffffffffffffffffffff1681565b60075481565b6000611443826003600086815260200190815260200160002060000161284790919063ffffffff16565b905092915050565b6000611475826003600086815260200190815260200160002060000161286190919063ffffffff16565b905092915050565b600560019054906101000a900473ffffffffffffffffffffffffffffffffffffffff1681565b60048054600181600116156101000203166002900480601f0160208091040260200160405190810160405280929190818152602001828054600181600116156101000203166002900480156115395780601f1061150e57610100808354040283529160200191611539565b820191906000526020600020905b81548152906001019060200180831161151c57829003601f168201915b505050505081565b6000801b81565b600061160b611555611c1f565b8461160685604051806060016040528060258152602001613f01602591396001600061157f611c1f565b73ffffffffffffffffffffffffffffffffffffffff1673ffffffffffffffffffffffffffffffffffffffff16815260200190815260200160002060008a73ffffffffffffffffffffffffffffffffffffffff1673ffffffffffffffffffffffffffffffffffffffff168152602001908152602001600020546120879092919063ffffffff16565b611c27565b6001905092915050565b60011515600c60009054906101000a900473ffffffffffffffffffffffffffffffffffffffff1673ffffffffffffffffffffffffffffffffffffffff166355189488336040518263ffffffff1660e01b81526004016116749190613936565b60206040518083038186803b15801561168c57600080fd5b505afa1580156116a0573d6000803e3d6000fd5b505050506040513d601f19601f820116820180604052508101906116c491906131e0565b151514611706576040517f08c379a00000000000000000000000000000000000000000000000000000000081526004016116fd90613ac9565b60405180910390fd5b6117108282612891565b61171b8230836120e2565b3373ffffffffffffffffffffffffffffffffffffffff168273ffffffffffffffffffffffffffffffffffffffff167fed0632d0be8a77d1cd861e2e5f035c6684bad17c6bd6850e2d3621c6542d140d836040516117789190613b89565b60405180910390a35050565b6000611798611791611c1f565b8484611df2565b6117aa6117a3611c1f565b84846120e2565b6001905092915050565b600080600e60008473ffffffffffffffffffffffffffffffffffffffff1673ffffffffffffffffffffffffffffffffffffffff16815260200190815260200160002060009054906101000a900463ffffffff16905060008163ffffffff161161181e57600061189a565b600d60008473ffffffffffffffffffffffffffffffffffffffff1673ffffffffffffffffffffffffffffffffffffffff16815260200190815260200160002060006001830363ffffffff1663ffffffff16815260200190815260200160002060000160049054906101000a90046bffffffffffffffffffffffff165b915050919050565b60011515600c60009054906101000a900473ffffffffffffffffffffffffffffffffffffffff1673ffffffffffffffffffffffffffffffffffffffff166355189488336040518263ffffffff1660e01b81526004016119019190613936565b60206040518083038186803b15801561191957600080fd5b505afa15801561192d573d6000803e3d6000fd5b505050506040513d601f19601f8201168201806040525081019061195191906131e0565b151514611993576040517f08c379a000000000000000000000000000000000000000000000000000000000815260040161198a90613ac9565b60405180910390fd5b6007548161199f610770565b01106119e0576040517f08c379a00000000000000000000000000000000000000000000000000000000081526004016119d790613a49565b60405180910390fd5b6119eb3083836120e2565b6119f58282612505565b5050565b6000611a1960036000848152602001908152602001600020600001612960565b9050919050565b611a476003600084815260200190815260200160002060020154611a42611c1f565b61144b565b611a86576040517f08c379a0000000000000000000000000000000000000000000000000000000008152600401611a7d90613aa9565b60405180910390fd5b611a908282612471565b5050565b600b60009054906101000a900473ffffffffffffffffffffffffffffffffffffffff1681565b6000600160008473ffffffffffffffffffffffffffffffffffffffff1673ffffffffffffffffffffffffffffffffffffffff16815260200190815260200160002060008373ffffffffffffffffffffffffffffffffffffffff1673ffffffffffffffffffffffffffffffffffffffff16815260200190815260200160002054905092915050565b600d602052816000526040600020602052806000526040600020600091509150508060000160009054906101000a900463ffffffff16908060000160049054906101000a90046bffffffffffffffffffffffff16905082565b600080828401905083811015611be5576040517f08c379a0000000000000000000000000000000000000000000000000000000008152600401611bdc90613a69565b60405180910390fd5b8091505092915050565b6000611c17836000018373ffffffffffffffffffffffffffffffffffffffff1660001b612975565b905092915050565b600033905090565b600073ffffffffffffffffffffffffffffffffffffffff168373ffffffffffffffffffffffffffffffffffffffff161415611c97576040517f08c379a0000000000000000000000000000000000000000000000000000000008152600401611c8e90613b29565b60405180910390fd5b600073ffffffffffffffffffffffffffffffffffffffff168273ffffffffffffffffffffffffffffffffffffffff161415611d07576040517f08c379a0000000000000000000000000000000000000000000000000000000008152600401611cfe90613a29565b60405180910390fd5b80600160008573ffffffffffffffffffffffffffffffffffffffff1673ffffffffffffffffffffffffffffffffffffffff16815260200190815260200160002060008473ffffffffffffffffffffffffffffffffffffffff1673ffffffffffffffffffffffffffffffffffffffff168152602001908152602001600020819055508173ffffffffffffffffffffffffffffffffffffffff168373ffffffffffffffffffffffffffffffffffffffff167f8c5be1e5ebec7d5bd14f71427d1e84f3dd0314c0f7b2291e5b200ac8c7c3b92583604051611de59190613b89565b60405180910390a3505050565b600073ffffffffffffffffffffffffffffffffffffffff168373ffffffffffffffffffffffffffffffffffffffff161415611e62576040517f08c379a0000000000000000000000000000000000000000000000000000000008152600401611e5990613b09565b60405180910390fd5b600073ffffffffffffffffffffffffffffffffffffffff168273ffffffffffffffffffffffffffffffffffffffff161415611ed2576040517f08c379a0000000000000000000000000000000000000000000000000000000008152600401611ec9906139e9565b60405180910390fd5b611edd8383836129e5565b611f4881604051806060016040528060268152602001613e0c602691396000808773ffffffffffffffffffffffffffffffffffffffff1673ffffffffffffffffffffffffffffffffffffffff168152602001908152602001600020546120879092919063ffffffff16565b6000808573ffffffffffffffffffffffffffffffffffffffff1673ffffffffffffffffffffffffffffffffffffffff16815260200190815260200160002081905550611fdb816000808573ffffffffffffffffffffffffffffffffffffffff1673ffffffffffffffffffffffffffffffffffffffff16815260200190815260200160002054611b9a90919063ffffffff16565b6000808473ffffffffffffffffffffffffffffffffffffffff1673ffffffffffffffffffffffffffffffffffffffff168152602001908152602001600020819055508173ffffffffffffffffffffffffffffffffffffffff168373ffffffffffffffffffffffffffffffffffffffff167fddf252ad1be2c89b69c2b068fc378daa952ba7f163c4a11628f55a4df523b3ef8360405161207a9190613b89565b60405180910390a3505050565b60008383111582906120cf576040517f08c379a00000000000000000000000000000000000000000000000000000000081526004016120c69190613987565b60405180910390fd5b5060008385039050809150509392505050565b8173ffffffffffffffffffffffffffffffffffffffff168373ffffffffffffffffffffffffffffffffffffffff161415801561212c57506000816bffffffffffffffffffffffff16115b156123d857600073ffffffffffffffffffffffffffffffffffffffff168373ffffffffffffffffffffffffffffffffffffffff1614612284576000600e60008573ffffffffffffffffffffffffffffffffffffffff1673ffffffffffffffffffffffffffffffffffffffff16815260200190815260200160002060009054906101000a900463ffffffff1690506000808263ffffffff16116121cf57600061224b565b600d60008673ffffffffffffffffffffffffffffffffffffffff1673ffffffffffffffffffffffffffffffffffffffff16815260200190815260200160002060006001840363ffffffff1663ffffffff16815260200190815260200160002060000160049054906101000a90046bffffffffffffffffffffffff165b905060006122728285604051806060016040528060288152602001613e66602891396129ea565b905061228086848484612a5b565b5050505b600073ffffffffffffffffffffffffffffffffffffffff168273ffffffffffffffffffffffffffffffffffffffff16146123d7576000600e60008473ffffffffffffffffffffffffffffffffffffffff1673ffffffffffffffffffffffffffffffffffffffff16815260200190815260200160002060009054906101000a900463ffffffff1690506000808263ffffffff161161232257600061239e565b600d60008573ffffffffffffffffffffffffffffffffffffffff1673ffffffffffffffffffffffffffffffffffffffff16815260200190815260200160002060006001840363ffffffff1663ffffffff16815260200190815260200160002060000160049054906101000a90046bffffffffffffffffffffffff165b905060006123c58285604051806060016040528060278152602001613eda60279139612d4e565b90506123d385848484612a5b565b5050505b5b505050565b6124058160036000858152602001908152602001600020600001611bef90919063ffffffff16565b1561246d57612412611c1f565b73ffffffffffffffffffffffffffffffffffffffff168173ffffffffffffffffffffffffffffffffffffffff16837f2f8788117e7eff1d82e926ec794901d17c78024a50270940304540a733656f0d60405160405180910390a45b5050565b6124998160036000858152602001908152602001600020600001612dc490919063ffffffff16565b15612501576124a6611c1f565b73ffffffffffffffffffffffffffffffffffffffff168173ffffffffffffffffffffffffffffffffffffffff16837ff6391f5c32d9c69d2a47ea670b442974b53935d1edc7fd64eb21e047a839171b60405160405180910390a45b5050565b600073ffffffffffffffffffffffffffffffffffffffff168273ffffffffffffffffffffffffffffffffffffffff161415612575576040517f08c379a000000000000000000000000000000000000000000000000000000000815260040161256c90613b69565b60405180910390fd5b612581600083836129e5565b61259681600254611b9a90919063ffffffff16565b6002819055506125ed816000808573ffffffffffffffffffffffffffffffffffffffff1673ffffffffffffffffffffffffffffffffffffffff16815260200190815260200160002054611b9a90919063ffffffff16565b6000808473ffffffffffffffffffffffffffffffffffffffff1673ffffffffffffffffffffffffffffffffffffffff168152602001908152602001600020819055508173ffffffffffffffffffffffffffffffffffffffff16600073ffffffffffffffffffffffffffffffffffffffff167fddf252ad1be2c89b69c2b068fc378daa952ba7f163c4a11628f55a4df523b3ef8360405161268d9190613b89565b60405180910390a35050565b600073ffffffffffffffffffffffffffffffffffffffff168273ffffffffffffffffffffffffffffffffffffffff161415612709576040517f08c379a000000000000000000000000000000000000000000000000000000000815260040161270090613ae9565b60405180910390fd5b612715826000836129e5565b61278081604051806060016040528060228152602001613dea602291396000808673ffffffffffffffffffffffffffffffffffffffff1673ffffffffffffffffffffffffffffffffffffffff168152602001908152602001600020546120879092919063ffffffff16565b6000808473ffffffffffffffffffffffffffffffffffffffff1673ffffffffffffffffffffffffffffffffffffffff168152602001908152602001600020819055506127d781600254612df490919063ffffffff16565b600281905550600073ffffffffffffffffffffffffffffffffffffffff168273ffffffffffffffffffffffffffffffffffffffff167fddf252ad1be2c89b69c2b068fc378daa952ba7f163c4a11628f55a4df523b3ef8360405161283b9190613b89565b60405180910390a35050565b60006128568360000183612e3e565b60001c905092915050565b6000612889836000018373ffffffffffffffffffffffffffffffffffffffff1660001b612eab565b905092915050565b61289b8282612699565b61295c826128a7611c1f565b61295784604051806060016040528060248152602001613eb660249139600160008973ffffffffffffffffffffffffffffffffffffffff1673ffffffffffffffffffffffffffffffffffffffff168152602001908152602001600020600061290d611c1f565b73ffffffffffffffffffffffffffffffffffffffff1673ffffffffffffffffffffffffffffffffffffffff168152602001908152602001600020546120879092919063ffffffff16565b611c27565b5050565b600061296e82600001612ece565b9050919050565b60006129818383612eab565b6129da5782600001829080600181540180825580915050600190039060005260206000200160009091909190915055826000018054905083600101600084815260200190815260200160002081905550600190506129df565b600090505b92915050565b505050565b6000836bffffffffffffffffffffffff16836bffffffffffffffffffffffff1611158290612a4e576040517f08c379a0000000000000000000000000000000000000000000000000000000008152600401612a459190613987565b60405180910390fd5b5082840390509392505050565b6000612a7f43604051806060016040528060348152602001613e3260349139612edf565b905060008463ffffffff16118015612b1457508063ffffffff16600d60008773ffffffffffffffffffffffffffffffffffffffff1673ffffffffffffffffffffffffffffffffffffffff16815260200190815260200160002060006001870363ffffffff1663ffffffff16815260200190815260200160002060000160009054906101000a900463ffffffff1663ffffffff16145b15612baf5781600d60008773ffffffffffffffffffffffffffffffffffffffff1673ffffffffffffffffffffffffffffffffffffffff16815260200190815260200160002060006001870363ffffffff1663ffffffff16815260200190815260200160002060000160046101000a8154816bffffffffffffffffffffffff02191690836bffffffffffffffffffffffff160217905550612cf7565b60405180604001604052808263ffffffff168152602001836bffffffffffffffffffffffff16815250600d60008773ffffffffffffffffffffffffffffffffffffffff1673ffffffffffffffffffffffffffffffffffffffff16815260200190815260200160002060008663ffffffff1663ffffffff16815260200190815260200160002060008201518160000160006101000a81548163ffffffff021916908363ffffffff16021790555060208201518160000160046101000a8154816bffffffffffffffffffffffff02191690836bffffffffffffffffffffffff16021790555090505060018401600e60008773ffffffffffffffffffffffffffffffffffffffff1673ffffffffffffffffffffffffffffffffffffffff16815260200190815260200160002060006101000a81548163ffffffff021916908363ffffffff1602179055505b8473ffffffffffffffffffffffffffffffffffffffff167f3eaa1c4be29b4a4c60e00300b5a17a8ec6c982b5b0ad5870cc84ebdc3b24d68e8484604051612d3f929190613c1e565b60405180910390a25050505050565b6000808385019050846bffffffffffffffffffffffff16816bffffffffffffffffffffffff1610158390612db8576040517f08c379a0000000000000000000000000000000000000000000000000000000008152600401612daf9190613987565b60405180910390fd5b50809150509392505050565b6000612dec836000018373ffffffffffffffffffffffffffffffffffffffff1660001b612f35565b905092915050565b6000612e3683836040518060400160405280601e81526020017f536166654d6174683a207375627472616374696f6e206f766572666c6f770000815250612087565b905092915050565b600081836000018054905011612e89576040517f08c379a0000000000000000000000000000000000000000000000000000000008152600401612e80906139c9565b60405180910390fd5b826000018281548110612e9857fe5b9060005260206000200154905092915050565b600080836001016000848152602001908152602001600020541415905092915050565b600081600001805490509050919050565b600064010000000083108290612f2b576040517f08c379a0000000000000000000000000000000000000000000000000000000008152600401612f229190613987565b60405180910390fd5b5082905092915050565b600080836001016000848152602001908152602001600020549050600081146130115760006001820390506000600186600001805490500390506000866000018281548110612f8057fe5b9060005260206000200154905080876000018481548110612f9d57fe5b9060005260206000200181905550600183018760010160008381526020019081526020016000208190555086600001805480612fd557fe5b60019003818190600052602060002001600090559055866001016000878152602001908152602001600020600090556001945050505050613017565b60009150505b92915050565b6040518060400160405280600063ffffffff16815260200160006bffffffffffffffffffffffff1681525090565b60008135905061305a81613d76565b92915050565b60008151905061306f81613d8d565b92915050565b60008135905061308481613da4565b92915050565b60008135905061309981613dbb565b92915050565b6000813590506130ae81613dd2565b92915050565b6000602082840312156130c657600080fd5b60006130d48482850161304b565b91505092915050565b600080604083850312156130f057600080fd5b60006130fe8582860161304b565b925050602061310f8582860161304b565b9150509250929050565b60008060006060848603121561312e57600080fd5b600061313c8682870161304b565b935050602061314d8682870161304b565b925050604061315e8682870161308a565b9150509250925092565b6000806040838503121561317b57600080fd5b60006131898582860161304b565b925050602061319a8582860161308a565b9150509250929050565b600080604083850312156131b757600080fd5b60006131c58582860161304b565b92505060206131d68582860161309f565b9150509250929050565b6000602082840312156131f257600080fd5b600061320084828501613060565b91505092915050565b60006020828403121561321b57600080fd5b600061322984828501613075565b91505092915050565b6000806040838503121561324557600080fd5b600061325385828601613075565b92505060206132648582860161304b565b9150509250929050565b6000806040838503121561328157600080fd5b600061328f85828601613075565b92505060206132a08582860161308a565b9150509250929050565b6000602082840312156132bc57600080fd5b60006132ca8482850161308a565b91505092915050565b6132dc81613cea565b82525050565b6132eb81613c63565b82525050565b6132fa81613c75565b82525050565b61330981613c81565b82525050565b600061331a82613c47565b6133248185613c52565b9350613334818560208601613d32565b61333d81613d65565b840191505092915050565b6000613355601883613c52565b91507f596f75277265206e6f7420746865206f7261636c65203a7000000000000000006000830152602082019050919050565b6000613395602283613c52565b91507f456e756d657261626c655365743a20696e646578206f7574206f6620626f756e60008301527f64730000000000000000000000000000000000000000000000000000000000006020830152604082019050919050565b60006133fb602383613c52565b91507f45524332303a207472616e7366657220746f20746865207a65726f206164647260008301527f65737300000000000000000000000000000000000000000000000000000000006020830152604082019050919050565b6000613461602f83613c52565b91507f416363657373436f6e74726f6c3a2073656e646572206d75737420626520616e60008301527f2061646d696e20746f206772616e7400000000000000000000000000000000006020830152604082019050919050565b60006134c7602283613c52565b91507f45524332303a20617070726f766520746f20746865207a65726f20616464726560008301527f73730000000000000000000000000000000000000000000000000000000000006020830152604082019050919050565b600061352d602d83613c52565b91507f4e6f206d6f7265204658532063616e206265206d696e7465642c206d6178207360008301527f7570706c792072656163686564000000000000000000000000000000000000006020830152604082019050919050565b6000613593601b83613c52565b91507f536166654d6174683a206164646974696f6e206f766572666c6f7700000000006000830152602082019050919050565b60006135d3602783613c52565b91507f436f6d703a3a6765745072696f72566f7465733a206e6f74207965742064657460008301527f65726d696e6564000000000000000000000000000000000000000000000000006020830152604082019050919050565b6000613639603083613c52565b91507f416363657373436f6e74726f6c3a2073656e646572206d75737420626520616e60008301527f2061646d696e20746f207265766f6b65000000000000000000000000000000006020830152604082019050919050565b600061369f602183613c52565b91507f4f6e6c79206672617820706f6f6c732063616e206d696e74206e65772046524160008301527f58000000000000000000000000000000000000000000000000000000000000006020830152604082019050919050565b6000613705602183613c52565b91507f45524332303a206275726e2066726f6d20746865207a65726f2061646472657360008301527f73000000000000000000000000000000000000000000000000000000000000006020830152604082019050919050565b600061376b602583613c52565b91507f45524332303a207472616e736665722066726f6d20746865207a65726f20616460008301527f64726573730000000000000000000000000000000000000000000000000000006020830152604082019050919050565b60006137d1602483613c52565b91507f45524332303a20617070726f76652066726f6d20746865207a65726f2061646460008301527f72657373000000000000000000000000000000000000000000000000000000006020830152604082019050919050565b6000613837602f83613c52565b91507f416363657373436f6e74726f6c3a2063616e206f6e6c792072656e6f756e636560008301527f20726f6c657320666f722073656c6600000000000000000000000000000000006020830152604082019050919050565b600061389d601f83613c52565b91507f45524332303a206d696e7420746f20746865207a65726f2061646472657373006000830152602082019050919050565b6138d981613cab565b82525050565b6138e881613cb5565b82525050565b6138f781613cc5565b82525050565b61390681613d20565b82525050565b61391581613cd2565b82525050565b600060208201905061393060008301846132e2565b92915050565b600060208201905061394b60008301846132d3565b92915050565b600060208201905061396660008301846132f1565b92915050565b60006020820190506139816000830184613300565b92915050565b600060208201905081810360008301526139a1818461330f565b905092915050565b600060208201905081810360008301526139c281613348565b9050919050565b600060208201905081810360008301526139e281613388565b9050919050565b60006020820190508181036000830152613a02816133ee565b9050919050565b60006020820190508181036000830152613a2281613454565b9050919050565b60006020820190508181036000830152613a42816134ba565b9050919050565b60006020820190508181036000830152613a6281613520565b9050919050565b60006020820190508181036000830152613a8281613586565b9050919050565b60006020820190508181036000830152613aa2816135c6565b9050919050565b60006020820190508181036000830152613ac28161362c565b9050919050565b60006020820190508181036000830152613ae281613692565b9050919050565b60006020820190508181036000830152613b02816136f8565b9050919050565b60006020820190508181036000830152613b228161375e565b9050919050565b60006020820190508181036000830152613b42816137c4565b9050919050565b60006020820190508181036000830152613b628161382a565b9050919050565b60006020820190508181036000830152613b8281613890565b9050919050565b6000602082019050613b9e60008301846138d0565b92915050565b6000602082019050613bb960008301846138df565b92915050565b6000604082019050613bd460008301856138df565b613be1602083018461390c565b9392505050565b6000602082019050613bfd60008301846138ee565b92915050565b6000602082019050613c18600083018461390c565b92915050565b6000604082019050613c3360008301856138fd565b613c4060208301846138fd565b9392505050565b600081519050919050565b600082825260208201905092915050565b6000613c6e82613c8b565b9050919050565b60008115159050919050565b6000819050919050565b600073ffffffffffffffffffffffffffffffffffffffff82169050919050565b6000819050919050565b600063ffffffff82169050919050565b600060ff82169050919050565b60006bffffffffffffffffffffffff82169050919050565b6000613cf582613cfc565b9050919050565b6000613d0782613d0e565b9050919050565b6000613d1982613c8b565b9050919050565b6000613d2b82613cd2565b9050919050565b60005b83811015613d50578082015181840152602081019050613d35565b83811115613d5f576000848401525b50505050565b6000601f19601f8301169050919050565b613d7f81613c63565b8114613d8a57600080fd5b50565b613d9681613c75565b8114613da157600080fd5b50565b613dad81613c81565b8114613db857600080fd5b50565b613dc481613cab565b8114613dcf57600080fd5b50565b613ddb81613cb5565b8114613de657600080fd5b5056fe45524332303a206275726e20616d6f756e7420657863656564732062616c616e636545524332303a207472616e7366657220616d6f756e7420657863656564732062616c616e6365436f6d703a3a5f7772697465436865636b706f696e743a20626c6f636b206e756d62657220657863656564732033322062697473436f6d703a3a5f6d6f7665566f7465733a20766f746520616d6f756e7420756e646572666c6f777345524332303a207472616e7366657220616d6f756e74206578636565647320616c6c6f77616e636545524332303a206275726e20616d6f756e74206578636565647320616c6c6f77616e6365436f6d703a3a5f6d6f7665566f7465733a20766f746520616d6f756e74206f766572666c6f777345524332303a2064656372656173656420616c6c6f77616e63652062656c6f77207a65726fa2646970667358221220691edc4480e2f6d14bd80d1c15f1851072f7cdd8d37262f11a2ad5be7b6120c164736f6c634300060c0033436f6d703a3a5f7772697465436865636b706f696e743a20626c6f636b206e756d62657220657863656564732033322062697473",
  "immutableReferences": {},
  "source": "// SPDX-License-Identifier: MIT\npragma solidity ^0.6.0 <0.7.0;\npragma experimental ABIEncoderV2;\n\nimport \"../Common/Context.sol\";\nimport \"../ERC20/ERC20Custom.sol\";\nimport \"../ERC20/IERC20.sol\";\nimport \"../Frax/Frax.sol\";\nimport \"../Math/SafeMath.sol\";\n\ncontract FRAXShares is ERC20Custom, AccessControl {\n    using SafeMath for uint256;\n\n    /* ========== STATE VARIABLES ========== */\n\n    string public symbol;\n    uint8 public decimals = 18;\n    address public FRAXStablecoinAdd;\n    \n    uint256 genesis_supply;\n    uint256 public maximum_supply; // No FXS can be minted under any condition past this number\n    uint256 public FXS_DAO_min; // Minimum FXS required to join DAO groups \n\n    address public owner_address;\n    address public oracle_address;\n    address public timelock_address;\n    FRAXStablecoin private FRAX;\n\n    // A checkpoint for marking number of votes from a given block\n    struct Checkpoint {\n        uint32 fromBlock;\n        uint96 votes;\n    }\n\n    // A record of votes checkpoints for each account, by index\n    mapping (address => mapping (uint32 => Checkpoint)) public checkpoints;\n\n    // The number of checkpoints for each account\n    mapping (address => uint32) public numCheckpoints;\n\n    /* ========== MODIFIERS ========== */\n\n    modifier onlyPools() {\n       require(FRAX.frax_pools(msg.sender) == true, \"Only frax pools can mint new FRAX\");\n        _;\n    } \n    \n    modifier onlyByOracle() {\n        require(msg.sender == oracle_address || msg.sender == timelock_address, \"You're not the oracle :p\");\n        _;\n    }\n\n    /* ========== CONSTRUCTOR ========== */\n\n    constructor(\n        string memory _symbol, \n        uint256 _genesis_supply,\n        uint256 _maximum_supply,\n        address _oracle_address,\n        address _owner_address,\n        address _timelock_address\n    ) public {\n        symbol = _symbol;\n        genesis_supply = _genesis_supply;\n        maximum_supply = _maximum_supply; \n        owner_address = _owner_address;\n        oracle_address = _oracle_address;\n        timelock_address = _timelock_address;\n        _setupRole(DEFAULT_ADMIN_ROLE, _msgSender());\n        _mint(owner_address, genesis_supply);\n\n        // Do a checkpoint for the owner\n        _writeCheckpoint(owner_address, 0, 0, uint96(genesis_supply));\n    }\n\n    /* ========== RESTRICTED FUNCTIONS ========== */\n\n    function setOracle(address new_oracle) external onlyByOracle {\n        oracle_address = new_oracle;\n    }\n    \n    function setFRAXAddress(address frax_contract_address) external onlyByOracle {\n        FRAX = FRAXStablecoin(frax_contract_address);\n    }\n    \n    function setFXSMinDAO(uint256 min_FXS) external onlyByOracle {\n        FXS_DAO_min = min_FXS;\n    }\n\n    function mint(address to, uint256 amount) public onlyPools {\n        require(totalSupply() + amount < maximum_supply, \"No more FXS can be minted, max supply reached\");\n        _mint(to, amount);\n    }\n    \n    // This function is what other frax pools will call to mint new FXS (similar to the FRAX mint) \n    function pool_mint(address m_address, uint256 m_amount) external onlyPools {\n        require(totalSupply() + m_amount < maximum_supply, \"No more FXS can be minted, max supply reached\");\n        _moveDelegates(address(this), m_address, uint96(m_amount));\n        super._mint(m_address, m_amount);\n    }\n\n    // This function is what other frax pools will call to burn FXS \n    function pool_burn_from(address b_address, uint256 b_amount) external onlyPools {\n        super._burnFrom(b_address, b_amount);\n        _moveDelegates(b_address, address(this), uint96(b_amount)); //NOTE: this doesn't actually burn the votes from existence, only moves them back to FXS contract; need to add this in\n        emit FXSBurned(b_address, msg.sender, b_amount);\n    }\n\n    /* ========== OVERRIDDEN PUBLIC FUNCTIONS ========== */\n\n    function transfer(address recipient, uint256 amount) public virtual override returns (bool) {\n        _transfer(_msgSender(), recipient, amount);\n\n        // Keep track of votes. \"Delegates\" is a misnomer here\n        _moveDelegates(_msgSender(), recipient, uint96(amount));\n        return true;\n    }\n\n    function transferFrom(address sender, address recipient, uint256 amount) public virtual override returns (bool) {\n        _transfer(sender, recipient, amount);\n        _approve(sender, _msgSender(), _allowances[sender][_msgSender()].sub(amount, \"ERC20: transfer amount exceeds allowance\"));\n\n        // Keep track of votes. \"Delegates\" is a misnomer here\n        _moveDelegates(sender, recipient, uint96(amount));\n        return true;\n    }\n\n    /* ========== PUBLIC FUNCTIONS ========== */\n\n    /**\n     * @notice Gets the current votes balance for `account`\n     * @param account The address to get votes balance\n     * @return The number of current votes for `account`\n     */\n    function getCurrentVotes(address account) external view returns (uint96) {\n        uint32 nCheckpoints = numCheckpoints[account];\n        return nCheckpoints > 0 ? checkpoints[account][nCheckpoints - 1].votes : 0;\n    }\n\n    /**\n     * @notice Determine the prior number of votes for an account as of a block number\n     * @dev Block number must be a finalized block or else this function will revert to prevent misinformation.\n     * @param account The address of the account to check\n     * @param blockNumber The block number to get the vote balance at\n     * @return The number of votes the account had as of the given block\n     */\n    function getPriorVotes(address account, uint blockNumber) public view returns (uint96) {\n        require(blockNumber < block.number, \"Comp::getPriorVotes: not yet determined\");\n\n        uint32 nCheckpoints = numCheckpoints[account];\n        if (nCheckpoints == 0) {\n            return 0;\n        }\n\n        // First check most recent balance\n        if (checkpoints[account][nCheckpoints - 1].fromBlock <= blockNumber) {\n            return checkpoints[account][nCheckpoints - 1].votes;\n        }\n\n        // Next check implicit zero balance\n        if (checkpoints[account][0].fromBlock > blockNumber) {\n            return 0;\n        }\n\n        uint32 lower = 0;\n        uint32 upper = nCheckpoints - 1;\n        while (upper > lower) {\n            uint32 center = upper - (upper - lower) / 2; // ceil, avoiding overflow\n            Checkpoint memory cp = checkpoints[account][center];\n            if (cp.fromBlock == blockNumber) {\n                return cp.votes;\n            } else if (cp.fromBlock < blockNumber) {\n                lower = center;\n            } else {\n                upper = center - 1;\n            }\n        }\n        return checkpoints[account][lower].votes;\n    }\n\n    /* ========== INTERNAL FUNCTIONS ========== */\n\n    // From compound's _moveDelegates\n    // Keep track of votes. \"Delegates\" is a misnomer here\n    function _moveDelegates(address srcRep, address dstRep, uint96 amount) internal {\n        if (srcRep != dstRep && amount > 0) {\n            if (srcRep != address(0)) {\n                uint32 srcRepNum = numCheckpoints[srcRep];\n                uint96 srcRepOld = srcRepNum > 0 ? checkpoints[srcRep][srcRepNum - 1].votes : 0;\n                uint96 srcRepNew = sub96(srcRepOld, amount, \"Comp::_moveVotes: vote amount underflows\");\n                _writeCheckpoint(srcRep, srcRepNum, srcRepOld, srcRepNew);\n            }\n\n            if (dstRep != address(0)) {\n                uint32 dstRepNum = numCheckpoints[dstRep];\n                uint96 dstRepOld = dstRepNum > 0 ? checkpoints[dstRep][dstRepNum - 1].votes : 0;\n                uint96 dstRepNew = add96(dstRepOld, amount, \"Comp::_moveVotes: vote amount overflows\");\n                _writeCheckpoint(dstRep, dstRepNum, dstRepOld, dstRepNew);\n            }\n        }\n    }\n\n    function _writeCheckpoint(address voter, uint32 nCheckpoints, uint96 oldVotes, uint96 newVotes) internal {\n      uint32 blockNumber = safe32(block.number, \"Comp::_writeCheckpoint: block number exceeds 32 bits\");\n\n      if (nCheckpoints > 0 && checkpoints[voter][nCheckpoints - 1].fromBlock == blockNumber) {\n          checkpoints[voter][nCheckpoints - 1].votes = newVotes;\n      } else {\n          checkpoints[voter][nCheckpoints] = Checkpoint(blockNumber, newVotes);\n          numCheckpoints[voter] = nCheckpoints + 1;\n      }\n\n      emit VoterVotesChanged(voter, oldVotes, newVotes);\n    }\n\n    function safe32(uint n, string memory errorMessage) internal pure returns (uint32) {\n        require(n < 2**32, errorMessage);\n        return uint32(n);\n    }\n\n    function safe96(uint n, string memory errorMessage) internal pure returns (uint96) {\n        require(n < 2**96, errorMessage);\n        return uint96(n);\n    }\n\n    function add96(uint96 a, uint96 b, string memory errorMessage) internal pure returns (uint96) {\n        uint96 c = a + b;\n        require(c >= a, errorMessage);\n        return c;\n    }\n\n    function sub96(uint96 a, uint96 b, string memory errorMessage) internal pure returns (uint96) {\n        require(b <= a, errorMessage);\n        return a - b;\n    }\n\n    function getChainId() internal pure returns (uint) {\n        uint256 chainId;\n        assembly { chainId := chainid() }\n        return chainId;\n    }\n\n    /* ========== EVENTS ========== */\n    \n    /// @notice An event thats emitted when a voters account's vote balance changes\n    event VoterVotesChanged(address indexed voter, uint previousBalance, uint newBalance);\n\n    // Track FXS burned\n    event FXSBurned(address indexed from, address indexed to, uint256 amount);\n\n}\n",
  "sourcePath": "/home/travis/Documents/Ubuntu_Shared/frax-price-feed/src/truffle/contracts/FXS/FXS.sol",
  "compiler": {
    "name": "solc",
    "version": "0.6.12+commit.27d51765.Emscripten.clang"
  },
  "schemaVersion": "3.2.4",
  "updatedAt": "2020-10-08T23:05:58.503Z",
  "networkType": "ethereum",
  "devdoc": {
    "kind": "dev",
    "methods": {
      "allowance(address,address)": {
        "details": "See {IERC20-allowance}."
      },
      "approve(address,uint256)": {
        "details": "See {IERC20-approve}. Requirements: - `spender` cannot be the zero address.approve(address spender, uint256 amount)"
      },
      "balanceOf(address)": {
        "details": "See {IERC20-balanceOf}."
      },
      "burn(uint256)": {
        "details": "Destroys `amount` tokens from the caller. See {ERC20-_burn}."
      },
      "burnFrom(address,uint256)": {
        "details": "Destroys `amount` tokens from `account`, deducting from the caller's allowance. See {ERC20-_burn} and {ERC20-allowance}. Requirements: - the caller must have allowance for `accounts`'s tokens of at least `amount`."
      },
      "decreaseAllowance(address,uint256)": {
        "details": "Atomically decreases the allowance granted to `spender` by the caller. This is an alternative to {approve} that can be used as a mitigation for problems described in {IERC20-approve}. Emits an {Approval} event indicating the updated allowance. Requirements: - `spender` cannot be the zero address. - `spender` must have allowance for the caller of at least `subtractedValue`."
      },
      "getCurrentVotes(address)": {
        "params": {
          "account": "The address to get votes balance"
        },
        "returns": {
          "_0": "The number of current votes for `account`"
        }
      },
      "getPriorVotes(address,uint256)": {
        "details": "Block number must be a finalized block or else this function will revert to prevent misinformation.",
        "params": {
          "account": "The address of the account to check",
          "blockNumber": "The block number to get the vote balance at"
        },
        "returns": {
          "_0": "The number of votes the account had as of the given block"
        }
      },
      "getRoleAdmin(bytes32)": {
        "details": "Returns the admin role that controls `role`. See {grantRole} and {revokeRole}. To change a role's admin, use {_setRoleAdmin}."
      },
      "getRoleMember(bytes32,uint256)": {
        "details": "Returns one of the accounts that have `role`. `index` must be a value between 0 and {getRoleMemberCount}, non-inclusive. Role bearers are not sorted in any particular way, and their ordering may change at any point. WARNING: When using {getRoleMember} and {getRoleMemberCount}, make sure you perform all queries on the same block. See the following https://forum.openzeppelin.com/t/iterating-over-elements-on-enumerableset-in-openzeppelin-contracts/2296[forum post] for more information."
      },
      "getRoleMemberCount(bytes32)": {
        "details": "Returns the number of accounts that have `role`. Can be used together with {getRoleMember} to enumerate all bearers of a role."
      },
      "grantRole(bytes32,address)": {
        "details": "Grants `role` to `account`. If `account` had not been already granted `role`, emits a {RoleGranted} event. Requirements: - the caller must have ``role``'s admin role."
      },
      "hasRole(bytes32,address)": {
        "details": "Returns `true` if `account` has been granted `role`."
      },
      "increaseAllowance(address,uint256)": {
        "details": "Atomically increases the allowance granted to `spender` by the caller. This is an alternative to {approve} that can be used as a mitigation for problems described in {IERC20-approve}. Emits an {Approval} event indicating the updated allowance. Requirements: - `spender` cannot be the zero address."
      },
      "renounceRole(bytes32,address)": {
        "details": "Revokes `role` from the calling account. Roles are often managed via {grantRole} and {revokeRole}: this function's purpose is to provide a mechanism for accounts to lose their privileges if they are compromised (such as when a trusted device is misplaced). If the calling account had been granted `role`, emits a {RoleRevoked} event. Requirements: - the caller must be `account`."
      },
      "revokeRole(bytes32,address)": {
        "details": "Revokes `role` from `account`. If `account` had been granted `role`, emits a {RoleRevoked} event. Requirements: - the caller must have ``role``'s admin role."
      },
      "totalSupply()": {
        "details": "See {IERC20-totalSupply}."
      },
      "transfer(address,uint256)": {
        "details": "See {IERC20-transfer}. Requirements: - `recipient` cannot be the zero address. - the caller must have a balance of at least `amount`."
      },
      "transferFrom(address,address,uint256)": {
        "details": "See {IERC20-transferFrom}. Emits an {Approval} event indicating the updated allowance. This is not required by the EIP. See the note at the beginning of {ERC20}; Requirements: - `sender` and `recipient` cannot be the zero address. - `sender` must have a balance of at least `amount`. - the caller must have allowance for `sender`'s tokens of at least `amount`."
      }
    },
    "version": 1
  },
  "userdoc": {
    "events": {
      "VoterVotesChanged(address,uint256,uint256)": {
        "notice": "An event thats emitted when a voters account's vote balance changes"
      }
    },
    "kind": "user",
    "methods": {
      "getCurrentVotes(address)": {
        "notice": "Gets the current votes balance for `account`"
      },
      "getPriorVotes(address,uint256)": {
        "notice": "Determine the prior number of votes for an account as of a block number"
      }
    },
    "version": 1
  }
}