{
  "contractName": "FRAXStablecoin",
  "abi": [
    {
      "inputs": [
        {
          "internalType": "string",
          "name": "_symbol",
          "type": "string"
        },
        {
          "internalType": "address",
          "name": "_creator_address",
          "type": "address"
        },
        {
          "internalType": "address",
          "name": "_timelock_address",
          "type": "address"
        }
      ],
      "stateMutability": "nonpayable",
      "type": "constructor"
    },
    {
      "anonymous": false,
      "inputs": [
        {
          "indexed": true,
          "internalType": "address",
          "name": "owner",
          "type": "address"
        },
        {
          "indexed": true,
          "internalType": "address",
          "name": "spender",
          "type": "address"
        },
        {
          "indexed": false,
          "internalType": "uint256",
          "name": "value",
          "type": "uint256"
        }
      ],
      "name": "Approval",
      "type": "event"
    },
    {
      "anonymous": false,
      "inputs": [
        {
          "indexed": true,
          "internalType": "address",
          "name": "from",
          "type": "address"
        },
        {
          "indexed": true,
          "internalType": "address",
          "name": "to",
          "type": "address"
        },
        {
          "indexed": false,
          "internalType": "uint256",
          "name": "amount",
          "type": "uint256"
        }
      ],
      "name": "FRAXBurned",
      "type": "event"
    },
    {
      "anonymous": false,
      "inputs": [
        {
          "indexed": true,
          "internalType": "bytes32",
          "name": "role",
          "type": "bytes32"
        },
        {
          "indexed": true,
          "internalType": "bytes32",
          "name": "previousAdminRole",
          "type": "bytes32"
        },
        {
          "indexed": true,
          "internalType": "bytes32",
          "name": "newAdminRole",
          "type": "bytes32"
        }
      ],
      "name": "RoleAdminChanged",
      "type": "event"
    },
    {
      "anonymous": false,
      "inputs": [
        {
          "indexed": true,
          "internalType": "bytes32",
          "name": "role",
          "type": "bytes32"
        },
        {
          "indexed": true,
          "internalType": "address",
          "name": "account",
          "type": "address"
        },
        {
          "indexed": true,
          "internalType": "address",
          "name": "sender",
          "type": "address"
        }
      ],
      "name": "RoleGranted",
      "type": "event"
    },
    {
      "anonymous": false,
      "inputs": [
        {
          "indexed": true,
          "internalType": "bytes32",
          "name": "role",
          "type": "bytes32"
        },
        {
          "indexed": true,
          "internalType": "address",
          "name": "account",
          "type": "address"
        },
        {
          "indexed": true,
          "internalType": "address",
          "name": "sender",
          "type": "address"
        }
      ],
      "name": "RoleRevoked",
      "type": "event"
    },
    {
      "anonymous": false,
      "inputs": [
        {
          "indexed": true,
          "internalType": "address",
          "name": "from",
          "type": "address"
        },
        {
          "indexed": true,
          "internalType": "address",
          "name": "to",
          "type": "address"
        },
        {
          "indexed": false,
          "internalType": "uint256",
          "name": "value",
          "type": "uint256"
        }
      ],
      "name": "Transfer",
      "type": "event"
    },
    {
      "inputs": [],
      "name": "COLLATERAL_RATIO_PAUSER",
      "outputs": [
        {
          "internalType": "bytes32",
          "name": "",
          "type": "bytes32"
        }
      ],
      "stateMutability": "view",
      "type": "function",
      "constant": true
    },
    {
      "inputs": [],
      "name": "DEFAULT_ADMIN_ADDRESS",
      "outputs": [
        {
          "internalType": "address",
          "name": "",
          "type": "address"
        }
      ],
      "stateMutability": "view",
      "type": "function",
      "constant": true
    },
    {
      "inputs": [],
      "name": "DEFAULT_ADMIN_ROLE",
      "outputs": [
        {
          "internalType": "bytes32",
          "name": "",
          "type": "bytes32"
        }
      ],
      "stateMutability": "view",
      "type": "function",
      "constant": true
    },
    {
      "inputs": [
        {
          "internalType": "address",
          "name": "owner",
          "type": "address"
        },
        {
          "internalType": "address",
          "name": "spender",
          "type": "address"
        }
      ],
      "name": "allowance",
      "outputs": [
        {
          "internalType": "uint256",
          "name": "",
          "type": "uint256"
        }
      ],
      "stateMutability": "view",
      "type": "function",
      "constant": true
    },
    {
      "inputs": [
        {
          "internalType": "address",
          "name": "spender",
          "type": "address"
        },
        {
          "internalType": "uint256",
          "name": "amount",
          "type": "uint256"
        }
      ],
      "name": "approve",
      "outputs": [
        {
          "internalType": "bool",
          "name": "",
          "type": "bool"
        }
      ],
      "stateMutability": "nonpayable",
      "type": "function"
    },
    {
      "inputs": [
        {
          "internalType": "address",
          "name": "account",
          "type": "address"
        }
      ],
      "name": "balanceOf",
      "outputs": [
        {
          "internalType": "uint256",
          "name": "",
          "type": "uint256"
        }
      ],
      "stateMutability": "view",
      "type": "function",
      "constant": true
    },
    {
      "inputs": [
        {
          "internalType": "uint256",
          "name": "amount",
          "type": "uint256"
        }
      ],
      "name": "burn",
      "outputs": [],
      "stateMutability": "nonpayable",
      "type": "function"
    },
    {
      "inputs": [
        {
          "internalType": "address",
          "name": "account",
          "type": "address"
        },
        {
          "internalType": "uint256",
          "name": "amount",
          "type": "uint256"
        }
      ],
      "name": "burnFrom",
      "outputs": [],
      "stateMutability": "nonpayable",
      "type": "function"
    },
    {
      "inputs": [],
      "name": "collateral_ratio_paused",
      "outputs": [
        {
          "internalType": "bool",
          "name": "",
          "type": "bool"
        }
      ],
      "stateMutability": "view",
      "type": "function",
      "constant": true
    },
    {
      "inputs": [],
      "name": "creator_address",
      "outputs": [
        {
          "internalType": "address",
          "name": "",
          "type": "address"
        }
      ],
      "stateMutability": "view",
      "type": "function",
      "constant": true
    },
    {
      "inputs": [],
      "name": "decimals",
      "outputs": [
        {
          "internalType": "uint8",
          "name": "",
          "type": "uint8"
        }
      ],
      "stateMutability": "view",
      "type": "function",
      "constant": true
    },
    {
      "inputs": [
        {
          "internalType": "address",
          "name": "spender",
          "type": "address"
        },
        {
          "internalType": "uint256",
          "name": "subtractedValue",
          "type": "uint256"
        }
      ],
      "name": "decreaseAllowance",
      "outputs": [
        {
          "internalType": "bool",
          "name": "",
          "type": "bool"
        }
      ],
      "stateMutability": "nonpayable",
      "type": "function"
    },
    {
      "inputs": [],
      "name": "eth_usd_consumer_address",
      "outputs": [
        {
          "internalType": "address",
          "name": "",
          "type": "address"
        }
      ],
      "stateMutability": "view",
      "type": "function",
      "constant": true
    },
    {
      "inputs": [],
      "name": "frax_eth_oracle_address",
      "outputs": [
        {
          "internalType": "address",
          "name": "",
          "type": "address"
        }
      ],
      "stateMutability": "view",
      "type": "function",
      "constant": true
    },
    {
      "inputs": [
        {
          "internalType": "address",
          "name": "",
          "type": "address"
        }
      ],
      "name": "frax_pools",
      "outputs": [
        {
          "internalType": "bool",
          "name": "",
          "type": "bool"
        }
      ],
      "stateMutability": "view",
      "type": "function",
      "constant": true
    },
    {
      "inputs": [],
      "name": "fxs_address",
      "outputs": [
        {
          "internalType": "address",
          "name": "",
          "type": "address"
        }
      ],
      "stateMutability": "view",
      "type": "function",
      "constant": true
    },
    {
      "inputs": [],
      "name": "fxs_eth_oracle_address",
      "outputs": [
        {
          "internalType": "address",
          "name": "",
          "type": "address"
        }
      ],
      "stateMutability": "view",
      "type": "function",
      "constant": true
    },
    {
      "inputs": [],
      "name": "genesis_supply",
      "outputs": [
        {
          "internalType": "uint256",
          "name": "",
          "type": "uint256"
        }
      ],
      "stateMutability": "view",
      "type": "function",
      "constant": true
    },
    {
      "inputs": [
        {
          "internalType": "bytes32",
          "name": "role",
          "type": "bytes32"
        }
      ],
      "name": "getRoleAdmin",
      "outputs": [
        {
          "internalType": "bytes32",
          "name": "",
          "type": "bytes32"
        }
      ],
      "stateMutability": "view",
      "type": "function",
      "constant": true
    },
    {
      "inputs": [
        {
          "internalType": "bytes32",
          "name": "role",
          "type": "bytes32"
        },
        {
          "internalType": "uint256",
          "name": "index",
          "type": "uint256"
        }
      ],
      "name": "getRoleMember",
      "outputs": [
        {
          "internalType": "address",
          "name": "",
          "type": "address"
        }
      ],
      "stateMutability": "view",
      "type": "function",
      "constant": true
    },
    {
      "inputs": [
        {
          "internalType": "bytes32",
          "name": "role",
          "type": "bytes32"
        }
      ],
      "name": "getRoleMemberCount",
      "outputs": [
        {
          "internalType": "uint256",
          "name": "",
          "type": "uint256"
        }
      ],
      "stateMutability": "view",
      "type": "function",
      "constant": true
    },
    {
      "inputs": [],
      "name": "global_collateral_ratio",
      "outputs": [
        {
          "internalType": "uint256",
          "name": "",
          "type": "uint256"
        }
      ],
      "stateMutability": "view",
      "type": "function",
      "constant": true
    },
    {
      "inputs": [
        {
          "internalType": "bytes32",
          "name": "role",
          "type": "bytes32"
        },
        {
          "internalType": "address",
          "name": "account",
          "type": "address"
        }
      ],
      "name": "grantRole",
      "outputs": [],
      "stateMutability": "nonpayable",
      "type": "function"
    },
    {
      "inputs": [
        {
          "internalType": "bytes32",
          "name": "role",
          "type": "bytes32"
        },
        {
          "internalType": "address",
          "name": "account",
          "type": "address"
        }
      ],
      "name": "hasRole",
      "outputs": [
        {
          "internalType": "bool",
          "name": "",
          "type": "bool"
        }
      ],
      "stateMutability": "view",
      "type": "function",
      "constant": true
    },
    {
      "inputs": [
        {
          "internalType": "address",
          "name": "spender",
          "type": "address"
        },
        {
          "internalType": "uint256",
          "name": "addedValue",
          "type": "uint256"
        }
      ],
      "name": "increaseAllowance",
      "outputs": [
        {
          "internalType": "bool",
          "name": "",
          "type": "bool"
        }
      ],
      "stateMutability": "nonpayable",
      "type": "function"
    },
    {
      "inputs": [],
      "name": "minting_fee",
      "outputs": [
        {
          "internalType": "uint256",
          "name": "",
          "type": "uint256"
        }
      ],
      "stateMutability": "view",
      "type": "function",
      "constant": true
    },
    {
      "inputs": [
        {
          "internalType": "uint256",
          "name": "",
          "type": "uint256"
        }
      ],
      "name": "owners",
      "outputs": [
        {
          "internalType": "address",
          "name": "",
          "type": "address"
        }
      ],
      "stateMutability": "view",
      "type": "function",
      "constant": true
    },
    {
      "inputs": [],
      "name": "redemption_fee",
      "outputs": [
        {
          "internalType": "uint256",
          "name": "",
          "type": "uint256"
        }
      ],
      "stateMutability": "view",
      "type": "function",
      "constant": true
    },
    {
      "inputs": [
        {
          "internalType": "bytes32",
          "name": "role",
          "type": "bytes32"
        },
        {
          "internalType": "address",
          "name": "account",
          "type": "address"
        }
      ],
      "name": "renounceRole",
      "outputs": [],
      "stateMutability": "nonpayable",
      "type": "function"
    },
    {
      "inputs": [
        {
          "internalType": "bytes32",
          "name": "role",
          "type": "bytes32"
        },
        {
          "internalType": "address",
          "name": "account",
          "type": "address"
        }
      ],
      "name": "revokeRole",
      "outputs": [],
      "stateMutability": "nonpayable",
      "type": "function"
    },
    {
      "inputs": [],
      "name": "symbol",
      "outputs": [
        {
          "internalType": "string",
          "name": "",
          "type": "string"
        }
      ],
      "stateMutability": "view",
      "type": "function",
      "constant": true
    },
    {
      "inputs": [],
      "name": "timelock_address",
      "outputs": [
        {
          "internalType": "address",
          "name": "",
          "type": "address"
        }
      ],
      "stateMutability": "view",
      "type": "function",
      "constant": true
    },
    {
      "inputs": [],
      "name": "totalSupply",
      "outputs": [
        {
          "internalType": "uint256",
          "name": "",
          "type": "uint256"
        }
      ],
      "stateMutability": "view",
      "type": "function",
      "constant": true
    },
    {
      "inputs": [
        {
          "internalType": "address",
          "name": "recipient",
          "type": "address"
        },
        {
          "internalType": "uint256",
          "name": "amount",
          "type": "uint256"
        }
      ],
      "name": "transfer",
      "outputs": [
        {
          "internalType": "bool",
          "name": "",
          "type": "bool"
        }
      ],
      "stateMutability": "nonpayable",
      "type": "function"
    },
    {
      "inputs": [
        {
          "internalType": "address",
          "name": "sender",
          "type": "address"
        },
        {
          "internalType": "address",
          "name": "recipient",
          "type": "address"
        },
        {
          "internalType": "uint256",
          "name": "amount",
          "type": "uint256"
        }
      ],
      "name": "transferFrom",
      "outputs": [
        {
          "internalType": "bool",
          "name": "",
          "type": "bool"
        }
      ],
      "stateMutability": "nonpayable",
      "type": "function"
    },
    {
      "inputs": [],
      "name": "weth_address",
      "outputs": [
        {
          "internalType": "address",
          "name": "",
          "type": "address"
        }
      ],
      "stateMutability": "view",
      "type": "function",
      "constant": true
    },
    {
      "inputs": [],
      "name": "frax_price",
      "outputs": [
        {
          "internalType": "uint256",
          "name": "",
          "type": "uint256"
        }
      ],
      "stateMutability": "view",
      "type": "function",
      "constant": true
    },
    {
      "inputs": [],
      "name": "fxs_price",
      "outputs": [
        {
          "internalType": "uint256",
          "name": "",
          "type": "uint256"
        }
      ],
      "stateMutability": "view",
      "type": "function",
      "constant": true
    },
    {
      "inputs": [],
      "name": "frax_info",
      "outputs": [
        {
          "internalType": "uint256",
          "name": "",
          "type": "uint256"
        },
        {
          "internalType": "uint256",
          "name": "",
          "type": "uint256"
        },
        {
          "internalType": "uint256",
          "name": "",
          "type": "uint256"
        },
        {
          "internalType": "uint256",
          "name": "",
          "type": "uint256"
        },
        {
          "internalType": "uint256",
          "name": "",
          "type": "uint256"
        },
        {
          "internalType": "uint256",
          "name": "",
          "type": "uint256"
        },
        {
          "internalType": "uint256",
          "name": "",
          "type": "uint256"
        }
      ],
      "stateMutability": "view",
      "type": "function",
      "constant": true
    },
    {
      "inputs": [],
      "name": "globalCollateralValue",
      "outputs": [
        {
          "internalType": "uint256",
          "name": "",
          "type": "uint256"
        }
      ],
      "stateMutability": "view",
      "type": "function",
      "constant": true
    },
    {
      "inputs": [],
      "name": "refreshCollateralRatio",
      "outputs": [],
      "stateMutability": "nonpayable",
      "type": "function"
    },
    {
      "inputs": [
        {
          "internalType": "uint256",
          "name": "amount",
          "type": "uint256"
        }
      ],
      "name": "mint",
      "outputs": [],
      "stateMutability": "nonpayable",
      "type": "function"
    },
    {
      "inputs": [
        {
          "internalType": "address",
          "name": "b_address",
          "type": "address"
        },
        {
          "internalType": "uint256",
          "name": "b_amount",
          "type": "uint256"
        }
      ],
      "name": "pool_burn_from",
      "outputs": [],
      "stateMutability": "nonpayable",
      "type": "function"
    },
    {
      "inputs": [
        {
          "internalType": "address",
          "name": "m_address",
          "type": "address"
        },
        {
          "internalType": "uint256",
          "name": "m_amount",
          "type": "uint256"
        }
      ],
      "name": "pool_mint",
      "outputs": [],
      "stateMutability": "nonpayable",
      "type": "function"
    },
    {
      "inputs": [
        {
          "internalType": "address",
          "name": "pool_address",
          "type": "address"
        }
      ],
      "name": "addPool",
      "outputs": [],
      "stateMutability": "nonpayable",
      "type": "function"
    },
    {
      "inputs": [
        {
          "internalType": "address",
          "name": "pool_address",
          "type": "address"
        }
      ],
      "name": "removePool",
      "outputs": [],
      "stateMutability": "nonpayable",
      "type": "function"
    },
    {
      "inputs": [
        {
          "internalType": "enum FRAXStablecoin.PriceChoice",
          "name": "choice",
          "type": "uint8"
        },
        {
          "internalType": "address",
          "name": "oracle_address",
          "type": "address"
        }
      ],
      "name": "addStablecoinOracle",
      "outputs": [],
      "stateMutability": "nonpayable",
      "type": "function"
    },
    {
      "inputs": [
        {
          "internalType": "enum FRAXStablecoin.PriceChoice",
          "name": "choice",
          "type": "uint8"
        },
        {
          "internalType": "address",
          "name": "oracle_address",
          "type": "address"
        }
      ],
      "name": "removeStablecoinOracle",
      "outputs": [],
      "stateMutability": "nonpayable",
      "type": "function"
    },
    {
      "inputs": [
        {
          "internalType": "address",
          "name": "owner_address",
          "type": "address"
        }
      ],
      "name": "addOwner",
      "outputs": [],
      "stateMutability": "nonpayable",
      "type": "function"
    },
    {
      "inputs": [
        {
          "internalType": "address",
          "name": "owner_address",
          "type": "address"
        }
      ],
      "name": "removeOwner",
      "outputs": [],
      "stateMutability": "nonpayable",
      "type": "function"
    },
    {
      "inputs": [
        {
          "internalType": "uint256",
          "name": "red_fee",
          "type": "uint256"
        }
      ],
      "name": "setRedemptionFee",
      "outputs": [],
      "stateMutability": "nonpayable",
      "type": "function"
    },
    {
      "inputs": [
        {
          "internalType": "uint256",
          "name": "min_fee",
          "type": "uint256"
        }
      ],
      "name": "setMintingFee",
      "outputs": [],
      "stateMutability": "nonpayable",
      "type": "function"
    },
    {
      "inputs": [
        {
          "internalType": "address",
          "name": "_fxs_address",
          "type": "address"
        }
      ],
      "name": "setFXSAddress",
      "outputs": [],
      "stateMutability": "nonpayable",
      "type": "function"
    },
    {
      "inputs": [
        {
          "internalType": "address",
          "name": "_eth_usd_consumer_address",
          "type": "address"
        }
      ],
      "name": "setETHUSDOracle",
      "outputs": [],
      "stateMutability": "nonpayable",
      "type": "function"
    },
    {
      "inputs": [
        {
          "internalType": "address",
          "name": "_frax_addr",
          "type": "address"
        },
        {
          "internalType": "address",
          "name": "_weth_address",
          "type": "address"
        }
      ],
      "name": "setFRAXEthOracle",
      "outputs": [],
      "stateMutability": "nonpayable",
      "type": "function"
    },
    {
      "inputs": [
        {
          "internalType": "address",
          "name": "_fxs_addr",
          "type": "address"
        },
        {
          "internalType": "address",
          "name": "_weth_address",
          "type": "address"
        }
      ],
      "name": "setFXSEthOracle",
      "outputs": [],
      "stateMutability": "nonpayable",
      "type": "function"
    },
    {
      "inputs": [],
      "name": "toggleCollateralRatio",
      "outputs": [],
      "stateMutability": "nonpayable",
      "type": "function"
    }
  ],
  "bytecode": "0x60806040526012600860006101000a81548160ff021916908360ff16021790555069d3c21bcecceda10000006012556000601960146101000a81548160ff0219169083151502179055503480156200005657600080fd5b506040516200586a3803806200586a83398181016040528101906200007c919062000938565b8260079080519060200190620000949291906200081f565b5081600b60006101000a81548173ffffffffffffffffffffffffffffffffffffffff021916908373ffffffffffffffffffffffffffffffffffffffff16021790555080600c60006101000a81548173ffffffffffffffffffffffffffffffffffffffff021916908373ffffffffffffffffffffffffffffffffffffffff1602179055506200013b6000801b6200012f6200037c60201b60201c565b6200038460201b60201c565b6200014b6200037c60201b60201c565b601960006101000a81548173ffffffffffffffffffffffffffffffffffffffff021916908373ffffffffffffffffffffffffffffffffffffffff1602179055506009600b60009054906101000a900473ffffffffffffffffffffffffffffffffffffffff169080600181540180825580915050600190039060005260206000200160009091909190916101000a81548173ffffffffffffffffffffffffffffffffffffffff021916908373ffffffffffffffffffffffffffffffffffffffff1602179055506009600c60009054906101000a900473ffffffffffffffffffffffffffffffffffffffff169080600181540180825580915050600190039060005260206000200160009091909190916101000a81548173ffffffffffffffffffffffffffffffffffffffff021916908373ffffffffffffffffffffffffffffffffffffffff160217905550620002cb600b60009054906101000a900473ffffffffffffffffffffffffffffffffffffffff166012546200039a60201b60201c565b6200031f7fb25402418ad555013210365a422f9f1206b2dd00719998db06f8a1fbe014641b600b60009054906101000a900473ffffffffffffffffffffffffffffffffffffffff166200054960201b60201c565b620003737fb25402418ad555013210365a422f9f1206b2dd00719998db06f8a1fbe014641b600c60009054906101000a900473ffffffffffffffffffffffffffffffffffffffff166200054960201b60201c565b50505062000c21565b600033905090565b620003968282620005d860201b60201c565b5050565b600073ffffffffffffffffffffffffffffffffffffffff168273ffffffffffffffffffffffffffffffffffffffff1614156200040d576040517f08c379a0000000000000000000000000000000000000000000000000000000008152600401620004049062000ae8565b60405180910390fd5b62000421600083836200067c60201b60201c565b6200043d816002546200068160201b62002b9b1790919060201c565b6002819055506200049b816000808573ffffffffffffffffffffffffffffffffffffffff1673ffffffffffffffffffffffffffffffffffffffff168152602001908152602001600020546200068160201b62002b9b1790919060201c565b6000808473ffffffffffffffffffffffffffffffffffffffff1673ffffffffffffffffffffffffffffffffffffffff168152602001908152602001600020819055508173ffffffffffffffffffffffffffffffffffffffff16600073ffffffffffffffffffffffffffffffffffffffff167fddf252ad1be2c89b69c2b068fc378daa952ba7f163c4a11628f55a4df523b3ef836040516200053d919062000b0a565b60405180910390a35050565b620005806003600084815260200190815260200160002060020154620005746200037c60201b60201c565b620006d960201b60201c565b620005c2576040517f08c379a0000000000000000000000000000000000000000000000000000000008152600401620005b99062000aa4565b60405180910390fd5b620005d48282620005d860201b60201c565b5050565b6200060781600360008581526020019081526020016000206000016200071260201b62002bf01790919060201c565b1562000678576200061d6200037c60201b60201c565b73ffffffffffffffffffffffffffffffffffffffff168173ffffffffffffffffffffffffffffffffffffffff16837f2f8788117e7eff1d82e926ec794901d17c78024a50270940304540a733656f0d60405160405180910390a45b5050565b505050565b600080828401905083811015620006cf576040517f08c379a0000000000000000000000000000000000000000000000000000000008152600401620006c69062000ac6565b60405180910390fd5b8091505092915050565b60006200070a82600360008681526020019081526020016000206000016200074a60201b62002c201790919060201c565b905092915050565b600062000742836000018373ffffffffffffffffffffffffffffffffffffffff1660001b6200078260201b60201c565b905092915050565b60006200077a836000018373ffffffffffffffffffffffffffffffffffffffff1660001b620007fc60201b60201c565b905092915050565b6000620007968383620007fc60201b60201c565b620007f1578260000182908060018154018082558091505060019003906000526020600020016000909190919091505582600001805490508360010160008481526020019081526020016000208190555060019050620007f6565b600090505b92915050565b600080836001016000848152602001908152602001600020541415905092915050565b828054600181600116156101000203166002900490600052602060002090601f016020900481019282601f106200086257805160ff191683800117855562000893565b8280016001018555821562000893579182015b828111156200089257825182559160200191906001019062000875565b5b509050620008a29190620008a6565b5090565b5b80821115620008c1576000816000905550600101620008a7565b5090565b600081519050620008d68162000c07565b92915050565b600082601f830112620008ee57600080fd5b815162000905620008ff8262000b55565b62000b27565b915080825260208301602083018583830111156200092257600080fd5b6200092f83828462000bd1565b50505092915050565b6000806000606084860312156200094e57600080fd5b600084015167ffffffffffffffff8111156200096957600080fd5b6200097786828701620008dc565b93505060206200098a86828701620008c5565b92505060406200099d86828701620008c5565b9150509250925092565b6000620009b6602f8362000b82565b91507f416363657373436f6e74726f6c3a2073656e646572206d75737420626520616e60008301527f2061646d696e20746f206772616e7400000000000000000000000000000000006020830152604082019050919050565b600062000a1e601b8362000b82565b91507f536166654d6174683a206164646974696f6e206f766572666c6f7700000000006000830152602082019050919050565b600062000a60601f8362000b82565b91507f45524332303a206d696e7420746f20746865207a65726f2061646472657373006000830152602082019050919050565b62000a9e8162000bc7565b82525050565b6000602082019050818103600083015262000abf81620009a7565b9050919050565b6000602082019050818103600083015262000ae18162000a0f565b9050919050565b6000602082019050818103600083015262000b038162000a51565b9050919050565b600060208201905062000b21600083018462000a93565b92915050565b6000604051905081810181811067ffffffffffffffff8211171562000b4b57600080fd5b8060405250919050565b600067ffffffffffffffff82111562000b6d57600080fd5b601f19601f8301169050602081019050919050565b600082825260208201905092915050565b600062000ba08262000ba7565b9050919050565b600073ffffffffffffffffffffffffffffffffffffffff82169050919050565b6000819050919050565b60005b8381101562000bf157808201518184015260208101905062000bd4565b8381111562000c01576000848401525b50505050565b62000c128162000b93565b811462000c1e57600080fd5b50565b614c398062000c316000396000f3fe608060405234801561001057600080fd5b50600436106103835760003560e01c80639010d07c116101de578063c3bc89101161010f578063d547741f116100ad578063df56e1681161007c578063df56e16814610a5c578063e223e9a914610a80578063e7dced6714610a9c578063f2569dae14610aba57610383565b8063d547741f146109d6578063d914cd4b146109f2578063dc6663c714610a0e578063dd62ed3e14610a2c57610383565b8063ca65be0b116100e9578063ca65be0b14610960578063cb73999f1461097e578063ccfa52b61461099c578063d2d97b06146109b857610383565b8063c3bc8910146108f6578063c8fae1a514610912578063ca15c8731461093057610383565b8063a9059cbb1161017c578063b4db098011610156578063b4db098014610894578063b4f56b26146108b2578063bef40ec8146108ce578063c3355b8d146108d857610383565b8063a9059cbb1461082a578063afe92c1a1461085a578063b0fc69ce1461087657610383565b8063a0712d68116101b8578063a0712d68146107a4578063a217fddf146107c0578063a457c2d7146107de578063a8a778ae1461080e57610383565b80639010d07c1461072657806391d148541461075657806395d89b411461078657610383565b80633b7d0946116102b85780637065cb4811610256578063741d3c1811610230578063741d3c18146106b457806379cc6790146106d05780637dbc1df0146106ec57806387a140c31461070857610383565b80637065cb481461064a57806370a082311461066657806372b3cded1461069657610383565b80634bd0be23116102925780634bd0be23146105c057806351e238e3146105de57806354505517146105fc578063551894881461061a57610383565b80633b7d09461461057e5780634013124a1461059a57806342966c68146105a457610383565b8063248a9ca311610325578063313ce567116102ff578063313ce567146104f657806335467d5d1461051457806336568abe14610532578063395093511461054e57610383565b8063248a9ca31461048c5780632eb9771b146104bc5780632f2ff15d146104da57610383565b806318160ddd1161036157806318160ddd14610404578063238a47091461042257806323b872dd1461043e578063246126bd1461046e57610383565b8063025e7c2714610388578063095ea7b3146103b8578063173825d9146103e8575b600080fd5b6103a2600480360381019061039d9190613fd5565b610ad6565b6040516103af91906146ab565b60405180910390f35b6103d260048036038101906103cd9190613e93565b610b12565b6040516103df91906146ef565b60405180910390f35b61040260048036038101906103fd9190613ddf565b610b30565b005b61040c610cec565b6040516104199190614947565b60405180910390f35b61043c60048036038101906104379190613fd5565b610cf6565b005b61045860048036038101906104539190613e44565b610dd4565b60405161046591906146ef565b60405180910390f35b610476610ead565b60405161048391906146ab565b60405180910390f35b6104a660048036038101906104a19190613ecf565b610ed3565b6040516104b3919061470a565b60405180910390f35b6104c4610ef3565b6040516104d19190614947565b60405180910390f35b6104f460048036038101906104ef9190613ef8565b610ef9565b005b6104fe610f6d565b60405161050b91906149d1565b60405180910390f35b61051c610f80565b60405161052991906146ab565b60405180910390f35b61054c60048036038101906105479190613ef8565b610fa6565b005b61056860048036038101906105639190613e93565b611029565b60405161057591906146ef565b60405180910390f35b61059860048036038101906105939190613ddf565b6110dc565b005b6105a26112e7565b005b6105be60048036038101906105b99190613fd5565b611410565b005b6105c8611424565b6040516105d591906146ab565b60405180910390f35b6105e661144a565b6040516105f39190614947565b60405180910390f35b610604611450565b604051610611919061470a565b60405180910390f35b610634600480360381019061062f9190613ddf565b611474565b60405161064191906146ef565b60405180910390f35b610664600480360381019061065f9190613ddf565b611494565b005b610680600480360381019061067b9190613ddf565b6115ce565b60405161068d9190614947565b60405180910390f35b61069e611616565b6040516106ab91906146ab565b60405180910390f35b6106ce60048036038101906106c99190613ddf565b61163c565b005b6106ea60048036038101906106e59190613e93565b611871565b005b61070660048036038101906107019190613fd5565b6118d3565b005b6107106119b1565b60405161071d91906146ef565b60405180910390f35b610740600480360381019061073b9190613f34565b6119c4565b60405161074d91906146ab565b60405180910390f35b610770600480360381019061076b9190613ef8565b6119f6565b60405161077d91906146ef565b60405180910390f35b61078e611a28565b60405161079b9190614725565b60405180910390f35b6107be60048036038101906107b99190613fd5565b611ac6565b005b6107c8611ba7565b6040516107d5919061470a565b60405180910390f35b6107f860048036038101906107f39190613e93565b611bae565b60405161080591906146ef565b60405180910390f35b61082860048036038101906108239190613e93565b611c7b565b005b610844600480360381019061083f9190613e93565b611d81565b60405161085191906146ef565b60405180910390f35b610874600480360381019061086f9190613e08565b611d9f565b005b61087e611f3a565b60405161088b91906146ab565b60405180910390f35b61089c611f60565b6040516108a99190614947565b60405180910390f35b6108cc60048036038101906108c79190613e93565b611f71565b005b6108d6612012565b005b6108e0612071565b6040516108ed9190614947565b60405180910390f35b610910600480360381019061090b9190613ddf565b612077565b005b61091a61218f565b60405161092791906146ab565b60405180910390f35b61094a60048036038101906109459190613ecf565b6121b5565b6040516109579190614947565b60405180910390f35b6109686121dc565b60405161097591906146ab565b60405180910390f35b610986612202565b6040516109939190614947565b60405180910390f35b6109b660048036038101906109b19190613f70565b612208565b005b6109c061236a565b6040516109cd9190614947565b60405180910390f35b6109f060048036038101906109eb9190613ef8565b6124bb565b005b610a0c6004803603810190610a079190613ddf565b61252f565b005b610a166126c1565b604051610a2391906146ab565b60405180910390f35b610a466004803603810190610a419190613e08565b6126e7565b604051610a539190614947565b60405180910390f35b610a6461276e565b604051610a779796959493929190614962565b60405180910390f35b610a9a6004803603810190610a959190613e08565b6127bd565b005b610aa4612958565b604051610ab19190614947565b60405180910390f35b610ad46004803603810190610acf9190613f70565b612969565b005b60098181548110610ae357fe5b906000526020600020016000915054906101000a900473ffffffffffffffffffffffffffffffffffffffff1681565b6000610b26610b1f612c50565b8484612c58565b6001905092915050565b6000805b600980549050811015610bc2573373ffffffffffffffffffffffffffffffffffffffff1660098281548110610b6557fe5b9060005260206000200160009054906101000a900473ffffffffffffffffffffffffffffffffffffffff1673ffffffffffffffffffffffffffffffffffffffff161415610bb55760019150610bc2565b8080600101915050610b34565b5080610c03576040517f08c379a0000000000000000000000000000000000000000000000000000000008152600401610bfa90614867565b60405180910390fd5b60005b600980549050811015610ce7578273ffffffffffffffffffffffffffffffffffffffff1660098281548110610c3757fe5b9060005260206000200160009054906101000a900473ffffffffffffffffffffffffffffffffffffffff1673ffffffffffffffffffffffffffffffffffffffff161415610cda57600060098281548110610c8d57fe5b9060005260206000200160006101000a81548173ffffffffffffffffffffffffffffffffffffffff021916908373ffffffffffffffffffffffffffffffffffffffff160217905550610ce7565b8080600101915050610c06565b505050565b6000600254905090565b6000805b600980549050811015610d88573373ffffffffffffffffffffffffffffffffffffffff1660098281548110610d2b57fe5b9060005260206000200160009054906101000a900473ffffffffffffffffffffffffffffffffffffffff1673ffffffffffffffffffffffffffffffffffffffff161415610d7b5760019150610d88565b8080600101915050610cfa565b5080610dc9576040517f08c379a0000000000000000000000000000000000000000000000000000000008152600401610dc090614867565b60405180910390fd5b816018819055505050565b6000610de1848484612e23565b610ea284610ded612c50565b610e9d85604051806060016040528060288152602001614b9360289139600160008b73ffffffffffffffffffffffffffffffffffffffff1673ffffffffffffffffffffffffffffffffffffffff1681526020019081526020016000206000610e53612c50565b73ffffffffffffffffffffffffffffffffffffffff1673ffffffffffffffffffffffffffffffffffffffff168152602001908152602001600020546130b89092919063ffffffff16565b612c58565b600190509392505050565b601060009054906101000a900473ffffffffffffffffffffffffffffffffffffffff1681565b600060036000838152602001908152602001600020600201549050919050565b60165481565b610f206003600084815260200190815260200160002060020154610f1b612c50565b6119f6565b610f5f576040517f08c379a0000000000000000000000000000000000000000000000000000000008152600401610f5690614787565b60405180910390fd5b610f698282613113565b5050565b600860009054906101000a900460ff1681565b601960009054906101000a900473ffffffffffffffffffffffffffffffffffffffff1681565b610fae612c50565b73ffffffffffffffffffffffffffffffffffffffff168173ffffffffffffffffffffffffffffffffffffffff161461101b576040517f08c379a000000000000000000000000000000000000000000000000000000000815260040161101290614907565b60405180910390fd5b61102582826131a7565b5050565b60006110d2611036612c50565b846110cd8560016000611047612c50565b73ffffffffffffffffffffffffffffffffffffffff1673ffffffffffffffffffffffffffffffffffffffff16815260200190815260200160002060008973ffffffffffffffffffffffffffffffffffffffff1673ffffffffffffffffffffffffffffffffffffffff16815260200190815260200160002054612b9b90919063ffffffff16565b612c58565b6001905092915050565b6000805b60098054905081101561116e573373ffffffffffffffffffffffffffffffffffffffff166009828154811061111157fe5b9060005260206000200160009054906101000a900473ffffffffffffffffffffffffffffffffffffffff1673ffffffffffffffffffffffffffffffffffffffff161415611161576001915061116e565b80806001019150506110e0565b50806111af576040517f08c379a00000000000000000000000000000000000000000000000000000000081526004016111a690614867565b60405180910390fd5b601560008373ffffffffffffffffffffffffffffffffffffffff1673ffffffffffffffffffffffffffffffffffffffff16815260200190815260200160002060006101000a81549060ff021916905560005b6014805490508110156112e2578273ffffffffffffffffffffffffffffffffffffffff166014828154811061123257fe5b9060005260206000200160009054906101000a900473ffffffffffffffffffffffffffffffffffffffff1673ffffffffffffffffffffffffffffffffffffffff1614156112d55760006014828154811061128857fe5b9060005260206000200160006101000a81548173ffffffffffffffffffffffffffffffffffffffff021916908373ffffffffffffffffffffffffffffffffffffffff1602179055506112e2565b8080600101915050611201565b505050565b60001515601960149054906101000a900460ff1615151461133d576040517f08c379a0000000000000000000000000000000000000000000000000000000008152600401611334906148e7565b60405180910390fd5b610e10601a5442031015801561135d5750620f424061135a611f60565b14155b61136657600080fd5b600061137061236a565b90506000808214156113855760009050611405565b6113b4611390610cec565b6113a6620f42408561323b90919063ffffffff16565b6132ab90919063ffffffff16565b9050620f42406113c2611f60565b11156113e8576113dd611388826132f590919063ffffffff16565b601681905550611404565b6113fd61138882612b9b90919063ffffffff16565b6016819055505b5b42601a819055505050565b61142161141b612c50565b8261333f565b50565b600b60009054906101000a900473ffffffffffffffffffffffffffffffffffffffff1681565b60125481565b7fb25402418ad555013210365a422f9f1206b2dd00719998db06f8a1fbe014641b81565b60156020528060005260406000206000915054906101000a900460ff1681565b6000805b600980549050811015611526573373ffffffffffffffffffffffffffffffffffffffff16600982815481106114c957fe5b9060005260206000200160009054906101000a900473ffffffffffffffffffffffffffffffffffffffff1673ffffffffffffffffffffffffffffffffffffffff1614156115195760019150611526565b8080600101915050611498565b5080611567576040517f08c379a000000000000000000000000000000000000000000000000000000000815260040161155e90614867565b60405180910390fd5b6009829080600181540180825580915050600190039060005260206000200160009091909190916101000a81548173ffffffffffffffffffffffffffffffffffffffff021916908373ffffffffffffffffffffffffffffffffffffffff1602179055505050565b60008060008373ffffffffffffffffffffffffffffffffffffffff1673ffffffffffffffffffffffffffffffffffffffff168152602001908152602001600020549050919050565b600e60009054906101000a900473ffffffffffffffffffffffffffffffffffffffff1681565b6000805b6009805490508110156116ce573373ffffffffffffffffffffffffffffffffffffffff166009828154811061167157fe5b9060005260206000200160009054906101000a900473ffffffffffffffffffffffffffffffffffffffff1673ffffffffffffffffffffffffffffffffffffffff1614156116c157600191506116ce565b8080600101915050611640565b508061170f576040517f08c379a000000000000000000000000000000000000000000000000000000000815260040161170690614867565b60405180910390fd5b81601160006101000a81548173ffffffffffffffffffffffffffffffffffffffff021916908373ffffffffffffffffffffffffffffffffffffffff160217905550601160009054906101000a900473ffffffffffffffffffffffffffffffffffffffff16600460016101000a81548173ffffffffffffffffffffffffffffffffffffffff021916908373ffffffffffffffffffffffffffffffffffffffff160217905550600460019054906101000a900473ffffffffffffffffffffffffffffffffffffffff1673ffffffffffffffffffffffffffffffffffffffff1663f0141d846040518163ffffffff1660e01b815260040160206040518083038186803b15801561181b57600080fd5b505afa15801561182f573d6000803e3d6000fd5b505050506040513d601f19601f820116820180604052508101906118539190614027565b600460156101000a81548160ff021916908360ff1602179055505050565b60006118b082604051806060016040528060248152602001614bbb602491396118a18661189c612c50565b6126e7565b6130b89092919063ffffffff16565b90506118c4836118be612c50565b83612c58565b6118ce838361333f565b505050565b6000805b600980549050811015611965573373ffffffffffffffffffffffffffffffffffffffff166009828154811061190857fe5b9060005260206000200160009054906101000a900473ffffffffffffffffffffffffffffffffffffffff1673ffffffffffffffffffffffffffffffffffffffff1614156119585760019150611965565b80806001019150506118d7565b50806119a6576040517f08c379a000000000000000000000000000000000000000000000000000000000815260040161199d90614867565b60405180910390fd5b816017819055505050565b601960149054906101000a900460ff1681565b60006119ee82600360008681526020019081526020016000206000016134ed90919063ffffffff16565b905092915050565b6000611a208260036000868152602001908152602001600020600001612c2090919063ffffffff16565b905092915050565b60078054600181600116156101000203166002900480601f016020809104026020016040519081016040528092919081815260200182805460018160011615610100020316600290048015611abe5780601f10611a9357610100808354040283529160200191611abe565b820191906000526020600020905b815481529060010190602001808311611aa157829003601f168201915b505050505081565b6000805b600980549050811015611b58573373ffffffffffffffffffffffffffffffffffffffff1660098281548110611afb57fe5b9060005260206000200160009054906101000a900473ffffffffffffffffffffffffffffffffffffffff1673ffffffffffffffffffffffffffffffffffffffff161415611b4b5760019150611b58565b8080600101915050611aca565b5080611b99576040517f08c379a0000000000000000000000000000000000000000000000000000000008152600401611b9090614867565b60405180910390fd5b611ba33383613507565b5050565b6000801b81565b6000611c71611bbb612c50565b84611c6c85604051806060016040528060258152602001614bdf6025913960016000611be5612c50565b73ffffffffffffffffffffffffffffffffffffffff1673ffffffffffffffffffffffffffffffffffffffff16815260200190815260200160002060008a73ffffffffffffffffffffffffffffffffffffffff1673ffffffffffffffffffffffffffffffffffffffff168152602001908152602001600020546130b89092919063ffffffff16565b612c58565b6001905092915050565b60011515601560003373ffffffffffffffffffffffffffffffffffffffff1673ffffffffffffffffffffffffffffffffffffffff16815260200190815260200160002060009054906101000a900460ff16151514611d0e576040517f08c379a0000000000000000000000000000000000000000000000000000000008152600401611d0590614827565b60405180910390fd5b611d18828261369b565b3373ffffffffffffffffffffffffffffffffffffffff168273ffffffffffffffffffffffffffffffffffffffff167ffead881ad94a58eeaebfdbce8eeb9906a0f42f0c896bab64a6ad08371608131a83604051611d759190614947565b60405180910390a35050565b6000611d95611d8e612c50565b8484612e23565b6001905092915050565b6000805b600980549050811015611e31573373ffffffffffffffffffffffffffffffffffffffff1660098281548110611dd457fe5b9060005260206000200160009054906101000a900473ffffffffffffffffffffffffffffffffffffffff1673ffffffffffffffffffffffffffffffffffffffff161415611e245760019150611e31565b8080600101915050611da3565b5080611e72576040517f08c379a0000000000000000000000000000000000000000000000000000000008152600401611e6990614867565b60405180910390fd5b82600f60006101000a81548173ffffffffffffffffffffffffffffffffffffffff021916908373ffffffffffffffffffffffffffffffffffffffff16021790555082600660006101000a81548173ffffffffffffffffffffffffffffffffffffffff021916908373ffffffffffffffffffffffffffffffffffffffff16021790555081601060006101000a81548173ffffffffffffffffffffffffffffffffffffffff021916908373ffffffffffffffffffffffffffffffffffffffff160217905550505050565b601160009054906101000a900473ffffffffffffffffffffffffffffffffffffffff1681565b6000611f6c600061376a565b905090565b60011515601560003373ffffffffffffffffffffffffffffffffffffffff1673ffffffffffffffffffffffffffffffffffffffff16815260200190815260200160002060009054906101000a900460ff16151514612004576040517f08c379a0000000000000000000000000000000000000000000000000000000008152600401611ffb90614827565b60405180910390fd5b61200e8282613507565b5050565b61203c7fb25402418ad555013210365a422f9f1206b2dd00719998db06f8a1fbe014641b336119f6565b61204557600080fd5b601960149054906101000a900460ff1615601960146101000a81548160ff021916908315150217905550565b60185481565b6000805b600980549050811015612109573373ffffffffffffffffffffffffffffffffffffffff16600982815481106120ac57fe5b9060005260206000200160009054906101000a900473ffffffffffffffffffffffffffffffffffffffff1673ffffffffffffffffffffffffffffffffffffffff1614156120fc5760019150612109565b808060010191505061207b565b508061214a576040517f08c379a000000000000000000000000000000000000000000000000000000000815260040161214190614867565b60405180910390fd5b81600d60006101000a81548173ffffffffffffffffffffffffffffffffffffffff021916908373ffffffffffffffffffffffffffffffffffffffff1602179055505050565b600d60009054906101000a900473ffffffffffffffffffffffffffffffffffffffff1681565b60006121d560036000848152602001908152602001600020600001613aa8565b9050919050565b600f60009054906101000a900473ffffffffffffffffffffffffffffffffffffffff1681565b60175481565b6000805b60098054905081101561229a573373ffffffffffffffffffffffffffffffffffffffff166009828154811061223d57fe5b9060005260206000200160009054906101000a900473ffffffffffffffffffffffffffffffffffffffff1673ffffffffffffffffffffffffffffffffffffffff16141561228d576001915061229a565b808060010191505061220c565b50806122db576040517f08c379a00000000000000000000000000000000000000000000000000000000081526004016122d290614867565b60405180910390fd5b601360008460018111156122eb57fe5b60018111156122f657fe5b8152602001908152602001600020829080600181540180825580915050600190039060005260206000200160009091909190916101000a81548173ffffffffffffffffffffffffffffffffffffffff021916908373ffffffffffffffffffffffffffffffffffffffff160217905550505050565b6000806000905060005b6014805490508110156124b357600073ffffffffffffffffffffffffffffffffffffffff16601482815481106123a657fe5b9060005260206000200160009054906101000a900473ffffffffffffffffffffffffffffffffffffffff1673ffffffffffffffffffffffffffffffffffffffff16146124a657601481815481106123f957fe5b9060005260206000200160009054906101000a900473ffffffffffffffffffffffffffffffffffffffff1673ffffffffffffffffffffffffffffffffffffffff166317284c946040518163ffffffff1660e01b815260040160206040518083038186803b15801561246957600080fd5b505afa15801561247d573d6000803e3d6000fd5b505050506040513d601f19601f820116820180604052508101906124a19190613ffe565b820191505b8080600101915050612374565b508091505090565b6124e260036000848152602001908152602001600020600201546124dd612c50565b6119f6565b612521576040517f08c379a000000000000000000000000000000000000000000000000000000000815260040161251890614807565b60405180910390fd5b61252b82826131a7565b5050565b6000805b6009805490508110156125c1573373ffffffffffffffffffffffffffffffffffffffff166009828154811061256457fe5b9060005260206000200160009054906101000a900473ffffffffffffffffffffffffffffffffffffffff1673ffffffffffffffffffffffffffffffffffffffff1614156125b457600191506125c1565b8080600101915050612533565b5080612602576040517f08c379a00000000000000000000000000000000000000000000000000000000081526004016125f990614867565b60405180910390fd5b6001601560008473ffffffffffffffffffffffffffffffffffffffff1673ffffffffffffffffffffffffffffffffffffffff16815260200190815260200160002060006101000a81548160ff0219169083151502179055506014829080600181540180825580915050600190039060005260206000200160009091909190916101000a81548173ffffffffffffffffffffffffffffffffffffffff021916908373ffffffffffffffffffffffffffffffffffffffff1602179055505050565b600c60009054906101000a900473ffffffffffffffffffffffffffffffffffffffff1681565b6000600160008473ffffffffffffffffffffffffffffffffffffffff1673ffffffffffffffffffffffffffffffffffffffff16815260200190815260200160002060008373ffffffffffffffffffffffffffffffffffffffff1673ffffffffffffffffffffffffffffffffffffffff16815260200190815260200160002054905092915050565b6000806000806000806000612783600061376a565b61278d600161376a565b612795610cec565b6016546127a061236a565b601854601754965096509650965096509650965090919293949596565b6000805b60098054905081101561284f573373ffffffffffffffffffffffffffffffffffffffff16600982815481106127f257fe5b9060005260206000200160009054906101000a900473ffffffffffffffffffffffffffffffffffffffff1673ffffffffffffffffffffffffffffffffffffffff161415612842576001915061284f565b80806001019150506127c1565b5080612890576040517f08c379a000000000000000000000000000000000000000000000000000000000815260040161288790614867565b60405180910390fd5b82600e60006101000a81548173ffffffffffffffffffffffffffffffffffffffff021916908373ffffffffffffffffffffffffffffffffffffffff16021790555082600560006101000a81548173ffffffffffffffffffffffffffffffffffffffff021916908373ffffffffffffffffffffffffffffffffffffffff16021790555081601060006101000a81548173ffffffffffffffffffffffffffffffffffffffff021916908373ffffffffffffffffffffffffffffffffffffffff160217905550505050565b6000612964600161376a565b905090565b6000805b6009805490508110156129fb573373ffffffffffffffffffffffffffffffffffffffff166009828154811061299e57fe5b9060005260206000200160009054906101000a900473ffffffffffffffffffffffffffffffffffffffff1673ffffffffffffffffffffffffffffffffffffffff1614156129ee57600191506129fb565b808060010191505061296d565b5080612a3c576040517f08c379a0000000000000000000000000000000000000000000000000000000008152600401612a3390614867565b60405180910390fd5b60005b60136000856001811115612a4f57fe5b6001811115612a5a57fe5b815260200190815260200160002080549050811015612b95578273ffffffffffffffffffffffffffffffffffffffff1660136000866001811115612a9a57fe5b6001811115612aa557fe5b81526020019081526020016000208281548110612abe57fe5b9060005260206000200160009054906101000a900473ffffffffffffffffffffffffffffffffffffffff1673ffffffffffffffffffffffffffffffffffffffff161415612b8857600060136000866001811115612b1757fe5b6001811115612b2257fe5b81526020019081526020016000208281548110612b3b57fe5b9060005260206000200160006101000a81548173ffffffffffffffffffffffffffffffffffffffff021916908373ffffffffffffffffffffffffffffffffffffffff160217905550612b95565b8080600101915050612a3f565b50505050565b600080828401905083811015612be6576040517f08c379a0000000000000000000000000000000000000000000000000000000008152600401612bdd906147e7565b60405180910390fd5b8091505092915050565b6000612c18836000018373ffffffffffffffffffffffffffffffffffffffff1660001b613abd565b905092915050565b6000612c48836000018373ffffffffffffffffffffffffffffffffffffffff1660001b613b2d565b905092915050565b600033905090565b600073ffffffffffffffffffffffffffffffffffffffff168373ffffffffffffffffffffffffffffffffffffffff161415612cc8576040517f08c379a0000000000000000000000000000000000000000000000000000000008152600401612cbf906148c7565b60405180910390fd5b600073ffffffffffffffffffffffffffffffffffffffff168273ffffffffffffffffffffffffffffffffffffffff161415612d38576040517f08c379a0000000000000000000000000000000000000000000000000000000008152600401612d2f906147c7565b60405180910390fd5b80600160008573ffffffffffffffffffffffffffffffffffffffff1673ffffffffffffffffffffffffffffffffffffffff16815260200190815260200160002060008473ffffffffffffffffffffffffffffffffffffffff1673ffffffffffffffffffffffffffffffffffffffff168152602001908152602001600020819055508173ffffffffffffffffffffffffffffffffffffffff168373ffffffffffffffffffffffffffffffffffffffff167f8c5be1e5ebec7d5bd14f71427d1e84f3dd0314c0f7b2291e5b200ac8c7c3b92583604051612e169190614947565b60405180910390a3505050565b600073ffffffffffffffffffffffffffffffffffffffff168373ffffffffffffffffffffffffffffffffffffffff161415612e93576040517f08c379a0000000000000000000000000000000000000000000000000000000008152600401612e8a906148a7565b60405180910390fd5b600073ffffffffffffffffffffffffffffffffffffffff168273ffffffffffffffffffffffffffffffffffffffff161415612f03576040517f08c379a0000000000000000000000000000000000000000000000000000000008152600401612efa90614767565b60405180910390fd5b612f0e838383613b50565b612f7981604051806060016040528060268152602001614b6d602691396000808773ffffffffffffffffffffffffffffffffffffffff1673ffffffffffffffffffffffffffffffffffffffff168152602001908152602001600020546130b89092919063ffffffff16565b6000808573ffffffffffffffffffffffffffffffffffffffff1673ffffffffffffffffffffffffffffffffffffffff1681526020019081526020016000208190555061300c816000808573ffffffffffffffffffffffffffffffffffffffff1673ffffffffffffffffffffffffffffffffffffffff16815260200190815260200160002054612b9b90919063ffffffff16565b6000808473ffffffffffffffffffffffffffffffffffffffff1673ffffffffffffffffffffffffffffffffffffffff168152602001908152602001600020819055508173ffffffffffffffffffffffffffffffffffffffff168373ffffffffffffffffffffffffffffffffffffffff167fddf252ad1be2c89b69c2b068fc378daa952ba7f163c4a11628f55a4df523b3ef836040516130ab9190614947565b60405180910390a3505050565b6000838311158290613100576040517f08c379a00000000000000000000000000000000000000000000000000000000081526004016130f79190614725565b60405180910390fd5b5060008385039050809150509392505050565b61313b8160036000858152602001908152602001600020600001612bf090919063ffffffff16565b156131a357613148612c50565b73ffffffffffffffffffffffffffffffffffffffff168173ffffffffffffffffffffffffffffffffffffffff16837f2f8788117e7eff1d82e926ec794901d17c78024a50270940304540a733656f0d60405160405180910390a45b5050565b6131cf8160036000858152602001908152602001600020600001613b5590919063ffffffff16565b15613237576131dc612c50565b73ffffffffffffffffffffffffffffffffffffffff168173ffffffffffffffffffffffffffffffffffffffff16837ff6391f5c32d9c69d2a47ea670b442974b53935d1edc7fd64eb21e047a839171b60405160405180910390a45b5050565b60008083141561324e57600090506132a5565b600082840290508284828161325f57fe5b04146132a0576040517f08c379a000000000000000000000000000000000000000000000000000000000815260040161329790614847565b60405180910390fd5b809150505b92915050565b60006132ed83836040518060400160405280601a81526020017f536166654d6174683a206469766973696f6e206279207a65726f000000000000815250613b85565b905092915050565b600061333783836040518060400160405280601e81526020017f536166654d6174683a207375627472616374696f6e206f766572666c6f7700008152506130b8565b905092915050565b600073ffffffffffffffffffffffffffffffffffffffff168273ffffffffffffffffffffffffffffffffffffffff1614156133af576040517f08c379a00000000000000000000000000000000000000000000000000000000081526004016133a690614887565b60405180910390fd5b6133bb82600083613b50565b61342681604051806060016040528060228152602001614b4b602291396000808673ffffffffffffffffffffffffffffffffffffffff1673ffffffffffffffffffffffffffffffffffffffff168152602001908152602001600020546130b89092919063ffffffff16565b6000808473ffffffffffffffffffffffffffffffffffffffff1673ffffffffffffffffffffffffffffffffffffffff1681526020019081526020016000208190555061347d816002546132f590919063ffffffff16565b600281905550600073ffffffffffffffffffffffffffffffffffffffff168273ffffffffffffffffffffffffffffffffffffffff167fddf252ad1be2c89b69c2b068fc378daa952ba7f163c4a11628f55a4df523b3ef836040516134e19190614947565b60405180910390a35050565b60006134fc8360000183613be6565b60001c905092915050565b600073ffffffffffffffffffffffffffffffffffffffff168273ffffffffffffffffffffffffffffffffffffffff161415613577576040517f08c379a000000000000000000000000000000000000000000000000000000000815260040161356e90614927565b60405180910390fd5b61358360008383613b50565b61359881600254612b9b90919063ffffffff16565b6002819055506135ef816000808573ffffffffffffffffffffffffffffffffffffffff1673ffffffffffffffffffffffffffffffffffffffff16815260200190815260200160002054612b9b90919063ffffffff16565b6000808473ffffffffffffffffffffffffffffffffffffffff1673ffffffffffffffffffffffffffffffffffffffff168152602001908152602001600020819055508173ffffffffffffffffffffffffffffffffffffffff16600073ffffffffffffffffffffffffffffffffffffffff167fddf252ad1be2c89b69c2b068fc378daa952ba7f163c4a11628f55a4df523b3ef8360405161368f9190614947565b60405180910390a35050565b6136a5828261333f565b613766826136b1612c50565b61376184604051806060016040528060248152602001614bbb60249139600160008973ffffffffffffffffffffffffffffffffffffffff1673ffffffffffffffffffffffffffffffffffffffff1681526020019081526020016000206000613717612c50565b73ffffffffffffffffffffffffffffffffffffffff1673ffffffffffffffffffffffffffffffffffffffff168152602001908152602001600020546130b89092919063ffffffff16565b612c58565b5050565b600080613849600460159054906101000a900460ff1660ff16600a0a61383b620f4240600460019054906101000a900473ffffffffffffffffffffffffffffffffffffffff1673ffffffffffffffffffffffffffffffffffffffff16638e15f4736040518163ffffffff1660e01b815260040160206040518083038186803b1580156137f557600080fd5b505afa158015613809573d6000803e3d6000fd5b505050506040513d601f19601f8201168201806040525081019061382d9190613fac565b61323b90919063ffffffff16565b6132ab90919063ffffffff16565b9050600080600181111561385957fe5b84600181111561386557fe5b141561394457600560009054906101000a900473ffffffffffffffffffffffffffffffffffffffff1673ffffffffffffffffffffffffffffffffffffffff16633ddac953601060009054906101000a900473ffffffffffffffffffffffffffffffffffffffff16620f42406040518363ffffffff1660e01b81526004016138ed9291906146c6565b60206040518083038186803b15801561390557600080fd5b505afa158015613919573d6000803e3d6000fd5b505050506040513d601f19601f8201168201806040525081019061393d9190613ffe565b9050613a77565b60018081111561395057fe5b84600181111561395c57fe5b1415613a3b57600660009054906101000a900473ffffffffffffffffffffffffffffffffffffffff1673ffffffffffffffffffffffffffffffffffffffff16633ddac953601060009054906101000a900473ffffffffffffffffffffffffffffffffffffffff16620f42406040518363ffffffff1660e01b81526004016139e49291906146c6565b60206040518083038186803b1580156139fc57600080fd5b505afa158015613a10573d6000803e3d6000fd5b505050506040513d601f19601f82011682018060405250810190613a349190613ffe565b9050613a76565b6040517f08c379a0000000000000000000000000000000000000000000000000000000008152600401613a6d906147a7565b60405180910390fd5b5b613a9f82613a91620f42408461323b90919063ffffffff16565b6132ab90919063ffffffff16565b92505050919050565b6000613ab682600001613c53565b9050919050565b6000613ac98383613b2d565b613b22578260000182908060018154018082558091505060019003906000526020600020016000909190919091505582600001805490508360010160008481526020019081526020016000208190555060019050613b27565b600090505b92915050565b600080836001016000848152602001908152602001600020541415905092915050565b505050565b6000613b7d836000018373ffffffffffffffffffffffffffffffffffffffff1660001b613c64565b905092915050565b60008083118290613bcc576040517f08c379a0000000000000000000000000000000000000000000000000000000008152600401613bc39190614725565b60405180910390fd5b506000838581613bd857fe5b049050809150509392505050565b600081836000018054905011613c31576040517f08c379a0000000000000000000000000000000000000000000000000000000008152600401613c2890614747565b60405180910390fd5b826000018281548110613c4057fe5b9060005260206000200154905092915050565b600081600001805490509050919050565b60008083600101600084815260200190815260200160002054905060008114613d405760006001820390506000600186600001805490500390506000866000018281548110613caf57fe5b9060005260206000200154905080876000018481548110613ccc57fe5b9060005260206000200181905550600183018760010160008381526020019081526020016000208190555086600001805480613d0457fe5b60019003818190600052602060002001600090559055866001016000878152602001908152602001600020600090556001945050505050613d46565b60009150505b92915050565b600081359050613d5b81614ac7565b92915050565b600081359050613d7081614ade565b92915050565b600081359050613d8581614af5565b92915050565b600081519050613d9a81614b05565b92915050565b600081359050613daf81614b1c565b92915050565b600081519050613dc481614b1c565b92915050565b600081519050613dd981614b33565b92915050565b600060208284031215613df157600080fd5b6000613dff84828501613d4c565b91505092915050565b60008060408385031215613e1b57600080fd5b6000613e2985828601613d4c565b9250506020613e3a85828601613d4c565b9150509250929050565b600080600060608486031215613e5957600080fd5b6000613e6786828701613d4c565b9350506020613e7886828701613d4c565b9250506040613e8986828701613da0565b9150509250925092565b60008060408385031215613ea657600080fd5b6000613eb485828601613d4c565b9250506020613ec585828601613da0565b9150509250929050565b600060208284031215613ee157600080fd5b6000613eef84828501613d61565b91505092915050565b60008060408385031215613f0b57600080fd5b6000613f1985828601613d61565b9250506020613f2a85828601613d4c565b9150509250929050565b60008060408385031215613f4757600080fd5b6000613f5585828601613d61565b9250506020613f6685828601613da0565b9150509250929050565b60008060408385031215613f8357600080fd5b6000613f9185828601613d76565b9250506020613fa285828601613d4c565b9150509250929050565b600060208284031215613fbe57600080fd5b6000613fcc84828501613d8b565b91505092915050565b600060208284031215613fe757600080fd5b6000613ff584828501613da0565b91505092915050565b60006020828403121561401057600080fd5b600061401e84828501613db5565b91505092915050565b60006020828403121561403957600080fd5b600061404784828501613dca565b91505092915050565b61405981614a08565b82525050565b61406881614a1a565b82525050565b61407781614a26565b82525050565b61408681614a71565b82525050565b6000614097826149ec565b6140a181856149f7565b93506140b1818560208601614a83565b6140ba81614ab6565b840191505092915050565b60006140d26022836149f7565b91507f456e756d657261626c655365743a20696e646578206f7574206f6620626f756e60008301527f64730000000000000000000000000000000000000000000000000000000000006020830152604082019050919050565b60006141386023836149f7565b91507f45524332303a207472616e7366657220746f20746865207a65726f206164647260008301527f65737300000000000000000000000000000000000000000000000000000000006020830152604082019050919050565b600061419e602f836149f7565b91507f416363657373436f6e74726f6c3a2073656e646572206d75737420626520616e60008301527f2061646d696e20746f206772616e7400000000000000000000000000000000006020830152604082019050919050565b6000614204603c836149f7565b91507f494e56414c49442050524943452043484f4943452e204e6565647320746f206260008301527f6520656974686572203020284652415829206f722031202846585329000000006020830152604082019050919050565b600061426a6022836149f7565b91507f45524332303a20617070726f766520746f20746865207a65726f20616464726560008301527f73730000000000000000000000000000000000000000000000000000000000006020830152604082019050919050565b60006142d0601b836149f7565b91507f536166654d6174683a206164646974696f6e206f766572666c6f7700000000006000830152602082019050919050565b60006143106030836149f7565b91507f416363657373436f6e74726f6c3a2073656e646572206d75737420626520616e60008301527f2061646d696e20746f207265766f6b65000000000000000000000000000000006020830152604082019050919050565b60006143766021836149f7565b91507f4f6e6c79206672617820706f6f6c732063616e206d696e74206e65772046524160008301527f58000000000000000000000000000000000000000000000000000000000000006020830152604082019050919050565b60006143dc6021836149f7565b91507f536166654d6174683a206d756c7469706c69636174696f6e206f766572666c6f60008301527f77000000000000000000000000000000000000000000000000000000000000006020830152604082019050919050565b60006144426013836149f7565b91507f596f75277265206e6f7420616e206f776e6572000000000000000000000000006000830152602082019050919050565b60006144826021836149f7565b91507f45524332303a206275726e2066726f6d20746865207a65726f2061646472657360008301527f73000000000000000000000000000000000000000000000000000000000000006020830152604082019050919050565b60006144e86025836149f7565b91507f45524332303a207472616e736665722066726f6d20746865207a65726f20616460008301527f64726573730000000000000000000000000000000000000000000000000000006020830152604082019050919050565b600061454e6024836149f7565b91507f45524332303a20617070726f76652066726f6d20746865207a65726f2061646460008301527f72657373000000000000000000000000000000000000000000000000000000006020830152604082019050919050565b60006145b46020836149f7565b91507f436f6c6c61746572616c20526174696f20686173206265656e207061757365646000830152602082019050919050565b60006145f4602f836149f7565b91507f416363657373436f6e74726f6c3a2063616e206f6e6c792072656e6f756e636560008301527f20726f6c657320666f722073656c6600000000000000000000000000000000006020830152604082019050919050565b600061465a601f836149f7565b91507f45524332303a206d696e7420746f20746865207a65726f2061646472657373006000830152602082019050919050565b61469681614a5a565b82525050565b6146a581614a64565b82525050565b60006020820190506146c06000830184614050565b92915050565b60006040820190506146db6000830185614050565b6146e8602083018461407d565b9392505050565b6000602082019050614704600083018461405f565b92915050565b600060208201905061471f600083018461406e565b92915050565b6000602082019050818103600083015261473f818461408c565b905092915050565b60006020820190508181036000830152614760816140c5565b9050919050565b600060208201905081810360008301526147808161412b565b9050919050565b600060208201905081810360008301526147a081614191565b9050919050565b600060208201905081810360008301526147c0816141f7565b9050919050565b600060208201905081810360008301526147e08161425d565b9050919050565b60006020820190508181036000830152614800816142c3565b9050919050565b6000602082019050818103600083015261482081614303565b9050919050565b6000602082019050818103600083015261484081614369565b9050919050565b60006020820190508181036000830152614860816143cf565b9050919050565b6000602082019050818103600083015261488081614435565b9050919050565b600060208201905081810360008301526148a081614475565b9050919050565b600060208201905081810360008301526148c0816144db565b9050919050565b600060208201905081810360008301526148e081614541565b9050919050565b60006020820190508181036000830152614900816145a7565b9050919050565b60006020820190508181036000830152614920816145e7565b9050919050565b600060208201905081810360008301526149408161464d565b9050919050565b600060208201905061495c600083018461468d565b92915050565b600060e082019050614977600083018a61468d565b614984602083018961468d565b614991604083018861468d565b61499e606083018761468d565b6149ab608083018661468d565b6149b860a083018561468d565b6149c560c083018461468d565b98975050505050505050565b60006020820190506149e6600083018461469c565b92915050565b600081519050919050565b600082825260208201905092915050565b6000614a1382614a3a565b9050919050565b60008115159050919050565b6000819050919050565b6000819050919050565b600073ffffffffffffffffffffffffffffffffffffffff82169050919050565b6000819050919050565b600060ff82169050919050565b6000614a7c82614a5a565b9050919050565b60005b83811015614aa1578082015181840152602081019050614a86565b83811115614ab0576000848401525b50505050565b6000601f19601f8301169050919050565b614ad081614a08565b8114614adb57600080fd5b50565b614ae781614a26565b8114614af257600080fd5b50565b60028110614b0257600080fd5b50565b614b0e81614a30565b8114614b1957600080fd5b50565b614b2581614a5a565b8114614b3057600080fd5b50565b614b3c81614a64565b8114614b4757600080fd5b5056fe45524332303a206275726e20616d6f756e7420657863656564732062616c616e636545524332303a207472616e7366657220616d6f756e7420657863656564732062616c616e636545524332303a207472616e7366657220616d6f756e74206578636565647320616c6c6f77616e636545524332303a206275726e20616d6f756e74206578636565647320616c6c6f77616e636545524332303a2064656372656173656420616c6c6f77616e63652062656c6f77207a65726fa2646970667358221220fe0ae494100d5191884486b5b6186a40e871cb196ab9d09d75c9589743312aa164736f6c634300060c0033",
  "immutableReferences": {},
  "source": "// SPDX-License-Identifier: MIT\npragma solidity ^0.6.0 <0.7.0;\npragma experimental ABIEncoderV2;\n\nimport \"../Common/Context.sol\";\nimport \"../ERC20/IERC20.sol\";\nimport \"../ERC20/ERC20Custom.sol\";\nimport \"../ERC20/ERC20.sol\";\nimport \"../Math/SafeMath.sol\";\nimport \"../FXS/FXS.sol\";\nimport \"./Pools/FraxPool.sol\";\nimport \"../Oracle/UniswapPairOracle.sol\";\nimport \"../Oracle/ChainlinkETHUSDPriceConsumer.sol\";\nimport \"../Governance/AccessControl.sol\";\n\ncontract FRAXStablecoin is ERC20Custom, AccessControl {\n    using SafeMath for uint256;\n\n    /* ========== STATE VARIABLES ========== */\n    enum PriceChoice { FRAX, FXS }\n    PriceChoice price_choices;\n    ChainlinkETHUSDPriceConsumer eth_usd_pricer;\n    uint8 eth_usd_pricer_decimals;\n    UniswapPairOracle fraxEthOracle;\n    UniswapPairOracle fxsEthOracle;\n    string public symbol;\n    uint8 public decimals = 18;\n    address[] public owners;\n    address governance_address;\n    address public creator_address;\n    address public timelock_address;\n    address public fxs_address;\n    address public frax_eth_oracle_address;\n    address public fxs_eth_oracle_address;\n    address public weth_address;\n    address public eth_usd_consumer_address;\n    uint256 public genesis_supply = 1000000e18; // 1M. This is to help with establishing the Uniswap pools, as they need liquidity\n\n    mapping(PriceChoice => address[]) private stablecoin_oracles; // \n\n    // The addresses in this array are added by the oracle and these contracts are able to mint frax\n    address[] frax_pools_array;\n\n    // Mapping is also used for faster verification\n    mapping(address => bool) public frax_pools; \n    \n    uint256 public global_collateral_ratio; // 6 decimals of precision, e.g. 924102 = 0.924102\n    uint256 public redemption_fee; // 6 decimals of precision, divide by 1000000 in calculations for fee\n    uint256 public minting_fee; // 6 decimals of precision, divide by 1000000 in calculations for fee\n\n    address public DEFAULT_ADMIN_ADDRESS;\n    bytes32 public constant COLLATERAL_RATIO_PAUSER = keccak256(\"COLLATERAL_RATIO_PAUSER\");\n    bool public collateral_ratio_paused = false;\n\n    /* ========== MODIFIERS ========== */\n\n    modifier onlyCollateralRatioPauser() {\n        require(hasRole(COLLATERAL_RATIO_PAUSER, msg.sender));\n        _;\n    }\n\n    modifier onlyPools() {\n       require(frax_pools[msg.sender] == true, \"Only frax pools can mint new FRAX\");\n        _;\n    } \n    \n    modifier onlyByGovernance() {\n        require(msg.sender == governance_address, \"You're not the governance contract :p\");\n        _;\n    }\n\n    modifier onlyByOwnerOrGovernance() {\n        // Loop through the owners until one is found\n        bool found = false;\n        for (uint i = 0; i < owners.length; i++){ \n            if (owners[i] == msg.sender) {\n                found = true;\n                break;\n            }\n        }\n        require(found, \"You're not an owner\");\n        _;\n    }\n\n    /* ========== CONSTRUCTOR ========== */\n\n    constructor(\n        string memory _symbol,\n        address _creator_address,\n        address _timelock_address\n    ) public {\n        symbol = _symbol;\n        creator_address = _creator_address;\n        timelock_address = _timelock_address;\n        _setupRole(DEFAULT_ADMIN_ROLE, _msgSender());\n        DEFAULT_ADMIN_ADDRESS = _msgSender();\n        owners.push(creator_address);\n        owners.push(timelock_address);\n        _mint(creator_address, genesis_supply);\n        grantRole(COLLATERAL_RATIO_PAUSER, creator_address);\n        grantRole(COLLATERAL_RATIO_PAUSER, timelock_address);\n    }\n\n    /* ========== VIEWS ========== */\n\n    // Choice = 'FRAX' or 'FXS' for now\n    function oracle_price(PriceChoice choice) internal view returns (uint256) {\n        // Get the ETH / USD price first, and cut it down to 1e6 precision\n        uint256 eth_usd_price = uint256(eth_usd_pricer.getLatestPrice()).mul(1e6).div(uint256(10) ** eth_usd_pricer_decimals);\n        uint256 price_vs_eth;\n\n        if (choice == PriceChoice.FRAX) {\n            price_vs_eth = uint256(fraxEthOracle.consult(weth_address, 1e6));\n        }\n        else if (choice == PriceChoice.FXS) {\n            price_vs_eth = uint256(fxsEthOracle.consult(weth_address, 1e6));\n        }\n        else revert(\"INVALID PRICE CHOICE. Needs to be either 0 (FRAX) or 1 (FXS)\");\n\n        // Will be in 1e6 format\n        return price_vs_eth.mul(1e6).div(eth_usd_price);\n    }\n\n    // Returns X FRAX = 1 USD\n    function frax_price() public view returns (uint256) {\n        return oracle_price(PriceChoice.FRAX);\n    }\n\n    // Returns X FXS = 1 USD\n    function fxs_price()  public view returns (uint256) {\n        return oracle_price(PriceChoice.FXS);\n    }\n\n    // This is needed to avoid costly repeat calls to different getter functions\n    // It is cheaper gas-wise to just dump everything and only use some of the info\n    function frax_info() public view returns (uint256, uint256, uint256, uint256, uint256, uint256, uint256) {\n        return (\n            oracle_price(PriceChoice.FRAX), // frax_price()\n            oracle_price(PriceChoice.FXS), // fxs_price()\n            totalSupply(), // totalSupply()\n            global_collateral_ratio, // global_collateral_ratio()\n            globalCollateralValue(), // globalCollateralValue\n            minting_fee, // minting_fee()\n            redemption_fee // redemption_fee()\n        );\n    }\n\n    // Iterate through all frax pools and calculate all value of collateral in all pools globally \n    function globalCollateralValue() public view returns (uint256) {\n        uint256 total_collateral_value_d18 = 0; \n\n        for (uint i = 0; i < frax_pools_array.length; i++){ \n            // Exclude null addresses\n            if (frax_pools_array[i] != address(0)){\n                total_collateral_value_d18 += FraxPool(frax_pools_array[i]).collatDollarBalance();\n            }\n\n        }\n        return total_collateral_value_d18;\n    }\n\n    /* ========== PUBLIC FUNCTIONS ========== */\n    \n    // There needs to be a time interval that this can be called. Otherwise it can be called multiple times per expansion.\n    uint256 last_call_time; // Last time the refreshCollateralRatio function was called\n    function refreshCollateralRatio() public {\n        require(collateral_ratio_paused == false, \"Collateral Ratio has been paused\");\n        require(block.timestamp - last_call_time >= 3600 && frax_price() != 1000000);  // 3600 seconds means can be called once per hour, 86400 seconds is per day, callable only if FRAX price is not $1\n        \n        uint256 tot_collat_value =  globalCollateralValue();\n\n        // If tot_collat_value > totalSupply(), this will truncate to 0 and underflow below.\n        // Need to multiply by 1e6 to avoid this issue and divide by 1e6 later when used in other places\n        // uint256 globalC_ratio = (totalSupply().mul(1e6)).div(tot_collat_value); \n        uint256 globalC_ratio;\n        if (tot_collat_value == 0) globalC_ratio = 0;\n        else {\n            globalC_ratio = (tot_collat_value.mul(1e6)).div(totalSupply()); \n            \n            // Step increments are .5% \n            if (frax_price() > 1000000) {\n                global_collateral_ratio = globalC_ratio.sub(5000);\n            }    \n            else {\n                global_collateral_ratio = globalC_ratio.add(5000);\n            }\n        }\n\n\n        last_call_time = block.timestamp; // Set the time of the last expansion\n    }\n\n    /* ========== RESTRICTED FUNCTIONS ========== */\n\n    // Public implementation of internal _mint()\n    function mint(uint256 amount) public virtual onlyByOwnerOrGovernance {\n        _mint(msg.sender, amount);\n    }\n\n    // Used by pools when user redeems\n    function pool_burn_from(address b_address, uint256 b_amount) public onlyPools {\n        super._burnFrom(b_address, b_amount);\n        emit FRAXBurned(b_address, msg.sender, b_amount);\n    }\n\n    // This function is what other frax pools will call to mint new FRAX \n    function pool_mint(address m_address, uint256 m_amount) public onlyPools {\n        super._mint(m_address, m_amount);\n    }\n\n    // Adds collateral addresses supported, such as tether and busd, must be ERC20 \n    function addPool(address pool_address) public onlyByOwnerOrGovernance {\n        frax_pools[pool_address] = true; \n        frax_pools_array.push(pool_address);\n    }\n\n    // Remove a pool \n    function removePool(address pool_address) public onlyByOwnerOrGovernance {\n        // Delete from the mapping\n        delete frax_pools[pool_address];\n\n        // 'Delete' from the array by setting the address to 0x0\n        for (uint i = 0; i < frax_pools_array.length; i++){ \n            if (frax_pools_array[i] == pool_address) {\n                frax_pools_array[i] = address(0); // This will leave a null in the array and keep the indices the same\n                break;\n            }\n        }\n    }\n\n    // Adds a new stablecoin oracle \n    function addStablecoinOracle(PriceChoice choice, address oracle_address) public onlyByOwnerOrGovernance {\n        stablecoin_oracles[choice].push(oracle_address);\n    }\n\n    // Removes an oracle \n    function removeStablecoinOracle(PriceChoice choice, address oracle_address) public onlyByOwnerOrGovernance {\n        // 'Delete' from the array by setting the address to 0x0\n        for (uint i = 0; i < stablecoin_oracles[choice].length; i++){ \n            if (stablecoin_oracles[choice][i] == oracle_address) {\n                stablecoin_oracles[choice][i] = address(0); // This will leave a null in the array and keep the indices the same\n                break;\n            }\n        }\n    }\n\n    // Adds an owner \n    function addOwner(address owner_address) public onlyByOwnerOrGovernance {\n        owners.push(owner_address);\n    }\n\n    // Removes an owner \n    function removeOwner(address owner_address) public onlyByOwnerOrGovernance {\n        // 'Delete' from the array by setting the address to 0x0\n        for (uint i = 0; i < owners.length; i++){ \n            if (owners[i] == owner_address) {\n                owners[i] = address(0); // This will leave a null in the array and keep the indices the same\n                break;\n            }\n        }\n    }\n\n    function setRedemptionFee(uint256 red_fee) public onlyByOwnerOrGovernance {\n        redemption_fee = red_fee;\n    }\n\n    function setMintingFee(uint256 min_fee) public onlyByOwnerOrGovernance {\n        minting_fee = min_fee;\n    }  \n\n    function setFXSAddress(address _fxs_address) public onlyByOwnerOrGovernance {\n        fxs_address = _fxs_address;\n    }\n\n    function setETHUSDOracle(address _eth_usd_consumer_address) public onlyByOwnerOrGovernance {\n        eth_usd_consumer_address = _eth_usd_consumer_address;\n        eth_usd_pricer = ChainlinkETHUSDPriceConsumer(eth_usd_consumer_address);\n        eth_usd_pricer_decimals = eth_usd_pricer.getDecimals();\n    }\n\n    // Sets the FRAX_ETH Uniswap oracle address \n    function setFRAXEthOracle(address _frax_addr, address _weth_address) public onlyByOwnerOrGovernance {\n        frax_eth_oracle_address = _frax_addr;\n        fraxEthOracle = UniswapPairOracle(_frax_addr); \n        weth_address = _weth_address;\n    }\n\n    // Sets the FXS_ETH Uniswap oracle address \n    function setFXSEthOracle(address _fxs_addr, address _weth_address) public onlyByOwnerOrGovernance {\n        fxs_eth_oracle_address = _fxs_addr;\n        fxsEthOracle = UniswapPairOracle(_fxs_addr);\n        weth_address = _weth_address;\n    }\n\n    function toggleCollateralRatio() public onlyCollateralRatioPauser {\n        collateral_ratio_paused = !collateral_ratio_paused;\n    }\n\n    /* ========== EVENTS ========== */\n\n    // Track FXS burned\n    event FRAXBurned(address indexed from, address indexed to, uint256 amount);\n}\n",
  "sourcePath": "/home/travis/Documents/Ubuntu_Shared/frax-price-feed/src/truffle/contracts/Frax/Frax.sol",
  "compiler": {
    "name": "solc",
    "version": "0.6.12+commit.27d51765.Emscripten.clang"
  },
  "schemaVersion": "3.2.4",
  "updatedAt": "2020-10-08T23:05:58.494Z",
  "networkType": "ethereum",
  "devdoc": {
    "kind": "dev",
    "methods": {
      "allowance(address,address)": {
        "details": "See {IERC20-allowance}."
      },
      "approve(address,uint256)": {
        "details": "See {IERC20-approve}. Requirements: - `spender` cannot be the zero address.approve(address spender, uint256 amount)"
      },
      "balanceOf(address)": {
        "details": "See {IERC20-balanceOf}."
      },
      "burn(uint256)": {
        "details": "Destroys `amount` tokens from the caller. See {ERC20-_burn}."
      },
      "burnFrom(address,uint256)": {
        "details": "Destroys `amount` tokens from `account`, deducting from the caller's allowance. See {ERC20-_burn} and {ERC20-allowance}. Requirements: - the caller must have allowance for `accounts`'s tokens of at least `amount`."
      },
      "decreaseAllowance(address,uint256)": {
        "details": "Atomically decreases the allowance granted to `spender` by the caller. This is an alternative to {approve} that can be used as a mitigation for problems described in {IERC20-approve}. Emits an {Approval} event indicating the updated allowance. Requirements: - `spender` cannot be the zero address. - `spender` must have allowance for the caller of at least `subtractedValue`."
      },
      "getRoleAdmin(bytes32)": {
        "details": "Returns the admin role that controls `role`. See {grantRole} and {revokeRole}. To change a role's admin, use {_setRoleAdmin}."
      },
      "getRoleMember(bytes32,uint256)": {
        "details": "Returns one of the accounts that have `role`. `index` must be a value between 0 and {getRoleMemberCount}, non-inclusive. Role bearers are not sorted in any particular way, and their ordering may change at any point. WARNING: When using {getRoleMember} and {getRoleMemberCount}, make sure you perform all queries on the same block. See the following https://forum.openzeppelin.com/t/iterating-over-elements-on-enumerableset-in-openzeppelin-contracts/2296[forum post] for more information."
      },
      "getRoleMemberCount(bytes32)": {
        "details": "Returns the number of accounts that have `role`. Can be used together with {getRoleMember} to enumerate all bearers of a role."
      },
      "grantRole(bytes32,address)": {
        "details": "Grants `role` to `account`. If `account` had not been already granted `role`, emits a {RoleGranted} event. Requirements: - the caller must have ``role``'s admin role."
      },
      "hasRole(bytes32,address)": {
        "details": "Returns `true` if `account` has been granted `role`."
      },
      "increaseAllowance(address,uint256)": {
        "details": "Atomically increases the allowance granted to `spender` by the caller. This is an alternative to {approve} that can be used as a mitigation for problems described in {IERC20-approve}. Emits an {Approval} event indicating the updated allowance. Requirements: - `spender` cannot be the zero address."
      },
      "renounceRole(bytes32,address)": {
        "details": "Revokes `role` from the calling account. Roles are often managed via {grantRole} and {revokeRole}: this function's purpose is to provide a mechanism for accounts to lose their privileges if they are compromised (such as when a trusted device is misplaced). If the calling account had been granted `role`, emits a {RoleRevoked} event. Requirements: - the caller must be `account`."
      },
      "revokeRole(bytes32,address)": {
        "details": "Revokes `role` from `account`. If `account` had been granted `role`, emits a {RoleRevoked} event. Requirements: - the caller must have ``role``'s admin role."
      },
      "totalSupply()": {
        "details": "See {IERC20-totalSupply}."
      },
      "transfer(address,uint256)": {
        "details": "See {IERC20-transfer}. Requirements: - `recipient` cannot be the zero address. - the caller must have a balance of at least `amount`."
      },
      "transferFrom(address,address,uint256)": {
        "details": "See {IERC20-transferFrom}. Emits an {Approval} event indicating the updated allowance. This is not required by the EIP. See the note at the beginning of {ERC20}; Requirements: - `sender` and `recipient` cannot be the zero address. - `sender` must have a balance of at least `amount`. - the caller must have allowance for `sender`'s tokens of at least `amount`."
      }
    },
    "version": 1
  },
  "userdoc": {
    "kind": "user",
    "methods": {},
    "version": 1
  }
}