{
  "contractName": "FraxPool",
  "abi": [
    {
      "inputs": [
        {
          "internalType": "address",
          "name": "_collateral_address",
          "type": "address"
        },
        {
          "internalType": "address",
          "name": "_oracle_address",
          "type": "address"
        },
        {
          "internalType": "address",
          "name": "_creator_address",
          "type": "address"
        },
        {
          "internalType": "address",
          "name": "_timelock_address",
          "type": "address"
        },
        {
          "internalType": "uint256",
          "name": "_pool_ceiling",
          "type": "uint256"
        }
      ],
      "stateMutability": "nonpayable",
      "type": "constructor"
    },
    {
      "anonymous": false,
      "inputs": [
        {
          "indexed": true,
          "internalType": "bytes32",
          "name": "role",
          "type": "bytes32"
        },
        {
          "indexed": true,
          "internalType": "bytes32",
          "name": "previousAdminRole",
          "type": "bytes32"
        },
        {
          "indexed": true,
          "internalType": "bytes32",
          "name": "newAdminRole",
          "type": "bytes32"
        }
      ],
      "name": "RoleAdminChanged",
      "type": "event"
    },
    {
      "anonymous": false,
      "inputs": [
        {
          "indexed": true,
          "internalType": "bytes32",
          "name": "role",
          "type": "bytes32"
        },
        {
          "indexed": true,
          "internalType": "address",
          "name": "account",
          "type": "address"
        },
        {
          "indexed": true,
          "internalType": "address",
          "name": "sender",
          "type": "address"
        }
      ],
      "name": "RoleGranted",
      "type": "event"
    },
    {
      "anonymous": false,
      "inputs": [
        {
          "indexed": true,
          "internalType": "bytes32",
          "name": "role",
          "type": "bytes32"
        },
        {
          "indexed": true,
          "internalType": "address",
          "name": "account",
          "type": "address"
        },
        {
          "indexed": true,
          "internalType": "address",
          "name": "sender",
          "type": "address"
        }
      ],
      "name": "RoleRevoked",
      "type": "event"
    },
    {
      "inputs": [],
      "name": "DEFAULT_ADMIN_ROLE",
      "outputs": [
        {
          "internalType": "bytes32",
          "name": "",
          "type": "bytes32"
        }
      ],
      "stateMutability": "view",
      "type": "function"
    },
    {
      "inputs": [
        {
          "internalType": "bytes32",
          "name": "role",
          "type": "bytes32"
        }
      ],
      "name": "getRoleAdmin",
      "outputs": [
        {
          "internalType": "bytes32",
          "name": "",
          "type": "bytes32"
        }
      ],
      "stateMutability": "view",
      "type": "function"
    },
    {
      "inputs": [
        {
          "internalType": "bytes32",
          "name": "role",
          "type": "bytes32"
        },
        {
          "internalType": "uint256",
          "name": "index",
          "type": "uint256"
        }
      ],
      "name": "getRoleMember",
      "outputs": [
        {
          "internalType": "address",
          "name": "",
          "type": "address"
        }
      ],
      "stateMutability": "view",
      "type": "function"
    },
    {
      "inputs": [
        {
          "internalType": "bytes32",
          "name": "role",
          "type": "bytes32"
        }
      ],
      "name": "getRoleMemberCount",
      "outputs": [
        {
          "internalType": "uint256",
          "name": "",
          "type": "uint256"
        }
      ],
      "stateMutability": "view",
      "type": "function"
    },
    {
      "inputs": [
        {
          "internalType": "bytes32",
          "name": "role",
          "type": "bytes32"
        },
        {
          "internalType": "address",
          "name": "account",
          "type": "address"
        }
      ],
      "name": "grantRole",
      "outputs": [],
      "stateMutability": "nonpayable",
      "type": "function"
    },
    {
      "inputs": [
        {
          "internalType": "bytes32",
          "name": "role",
          "type": "bytes32"
        },
        {
          "internalType": "address",
          "name": "account",
          "type": "address"
        }
      ],
      "name": "hasRole",
      "outputs": [
        {
          "internalType": "bool",
          "name": "",
          "type": "bool"
        }
      ],
      "stateMutability": "view",
      "type": "function"
    },
    {
      "inputs": [
        {
          "internalType": "bytes32",
          "name": "role",
          "type": "bytes32"
        },
        {
          "internalType": "address",
          "name": "account",
          "type": "address"
        }
      ],
      "name": "renounceRole",
      "outputs": [],
      "stateMutability": "nonpayable",
      "type": "function"
    },
    {
      "inputs": [
        {
          "internalType": "bytes32",
          "name": "role",
          "type": "bytes32"
        },
        {
          "internalType": "address",
          "name": "account",
          "type": "address"
        }
      ],
      "name": "revokeRole",
      "outputs": [],
      "stateMutability": "nonpayable",
      "type": "function"
    },
    {
      "inputs": [],
      "name": "unclaimedPoolCollateral",
      "outputs": [
        {
          "internalType": "uint256",
          "name": "",
          "type": "uint256"
        }
      ],
      "stateMutability": "view",
      "type": "function"
    },
    {
      "inputs": [],
      "name": "unclaimedPoolFXS",
      "outputs": [
        {
          "internalType": "uint256",
          "name": "",
          "type": "uint256"
        }
      ],
      "stateMutability": "view",
      "type": "function"
    },
    {
      "inputs": [
        {
          "internalType": "address",
          "name": "_account",
          "type": "address"
        }
      ],
      "name": "unclaimedFXS",
      "outputs": [
        {
          "internalType": "uint256",
          "name": "",
          "type": "uint256"
        }
      ],
      "stateMutability": "view",
      "type": "function"
    },
    {
      "inputs": [
        {
          "internalType": "address",
          "name": "_account",
          "type": "address"
        }
      ],
      "name": "unclaimedCollateral",
      "outputs": [
        {
          "internalType": "uint256",
          "name": "",
          "type": "uint256"
        }
      ],
      "stateMutability": "view",
      "type": "function"
    },
    {
      "inputs": [],
      "name": "collatDollarBalance",
      "outputs": [
        {
          "internalType": "uint256",
          "name": "",
          "type": "uint256"
        }
      ],
      "stateMutability": "view",
      "type": "function"
    },
    {
      "inputs": [],
      "name": "availableExcessCollatDV",
      "outputs": [
        {
          "internalType": "uint256",
          "name": "",
          "type": "uint256"
        }
      ],
      "stateMutability": "view",
      "type": "function"
    },
    {
      "inputs": [
        {
          "internalType": "uint256",
          "name": "collateral_amount_d18",
          "type": "uint256"
        }
      ],
      "name": "mint1t1FRAX",
      "outputs": [],
      "stateMutability": "nonpayable",
      "type": "function"
    },
    {
      "inputs": [
        {
          "internalType": "uint256",
          "name": "fxs_amount_d18",
          "type": "uint256"
        }
      ],
      "name": "mintAlgorithmicFRAX",
      "outputs": [],
      "stateMutability": "nonpayable",
      "type": "function"
    },
    {
      "inputs": [
        {
          "internalType": "uint256",
          "name": "collateral_amount",
          "type": "uint256"
        },
        {
          "internalType": "uint256",
          "name": "fxs_amount",
          "type": "uint256"
        }
      ],
      "name": "mintFractionalFRAX",
      "outputs": [],
      "stateMutability": "nonpayable",
      "type": "function"
    },
    {
      "inputs": [
        {
          "internalType": "uint256",
          "name": "FRAX_amount",
          "type": "uint256"
        }
      ],
      "name": "redeem1t1FRAX",
      "outputs": [],
      "stateMutability": "nonpayable",
      "type": "function"
    },
    {
      "inputs": [
        {
          "internalType": "uint256",
          "name": "FRAX_amount",
          "type": "uint256"
        }
      ],
      "name": "redeemFractionalFRAX",
      "outputs": [],
      "stateMutability": "nonpayable",
      "type": "function"
    },
    {
      "inputs": [
        {
          "internalType": "uint256",
          "name": "FRAX_amount",
          "type": "uint256"
        }
      ],
      "name": "redeemAlgorithmicFRAX",
      "outputs": [],
      "stateMutability": "nonpayable",
      "type": "function"
    },
    {
      "inputs": [],
      "name": "collectRedemption",
      "outputs": [],
      "stateMutability": "nonpayable",
      "type": "function"
    },
    {
      "inputs": [
        {
          "internalType": "uint256",
          "name": "FXS_amount",
          "type": "uint256"
        }
      ],
      "name": "buyBackFXS",
      "outputs": [],
      "stateMutability": "nonpayable",
      "type": "function"
    },
    {
      "inputs": [],
      "name": "recollateralizeAmount",
      "outputs": [
        {
          "internalType": "uint256",
          "name": "recollateralization_left",
          "type": "uint256"
        }
      ],
      "stateMutability": "view",
      "type": "function"
    },
    {
      "inputs": [
        {
          "internalType": "uint256",
          "name": "collateral_amount_d18",
          "type": "uint256"
        }
      ],
      "name": "recollateralizeFrax",
      "outputs": [],
      "stateMutability": "nonpayable",
      "type": "function"
    },
    {
      "inputs": [],
      "name": "toggleMinting",
      "outputs": [],
      "stateMutability": "nonpayable",
      "type": "function"
    },
    {
      "inputs": [],
      "name": "toggleRedeeming",
      "outputs": [],
      "stateMutability": "nonpayable",
      "type": "function"
    },
    {
      "inputs": [],
      "name": "toggleBuyBack",
      "outputs": [],
      "stateMutability": "nonpayable",
      "type": "function"
    },
    {
      "inputs": [
        {
          "internalType": "uint256",
          "name": "new_ceiling",
          "type": "uint256"
        }
      ],
      "name": "setPoolCeiling",
      "outputs": [],
      "stateMutability": "nonpayable",
      "type": "function"
    },
    {
      "inputs": [
        {
          "internalType": "address",
          "name": "new_oracle",
          "type": "address"
        }
      ],
      "name": "setOracle",
      "outputs": [],
      "stateMutability": "nonpayable",
      "type": "function"
    },
    {
      "inputs": [
        {
          "internalType": "address",
          "name": "_collateral_address",
          "type": "address"
        }
      ],
      "name": "setCollateralAdd",
      "outputs": [],
      "stateMutability": "nonpayable",
      "type": "function"
    },
    {
      "inputs": [
        {
          "internalType": "address",
          "name": "_frax_contract_address",
          "type": "address"
        }
      ],
      "name": "setFRAXAddress",
      "outputs": [],
      "stateMutability": "nonpayable",
      "type": "function"
    },
    {
      "inputs": [
        {
          "internalType": "address",
          "name": "_fxs_contract_address",
          "type": "address"
        }
      ],
      "name": "setFXSAddress",
      "outputs": [],
      "stateMutability": "nonpayable",
      "type": "function"
    },
    {
      "inputs": [
        {
          "internalType": "address",
          "name": "owner_address",
          "type": "address"
        }
      ],
      "name": "addOwner",
      "outputs": [],
      "stateMutability": "nonpayable",
      "type": "function"
    },
    {
      "inputs": [
        {
          "internalType": "address",
          "name": "owner_address",
          "type": "address"
        }
      ],
      "name": "removeOwner",
      "outputs": [],
      "stateMutability": "nonpayable",
      "type": "function"
    }
  ],
  "bytecode": "0x608060405260006010556000601160006101000a81548160ff0219169083151502179055506000601160016101000a81548160ff0219169083151502179055506000601160026101000a81548160ff0219169083151502179055503480156200006757600080fd5b50604051620064633803806200646383398181016040528101906200008d919062000788565b84600260006101000a81548173ffffffffffffffffffffffffffffffffffffffff021916908373ffffffffffffffffffffffffffffffffffffffff16021790555083600460006101000a81548173ffffffffffffffffffffffffffffffffffffffff021916908373ffffffffffffffffffffffffffffffffffffffff16021790555081600760006101000a81548173ffffffffffffffffffffffffffffffffffffffff021916908373ffffffffffffffffffffffffffffffffffffffff1602179055506003839080600181540180825580915050600190039060005260206000200160009091909190916101000a81548173ffffffffffffffffffffffffffffffffffffffff021916908373ffffffffffffffffffffffffffffffffffffffff1602179055506003829080600181540180825580915050600190039060005260206000200160009091909190916101000a81548173ffffffffffffffffffffffffffffffffffffffff021916908373ffffffffffffffffffffffffffffffffffffffff16021790555083600a60006101000a81548173ffffffffffffffffffffffffffffffffffffffff021916908373ffffffffffffffffffffffffffffffffffffffff16021790555084600160006101000a81548173ffffffffffffffffffffffffffffffffffffffff021916908373ffffffffffffffffffffffffffffffffffffffff16021790555080601081905550620002c36000801b620002b7620004c660201b60201c565b620004ce60201b60201c565b620003177fc65532185ed70b2e999433e2e9fac124e083acb13ec183a4e05944da0792337b600460009054906101000a900473ffffffffffffffffffffffffffffffffffffffff16620004e460201b60201c565b6200036b7fc65532185ed70b2e999433e2e9fac124e083acb13ec183a4e05944da0792337b600760009054906101000a900473ffffffffffffffffffffffffffffffffffffffff16620004e460201b60201c565b620003bf7fa84a5389ad41f9aab0831b01e5384cae76e7a7fd09131c206ff7927c201c3857600460009054906101000a900473ffffffffffffffffffffffffffffffffffffffff16620004e460201b60201c565b620004137fa84a5389ad41f9aab0831b01e5384cae76e7a7fd09131c206ff7927c201c3857600760009054906101000a900473ffffffffffffffffffffffffffffffffffffffff16620004e460201b60201c565b620004677f103da79ff3755ff7a17a557d28b73d37cb4de0b3c3cc02fa6c48df0f35071fbf600460009054906101000a900473ffffffffffffffffffffffffffffffffffffffff16620004e460201b60201c565b620004bb7f103da79ff3755ff7a17a557d28b73d37cb4de0b3c3cc02fa6c48df0f35071fbf600760009054906101000a900473ffffffffffffffffffffffffffffffffffffffff16620004e460201b60201c565b505050505062000917565b600033905090565b620004e082826200057260201b60201c565b5050565b6200051a600080848152602001908152602001600020600201546200050e620004c660201b60201c565b6200061560201b60201c565b6200055c576040517f08c379a0000000000000000000000000000000000000000000000000000000008152600401620005539062000872565b60405180910390fd5b6200056e82826200057260201b60201c565b5050565b620005a0816000808581526020019081526020016000206000016200064d60201b620042511790919060201c565b156200061157620005b6620004c660201b60201c565b73ffffffffffffffffffffffffffffffffffffffff168173ffffffffffffffffffffffffffffffffffffffff16837f2f8788117e7eff1d82e926ec794901d17c78024a50270940304540a733656f0d60405160405180910390a45b5050565b600062000645826000808681526020019081526020016000206000016200068560201b620042811790919060201c565b905092915050565b60006200067d836000018373ffffffffffffffffffffffffffffffffffffffff1660001b620006bd60201b60201c565b905092915050565b6000620006b5836000018373ffffffffffffffffffffffffffffffffffffffff1660001b6200073760201b60201c565b905092915050565b6000620006d183836200073760201b60201c565b6200072c57826000018290806001815401808255809150506001900390600052602060002001600090919091909150558260000180549050836001016000848152602001908152602001600020819055506001905062000731565b600090505b92915050565b600080836001016000848152602001908152602001600020541415905092915050565b6000815190506200076b81620008e3565b92915050565b6000815190506200078281620008fd565b92915050565b600080600080600060a08688031215620007a157600080fd5b6000620007b1888289016200075a565b9550506020620007c4888289016200075a565b9450506040620007d7888289016200075a565b9350506060620007ea888289016200075a565b9250506080620007fd8882890162000771565b9150509295509295909350565b600062000819602f8362000894565b91507f416363657373436f6e74726f6c3a2073656e646572206d75737420626520616e60008301527f2061646d696e20746f206772616e7400000000000000000000000000000000006020830152604082019050919050565b600060208201905081810360008301526200088d816200080a565b9050919050565b600082825260208201905092915050565b6000620008b282620008b9565b9050919050565b600073ffffffffffffffffffffffffffffffffffffffff82169050919050565b6000819050919050565b620008ee81620008a5565b8114620008fa57600080fd5b50565b6200090881620008d9565b81146200091457600080fd5b50565b615b3c80620009276000396000f3fe608060405234801561001057600080fd5b50600436106102065760003560e01c80637d55094d1161011a578063bdea3454116100ad578063d547741f1161007c578063d547741f1461056f578063daa504851461058b578063e86bc61914610595578063f4cf0f06146105b1578063f61adab2146105e157610206565b8063bdea3454146104eb578063c3bc891014610507578063ca15c87314610523578063cf0ad37a1461055357610206565b8063a217fddf116100e9578063a217fddf14610465578063b01f3ff414610483578063b05cb2c7146104b3578063bb6637a1146104cf57610206565b80637d55094d146103df5780637f68f850146103e95780639010d07c1461040557806391d148541461043557610206565b80634b3161c21161019d578063675ad39b1161016c578063675ad39b1461034f5780637058b9cf1461036b5780637065cb48146103895780637adbf973146103a55780637b0461e9146103c157610206565b80634b3161c2146102ef5780634c26203c1461030b57806350c9ecd914610329578063556e98341461033357610206565b80631de4f511116101d95780631de4f5111461026b578063248a9ca3146102875780632f2ff15d146102b757806336568abe146102d357610206565b806312ace5a21461020b57806317284c9414610215578063173825d9146102335780631b9e04041461024f575b600080fd5b6102136105ff565b005b61021d610a1a565b60405161022a9190615919565b60405180910390f35b61024d60048036038101906102489190614c71565b610c64565b005b61026960048036038101906102649190614d64565b610e20565b005b61028560048036038101906102809190614d64565b6112e5565b005b6102a1600480360381019061029c9190614cc3565b6117cb565b6040516102ae919061567c565b60405180910390f35b6102d160048036038101906102cc9190614cec565b6117ea565b005b6102ed60048036038101906102e89190614cec565b61185d565b005b61030960048036038101906103049190614c71565b6118e0565b005b610313611a39565b6040516103209190615919565b60405180910390f35b610331611a3f565b005b61034d60048036038101906103489190614c71565b611a9e565b005b61036960048036038101906103649190614d64565b611bf7565b005b610373611ef3565b6040516103809190615919565b60405180910390f35b6103a3600480360381019061039e9190614c71565b611fff565b005b6103bf60048036038101906103ba9190614c71565b612139565b005b6103c96122b4565b6040516103d69190615919565b60405180910390f35b6103e76122ba565b005b61040360048036038101906103fe9190614db6565b612319565b005b61041f600480360381019061041a9190614d28565b612919565b60405161042c9190615594565b60405180910390f35b61044f600480360381019061044a9190614cec565b61294a565b60405161045c9190615661565b60405180910390f35b61046d61297b565b60405161047a919061567c565b60405180910390f35b61049d60048036038101906104989190614c71565b612982565b6040516104aa9190615919565b60405180910390f35b6104cd60048036038101906104c89190614d64565b6129cb565b005b6104e960048036038101906104e49190614d64565b612daa565b005b61050560048036038101906105009190614d64565b613542565b005b610521600480360381019061051c9190614c71565b6139fd565b005b61053d60048036038101906105389190614cc3565b613b56565b60405161054a9190615919565b60405180910390f35b61056d60048036038101906105689190614d64565b613b7c565b005b61058960048036038101906105849190614cec565b613f05565b005b610593613f78565b005b6105af60048036038101906105aa9190614d64565b613fd7565b005b6105cb60048036038101906105c69190614c71565b6140b5565b6040516105d89190615919565b60405180910390f35b6105e96140fe565b6040516105f69190615919565b60405180910390f35b43600f60003373ffffffffffffffffffffffffffffffffffffffff1673ffffffffffffffffffffffffffffffffffffffff1681526020019081526020016000205410610680576040517f08c379a000000000000000000000000000000000000000000000000000000000815260040161067790615779565b60405180910390fd5b6000600b60003373ffffffffffffffffffffffffffffffffffffffff1673ffffffffffffffffffffffffffffffffffffffff16815260200190815260200160002054111561084c57600860009054906101000a900473ffffffffffffffffffffffffffffffffffffffff1673ffffffffffffffffffffffffffffffffffffffff1663a9059cbb33600b60003373ffffffffffffffffffffffffffffffffffffffff1673ffffffffffffffffffffffffffffffffffffffff168152602001908152602001600020546040518363ffffffff1660e01b81526004016107649291906155e6565b602060405180830381600087803b15801561077e57600080fd5b505af1158015610792573d6000803e3d6000fd5b505050506040513d601f19601f820116820180604052508101906107b69190614c9a565b50600b60003373ffffffffffffffffffffffffffffffffffffffff1673ffffffffffffffffffffffffffffffffffffffff16815260200190815260200160002054600e600082825403925050819055506000600b60003373ffffffffffffffffffffffffffffffffffffffff1673ffffffffffffffffffffffffffffffffffffffff168152602001908152602001600020819055505b6000600c60003373ffffffffffffffffffffffffffffffffffffffff1673ffffffffffffffffffffffffffffffffffffffff168152602001908152602001600020541115610a1857600160009054906101000a900473ffffffffffffffffffffffffffffffffffffffff1673ffffffffffffffffffffffffffffffffffffffff1663a9059cbb33600c60003373ffffffffffffffffffffffffffffffffffffffff1673ffffffffffffffffffffffffffffffffffffffff168152602001908152602001600020546040518363ffffffff1660e01b81526004016109309291906155e6565b602060405180830381600087803b15801561094a57600080fd5b505af115801561095e573d6000803e3d6000fd5b505050506040513d601f19601f820116820180604052508101906109829190614c9a565b50600c60003373ffffffffffffffffffffffffffffffffffffffff1673ffffffffffffffffffffffffffffffffffffffff16815260200190815260200160002054600d600082825403925050819055506000600c60003373ffffffffffffffffffffffffffffffffffffffff1673ffffffffffffffffffffffffffffffffffffffff168152602001908152602001600020819055505b565b6000610c5f600960009054906101000a900473ffffffffffffffffffffffffffffffffffffffff1673ffffffffffffffffffffffffffffffffffffffff1663b4db09806040518163ffffffff1660e01b815260040160206040518083038186803b158015610a8757600080fd5b505afa158015610a9b573d6000803e3d6000fd5b505050506040513d601f19601f82011682018060405250810190610abf9190614d8d565b610c51600a60009054906101000a900473ffffffffffffffffffffffffffffffffffffffff1673ffffffffffffffffffffffffffffffffffffffff16633ddac953600560009054906101000a900473ffffffffffffffffffffffffffffffffffffffff16620f42406040518363ffffffff1660e01b8152600401610b4492919061560f565b60206040518083038186803b158015610b5c57600080fd5b505afa158015610b70573d6000803e3d6000fd5b505050506040513d601f19601f82011682018060405250810190610b949190614d8d565b600d54600160009054906101000a900473ffffffffffffffffffffffffffffffffffffffff1673ffffffffffffffffffffffffffffffffffffffff166370a08231306040518263ffffffff1660e01b8152600401610bf29190615594565b60206040518083038186803b158015610c0a57600080fd5b505afa158015610c1e573d6000803e3d6000fd5b505050506040513d601f19601f82011682018060405250810190610c429190614d8d565b036142b190919063ffffffff16565b61432190919063ffffffff16565b905090565b6000805b600380549050811015610cf6573373ffffffffffffffffffffffffffffffffffffffff1660038281548110610c9957fe5b9060005260206000200160009054906101000a900473ffffffffffffffffffffffffffffffffffffffff1673ffffffffffffffffffffffffffffffffffffffff161415610ce95760019150610cf6565b8080600101915050610c68565b5080610d37576040517f08c379a0000000000000000000000000000000000000000000000000000000008152600401610d2e90615819565b60405180910390fd5b60005b600380549050811015610e1b578273ffffffffffffffffffffffffffffffffffffffff1660038281548110610d6b57fe5b9060005260206000200160009054906101000a900473ffffffffffffffffffffffffffffffffffffffff1673ffffffffffffffffffffffffffffffffffffffff161415610e0e57600060038281548110610dc157fe5b9060005260206000200160006101000a81548173ffffffffffffffffffffffffffffffffffffffff021916908373ffffffffffffffffffffffffffffffffffffffff160217905550610e1b565b8080600101915050610d3a565b505050565b60001515601160019054906101000a900460ff16151514610e76576040517f08c379a0000000000000000000000000000000000000000000000000000000008152600401610e6d90615799565b60405180910390fd5b600080600080600960009054906101000a900473ffffffffffffffffffffffffffffffffffffffff1673ffffffffffffffffffffffffffffffffffffffff1663df56e1686040518163ffffffff1660e01b815260040160e06040518083038186803b158015610ee457600080fd5b505afa158015610ef8573d6000803e3d6000fd5b505050506040513d601f19601f82011682018060405250810190610f1c9190614df2565b965050509450509350935060008214610f6a576040517f08c379a0000000000000000000000000000000000000000000000000000000008152600401610f61906158b9565b60405180910390fd5b6000610f9485610f86620f4240896142b190919063ffffffff16565b61432190919063ffffffff16565b9050610fd0610fc1620f4240610fb385856142b190919063ffffffff16565b61432190919063ffffffff16565b8261436b90919063ffffffff16565b9050600860009054906101000a900473ffffffffffffffffffffffffffffffffffffffff1673ffffffffffffffffffffffffffffffffffffffff1663b4f56b2630611039620f424061102b89876142b190919063ffffffff16565b61432190919063ffffffff16565b6040518363ffffffff1660e01b8152600401611056929190615638565b600060405180830381600087803b15801561107057600080fd5b505af1158015611084573d6000803e3d6000fd5b50505050600860009054906101000a900473ffffffffffffffffffffffffffffffffffffffff1673ffffffffffffffffffffffffffffffffffffffff1663095ea7b3336110ef620f42406110e189876142b190919063ffffffff16565b61432190919063ffffffff16565b6040518363ffffffff1660e01b815260040161110c9291906155e6565b602060405180830381600087803b15801561112657600080fd5b505af115801561113a573d6000803e3d6000fd5b505050506040513d601f19601f8201168201806040525081019061115e9190614c9a565b50611187620f424061117986846142b190919063ffffffff16565b61432190919063ffffffff16565b600b60003373ffffffffffffffffffffffffffffffffffffffff1673ffffffffffffffffffffffffffffffffffffffff168152602001908152602001600020600082825401925050819055506111fb620f42406111ed86846142b190919063ffffffff16565b61432190919063ffffffff16565b600e6000828254019250508190555043600f60003373ffffffffffffffffffffffffffffffffffffffff1673ffffffffffffffffffffffffffffffffffffffff16815260200190815260200160002081905550600960009054906101000a900473ffffffffffffffffffffffffffffffffffffffff1673ffffffffffffffffffffffffffffffffffffffff1663a8a778ae33886040518363ffffffff1660e01b81526004016112ab9291906155e6565b600060405180830381600087803b1580156112c557600080fd5b505af11580156112d9573d6000803e3d6000fd5b50505050505050505050565b60001515601160009054906101000a900460ff1615151461133b576040517f08c379a000000000000000000000000000000000000000000000000000000000815260040161133290615839565b60405180910390fd5b6000806000600960009054906101000a900473ffffffffffffffffffffffffffffffffffffffff1673ffffffffffffffffffffffffffffffffffffffff1663df56e1686040518163ffffffff1660e01b815260040160e06040518083038186803b1580156113a857600080fd5b505afa1580156113bc573d6000803e3d6000fd5b505050506040513d601f19601f820116820180604052508101906113e09190614df2565b50955050945050509250620f4240821015611430576040517f08c379a000000000000000000000000000000000000000000000000000000000815260040161142790615719565b60405180910390fd5b60105484600160009054906101000a900473ffffffffffffffffffffffffffffffffffffffff1673ffffffffffffffffffffffffffffffffffffffff166370a08231306040518263ffffffff1660e01b815260040161148f9190615594565b60206040518083038186803b1580156114a757600080fd5b505afa1580156114bb573d6000803e3d6000fd5b505050506040513d601f19601f820116820180604052508101906114df9190614d8d565b011115611521576040517f08c379a000000000000000000000000000000000000000000000000000000000815260040161151890615879565b60405180910390fd5b600073__FraxPoolLibrary_______________________63e35178ca600a60009054906101000a900473ffffffffffffffffffffffffffffffffffffffff1673ffffffffffffffffffffffffffffffffffffffff16633ddac953600560009054906101000a900473ffffffffffffffffffffffffffffffffffffffff16620f42406040518363ffffffff1660e01b81526004016115bf92919061560f565b60206040518083038186803b1580156115d757600080fd5b505afa1580156115eb573d6000803e3d6000fd5b505050506040513d601f19601f8201168201806040525081019061160f9190614d8d565b8685896040518563ffffffff1660e01b8152600401611631949392919061596b565b60206040518083038186803b15801561164957600080fd5b505af415801561165d573d6000803e3d6000fd5b505050506040513d601f19601f820116820180604052508101906116819190614d8d565b9050600160009054906101000a900473ffffffffffffffffffffffffffffffffffffffff1673ffffffffffffffffffffffffffffffffffffffff166323b872dd3330886040518463ffffffff1660e01b81526004016116e2939291906155af565b602060405180830381600087803b1580156116fc57600080fd5b505af1158015611710573d6000803e3d6000fd5b505050506040513d601f19601f820116820180604052508101906117349190614c9a565b50600960009054906101000a900473ffffffffffffffffffffffffffffffffffffffff1673ffffffffffffffffffffffffffffffffffffffff1663b4f56b2633836040518363ffffffff1660e01b81526004016117929291906155e6565b600060405180830381600087803b1580156117ac57600080fd5b505af11580156117c0573d6000803e3d6000fd5b505050505050505050565b6000806000838152602001908152602001600020600201549050919050565b6118106000808481526020019081526020016000206002015461180b6143b5565b61294a565b61184f576040517f08c379a0000000000000000000000000000000000000000000000000000000008152600401611846906156d9565b60405180910390fd5b61185982826143bd565b5050565b6118656143b5565b73ffffffffffffffffffffffffffffffffffffffff168173ffffffffffffffffffffffffffffffffffffffff16146118d2576040517f08c379a00000000000000000000000000000000000000000000000000000000081526004016118c9906158d9565b60405180910390fd5b6118dc8282614450565b5050565b6000805b600380549050811015611972573373ffffffffffffffffffffffffffffffffffffffff166003828154811061191557fe5b9060005260206000200160009054906101000a900473ffffffffffffffffffffffffffffffffffffffff1673ffffffffffffffffffffffffffffffffffffffff1614156119655760019150611972565b80806001019150506118e4565b50806119b3576040517f08c379a00000000000000000000000000000000000000000000000000000000081526004016119aa90615819565b60405180910390fd5b81600960006101000a81548173ffffffffffffffffffffffffffffffffffffffff021916908373ffffffffffffffffffffffffffffffffffffffff16021790555081600560006101000a81548173ffffffffffffffffffffffffffffffffffffffff021916908373ffffffffffffffffffffffffffffffffffffffff1602179055505050565b600e5481565b611a697f103da79ff3755ff7a17a557d28b73d37cb4de0b3c3cc02fa6c48df0f35071fbf3361294a565b611a7257600080fd5b601160029054906101000a900460ff1615601160026101000a81548160ff021916908315150217905550565b6000805b600380549050811015611b30573373ffffffffffffffffffffffffffffffffffffffff1660038281548110611ad357fe5b9060005260206000200160009054906101000a900473ffffffffffffffffffffffffffffffffffffffff1673ffffffffffffffffffffffffffffffffffffffff161415611b235760019150611b30565b8080600101915050611aa2565b5080611b71576040517f08c379a0000000000000000000000000000000000000000000000000000000008152600401611b6890615819565b60405180910390fd5b81600260006101000a81548173ffffffffffffffffffffffffffffffffffffffff021916908373ffffffffffffffffffffffffffffffffffffffff16021790555081600160006101000a81548173ffffffffffffffffffffffffffffffffffffffff021916908373ffffffffffffffffffffffffffffffffffffffff1602179055505050565b60001515601160009054906101000a900460ff16151514611c4d576040517f08c379a0000000000000000000000000000000000000000000000000000000008152600401611c4490615839565b60405180910390fd5b6000806000600960009054906101000a900473ffffffffffffffffffffffffffffffffffffffff1673ffffffffffffffffffffffffffffffffffffffff1663df56e1686040518163ffffffff1660e01b815260040160e06040518083038186803b158015611cba57600080fd5b505afa158015611cce573d6000803e3d6000fd5b505050506040513d601f19601f82011682018060405250810190611cf29190614df2565b5095505094505093505060008214611d3f576040517f08c379a0000000000000000000000000000000000000000000000000000000008152600401611d36906158b9565b60405180910390fd5b600073__FraxPoolLibrary_______________________63f69a7aa88386886040518463ffffffff1660e01b8152600401611d7c93929190615934565b60206040518083038186803b158015611d9457600080fd5b505af4158015611da8573d6000803e3d6000fd5b505050506040513d601f19601f82011682018060405250810190611dcc9190614d8d565b9050600860009054906101000a900473ffffffffffffffffffffffffffffffffffffffff1673ffffffffffffffffffffffffffffffffffffffff1663a8a778ae33876040518363ffffffff1660e01b8152600401611e2b9291906155e6565b600060405180830381600087803b158015611e4557600080fd5b505af1158015611e59573d6000803e3d6000fd5b50505050600960009054906101000a900473ffffffffffffffffffffffffffffffffffffffff1673ffffffffffffffffffffffffffffffffffffffff1663b4f56b2633836040518363ffffffff1660e01b8152600401611eba9291906155e6565b600060405180830381600087803b158015611ed457600080fd5b505af1158015611ee8573d6000803e3d6000fd5b505050505050505050565b600080600080600960009054906101000a900473ffffffffffffffffffffffffffffffffffffffff1673ffffffffffffffffffffffffffffffffffffffff1663df56e1686040518163ffffffff1660e01b815260040160e06040518083038186803b158015611f6157600080fd5b505afa158015611f75573d6000803e3d6000fd5b505050506040513d601f19601f82011682018060405250810190611f999190614df2565b505094509450945050506000611fcf64e8d4a51000611fc185876142b190919063ffffffff16565b61432190919063ffffffff16565b905081811115611ff357611fec828261436b90919063ffffffff16565b9450611ff8565b600094505b5050505090565b6000805b600380549050811015612091573373ffffffffffffffffffffffffffffffffffffffff166003828154811061203457fe5b9060005260206000200160009054906101000a900473ffffffffffffffffffffffffffffffffffffffff1673ffffffffffffffffffffffffffffffffffffffff1614156120845760019150612091565b8080600101915050612003565b50806120d2576040517f08c379a00000000000000000000000000000000000000000000000000000000081526004016120c990615819565b60405180910390fd5b6003829080600181540180825580915050600190039060005260206000200160009091909190916101000a81548173ffffffffffffffffffffffffffffffffffffffff021916908373ffffffffffffffffffffffffffffffffffffffff1602179055505050565b6000805b6003805490508110156121cb573373ffffffffffffffffffffffffffffffffffffffff166003828154811061216e57fe5b9060005260206000200160009054906101000a900473ffffffffffffffffffffffffffffffffffffffff1673ffffffffffffffffffffffffffffffffffffffff1614156121be57600191506121cb565b808060010191505061213d565b508061220c576040517f08c379a000000000000000000000000000000000000000000000000000000000815260040161220390615819565b60405180910390fd5b81600460006101000a81548173ffffffffffffffffffffffffffffffffffffffff021916908373ffffffffffffffffffffffffffffffffffffffff160217905550600460009054906101000a900473ffffffffffffffffffffffffffffffffffffffff16600a60006101000a81548173ffffffffffffffffffffffffffffffffffffffff021916908373ffffffffffffffffffffffffffffffffffffffff1602179055505050565b600d5481565b6122e47fc65532185ed70b2e999433e2e9fac124e083acb13ec183a4e05944da0792337b3361294a565b6122ed57600080fd5b601160009054906101000a900460ff1615601160006101000a81548160ff021916908315150217905550565b60001515601160009054906101000a900460ff1615151461236f576040517f08c379a000000000000000000000000000000000000000000000000000000000815260040161236690615839565b60405180910390fd5b600080600080600960009054906101000a900473ffffffffffffffffffffffffffffffffffffffff1673ffffffffffffffffffffffffffffffffffffffff1663df56e1686040518163ffffffff1660e01b815260040160e06040518083038186803b1580156123dd57600080fd5b505afa1580156123f1573d6000803e3d6000fd5b505050506040513d601f19601f820116820180604052508101906124159190614df2565b5095505094505093509350620f4240821080156124325750600082115b612471576040517f08c379a000000000000000000000000000000000000000000000000000000000815260040161246890615759565b60405180910390fd5b612479614b8d565b604051806101200160405280838152602001858152602001868152602001600a60009054906101000a900473ffffffffffffffffffffffffffffffffffffffff1673ffffffffffffffffffffffffffffffffffffffff16633ddac953600560009054906101000a900473ffffffffffffffffffffffffffffffffffffffff16620f42406040518363ffffffff1660e01b815260040161251992919061560f565b60206040518083038186803b15801561253157600080fd5b505afa158015612545573d6000803e3d6000fd5b505050506040513d601f19601f820116820180604052508101906125699190614d8d565b8152602001878152602001888152602001600160009054906101000a900473ffffffffffffffffffffffffffffffffffffffff1673ffffffffffffffffffffffffffffffffffffffff166370a08231306040518263ffffffff1660e01b81526004016125d59190615594565b60206040518083038186803b1580156125ed57600080fd5b505afa158015612601573d6000803e3d6000fd5b505050506040513d601f19601f820116820180604052508101906126259190614d8d565b815260200160105481526020018481525090506000806000612646846144e3565b92509250925060105483600160009054906101000a900473ffffffffffffffffffffffffffffffffffffffff1673ffffffffffffffffffffffffffffffffffffffff166370a08231306040518263ffffffff1660e01b81526004016126ab9190615594565b60206040518083038186803b1580156126c357600080fd5b505afa1580156126d7573d6000803e3d6000fd5b505050506040513d601f19601f820116820180604052508101906126fb9190614d8d565b01111561273d576040517f08c379a000000000000000000000000000000000000000000000000000000000815260040161273490615879565b60405180910390fd5b600160009054906101000a900473ffffffffffffffffffffffffffffffffffffffff1673ffffffffffffffffffffffffffffffffffffffff166323b872dd3330866040518463ffffffff1660e01b815260040161279c939291906155af565b602060405180830381600087803b1580156127b657600080fd5b505af11580156127ca573d6000803e3d6000fd5b505050506040513d601f19601f820116820180604052508101906127ee9190614c9a565b50600960009054906101000a900473ffffffffffffffffffffffffffffffffffffffff1673ffffffffffffffffffffffffffffffffffffffff1663b4f56b2633846040518363ffffffff1660e01b815260040161284c9291906155e6565b600060405180830381600087803b15801561286657600080fd5b505af115801561287a573d6000803e3d6000fd5b50505050600860009054906101000a900473ffffffffffffffffffffffffffffffffffffffff1673ffffffffffffffffffffffffffffffffffffffff166379cc679033836040518363ffffffff1660e01b81526004016128db9291906155e6565b600060405180830381600087803b1580156128f557600080fd5b505af1158015612909573d6000803e3d6000fd5b5050505050505050505050505050565b6000612942826000808681526020019081526020016000206000016146e790919063ffffffff16565b905092915050565b60006129738260008086815260200190815260200160002060000161428190919063ffffffff16565b905092915050565b6000801b81565b6000600c60008373ffffffffffffffffffffffffffffffffffffffff1673ffffffffffffffffffffffffffffffffffffffff168152602001908152602001600020549050919050565b60006129d5611ef3565b11612a15576040517f08c379a0000000000000000000000000000000000000000000000000000000008152600401612a0c90615899565b60405180910390fd5b600080600960009054906101000a900473ffffffffffffffffffffffffffffffffffffffff1673ffffffffffffffffffffffffffffffffffffffff1663df56e1686040518163ffffffff1660e01b815260040160e06040518083038186803b158015612a8057600080fd5b505afa158015612a94573d6000803e3d6000fd5b505050506040513d601f19601f82011682018060405250810190612ab89190614df2565b5050505050915091506000600a60009054906101000a900473ffffffffffffffffffffffffffffffffffffffff1673ffffffffffffffffffffffffffffffffffffffff16633ddac953600560009054906101000a900473ffffffffffffffffffffffffffffffffffffffff16620f42406040518363ffffffff1660e01b8152600401612b4592919061560f565b60206040518083038186803b158015612b5d57600080fd5b505afa158015612b71573d6000803e3d6000fd5b505050506040513d601f19601f82011682018060405250810190612b959190614d8d565b90506000612bc184612bb3620f4240856142b190919063ffffffff16565b61432190919063ffffffff16565b90506000612bed620f4240612bdf84896142b190919063ffffffff16565b61432190919063ffffffff16565b90506000612bf9611ef3565b9050818110612c0a57819050612c0e565b8091505b6000612c36612c2760648461432190919063ffffffff16565b8461470190919063ffffffff16565b9050600160009054906101000a900473ffffffffffffffffffffffffffffffffffffffff1673ffffffffffffffffffffffffffffffffffffffff166323b872dd33308b6040518463ffffffff1660e01b8152600401612c97939291906155af565b602060405180830381600087803b158015612cb157600080fd5b505af1158015612cc5573d6000803e3d6000fd5b505050506040513d601f19601f82011682018060405250810190612ce99190614c9a565b50600860009054906101000a900473ffffffffffffffffffffffffffffffffffffffff1673ffffffffffffffffffffffffffffffffffffffff1663b4f56b2632612d51620f4240612d438b876142b190919063ffffffff16565b61432190919063ffffffff16565b6040518363ffffffff1660e01b8152600401612d6e9291906155e6565b600060405180830381600087803b158015612d8857600080fd5b505af1158015612d9c573d6000803e3d6000fd5b505050505050505050505050565b60001515601160019054906101000a900460ff16151514612e00576040517f08c379a0000000000000000000000000000000000000000000000000000000008152600401612df790615799565b60405180910390fd5b600080600080600960009054906101000a900473ffffffffffffffffffffffffffffffffffffffff1673ffffffffffffffffffffffffffffffffffffffff1663df56e1686040518163ffffffff1660e01b815260040160e06040518083038186803b158015612e6e57600080fd5b505afa158015612e82573d6000803e3d6000fd5b505050506040513d601f19601f82011682018060405250810190612ea69190614df2565b9650505094505093509350620f424082108015612ec35750600082115b612f02576040517f08c379a0000000000000000000000000000000000000000000000000000000008152600401612ef990615759565b60405180910390fd5b6000612f2c85612f1e620f4240896142b190919063ffffffff16565b61432190919063ffffffff16565b905060006130298661301b620f4240600a60009054906101000a900473ffffffffffffffffffffffffffffffffffffffff1673ffffffffffffffffffffffffffffffffffffffff16633ddac953600560009054906101000a900473ffffffffffffffffffffffffffffffffffffffff16620f42406040518363ffffffff1660e01b8152600401612fbd92919061560f565b60206040518083038186803b158015612fd557600080fd5b505afa158015612fe9573d6000803e3d6000fd5b505050506040513d601f19601f8201168201806040525081019061300d9190614d8d565b6142b190919063ffffffff16565b61432190919063ffffffff16565b9050613065613056620f424061304886866142b190919063ffffffff16565b61432190919063ffffffff16565b8361436b90919063ffffffff16565b91506000613091620f424061308387866142b190919063ffffffff16565b61432190919063ffffffff16565b905060006130a8828561436b90919063ffffffff16565b9050600160009054906101000a900473ffffffffffffffffffffffffffffffffffffffff1673ffffffffffffffffffffffffffffffffffffffff1663095ea7b333613111620f424061310388886142b190919063ffffffff16565b61432190919063ffffffff16565b6040518363ffffffff1660e01b815260040161312e9291906155e6565b602060405180830381600087803b15801561314857600080fd5b505af115801561315c573d6000803e3d6000fd5b505050506040513d601f19601f820116820180604052508101906131809190614c9a565b506131a9620f424061319b85856142b190919063ffffffff16565b61432190919063ffffffff16565b600c60003373ffffffffffffffffffffffffffffffffffffffff1673ffffffffffffffffffffffffffffffffffffffff1681526020019081526020016000206000828254019250508190555061321d620f424061320f85856142b190919063ffffffff16565b61432190919063ffffffff16565b600d60008282540192505081905550600860009054906101000a900473ffffffffffffffffffffffffffffffffffffffff1673ffffffffffffffffffffffffffffffffffffffff1663b4f56b2630613293620f42406132858c876142b190919063ffffffff16565b61432190919063ffffffff16565b6040518363ffffffff1660e01b81526004016132b0929190615638565b600060405180830381600087803b1580156132ca57600080fd5b505af11580156132de573d6000803e3d6000fd5b50505050600860009054906101000a900473ffffffffffffffffffffffffffffffffffffffff1673ffffffffffffffffffffffffffffffffffffffff1663095ea7b333613349620f424061333b8c876142b190919063ffffffff16565b61432190919063ffffffff16565b6040518363ffffffff1660e01b81526004016133669291906155e6565b602060405180830381600087803b15801561338057600080fd5b505af1158015613394573d6000803e3d6000fd5b505050506040513d601f19601f820116820180604052508101906133b89190614c9a565b506133e1620f42406133d389846142b190919063ffffffff16565b61432190919063ffffffff16565b600b60003373ffffffffffffffffffffffffffffffffffffffff1673ffffffffffffffffffffffffffffffffffffffff16815260200190815260200160002060008282540192505081905550613455620f424061344789846142b190919063ffffffff16565b61432190919063ffffffff16565b600e6000828254019250508190555043600f60003373ffffffffffffffffffffffffffffffffffffffff1673ffffffffffffffffffffffffffffffffffffffff16815260200190815260200160002081905550600960009054906101000a900473ffffffffffffffffffffffffffffffffffffffff1673ffffffffffffffffffffffffffffffffffffffff1663a8a778ae338b6040518363ffffffff1660e01b81526004016135059291906155e6565b600060405180830381600087803b15801561351f57600080fd5b505af1158015613533573d6000803e3d6000fd5b50505050505050505050505050565b60001515601160019054906101000a900460ff16151514613598576040517f08c379a000000000000000000000000000000000000000000000000000000000815260040161358f90615799565b60405180910390fd5b6000806000600960009054906101000a900473ffffffffffffffffffffffffffffffffffffffff1673ffffffffffffffffffffffffffffffffffffffff1663df56e1686040518163ffffffff1660e01b815260040160e06040518083038186803b15801561360557600080fd5b505afa158015613619573d6000803e3d6000fd5b505050506040513d601f19601f8201168201806040525081019061363d9190614df2565b96505050945050509250620f424082101561368d576040517f08c379a000000000000000000000000000000000000000000000000000000000815260040161368490615719565b60405180910390fd5b600073__FraxPoolLibrary_______________________63258980fc856137a387613795620f4240600a60009054906101000a900473ffffffffffffffffffffffffffffffffffffffff1673ffffffffffffffffffffffffffffffffffffffff16633ddac953600560009054906101000a900473ffffffffffffffffffffffffffffffffffffffff16620f42406040518363ffffffff1660e01b815260040161373792919061560f565b60206040518083038186803b15801561374f57600080fd5b505afa158015613763573d6000803e3d6000fd5b505050506040513d601f19601f820116820180604052508101906137879190614d8d565b6142b190919063ffffffff16565b61432190919063ffffffff16565b88866040518563ffffffff1660e01b81526004016137c4949392919061596b565b60206040518083038186803b1580156137dc57600080fd5b505af41580156137f0573d6000803e3d6000fd5b505050506040513d601f19601f820116820180604052508101906138149190614d8d565b9050600160009054906101000a900473ffffffffffffffffffffffffffffffffffffffff1673ffffffffffffffffffffffffffffffffffffffff1663095ea7b333836040518363ffffffff1660e01b81526004016138739291906155e6565b602060405180830381600087803b15801561388d57600080fd5b505af11580156138a1573d6000803e3d6000fd5b505050506040513d601f19601f820116820180604052508101906138c59190614c9a565b5080600c60003373ffffffffffffffffffffffffffffffffffffffff1673ffffffffffffffffffffffffffffffffffffffff1681526020019081526020016000206000828254019250508190555080600d6000828254019250508190555043600f60003373ffffffffffffffffffffffffffffffffffffffff1673ffffffffffffffffffffffffffffffffffffffff16815260200190815260200160002081905550600960009054906101000a900473ffffffffffffffffffffffffffffffffffffffff1673ffffffffffffffffffffffffffffffffffffffff1663a8a778ae33876040518363ffffffff1660e01b81526004016139c49291906155e6565b600060405180830381600087803b1580156139de57600080fd5b505af11580156139f2573d6000803e3d6000fd5b505050505050505050565b6000805b600380549050811015613a8f573373ffffffffffffffffffffffffffffffffffffffff1660038281548110613a3257fe5b9060005260206000200160009054906101000a900473ffffffffffffffffffffffffffffffffffffffff1673ffffffffffffffffffffffffffffffffffffffff161415613a825760019150613a8f565b8080600101915050613a01565b5080613ad0576040517f08c379a0000000000000000000000000000000000000000000000000000000008152600401613ac790615819565b60405180910390fd5b81600860006101000a81548173ffffffffffffffffffffffffffffffffffffffff021916908373ffffffffffffffffffffffffffffffffffffffff16021790555081600660006101000a81548173ffffffffffffffffffffffffffffffffffffffff021916908373ffffffffffffffffffffffffffffffffffffffff1602179055505050565b6000613b75600080848152602001908152602001600020600001614756565b9050919050565b60001515601160029054906101000a900460ff16151514613bd2576040517f08c379a0000000000000000000000000000000000000000000000000000000008152600401613bc9906158f9565b60405180910390fd5b6000806000600960009054906101000a900473ffffffffffffffffffffffffffffffffffffffff1673ffffffffffffffffffffffffffffffffffffffff1663df56e1686040518163ffffffff1660e01b815260040160e06040518083038186803b158015613c3f57600080fd5b505afa158015613c53573d6000803e3d6000fd5b505050506040513d601f19601f82011682018060405250810190613c779190614df2565b96505050505092509250613c89614bd9565b6040518060a00160405280838152602001613ca26140fe565b8152602001848152602001613da686613d98620f4240600a60009054906101000a900473ffffffffffffffffffffffffffffffffffffffff1673ffffffffffffffffffffffffffffffffffffffff16633ddac953600560009054906101000a900473ffffffffffffffffffffffffffffffffffffffff16620f42406040518363ffffffff1660e01b8152600401613d3a92919061560f565b60206040518083038186803b158015613d5257600080fd5b505afa158015613d66573d6000803e3d6000fd5b505050506040513d601f19601f82011682018060405250810190613d8a9190614d8d565b6142b190919063ffffffff16565b61432190919063ffffffff16565b81526020018681525090506000613dbc8261476b565b9050600160009054906101000a900473ffffffffffffffffffffffffffffffffffffffff1673ffffffffffffffffffffffffffffffffffffffff1663a9059cbb33836040518363ffffffff1660e01b8152600401613e1b9291906155e6565b602060405180830381600087803b158015613e3557600080fd5b505af1158015613e49573d6000803e3d6000fd5b505050506040513d601f19601f82011682018060405250810190613e6d9190614c9a565b50600860009054906101000a900473ffffffffffffffffffffffffffffffffffffffff1673ffffffffffffffffffffffffffffffffffffffff166379cc679033886040518363ffffffff1660e01b8152600401613ecb9291906155e6565b600060405180830381600087803b158015613ee557600080fd5b505af1158015613ef9573d6000803e3d6000fd5b50505050505050505050565b613f2b60008084815260200190815260200160002060020154613f266143b5565b61294a565b613f6a576040517f08c379a0000000000000000000000000000000000000000000000000000000008152600401613f61906157d9565b60405180910390fd5b613f748282614450565b5050565b613fa27fa84a5389ad41f9aab0831b01e5384cae76e7a7fd09131c206ff7927c201c38573361294a565b613fab57600080fd5b601160019054906101000a900460ff1615601160016101000a81548160ff021916908315150217905550565b6000805b600380549050811015614069573373ffffffffffffffffffffffffffffffffffffffff166003828154811061400c57fe5b9060005260206000200160009054906101000a900473ffffffffffffffffffffffffffffffffffffffff1673ffffffffffffffffffffffffffffffffffffffff16141561405c5760019150614069565b8080600101915050613fdb565b50806140aa576040517f08c379a00000000000000000000000000000000000000000000000000000000081526004016140a190615819565b60405180910390fd5b816010819055505050565b6000600b60008373ffffffffffffffffffffffffffffffffffffffff1673ffffffffffffffffffffffffffffffffffffffff168152602001908152602001600020549050919050565b6000806000806000600960009054906101000a900473ffffffffffffffffffffffffffffffffffffffff1673ffffffffffffffffffffffffffffffffffffffff1663df56e1686040518163ffffffff1660e01b815260040160e06040518083038186803b15801561416e57600080fd5b505afa158015614182573d6000803e3d6000fd5b505050506040513d601f19601f820116820180604052508101906141a69190614df2565b505094509450945050935060006141db856141cd620f4240876142b190919063ffffffff16565b61432190919063ffffffff16565b9050620f42408311156141ef57620f424092505b6000614219620f424061420b86856142b190919063ffffffff16565b61432190919063ffffffff16565b90508083111561424357614236818461436b90919063ffffffff16565b965050505050505061424e565b600096505050505050505b90565b6000614279836000018373ffffffffffffffffffffffffffffffffffffffff1660001b6148a8565b905092915050565b60006142a9836000018373ffffffffffffffffffffffffffffffffffffffff1660001b614918565b905092915050565b6000808314156142c4576000905061431b565b60008284029050828482816142d557fe5b0414614316576040517f08c379a000000000000000000000000000000000000000000000000000000000815260040161430d906157f9565b60405180910390fd5b809150505b92915050565b600061436383836040518060400160405280601a81526020017f536166654d6174683a206469766973696f6e206279207a65726f00000000000081525061493b565b905092915050565b60006143ad83836040518060400160405280601e81526020017f536166654d6174683a207375627472616374696f6e206f766572666c6f77000081525061499c565b905092915050565b600033905090565b6143e48160008085815260200190815260200160002060000161425190919063ffffffff16565b1561444c576143f16143b5565b73ffffffffffffffffffffffffffffffffffffffff168173ffffffffffffffffffffffffffffffffffffffff16837f2f8788117e7eff1d82e926ec794901d17c78024a50270940304540a733656f0d60405160405180910390a45b5050565b614477816000808581526020019081526020016000206000016149f790919063ffffffff16565b156144df576144846143b5565b73ffffffffffffffffffffffffffffffffffffffff168173ffffffffffffffffffffffffffffffffffffffff16837ff6391f5c32d9c69d2a47ea670b442974b53935d1edc7fd64eb21e047a839171b60405160405180910390a45b5050565b60008060008060008060008061451f8960400151614511620f42408c606001516142b190919063ffffffff16565b61432190919063ffffffff16565b90506145518960200151614543620f42408c608001516142b190919063ffffffff16565b61432190919063ffffffff16565b925061457f81614571620f42408c60a001516142b190919063ffffffff16565b61432190919063ffffffff16565b91506145a9620f424061459b83856142b190919063ffffffff16565b61432190919063ffffffff16565b9350508760e00151838960c0015101106145f8576040517f08c379a00000000000000000000000000000000000000000000000000000000081526004016145ef90615859565b60405180910390fd5b614662620f42406146548a60200151614646856146388e610100015161462a620f42408a6142b190919063ffffffff16565b61432190919063ffffffff16565b61436b90919063ffffffff16565b6142b190919063ffffffff16565b61432190919063ffffffff16565b93506146908860200151614682620f4240876142b190919063ffffffff16565b61432190919063ffffffff16565b9150826146d56146c4620f42406146b68c600001518787016142b190919063ffffffff16565b61432190919063ffffffff16565b84840161436b90919063ffffffff16565b85965096509650505050509193909250565b60006146f68360000183614a27565b60001c905092915050565b60008082840190508381101561474c576040517f08c379a000000000000000000000000000000000000000000000000000000000815260040161474390615739565b60405180910390fd5b8091505092915050565b600061476482600001614a94565b9050919050565b6000808260200151116147b3576040517f08c379a00000000000000000000000000000000000000000000000000000000081526004016147aa906157b9565b60405180910390fd5b60006147e583604001516147d7620f424086608001516142b190919063ffffffff16565b61432190919063ffffffff16565b9050826020015181111561482e576040517f08c379a0000000000000000000000000000000000000000000000000000000008152600401614825906156f9565b60405180910390fd5b600061485c846060015161484e620f4240856142b190919063ffffffff16565b61432190919063ffffffff16565b905061489c61488d620f424061487f8760000151856142b190919063ffffffff16565b61432190919063ffffffff16565b8261436b90919063ffffffff16565b90508092505050919050565b60006148b48383614918565b61490d578260000182908060018154018082558091505060019003906000526020600020016000909190919091505582600001805490508360010160008481526020019081526020016000208190555060019050614912565b600090505b92915050565b600080836001016000848152602001908152602001600020541415905092915050565b60008083118290614982576040517f08c379a00000000000000000000000000000000000000000000000000000000081526004016149799190615697565b60405180910390fd5b50600083858161498e57fe5b049050809150509392505050565b60008383111582906149e4576040517f08c379a00000000000000000000000000000000000000000000000000000000081526004016149db9190615697565b60405180910390fd5b5060008385039050809150509392505050565b6000614a1f836000018373ffffffffffffffffffffffffffffffffffffffff1660001b614aa5565b905092915050565b600081836000018054905011614a72576040517f08c379a0000000000000000000000000000000000000000000000000000000008152600401614a69906156b9565b60405180910390fd5b826000018281548110614a8157fe5b9060005260206000200154905092915050565b600081600001805490509050919050565b60008083600101600084815260200190815260200160002054905060008114614b815760006001820390506000600186600001805490500390506000866000018281548110614af057fe5b9060005260206000200154905080876000018481548110614b0d57fe5b9060005260206000200181905550600183018760010160008381526020019081526020016000208190555086600001805480614b4557fe5b60019003818190600052602060002001600090559055866001016000878152602001908152602001600020600090556001945050505050614b87565b60009150505b92915050565b6040518061012001604052806000815260200160008152602001600081526020016000815260200160008152602001600081526020016000815260200160008152602001600081525090565b6040518060a0016040528060008152602001600081526020016000815260200160008152602001600081525090565b600081359050614c1781615aaa565b92915050565b600081519050614c2c81615ac1565b92915050565b600081359050614c4181615ad8565b92915050565b600081359050614c5681615aef565b92915050565b600081519050614c6b81615aef565b92915050565b600060208284031215614c8357600080fd5b6000614c9184828501614c08565b91505092915050565b600060208284031215614cac57600080fd5b6000614cba84828501614c1d565b91505092915050565b600060208284031215614cd557600080fd5b6000614ce384828501614c32565b91505092915050565b60008060408385031215614cff57600080fd5b6000614d0d85828601614c32565b9250506020614d1e85828601614c08565b9150509250929050565b60008060408385031215614d3b57600080fd5b6000614d4985828601614c32565b9250506020614d5a85828601614c47565b9150509250929050565b600060208284031215614d7657600080fd5b6000614d8484828501614c47565b91505092915050565b600060208284031215614d9f57600080fd5b6000614dad84828501614c5c565b91505092915050565b60008060408385031215614dc957600080fd5b6000614dd785828601614c47565b9250506020614de885828601614c47565b9150509250929050565b600080600080600080600060e0888a031215614e0d57600080fd5b6000614e1b8a828b01614c5c565b9750506020614e2c8a828b01614c5c565b9650506040614e3d8a828b01614c5c565b9550506060614e4e8a828b01614c5c565b9450506080614e5f8a828b01614c5c565b93505060a0614e708a828b01614c5c565b92505060c0614e818a828b01614c5c565b91505092959891949750929550565b614e9981615a1e565b82525050565b614ea8816159cc565b82525050565b614eb7816159de565b82525050565b614ec6816159ea565b82525050565b614ed581615a30565b82525050565b6000614ee6826159b0565b614ef081856159bb565b9350614f00818560208601615a66565b614f0981615a99565b840191505092915050565b6000614f216022836159bb565b91507f456e756d657261626c655365743a20696e646578206f7574206f6620626f756e60008301527f64730000000000000000000000000000000000000000000000000000000000006020830152604082019050919050565b6000614f87602f836159bb565b91507f416363657373436f6e74726f6c3a2073656e646572206d75737420626520616e60008301527f2061646d696e20746f206772616e7400000000000000000000000000000000006020830152604082019050919050565b6000614fed6030836159bb565b91507f596f752061726520747279696e6720746f20627579206261636b206d6f72652060008301527f7468616e207468652065786365737321000000000000000000000000000000006020830152604082019050919050565b6000615053601d836159bb565b91507f436f6c6c61746572616c20726174696f206d757374206265203e3d20310000006000830152602082019050919050565b6000615093601b836159bb565b91507f536166654d6174683a206164646974696f6e206f766572666c6f7700000000006000830152602082019050919050565b60006150d36038836159bb565b91507f436f6c6c61746572616c20726174696f206e6565647320746f2062652062657460008301527f7765656e202e30303030303120616e64202e39393939393900000000000000006020830152604082019050919050565b60006151396039836159bb565b91507f6d7573742077616974206174206c65617374206f6e6520626c6f636b2062656660008301527f6f726520636f6c6c656374696e6720726564656d7074696f6e000000000000006020830152604082019050919050565b600061519f6013836159bb565b91507f52656465656d696e6720697320706175736564000000000000000000000000006000830152602082019050919050565b60006151df6021836159bb565b91507f4e6f2065786365737320636f6c6c61746572616c20746f20627579206261636b60008301527f21000000000000000000000000000000000000000000000000000000000000006020830152604082019050919050565b60006152456030836159bb565b91507f416363657373436f6e74726f6c3a2073656e646572206d75737420626520616e60008301527f2061646d696e20746f207265766f6b65000000000000000000000000000000006020830152604082019050919050565b60006152ab6021836159bb565b91507f536166654d6174683a206d756c7469706c69636174696f6e206f766572666c6f60008301527f77000000000000000000000000000000000000000000000000000000000000006020830152604082019050919050565b60006153116013836159bb565b91507f596f75277265206e6f7420616e206f776e6572000000000000000000000000006000830152602082019050919050565b60006153516011836159bb565b91507f4d696e74696e67206973207061757365640000000000000000000000000000006000830152602082019050919050565b60006153916045836159bb565b91507f506f6f6c206365696c696e6720726561636865642c206e6f206d6f726520465260008301527f41582063616e206265206d696e7465642077697468207468697320636f6c6c6160208301527f746572616c0000000000000000000000000000000000000000000000000000006040830152606082019050919050565b600061541d6020836159bb565b91507f5b506f6f6c277320436c6f7365645d3a204365696c696e6720726561636865646000830152602082019050919050565b600061545d601a836159bb565b91507f6e6f20657874726120636f6c6c61746572616c206e65656465640000000000006000830152602082019050919050565b600061549d601a836159bb565b91507f436f6c6c61746572616c20726174696f206d75737420626520300000000000006000830152602082019050919050565b60006154dd602f836159bb565b91507f416363657373436f6e74726f6c3a2063616e206f6e6c792072656e6f756e636560008301527f20726f6c657320666f722073656c6600000000000000000000000000000000006020830152604082019050919050565b60006155436011836159bb565b91507f4275796261636b206973207061757365640000000000000000000000000000006000830152602082019050919050565b61557f81615a14565b82525050565b61558e81615a14565b82525050565b60006020820190506155a96000830184614e9f565b92915050565b60006060820190506155c46000830186614e90565b6155d16020830185614e9f565b6155de6040830184615576565b949350505050565b60006040820190506155fb6000830185614e90565b6156086020830184615576565b9392505050565b60006040820190506156246000830185614e9f565b6156316020830184614ecc565b9392505050565b600060408201905061564d6000830185614e9f565b61565a6020830184615576565b9392505050565b60006020820190506156766000830184614eae565b92915050565b60006020820190506156916000830184614ebd565b92915050565b600060208201905081810360008301526156b18184614edb565b905092915050565b600060208201905081810360008301526156d281614f14565b9050919050565b600060208201905081810360008301526156f281614f7a565b9050919050565b6000602082019050818103600083015261571281614fe0565b9050919050565b6000602082019050818103600083015261573281615046565b9050919050565b6000602082019050818103600083015261575281615086565b9050919050565b60006020820190508181036000830152615772816150c6565b9050919050565b600060208201905081810360008301526157928161512c565b9050919050565b600060208201905081810360008301526157b281615192565b9050919050565b600060208201905081810360008301526157d2816151d2565b9050919050565b600060208201905081810360008301526157f281615238565b9050919050565b600060208201905081810360008301526158128161529e565b9050919050565b6000602082019050818103600083015261583281615304565b9050919050565b6000602082019050818103600083015261585281615344565b9050919050565b6000602082019050818103600083015261587281615384565b9050919050565b6000602082019050818103600083015261589281615410565b9050919050565b600060208201905081810360008301526158b281615450565b9050919050565b600060208201905081810360008301526158d281615490565b9050919050565b600060208201905081810360008301526158f2816154d0565b9050919050565b6000602082019050818103600083015261591281615536565b9050919050565b600060208201905061592e6000830184615576565b92915050565b60006060820190506159496000830186615585565b6159566020830185615585565b6159636040830184615585565b949350505050565b60006080820190506159806000830187615585565b61598d6020830186615585565b61599a6040830185615585565b6159a76060830184615585565b95945050505050565b600081519050919050565b600082825260208201905092915050565b60006159d7826159f4565b9050919050565b60008115159050919050565b6000819050919050565b600073ffffffffffffffffffffffffffffffffffffffff82169050919050565b6000819050919050565b6000615a2982615a42565b9050919050565b6000615a3b82615a14565b9050919050565b6000615a4d82615a54565b9050919050565b6000615a5f826159f4565b9050919050565b60005b83811015615a84578082015181840152602081019050615a69565b83811115615a93576000848401525b50505050565b6000601f19601f8301169050919050565b615ab3816159cc565b8114615abe57600080fd5b50565b615aca816159de565b8114615ad557600080fd5b50565b615ae1816159ea565b8114615aec57600080fd5b50565b615af881615a14565b8114615b0357600080fd5b5056fea264697066735822122072ec7f20d7c36a4f6e721a6dbde8c3767e87d78655e4f0b70c48ee61cc5f65b364736f6c634300060c0033",
  "immutableReferences": {},
  "source": "// SPDX-License-Identifier: MIT\npragma solidity ^0.6.0 <0.7.0;\npragma experimental ABIEncoderV2;\n\nimport \"../../Math/SafeMath.sol\";\nimport \"../../FXS/FXS.sol\";\nimport \"../../Frax/Frax.sol\";\nimport \"../../ERC20/ERC20.sol\";\n// import '../../Uniswap/TransferHelper.sol';\nimport \"../../Oracle/UniswapPairOracle.sol\";\nimport \"../../Governance/AccessControl.sol\";\n// import \"../../Utils/StringHelpers.sol\";\nimport \"./FraxPoolLibrary.sol\";\n\ncontract FraxPool is AccessControl {\n    using SafeMath for uint256;\n\n    /* ========== STATE VARIABLES ========== */\n\n    ERC20 private collateral_token;\n    address private collateral_address;\n    address[] private owners;\n    address private oracle_address;\n    address private frax_contract_address;\n    address private fxs_contract_address;\n    address private timelock_address;\n    FRAXShares private FXS;\n    FRAXStablecoin private FRAX;\n    UniswapPairOracle private oracle;\n\n    mapping (address => uint256) private redeemFXSBalances;\n    mapping (address => uint256) private redeemCollateralBalances;\n    uint256 public unclaimedPoolCollateral;\n    uint256 public unclaimedPoolFXS;\n    mapping (address => uint256) lastRedeemed;\n    \n    // Pool_ceiling is the total units of collateral that a pool contract can hold\n    uint256 private pool_ceiling = 0;\n\n    // AccessControl Roles\n    bytes32 private constant MINT_PAUSER = keccak256(\"MINT_PAUSER\");\n    bytes32 private constant REDEEM_PAUSER = keccak256(\"REDEEM_PAUSER\");\n    bytes32 private constant BUYBACK_PAUSER = keccak256(\"BUYBACK_PAUSER\");\n    \n    // AccessControl state variables\n    bool mintPaused = false;\n    bool redeemPaused = false;\n    bool buyBackPaused = false;\n\n    /* ========== MODIFIERS ========== */\n\n    modifier onlyByOwnerOrGovernance() {\n        // Loop through the owners until one is found\n        bool found = false;\n        for (uint i = 0; i < owners.length; i++){ \n            if (owners[i] == msg.sender) {\n                found = true;\n                break;\n            }\n        }\n        require(found, \"You're not an owner\");\n        _;\n    }\n\n    // AccessControl Modifiers\n    modifier onlyMintPauser() {\n        require(hasRole(MINT_PAUSER, msg.sender));\n        _;\n    }\n\n    modifier onlyRedeemPauser() {\n        require(hasRole(REDEEM_PAUSER, msg.sender));\n        _;\n    }\n\n    modifier onlyBuyBackPauser() {\n        require(hasRole(BUYBACK_PAUSER, msg.sender));\n        _;\n    }\n\n    modifier notRedeemPaused() {\n        require(redeemPaused == false, \"Redeeming is paused\");\n        _;\n    }\n\n    modifier notMintPaused() {\n        require(mintPaused == false, \"Minting is paused\");\n        _;\n    }\n \n    /* ========== CONSTRUCTOR ========== */\n    \n    constructor(\n        address _collateral_address,\n        address _oracle_address,\n        address _creator_address,\n        address _timelock_address,\n        uint256 _pool_ceiling\n    ) public {\n        collateral_address = _collateral_address;\n        oracle_address = _oracle_address;\n        timelock_address = _timelock_address;\n        owners.push(_creator_address);\n        owners.push(_timelock_address);\n        oracle = UniswapPairOracle(_oracle_address);\n        collateral_token = ERC20(_collateral_address);\n        pool_ceiling = _pool_ceiling;\n\n        _setupRole(DEFAULT_ADMIN_ROLE, _msgSender());\n        grantRole(MINT_PAUSER, oracle_address);\n        grantRole(MINT_PAUSER, timelock_address);\n        grantRole(REDEEM_PAUSER, oracle_address);\n        grantRole(REDEEM_PAUSER, timelock_address);\n        grantRole(BUYBACK_PAUSER, oracle_address);\n        grantRole(BUYBACK_PAUSER, timelock_address);\n    }\n\n    /* ========== VIEWS ========== */\n\n    \n    function unclaimedFXS(address _account) public view returns (uint256) {\n        return redeemFXSBalances[_account];\n    }\n\n    function unclaimedCollateral(address _account) public view returns (uint256) {\n        return redeemCollateralBalances[_account];\n    }\n\n    function collatDollarBalance() public view returns (uint256) {\n        return (collateral_token.balanceOf(address(this)) - unclaimedPoolCollateral)\n                                .mul(oracle.consult(frax_contract_address, 1e6))  // X FRAX / 1 COLLAT\n                                .div(FRAX.frax_price());\n    }\n\n\n    // (uint256 frax_price, uint256 fxs_price, uint256 total_supply, uint256 global_collateral_ratio, uint256 global_collat_value, uint256 minting_fee, uint256 redemption_fee) = FRAX.frax_info();\n\n    function availableExcessCollatDV() public view returns (uint256) {\n        (uint256 frax_price, , uint256 total_supply, uint256 global_collateral_ratio, uint256 global_collat_value, , ) = FRAX.frax_info();\n        uint256 total_FRAX_dollar_value_d18 = total_supply.mul(1e6).div(frax_price); \n        if (global_collateral_ratio > 1e6) global_collateral_ratio = 1e6; // Handles an overcollateralized contract with CR > 1\n        uint256 required_collat_dollar_value_d18 = (total_FRAX_dollar_value_d18.mul(global_collateral_ratio)).div(1e6);\n        if (global_collat_value > required_collat_dollar_value_d18) return global_collat_value.sub(required_collat_dollar_value_d18);\n        else return 0;\n    }\n\n    /* ========== PUBLIC FUNCTIONS ========== */\n    \n    // We separate out the 1t1, fractional and algorithmic minting functions for gas efficiency \n    // 100+% collateral-backed\n    function mint1t1FRAX(uint256 collateral_amount_d18) external notMintPaused {\n        (uint256 frax_price, , , uint256 global_collateral_ratio, , uint256 minting_fee, ) = FRAX.frax_info();\n        require(global_collateral_ratio >= 1000000, \"Collateral ratio must be >= 1\");\n        require((collateral_token.balanceOf(address(this))) + collateral_amount_d18 <= pool_ceiling, \"[Pool's Closed]: Ceiling reached\");\n        \n        (uint256 frax_amount_d18) = FraxPoolLibrary.calcMint1t1FRAX(\n            oracle.consult(frax_contract_address, 1e6), // X FRAX / 1 COLLAT\n            frax_price,\n            minting_fee,\n            collateral_amount_d18\n        );\n\n        // TransferHelper.safeTransferFrom(collateral_address, msg.sender, address(this), collateral_amount_d18);\n        collateral_token.transferFrom(msg.sender, address(this), collateral_amount_d18);\n        FRAX.pool_mint(msg.sender, frax_amount_d18);\n    }\n\n    // 0% collateral-backed\n    function mintAlgorithmicFRAX(uint256 fxs_amount_d18) external notMintPaused {\n        (, uint256 fxs_price, , uint256 global_collateral_ratio, , uint256 minting_fee, ) = FRAX.frax_info();\n        require(global_collateral_ratio == 0, \"Collateral ratio must be 0\");\n        \n        (uint256 frax_amount_d18) = FraxPoolLibrary.calcMintAlgorithmicFRAX(\n            minting_fee, \n            fxs_price, // X FXS / 1 USD\n            fxs_amount_d18\n        );\n\n        FXS.pool_burn_from(msg.sender, fxs_amount_d18);\n        FRAX.pool_mint(msg.sender, frax_amount_d18);\n    }\n\n    // Will fail if fully collateralized or fully algorithmic\n    // > 0% and < 100% collateral-backed\n    function mintFractionalFRAX(uint256 collateral_amount, uint256 fxs_amount) external notMintPaused {\n        (uint256 frax_price, uint256 fxs_price, , uint256 global_collateral_ratio, , uint256 minting_fee, ) = FRAX.frax_info();\n        require(global_collateral_ratio < 1000000 && global_collateral_ratio > 0, \"Collateral ratio needs to be between .000001 and .999999\");\n        \n        FraxPoolLibrary.MintFF_Params memory input_params = FraxPoolLibrary.MintFF_Params(\n            minting_fee, \n            fxs_price, // X FXS / 1 USD\n            frax_price,\n            oracle.consult(frax_contract_address, 1e6),\n            fxs_amount,\n            collateral_amount,\n            (collateral_token.balanceOf(address(this))),\n            pool_ceiling,\n            global_collateral_ratio\n        );\n\n        (uint256 collateral_needed, uint256 mint_amount, uint256 fxs_needed) = FraxPoolLibrary.calcMintFractionalFRAX(input_params);\n\n        require((collateral_token.balanceOf(address(this))) + collateral_needed <= pool_ceiling, \"[Pool's Closed]: Ceiling reached\");\n\n        // TransferHelper.safeTransferFrom(collateral_address, msg.sender, address(this), collateral_needed);\n        collateral_token.transferFrom(msg.sender, address(this), collateral_needed);\n        FRAX.pool_mint(msg.sender, mint_amount);\n        FXS.burnFrom(msg.sender, fxs_needed);\n    }\n\n    // Redeem collateral. 100+% collateral-backed\n    function redeem1t1FRAX(uint256 FRAX_amount) external notRedeemPaused {\n        (uint256 frax_price, , , uint256 global_collateral_ratio, , , uint256 redemption_fee) = FRAX.frax_info();\n        require(global_collateral_ratio >= 1000000, \"Collateral ratio must be >= 1\");\n\n        (uint256 collateral_needed) = FraxPoolLibrary.calcRedeem1t1FRAX(\n            frax_price,\n            oracle.consult(frax_contract_address, 1e6).mul(1e6).div(frax_price),\n            FRAX_amount,\n            redemption_fee\n        );\n\n        collateral_token.approve(msg.sender, collateral_needed);\n        redeemCollateralBalances[msg.sender] += collateral_needed;\n        unclaimedPoolCollateral += collateral_needed;\n        \n        lastRedeemed[msg.sender] = block.number;\n\n        FRAX.pool_burn_from(msg.sender, FRAX_amount);\n    }\n\n    // Will fail if fully collateralized or algorithmic\n    // Redeem FRAX for collateral and FXS. .000001% - .999999% collateral-backed\n    function redeemFractionalFRAX(uint256 FRAX_amount) external notRedeemPaused {\n        (uint256 frax_price, uint256 fxs_price, , uint256 global_collateral_ratio, , , uint256 redemption_fee) = FRAX.frax_info();\n        require(global_collateral_ratio < 1000000 && global_collateral_ratio > 0, \"Collateral ratio needs to be between .000001 and .999999\");\n        uint256 frax_dollar_value_d18 = FRAX_amount.mul(1e6).div(frax_price);\n        uint256 col_price_usd = oracle.consult(frax_contract_address, 1e6).mul(1e6).div(frax_price);\n\n        frax_dollar_value_d18 = frax_dollar_value_d18.sub((frax_dollar_value_d18.mul(redemption_fee)).div(1e6));\n        uint256 collateral_dollar_value_d18 = frax_dollar_value_d18.mul(global_collateral_ratio).div(1e6);\n        uint256 fxs_dollar_value_d18 = frax_dollar_value_d18.sub(collateral_dollar_value_d18);\n\n        collateral_token.approve(msg.sender, collateral_dollar_value_d18.mul(col_price_usd).div(1e6));\n        redeemCollateralBalances[msg.sender] += collateral_dollar_value_d18.mul(col_price_usd).div(1e6);\n        unclaimedPoolCollateral += collateral_dollar_value_d18.mul(col_price_usd).div(1e6);\n\n        FXS.pool_mint(address(this), fxs_dollar_value_d18.mul(fxs_price).div(1e6));\n        FXS.approve(msg.sender, fxs_dollar_value_d18.mul(fxs_price).div(1e6));\n        redeemFXSBalances[msg.sender] += fxs_dollar_value_d18.mul(fxs_price).div(1e6);\n        unclaimedPoolFXS += fxs_dollar_value_d18.mul(fxs_price).div(1e6);\n        \n        lastRedeemed[msg.sender] = block.number;\n\n        FRAX.pool_burn_from(msg.sender, FRAX_amount);\n    }\n\n    // Redeem FRAX for FXS. 0% collateral-backed\n    function redeemAlgorithmicFRAX(uint256 FRAX_amount) external notRedeemPaused {\n        (uint256 frax_price, uint256 fxs_price, , uint256 global_collateral_ratio, , , uint256 redemption_fee) = FRAX.frax_info();\n        require(global_collateral_ratio == 0, \"Collateral ratio must be 0\"); \n        uint256 frax_dollar_value_d18 = FRAX_amount.mul(1e6).div(frax_price);\n        frax_dollar_value_d18 = frax_dollar_value_d18.sub((frax_dollar_value_d18.mul(redemption_fee)).div(1e6));\n\n        FXS.pool_mint(address(this), frax_dollar_value_d18.mul(fxs_price).div(1e6));\n        FXS.approve(msg.sender, frax_dollar_value_d18.mul(fxs_price).div(1e6));\n        redeemFXSBalances[msg.sender] += frax_dollar_value_d18.mul(fxs_price).div(1e6);\n        unclaimedPoolFXS += frax_dollar_value_d18.mul(fxs_price).div(1e6);\n        \n        lastRedeemed[msg.sender] = block.number;\n        \n        FRAX.pool_burn_from(msg.sender, FRAX_amount);\n    }\n\n    // After a redemption happens, transfer the newly minted FXS and owed collateral from this pool\n    // contract to the user. Redemption is split into two functions to prevent flash loans from being able\n    // to take out FRAX/collateral from the system, use an AMM to trade the new price, and then mint back into the system.\n    function collectRedemption() public {\n        require(lastRedeemed[msg.sender] < block.number, \"must wait at least one block before collecting redemption\");\n        if(redeemFXSBalances[msg.sender] > 0){\n            FXS.transfer(msg.sender, redeemFXSBalances[msg.sender]);\n            unclaimedPoolFXS -= redeemFXSBalances[msg.sender];\n            redeemFXSBalances[msg.sender] = 0;\n        }\n        \n        if(redeemCollateralBalances[msg.sender] > 0){\n            collateral_token.transfer(msg.sender, redeemCollateralBalances[msg.sender]);\n            unclaimedPoolCollateral -= redeemCollateralBalances[msg.sender];\n            redeemCollateralBalances[msg.sender] = 0;\n        }\n    }\n\n\n    // Function can be called by an FXS holder to have the protocol buy back FXS with excess collateral value from a desired collateral pool\n    // This can also happen if the collateral ratio > 1\n    function buyBackFXS(uint256 FXS_amount) external {\n        require(buyBackPaused == false, \"Buyback is paused\");\n        (uint256 frax_price, uint256 fxs_price, , , , , uint256 redemption_fee) = FRAX.frax_info();\n        \n        FraxPoolLibrary.BuybackFXS_Params memory input_params = FraxPoolLibrary.BuybackFXS_Params(\n            redemption_fee,\n            availableExcessCollatDV(),\n            fxs_price,\n            oracle.consult(frax_contract_address, 1e6).mul(1e6).div(frax_price),\n            FXS_amount\n        );\n\n        (uint256 collateral_equivalent_d18) = FraxPoolLibrary.calcBuyBackFXS(input_params);\n\n        // Give the sender their desired collateral and burn the FXS\n        collateral_token.transfer(msg.sender, collateral_equivalent_d18);\n        FXS.burnFrom(msg.sender, FXS_amount);\n    }\n\n    \n    // When the protocol is recollateralizing, we need to give a discount of FXS to hit the new CR target\n    // Returns value of collateral that must increase to reach recollateralization target (if 0 means no recollateralization)\n    function recollateralizeAmount() public view returns (uint256 recollateralization_left) {\n        ( , , uint256 total_supply, uint256 global_collateral_ratio, uint256 global_collat_value, , ) = FRAX.frax_info();\n        uint256 target_collat_value = total_supply.mul(global_collateral_ratio).div(1e12); // We want 6 degrees of precision so divide by 1e12 \n        // Subtract the current value of collateral from the target value needed, if higher than 0 then system needs to recollateralize\n        if (target_collat_value > global_collat_value) recollateralization_left = target_collat_value.sub(global_collat_value); \n        \n        else recollateralization_left = 0;\n        \n        return(recollateralization_left);\n    }\n    \n    // Thus, if the target collateral ratio is higher than the actual value of collateral, minters get FXS for adding collateral\n    // This function simply rewards anyone that sends collateral to a pool with the same amount of FXS + 1% \n    // Anyone can call this function to recollateralize the protocol and take the hardcoded 1% arb opportunity\n    function recollateralizeFrax(uint256 collateral_amount_d18) public {\n        require(recollateralizeAmount() > 0, \"no extra collateral needed\"); \n\n        (uint256 frax_price, uint256 fxs_price, , , , , ) = FRAX.frax_info();\n        // The discount rate is the extra FXS they get for the collateral they put in, essentially an open arb opportunity \n        uint256 col_price = oracle.consult(frax_contract_address, 1e6); // X FRAX / 1 COLLAT\n        uint256 col_price_usd = col_price.mul(1e6).div(frax_price);\n        uint256 c_dollar_value_d18 = (collateral_amount_d18.mul(col_price_usd)).div(1e6);\n        uint256 recol_am = recollateralizeAmount();\n        \n        if (recol_am >= c_dollar_value_d18)  recol_am = c_dollar_value_d18;\n        \n        else {\n           c_dollar_value_d18 = recol_am;  \n        }\n        uint256 fxs_col_value = c_dollar_value_d18.add(recol_am.div(1e2)); // Add the discount rate of 1% to the FXS amount \n        collateral_token.transferFrom(msg.sender, address(this), collateral_amount_d18);\n        FXS.pool_mint(tx.origin, fxs_col_value.mul(fxs_price).div(1e6));\n\n    }\n\n    /* ========== RESTRICTED FUNCTIONS ========== */\n\n    function toggleMinting() external onlyMintPauser {\n        mintPaused = !mintPaused;\n    }\n    \n    function toggleRedeeming() external onlyRedeemPauser {\n        redeemPaused = !redeemPaused;\n    }\n    \n    function toggleBuyBack() external onlyBuyBackPauser {\n        buyBackPaused = !buyBackPaused;\n    }\n\n    function setPoolCeiling(uint256 new_ceiling) external onlyByOwnerOrGovernance {\n        pool_ceiling = new_ceiling;\n    }\n\n    function setOracle(address new_oracle) external onlyByOwnerOrGovernance {\n        oracle_address = new_oracle;\n        oracle = UniswapPairOracle(oracle_address);\n    }\n    \n    function setCollateralAdd(address _collateral_address) external onlyByOwnerOrGovernance {\n        collateral_address = _collateral_address;\n        collateral_token = ERC20(_collateral_address);\n    }\n    \n    function setFRAXAddress(address _frax_contract_address) external onlyByOwnerOrGovernance {\n        FRAX = FRAXStablecoin(_frax_contract_address);\n        frax_contract_address = _frax_contract_address;\n    }\n\n    function setFXSAddress(address _fxs_contract_address) external onlyByOwnerOrGovernance {\n        FXS = FRAXShares(_fxs_contract_address);\n        fxs_contract_address = _fxs_contract_address;\n    }\n\n    // Adds an owner \n    function addOwner(address owner_address) external onlyByOwnerOrGovernance {\n        owners.push(owner_address);\n    }\n\n    // Removes an owner \n    function removeOwner(address owner_address) external onlyByOwnerOrGovernance {\n        // 'Delete' from the array by setting the address to 0x0\n        for (uint i = 0; i < owners.length; i++){ \n            if (owners[i] == owner_address) {\n                owners[i] = address(0); // This will leave a null in the array and keep the indices the same\n                break;\n            }\n        }\n    }\n    \n    /* ========== EVENTS ========== */\n\n}\n",
  "sourcePath": "/home/travis/Documents/Ubuntu_Shared/frax-price-feed/src/truffle/contracts/Frax/Pools/FraxPool.sol",
  "compiler": {
    "name": "solc",
    "version": "0.6.12+commit.27d51765.Emscripten.clang"
  },
  "schemaVersion": "3.2.4",
  "updatedAt": "2020-10-08T23:05:43.498Z",
  "devdoc": {
    "kind": "dev",
    "methods": {
      "getRoleAdmin(bytes32)": {
        "details": "Returns the admin role that controls `role`. See {grantRole} and {revokeRole}. To change a role's admin, use {_setRoleAdmin}."
      },
      "getRoleMember(bytes32,uint256)": {
        "details": "Returns one of the accounts that have `role`. `index` must be a value between 0 and {getRoleMemberCount}, non-inclusive. Role bearers are not sorted in any particular way, and their ordering may change at any point. WARNING: When using {getRoleMember} and {getRoleMemberCount}, make sure you perform all queries on the same block. See the following https://forum.openzeppelin.com/t/iterating-over-elements-on-enumerableset-in-openzeppelin-contracts/2296[forum post] for more information."
      },
      "getRoleMemberCount(bytes32)": {
        "details": "Returns the number of accounts that have `role`. Can be used together with {getRoleMember} to enumerate all bearers of a role."
      },
      "grantRole(bytes32,address)": {
        "details": "Grants `role` to `account`. If `account` had not been already granted `role`, emits a {RoleGranted} event. Requirements: - the caller must have ``role``'s admin role."
      },
      "hasRole(bytes32,address)": {
        "details": "Returns `true` if `account` has been granted `role`."
      },
      "renounceRole(bytes32,address)": {
        "details": "Revokes `role` from the calling account. Roles are often managed via {grantRole} and {revokeRole}: this function's purpose is to provide a mechanism for accounts to lose their privileges if they are compromised (such as when a trusted device is misplaced). If the calling account had been granted `role`, emits a {RoleRevoked} event. Requirements: - the caller must be `account`."
      },
      "revokeRole(bytes32,address)": {
        "details": "Revokes `role` from `account`. If `account` had been granted `role`, emits a {RoleRevoked} event. Requirements: - the caller must have ``role``'s admin role."
      }
    },
    "version": 1
  },
  "userdoc": {
    "kind": "user",
    "methods": {},
    "version": 1
  }
}