{
  "contractName": "FraxPoolLibrary",
  "abi": [
    {
      "inputs": [
        {
          "internalType": "uint256",
          "name": "col_price",
          "type": "uint256"
        },
        {
          "internalType": "uint256",
          "name": "frax_price",
          "type": "uint256"
        },
        {
          "internalType": "uint256",
          "name": "mint_fee",
          "type": "uint256"
        },
        {
          "internalType": "uint256",
          "name": "collateral_amount_d18",
          "type": "uint256"
        }
      ],
      "name": "calcMint1t1FRAX",
      "outputs": [
        {
          "internalType": "uint256",
          "name": "",
          "type": "uint256"
        }
      ],
      "stateMutability": "pure",
      "type": "function",
      "constant": true
    },
    {
      "inputs": [
        {
          "internalType": "uint256",
          "name": "mint_fee",
          "type": "uint256"
        },
        {
          "internalType": "uint256",
          "name": "fxs_price_usd",
          "type": "uint256"
        },
        {
          "internalType": "uint256",
          "name": "fxs_amount_d18",
          "type": "uint256"
        }
      ],
      "name": "calcMintAlgorithmicFRAX",
      "outputs": [
        {
          "internalType": "uint256",
          "name": "",
          "type": "uint256"
        }
      ],
      "stateMutability": "pure",
      "type": "function",
      "constant": true
    },
    {
      "inputs": [
        {
          "internalType": "uint256",
          "name": "frax_price_usd",
          "type": "uint256"
        },
        {
          "internalType": "uint256",
          "name": "col_price_usd",
          "type": "uint256"
        },
        {
          "internalType": "uint256",
          "name": "FRAX_amount",
          "type": "uint256"
        },
        {
          "internalType": "uint256",
          "name": "redemption_fee",
          "type": "uint256"
        }
      ],
      "name": "calcRedeem1t1FRAX",
      "outputs": [
        {
          "internalType": "uint256",
          "name": "",
          "type": "uint256"
        }
      ],
      "stateMutability": "pure",
      "type": "function",
      "constant": true
    }
  ],
  "bytecode": "0x6106d8610026600b82828239805160001a60731461001957fe5b30600052607381538281f3fe730000000000000000000000000000000000000000301460806040526004361061004b5760003560e01c8063258980fc14610050578063e35178ca14610080578063f69a7aa8146100b0575b600080fd5b61006a600480360381019061006591906104b3565b6100e0565b6040516100779190610606565b60405180910390f35b61009a600480360381019061009591906104b3565b61017f565b6040516100a79190610606565b60405180910390f35b6100ca60048036038101906100c59190610464565b61021e565b6040516100d79190610606565b60405180910390f35b60008061010b866100fd620f42408761028f90919063ffffffff16565b6102ff90919063ffffffff16565b90506000610137620f4240610129888561028f90919063ffffffff16565b6102ff90919063ffffffff16565b9050610173610164620f4240610156878561028f90919063ffffffff16565b6102ff90919063ffffffff16565b8261034990919063ffffffff16565b92505050949350505050565b6000806101aa8561019c620f42408961028f90919063ffffffff16565b6102ff90919063ffffffff16565b905060006101d6826101c8620f42408761028f90919063ffffffff16565b6102ff90919063ffffffff16565b9050610212610203620f42406101f5888561028f90919063ffffffff16565b6102ff90919063ffffffff16565b8261034990919063ffffffff16565b92505050949350505050565b6000806102498461023b620f42408661028f90919063ffffffff16565b6102ff90919063ffffffff16565b9050610285610276620f4240610268888561028f90919063ffffffff16565b6102ff90919063ffffffff16565b8261034990919063ffffffff16565b9150509392505050565b6000808314156102a257600090506102f9565b60008284029050828482816102b357fe5b04146102f4576040517f08c379a00000000000000000000000000000000000000000000000000000000081526004016102eb906105e6565b60405180910390fd5b809150505b92915050565b600061034183836040518060400160405280601a81526020017f536166654d6174683a206469766973696f6e206279207a65726f000000000000815250610393565b905092915050565b600061038b83836040518060400160405280601e81526020017f536166654d6174683a207375627472616374696f6e206f766572666c6f7700008152506103f4565b905092915050565b600080831182906103da576040517f08c379a00000000000000000000000000000000000000000000000000000000081526004016103d191906105c4565b60405180910390fd5b5060008385816103e657fe5b049050809150509392505050565b600083831115829061043c576040517f08c379a000000000000000000000000000000000000000000000000000000000815260040161043391906105c4565b60405180910390fd5b5060008385039050809150509392505050565b60008135905061045e8161068b565b92915050565b60008060006060848603121561047957600080fd5b60006104878682870161044f565b93505060206104988682870161044f565b92505060406104a98682870161044f565b9150509250925092565b600080600080608085870312156104c957600080fd5b60006104d78782880161044f565b94505060206104e88782880161044f565b93505060406104f98782880161044f565b925050606061050a8782880161044f565b91505092959194509250565b600061052182610621565b61052b818561062c565b935061053b818560208601610647565b6105448161067a565b840191505092915050565b600061055c60218361062c565b91507f536166654d6174683a206d756c7469706c69636174696f6e206f766572666c6f60008301527f77000000000000000000000000000000000000000000000000000000000000006020830152604082019050919050565b6105be8161063d565b82525050565b600060208201905081810360008301526105de8184610516565b905092915050565b600060208201905081810360008301526105ff8161054f565b9050919050565b600060208201905061061b60008301846105b5565b92915050565b600081519050919050565b600082825260208201905092915050565b6000819050919050565b60005b8381101561066557808201518184015260208101905061064a565b83811115610674576000848401525b50505050565b6000601f19601f8301169050919050565b6106948161063d565b811461069f57600080fd5b5056fea26469706673582212203b3c3de20081024eb7b04191d64afff88b0193eabf6f7f95c65110959b446b2164736f6c634300060c0033",
  "immutableReferences": {},
  "source": "// SPDX-License-Identifier: MIT\npragma solidity ^0.6.0;\npragma experimental ABIEncoderV2;\n\nimport \"../../Math/SafeMath.sol\";\n\n\n\nlibrary FraxPoolLibrary {\n    using SafeMath for uint256;\n\n    // ================ Structs ================\n    // Needed to lower stack size\n    struct MintFF_Params {\n        uint256 mint_fee; \n        uint256 fxs_price_usd; \n        uint256 frax_price_usd; \n        uint256 col_price_frax;\n        uint256 fxs_amount;\n        uint256 collateral_amount;\n        uint256 collateral_token_balance;\n        uint256 pool_ceiling;\n        uint256 col_ratio;\n    }\n\n    struct BuybackFXS_Params {\n        uint256 buyback_fee;\n        uint256 excess_collateral_dollar_value_d18;\n        uint256 fxs_price_usd;\n        uint256 col_price_usd;\n        uint256 FXS_amount;\n    }\n\n    // ================ Functions ================\n\n    function calcMint1t1FRAX(uint256 col_price, uint256 frax_price, uint256 mint_fee, uint256 collateral_amount_d18) public pure returns (uint256) {\n        uint256 col_price_usd = col_price.mul(1e6).div(frax_price);\n        uint256 c_dollar_value_d18 = (collateral_amount_d18.mul(1e6)).div(col_price_usd);\n        return c_dollar_value_d18.sub((c_dollar_value_d18.mul(mint_fee)).div(1e6));\n    }\n\n    function calcMintAlgorithmicFRAX(uint256 mint_fee, uint256 fxs_price_usd, uint256 fxs_amount_d18) public pure returns (uint256) {\n        uint256 fxs_dollar_value_d18 = fxs_amount_d18.mul(1e6).div(fxs_price_usd);\n        return fxs_dollar_value_d18.sub((fxs_dollar_value_d18.mul(mint_fee)).div(1e6));\n    }\n\n    // Must be internal because of the struct\n    function calcMintFractionalFRAX(MintFF_Params memory params) internal pure returns (uint256, uint256, uint256) {\n        // Since solidity truncates division, every division operation must be the last operation in the equation to ensure minimum error\n        // The contract must check the proper ratio was sent to mint FRAX. We do this by seeing the minimum mintable FRAX based on each amount \n        uint256 fxs_needed;\n        uint256 collateral_needed;\n        uint256 fxs_dollar_value_d18;\n        uint256 c_dollar_value_d18;\n        \n        // Scoping for stack concerns\n        {\n            uint256 col_price_usd = params.col_price_frax.mul(1e6).div(params.frax_price_usd);\n        \n            // USD amounts of the collateral and the FXS\n            fxs_dollar_value_d18 = params.fxs_amount.mul(1e6).div(params.fxs_price_usd);\n            c_dollar_value_d18 = params.collateral_amount.mul(1e6).div(col_price_usd);\n\n            // Recalculate and round down\n            collateral_needed = c_dollar_value_d18.mul(col_price_usd).div(1e6);\n        }\n        require(params.collateral_token_balance + collateral_needed < params.pool_ceiling, \"Pool ceiling reached, no more FRAX can be minted with this collateral\");\n        \n        fxs_needed = ((c_dollar_value_d18.mul(1e6).div(params.col_ratio)).sub(c_dollar_value_d18)).mul(params.fxs_price_usd).div(1e6);\n        fxs_dollar_value_d18 = fxs_needed.mul(1e6).div(params.fxs_price_usd);\n\n        return (\n            collateral_needed,\n            (c_dollar_value_d18 + fxs_dollar_value_d18).sub(((c_dollar_value_d18 + fxs_dollar_value_d18).mul(params.mint_fee)).div(1e6)),\n            fxs_needed\n        );\n    }\n\n    function calcRedeem1t1FRAX(uint256 frax_price_usd, uint256 col_price_usd, uint256 FRAX_amount, uint256 redemption_fee) public pure returns (uint256) {\n        uint256 frax_dollar_value_d18 = FRAX_amount.mul(1e6).div(frax_price_usd);\n        uint256 collateral_needed_d18 = frax_dollar_value_d18.mul(col_price_usd).div(1e6);\n        return collateral_needed_d18.sub((collateral_needed_d18.mul(redemption_fee)).div(1e6));\n    }\n\n    // Must be internal because of the struct\n    function calcBuyBackFXS(BuybackFXS_Params memory params) internal pure returns (uint256) {\n        // If the total collateral value is higher than the amount required at the current collateral ratio then buy back up to the possible FXS with the desired collateral\n        require(params.excess_collateral_dollar_value_d18 > 0, \"No excess collateral to buy back!\");\n\n        // Make sure not to take more than is available\n        uint256 fxs_dollar_value_d18 = params.FXS_amount.mul(1e6).div(params.fxs_price_usd);\n        require(fxs_dollar_value_d18 <= params.excess_collateral_dollar_value_d18, \"You are trying to buy back more than the excess!\");\n\n        // Get the equivalent amount of collateral based on the market value of FXS provided \n        uint256 collateral_equivalent_d18 = fxs_dollar_value_d18.mul(1e6).div(params.col_price_usd);\n        collateral_equivalent_d18 = collateral_equivalent_d18.sub((collateral_equivalent_d18.mul(params.buyback_fee)).div(1e6));\n\n        return (\n            collateral_equivalent_d18\n        );\n\n    }\n\n}\n",
  "sourcePath": "/home/travis/Documents/Ubuntu_Shared/frax-price-feed/src/truffle/contracts/Frax/Pools/FraxPoolLibrary.sol",
  "compiler": {
    "name": "solc",
    "version": "0.6.12+commit.27d51765.Emscripten.clang"
  },
  "schemaVersion": "3.2.4",
  "updatedAt": "2020-10-08T23:05:58.476Z",
  "networkType": "ethereum",
  "devdoc": {
    "kind": "dev",
    "methods": {},
    "version": 1
  },
  "userdoc": {
    "kind": "user",
    "methods": {},
    "version": 1
  }
}