{
  "contractName": "GovernorAlpha",
  "abi": [
    {
      "inputs": [
        {
          "internalType": "address",
          "name": "timelock_",
          "type": "address"
        },
        {
          "internalType": "address",
          "name": "fxs_",
          "type": "address"
        },
        {
          "internalType": "address",
          "name": "guardian_",
          "type": "address"
        }
      ],
      "stateMutability": "nonpayable",
      "type": "constructor"
    },
    {
      "anonymous": false,
      "inputs": [
        {
          "indexed": false,
          "internalType": "uint256",
          "name": "id",
          "type": "uint256"
        }
      ],
      "name": "ProposalCanceled",
      "type": "event"
    },
    {
      "anonymous": false,
      "inputs": [
        {
          "indexed": false,
          "internalType": "uint256",
          "name": "id",
          "type": "uint256"
        },
        {
          "indexed": false,
          "internalType": "address",
          "name": "proposer",
          "type": "address"
        },
        {
          "indexed": false,
          "internalType": "address[]",
          "name": "targets",
          "type": "address[]"
        },
        {
          "indexed": false,
          "internalType": "uint256[]",
          "name": "values",
          "type": "uint256[]"
        },
        {
          "indexed": false,
          "internalType": "string[]",
          "name": "signatures",
          "type": "string[]"
        },
        {
          "indexed": false,
          "internalType": "bytes[]",
          "name": "calldatas",
          "type": "bytes[]"
        },
        {
          "indexed": false,
          "internalType": "uint256",
          "name": "startBlock",
          "type": "uint256"
        },
        {
          "indexed": false,
          "internalType": "uint256",
          "name": "endBlock",
          "type": "uint256"
        },
        {
          "indexed": false,
          "internalType": "string",
          "name": "description",
          "type": "string"
        }
      ],
      "name": "ProposalCreated",
      "type": "event"
    },
    {
      "anonymous": false,
      "inputs": [
        {
          "indexed": false,
          "internalType": "uint256",
          "name": "id",
          "type": "uint256"
        }
      ],
      "name": "ProposalExecuted",
      "type": "event"
    },
    {
      "anonymous": false,
      "inputs": [
        {
          "indexed": false,
          "internalType": "uint256",
          "name": "id",
          "type": "uint256"
        },
        {
          "indexed": false,
          "internalType": "uint256",
          "name": "eta",
          "type": "uint256"
        }
      ],
      "name": "ProposalQueued",
      "type": "event"
    },
    {
      "anonymous": false,
      "inputs": [
        {
          "indexed": false,
          "internalType": "address",
          "name": "voter",
          "type": "address"
        },
        {
          "indexed": false,
          "internalType": "uint256",
          "name": "proposalId",
          "type": "uint256"
        },
        {
          "indexed": false,
          "internalType": "bool",
          "name": "support",
          "type": "bool"
        },
        {
          "indexed": false,
          "internalType": "uint256",
          "name": "votes",
          "type": "uint256"
        }
      ],
      "name": "VoteCast",
      "type": "event"
    },
    {
      "inputs": [],
      "name": "BALLOT_TYPEHASH",
      "outputs": [
        {
          "internalType": "bytes32",
          "name": "",
          "type": "bytes32"
        }
      ],
      "stateMutability": "view",
      "type": "function",
      "constant": true
    },
    {
      "inputs": [],
      "name": "DOMAIN_TYPEHASH",
      "outputs": [
        {
          "internalType": "bytes32",
          "name": "",
          "type": "bytes32"
        }
      ],
      "stateMutability": "view",
      "type": "function",
      "constant": true
    },
    {
      "inputs": [],
      "name": "guardian",
      "outputs": [
        {
          "internalType": "address",
          "name": "",
          "type": "address"
        }
      ],
      "stateMutability": "view",
      "type": "function",
      "constant": true
    },
    {
      "inputs": [
        {
          "internalType": "address",
          "name": "",
          "type": "address"
        }
      ],
      "name": "latestProposalIds",
      "outputs": [
        {
          "internalType": "uint256",
          "name": "",
          "type": "uint256"
        }
      ],
      "stateMutability": "view",
      "type": "function",
      "constant": true
    },
    {
      "inputs": [],
      "name": "name",
      "outputs": [
        {
          "internalType": "string",
          "name": "",
          "type": "string"
        }
      ],
      "stateMutability": "view",
      "type": "function",
      "constant": true
    },
    {
      "inputs": [],
      "name": "proposalCount",
      "outputs": [
        {
          "internalType": "uint256",
          "name": "",
          "type": "uint256"
        }
      ],
      "stateMutability": "view",
      "type": "function",
      "constant": true
    },
    {
      "inputs": [
        {
          "internalType": "uint256",
          "name": "",
          "type": "uint256"
        }
      ],
      "name": "proposal_ids",
      "outputs": [
        {
          "internalType": "uint256",
          "name": "",
          "type": "uint256"
        }
      ],
      "stateMutability": "view",
      "type": "function",
      "constant": true
    },
    {
      "inputs": [
        {
          "internalType": "uint256",
          "name": "",
          "type": "uint256"
        }
      ],
      "name": "proposals",
      "outputs": [
        {
          "internalType": "uint256",
          "name": "id",
          "type": "uint256"
        },
        {
          "internalType": "address",
          "name": "proposer",
          "type": "address"
        },
        {
          "internalType": "uint256",
          "name": "eta",
          "type": "uint256"
        },
        {
          "internalType": "uint256",
          "name": "startBlock",
          "type": "uint256"
        },
        {
          "internalType": "uint256",
          "name": "endBlock",
          "type": "uint256"
        },
        {
          "internalType": "uint256",
          "name": "forVotes",
          "type": "uint256"
        },
        {
          "internalType": "uint256",
          "name": "againstVotes",
          "type": "uint256"
        },
        {
          "internalType": "bool",
          "name": "canceled",
          "type": "bool"
        },
        {
          "internalType": "bool",
          "name": "executed",
          "type": "bool"
        },
        {
          "internalType": "string",
          "name": "title",
          "type": "string"
        },
        {
          "internalType": "string",
          "name": "description",
          "type": "string"
        }
      ],
      "stateMutability": "view",
      "type": "function",
      "constant": true
    },
    {
      "inputs": [],
      "name": "timelock",
      "outputs": [
        {
          "internalType": "contract TimelockInterface",
          "name": "",
          "type": "address"
        }
      ],
      "stateMutability": "view",
      "type": "function",
      "constant": true
    },
    {
      "inputs": [],
      "name": "votingPeriod",
      "outputs": [
        {
          "internalType": "uint256",
          "name": "",
          "type": "uint256"
        }
      ],
      "stateMutability": "view",
      "type": "function",
      "constant": true
    },
    {
      "inputs": [],
      "name": "quorumVotes",
      "outputs": [
        {
          "internalType": "uint256",
          "name": "",
          "type": "uint256"
        }
      ],
      "stateMutability": "pure",
      "type": "function",
      "constant": true
    },
    {
      "inputs": [],
      "name": "proposalThreshold",
      "outputs": [
        {
          "internalType": "uint256",
          "name": "",
          "type": "uint256"
        }
      ],
      "stateMutability": "pure",
      "type": "function",
      "constant": true
    },
    {
      "inputs": [],
      "name": "proposalMaxOperations",
      "outputs": [
        {
          "internalType": "uint256",
          "name": "",
          "type": "uint256"
        }
      ],
      "stateMutability": "pure",
      "type": "function",
      "constant": true
    },
    {
      "inputs": [],
      "name": "votingDelay",
      "outputs": [
        {
          "internalType": "uint256",
          "name": "",
          "type": "uint256"
        }
      ],
      "stateMutability": "pure",
      "type": "function",
      "constant": true
    },
    {
      "inputs": [
        {
          "internalType": "address[]",
          "name": "targets",
          "type": "address[]"
        },
        {
          "internalType": "uint256[]",
          "name": "values",
          "type": "uint256[]"
        },
        {
          "internalType": "string[]",
          "name": "signatures",
          "type": "string[]"
        },
        {
          "internalType": "bytes[]",
          "name": "calldatas",
          "type": "bytes[]"
        },
        {
          "internalType": "string",
          "name": "title",
          "type": "string"
        },
        {
          "internalType": "string",
          "name": "description",
          "type": "string"
        }
      ],
      "name": "propose",
      "outputs": [
        {
          "internalType": "uint256",
          "name": "",
          "type": "uint256"
        }
      ],
      "stateMutability": "nonpayable",
      "type": "function"
    },
    {
      "inputs": [
        {
          "internalType": "uint256",
          "name": "proposalId",
          "type": "uint256"
        }
      ],
      "name": "queue",
      "outputs": [],
      "stateMutability": "nonpayable",
      "type": "function"
    },
    {
      "inputs": [
        {
          "internalType": "uint256",
          "name": "proposalId",
          "type": "uint256"
        }
      ],
      "name": "execute",
      "outputs": [],
      "stateMutability": "payable",
      "type": "function",
      "payable": true
    },
    {
      "inputs": [
        {
          "internalType": "uint256",
          "name": "proposalId",
          "type": "uint256"
        }
      ],
      "name": "cancel",
      "outputs": [],
      "stateMutability": "nonpayable",
      "type": "function"
    },
    {
      "inputs": [
        {
          "internalType": "uint256",
          "name": "proposalId",
          "type": "uint256"
        }
      ],
      "name": "getActions",
      "outputs": [
        {
          "internalType": "address[]",
          "name": "targets",
          "type": "address[]"
        },
        {
          "internalType": "uint256[]",
          "name": "values",
          "type": "uint256[]"
        },
        {
          "internalType": "string[]",
          "name": "signatures",
          "type": "string[]"
        },
        {
          "internalType": "bytes[]",
          "name": "calldatas",
          "type": "bytes[]"
        }
      ],
      "stateMutability": "view",
      "type": "function",
      "constant": true
    },
    {
      "inputs": [
        {
          "internalType": "uint256",
          "name": "proposalId",
          "type": "uint256"
        },
        {
          "internalType": "address",
          "name": "voter",
          "type": "address"
        }
      ],
      "name": "getReceipt",
      "outputs": [
        {
          "components": [
            {
              "internalType": "bool",
              "name": "hasVoted",
              "type": "bool"
            },
            {
              "internalType": "bool",
              "name": "support",
              "type": "bool"
            },
            {
              "internalType": "uint96",
              "name": "votes",
              "type": "uint96"
            }
          ],
          "internalType": "struct GovernorAlpha.Receipt",
          "name": "",
          "type": "tuple"
        }
      ],
      "stateMutability": "view",
      "type": "function",
      "constant": true
    },
    {
      "inputs": [
        {
          "internalType": "uint256",
          "name": "proposalId",
          "type": "uint256"
        }
      ],
      "name": "state",
      "outputs": [
        {
          "internalType": "enum GovernorAlpha.ProposalState",
          "name": "",
          "type": "uint8"
        }
      ],
      "stateMutability": "view",
      "type": "function",
      "constant": true
    },
    {
      "inputs": [
        {
          "internalType": "uint256",
          "name": "proposalId",
          "type": "uint256"
        },
        {
          "internalType": "bool",
          "name": "support",
          "type": "bool"
        }
      ],
      "name": "castVote",
      "outputs": [],
      "stateMutability": "nonpayable",
      "type": "function"
    },
    {
      "inputs": [
        {
          "internalType": "uint256",
          "name": "proposalId",
          "type": "uint256"
        },
        {
          "internalType": "bool",
          "name": "support",
          "type": "bool"
        },
        {
          "internalType": "uint8",
          "name": "v",
          "type": "uint8"
        },
        {
          "internalType": "bytes32",
          "name": "r",
          "type": "bytes32"
        },
        {
          "internalType": "bytes32",
          "name": "s",
          "type": "bytes32"
        }
      ],
      "name": "castVoteBySig",
      "outputs": [],
      "stateMutability": "nonpayable",
      "type": "function"
    },
    {
      "inputs": [],
      "name": "__acceptAdmin",
      "outputs": [],
      "stateMutability": "nonpayable",
      "type": "function"
    },
    {
      "inputs": [],
      "name": "__abdicate",
      "outputs": [],
      "stateMutability": "nonpayable",
      "type": "function"
    },
    {
      "inputs": [
        {
          "internalType": "uint256",
          "name": "period",
          "type": "uint256"
        }
      ],
      "name": "__setVotingPeriod",
      "outputs": [],
      "stateMutability": "nonpayable",
      "type": "function"
    },
    {
      "inputs": [
        {
          "internalType": "address",
          "name": "timelock_",
          "type": "address"
        }
      ],
      "name": "__setTimelockAddress",
      "outputs": [],
      "stateMutability": "nonpayable",
      "type": "function"
    },
    {
      "inputs": [
        {
          "internalType": "address",
          "name": "newPendingAdmin",
          "type": "address"
        },
        {
          "internalType": "uint256",
          "name": "eta",
          "type": "uint256"
        }
      ],
      "name": "__queueSetTimelockPendingAdmin",
      "outputs": [],
      "stateMutability": "nonpayable",
      "type": "function"
    },
    {
      "inputs": [
        {
          "internalType": "address",
          "name": "newPendingAdmin",
          "type": "address"
        },
        {
          "internalType": "uint256",
          "name": "eta",
          "type": "uint256"
        }
      ],
      "name": "__executeSetTimelockPendingAdmin",
      "outputs": [],
      "stateMutability": "nonpayable",
      "type": "function"
    }
  ],
  "bytecode": "0x608060405261438060005560006004553480156200001c57600080fd5b506040516200571138038062005711833981810160405281019062000042919062000125565b82600160006101000a81548173ffffffffffffffffffffffffffffffffffffffff021916908373ffffffffffffffffffffffffffffffffffffffff16021790555081600260006101000a81548173ffffffffffffffffffffffffffffffffffffffff021916908373ffffffffffffffffffffffffffffffffffffffff16021790555080600360006101000a81548173ffffffffffffffffffffffffffffffffffffffff021916908373ffffffffffffffffffffffffffffffffffffffff160217905550505050620001c9565b6000815190506200011f81620001af565b92915050565b6000806000606084860312156200013b57600080fd5b60006200014b868287016200010e565b93505060206200015e868287016200010e565b925050604062000171868287016200010e565b9150509250925092565b600062000188826200018f565b9050919050565b600073ffffffffffffffffffffffffffffffffffffffff82169050919050565b620001ba816200017b565b8114620001c657600080fd5b50565b61553880620001d96000396000f3fe6080604052600436106101c25760003560e01c8063490145c8116100f7578063b9a6196111610095578063deaaa7cc11610064578063deaaa7cc1461063d578063e23a9a5214610668578063e8997c4b146106a5578063fe0d94c1146106ce576101c2565b8063b9a61961146105a7578063d33219b4146105be578063da35c664146105e9578063ddf0b00914610614576101c2565b80637bdbe4d0116100d15780637bdbe4d0146104ff578063915006711461052a5780639ee2735114610553578063b58131b01461057c576101c2565b8063490145c81461046e57806371742108146104ab578063760fbc13146104e8576101c2565b806324bc1a64116101645780633e4f49e61161013e5780633e4f49e6146103b457806340e58ee5146103f1578063452a93201461041a5780634634c61f14610445576101c2565b806324bc1a641461031e578063328dd982146103495780633932abb114610389576101c2565b806315373e3d116101a057806315373e3d1461026457806317977c611461028d57806320606b70146102ca57806321f43e42146102f5576101c2565b8063013cf08b146101c757806302a251a31461020e57806306fdde0314610239575b600080fd5b3480156101d357600080fd5b506101ee60048036038101906101e991906136f2565b6106ea565b6040516102059b9a99989796959493929190614f7a565b60405180910390f35b34801561021a57600080fd5b506102236108ae565b6040516102309190614eaf565b60405180910390f35b34801561024557600080fd5b5061024e6108b4565b60405161025b9190614b92565b60405180910390f35b34801561027057600080fd5b5061028b60048036038101906102869190613780565b6108ed565b005b34801561029957600080fd5b506102b460048036038101906102af91906134e1565b6108fc565b6040516102c19190614eaf565b60405180910390f35b3480156102d657600080fd5b506102df610914565b6040516102ec9190614a80565b60405180910390f35b34801561030157600080fd5b5061031c6004803603810190610317919061350a565b610938565b005b34801561032a57600080fd5b50610333610ac7565b6040516103409190614eaf565b60405180910390f35b34801561035557600080fd5b50610370600480360381019061036b91906136f2565b610ada565b6040516103809493929190614a1f565b60405180910390f35b34801561039557600080fd5b5061039e610db7565b6040516103ab9190614eaf565b60405180910390f35b3480156103c057600080fd5b506103db60048036038101906103d691906136f2565b610dc0565b6040516103e89190614b77565b60405180910390f35b3480156103fd57600080fd5b50610418600480360381019061041391906136f2565b610fa5565b005b34801561042657600080fd5b5061042f61133f565b60405161043c919061484c565b60405180910390f35b34801561045157600080fd5b5061046c600480360381019061046791906137bc565b611365565b005b34801561047a57600080fd5b5061049560048036038101906104909190613546565b61154e565b6040516104a29190614eaf565b60405180910390f35b3480156104b757600080fd5b506104d260048036038101906104cd91906136f2565b611b8d565b6040516104df9190614eaf565b60405180910390f35b3480156104f457600080fd5b506104fd611bae565b005b34801561050b57600080fd5b50610514611c82565b6040516105219190614eaf565b60405180910390f35b34801561053657600080fd5b50610551600480360381019061054c919061350a565b611c8b565b005b34801561055f57600080fd5b5061057a600480360381019061057591906134e1565b611e15565b005b34801561058857600080fd5b50610591611ee9565b60405161059e9190614eaf565b60405180910390f35b3480156105b357600080fd5b506105bc611efb565b005b3480156105ca57600080fd5b506105d361200f565b6040516105e09190614b5c565b60405180910390f35b3480156105f557600080fd5b506105fe612035565b60405161060b9190614eaf565b60405180910390f35b34801561062057600080fd5b5061063b600480360381019061063691906136f2565b61203b565b005b34801561064957600080fd5b50610652612388565b60405161065f9190614a80565b60405180910390f35b34801561067457600080fd5b5061068f600480360381019061068a9190613744565b6123ac565b60405161069c9190614e94565b60405180910390f35b3480156106b157600080fd5b506106cc60048036038101906106c791906136f2565b61248e565b005b6106e860048036038101906106e391906136f2565b612528565b005b60056020528060005260406000206000915090508060000154908060010160009054906101000a900473ffffffffffffffffffffffffffffffffffffffff169080600201549080600701549080600801549080600901549080600a01549080600b0160009054906101000a900460ff169080600b0160019054906101000a900460ff169080600c018054600181600116156101000203166002900480601f0160208091040260200160405190810160405280929190818152602001828054600181600116156101000203166002900480156108065780601f106107db57610100808354040283529160200191610806565b820191906000526020600020905b8154815290600101906020018083116107e957829003601f168201915b50505050509080600d018054600181600116156101000203166002900480601f0160208091040260200160405190810160405280929190818152602001828054600181600116156101000203166002900480156108a45780601f10610879576101008083540402835291602001916108a4565b820191906000526020600020905b81548152906001019060200180831161088757829003601f168201915b505050505090508b565b60005481565b6040518060400160405280601281526020017f46585320476f7665726e6f7220416c706861000000000000000000000000000081525081565b6108f8338383612759565b5050565b60076020528060005260406000206000915090505481565b7f8cad95687ba82c2ce50e74f7b754645e5117c3a5bec8151c0726d5857980a86681565b600360009054906101000a900473ffffffffffffffffffffffffffffffffffffffff1673ffffffffffffffffffffffffffffffffffffffff163373ffffffffffffffffffffffffffffffffffffffff16146109c8576040517f08c379a00000000000000000000000000000000000000000000000000000000081526004016109bf90614c14565b60405180910390fd5b600160009054906101000a900473ffffffffffffffffffffffffffffffffffffffff1673ffffffffffffffffffffffffffffffffffffffff16630825f38f600160009054906101000a900473ffffffffffffffffffffffffffffffffffffffff16600085604051602001610a3c919061484c565b604051602081830303815290604052856040518563ffffffff1660e01b8152600401610a6b9493929190614890565b600060405180830381600087803b158015610a8557600080fd5b505af1158015610a99573d6000803e3d6000fd5b505050506040513d6000823e3d601f19601f82011682018060405250810190610ac291906136b1565b505050565b60006a034f086f3b33b684000000905090565b60608060608060006005600087815260200190815260200160002090508060030181600401826005018360060183805480602002602001604051908101604052809291908181526020018280548015610b8857602002820191906000526020600020905b8160009054906101000a900473ffffffffffffffffffffffffffffffffffffffff1673ffffffffffffffffffffffffffffffffffffffff1681526020019060010190808311610b3e575b5050505050935082805480602002602001604051908101604052809291908181526020018280548015610bda57602002820191906000526020600020905b815481526020019060010190808311610bc6575b5050505050925081805480602002602001604051908101604052809291908181526020016000905b82821015610cbe578382906000526020600020018054600181600116156101000203166002900480601f016020809104026020016040519081016040528092919081815260200182805460018160011615610100020316600290048015610caa5780601f10610c7f57610100808354040283529160200191610caa565b820191906000526020600020905b815481529060010190602001808311610c8d57829003601f168201915b505050505081526020019060010190610c02565b50505050915080805480602002602001604051908101604052809291908181526020016000905b82821015610da1578382906000526020600020018054600181600116156101000203166002900480601f016020809104026020016040519081016040528092919081815260200182805460018160011615610100020316600290048015610d8d5780601f10610d6257610100808354040283529160200191610d8d565b820191906000526020600020905b815481529060010190602001808311610d7057829003601f168201915b505050505081526020019060010190610ce5565b5050505090509450945094509450509193509193565b60006001905090565b60008160045410158015610dd45750600082115b610e13576040517f08c379a0000000000000000000000000000000000000000000000000000000008152600401610e0a90614c34565b60405180910390fd5b600060056000848152602001908152602001600020905080600b0160009054906101000a900460ff1615610e4b576002915050610fa0565b80600701544311610e60576000915050610fa0565b80600801544311610e75576001915050610fa0565b80600a01548160090154111580610e965750610e8f610ac7565b8160090154105b15610ea5576003915050610fa0565b600081600201541415610ebc576004915050610fa0565b80600b0160019054906101000a900460ff1615610edd576007915050610fa0565b610f8a8160020154600160009054906101000a900473ffffffffffffffffffffffffffffffffffffffff1673ffffffffffffffffffffffffffffffffffffffff1663c1a287e26040518163ffffffff1660e01b815260040160206040518083038186803b158015610f4d57600080fd5b505afa158015610f61573d6000803e3d6000fd5b505050506040513d601f19601f82011682018060405250810190610f85919061371b565b612a28565b4210610f9a576006915050610fa0565b60059150505b919050565b6000610fb082610dc0565b9050600780811115610fbe57fe5b816007811115610fca57fe5b141561100b576040517f08c379a000000000000000000000000000000000000000000000000000000000815260040161100290614e14565b60405180910390fd5b6000600560008481526020019081526020016000209050600360009054906101000a900473ffffffffffffffffffffffffffffffffffffffff1673ffffffffffffffffffffffffffffffffffffffff163373ffffffffffffffffffffffffffffffffffffffff16148061116c5750611081611ee9565b600260009054906101000a900473ffffffffffffffffffffffffffffffffffffffff1673ffffffffffffffffffffffffffffffffffffffff1663782d6fe18360010160009054906101000a900473ffffffffffffffffffffffffffffffffffffffff166110ef436001612a7d565b6040518363ffffffff1660e01b815260040161110c9291906148ef565b60206040518083038186803b15801561112457600080fd5b505afa158015611138573d6000803e3d6000fd5b505050506040513d601f19601f8201168201806040525081019061115c9190613833565b6bffffffffffffffffffffffff16105b6111ab576040517f08c379a00000000000000000000000000000000000000000000000000000000081526004016111a290614bd4565b60405180910390fd5b600181600b0160006101000a81548160ff02191690831515021790555060005b816003018054905081101561130257600160009054906101000a900473ffffffffffffffffffffffffffffffffffffffff1673ffffffffffffffffffffffffffffffffffffffff1663591fcdfe83600301838154811061122757fe5b9060005260206000200160009054906101000a900473ffffffffffffffffffffffffffffffffffffffff1684600401848154811061126157fe5b906000526020600020015485600501858154811061127b57fe5b9060005260206000200186600601868154811061129457fe5b9060005260206000200187600201546040518663ffffffff1660e01b81526004016112c39594939291906149be565b600060405180830381600087803b1580156112dd57600080fd5b505af11580156112f1573d6000803e3d6000fd5b5050505080806001019150506111cb565b507f789cf55be980739dad1d0699b93b58e806b51c9d96619bfa8fe0a28abaa7b30c836040516113329190614eaf565b60405180910390a1505050565b600360009054906101000a900473ffffffffffffffffffffffffffffffffffffffff1681565b60007f8cad95687ba82c2ce50e74f7b754645e5117c3a5bec8151c0726d5857980a8666040518060400160405280601281526020017f46585320476f7665726e6f7220416c7068610000000000000000000000000000815250805190602001206113cd612acd565b306040516020016113e19493929190614a9b565b60405160208183030381529060405280519060200120905060007f8e25870c07e0b0b3884c78da52790939a455c275406c44ae8b434b692fb916ee878760405160200161143093929190614ae0565b6040516020818303038152906040528051906020012090506000828260405160200161145d929190614815565b60405160208183030381529060405280519060200120905060006001828888886040516000815260200160405260405161149a9493929190614b17565b6020604051602081039080840390855afa1580156114bc573d6000803e3d6000fd5b505050602060405103519050600073ffffffffffffffffffffffffffffffffffffffff168173ffffffffffffffffffffffffffffffffffffffff161415611538576040517f08c379a000000000000000000000000000000000000000000000000000000000815260040161152f90614d94565b60405180910390fd5b611543818a8a612759565b505050505050505050565b6000611558611ee9565b600260009054906101000a900473ffffffffffffffffffffffffffffffffffffffff1673ffffffffffffffffffffffffffffffffffffffff1663782d6fe1336115a2436001612a7d565b6040518363ffffffff1660e01b81526004016115bf929190614867565b60206040518083038186803b1580156115d757600080fd5b505afa1580156115eb573d6000803e3d6000fd5b505050506040513d601f19601f8201168201806040525081019061160f9190613833565b6bffffffffffffffffffffffff16101561165e576040517f08c379a000000000000000000000000000000000000000000000000000000000815260040161165590614d74565b60405180910390fd5b85518751148015611670575084518751145b801561167d575083518751145b6116bc576040517f08c379a00000000000000000000000000000000000000000000000000000000081526004016116b390614d14565b60405180910390fd5b600087511415611701576040517f08c379a00000000000000000000000000000000000000000000000000000000081526004016116f890614d54565b60405180910390fd5b611709611c82565b8751111561174c576040517f08c379a000000000000000000000000000000000000000000000000000000000815260040161174390614cd4565b60405180910390fd5b6000600760003373ffffffffffffffffffffffffffffffffffffffff1673ffffffffffffffffffffffffffffffffffffffff1681526020019081526020016000205490506000811461185b5760006117a382610dc0565b9050600160078111156117b257fe5b8160078111156117be57fe5b14156117ff576040517f08c379a00000000000000000000000000000000000000000000000000000000081526004016117f690614dd4565b60405180910390fd5b6000600781111561180c57fe5b81600781111561181857fe5b1415611859576040517f08c379a000000000000000000000000000000000000000000000000000000000815260040161185090614c74565b60405180910390fd5b505b600061186e43611869610db7565b612a28565b9050600061187e82600054612a28565b905060046000815480929190600101919050555061189a612cb0565b604051806101e0016040528060045481526020013373ffffffffffffffffffffffffffffffffffffffff168152602001600081526020018c81526020018b81526020018a815260200189815260200184815260200183815260200160008152602001600081526020016000151581526020016000151581526020018881526020018781525090508060056000836000015181526020019081526020016000206000820151816000015560208201518160010160006101000a81548173ffffffffffffffffffffffffffffffffffffffff021916908373ffffffffffffffffffffffffffffffffffffffff1602179055506040820151816002015560608201518160030190805190602001906119b0929190612d40565b5060808201518160040190805190602001906119cd929190612dca565b5060a08201518160050190805190602001906119ea929190612e17565b5060c0820151816006019080519060200190611a07929190612e77565b5060e082015181600701556101008201518160080155610120820151816009015561014082015181600a015561016082015181600b0160006101000a81548160ff02191690831515021790555061018082015181600b0160016101000a81548160ff0219169083151502179055506101a082015181600c019080519060200190611a92929190612ed7565b506101c082015181600d019080519060200190611ab0929190612ed7565b50905050806000015160076000836020015173ffffffffffffffffffffffffffffffffffffffff1673ffffffffffffffffffffffffffffffffffffffff168152602001908152602001600020819055506006816000015190806001815401808255809150506001900390600052602060002001600090919091909150557f7d84a6263ae0d98d3329bd7b46bb4e8d6f98cd35a7adb45c274c8b7fd5ebd5e08160000151338d8d8d8d89898e604051611b7099989796959493929190614eca565b60405180910390a180600001519450505050509695505050505050565b60068181548110611b9a57fe5b906000526020600020016000915090505481565b600360009054906101000a900473ffffffffffffffffffffffffffffffffffffffff1673ffffffffffffffffffffffffffffffffffffffff163373ffffffffffffffffffffffffffffffffffffffff1614611c3e576040517f08c379a0000000000000000000000000000000000000000000000000000000008152600401611c3590614e74565b60405180910390fd5b6000600360006101000a81548173ffffffffffffffffffffffffffffffffffffffff021916908373ffffffffffffffffffffffffffffffffffffffff160217905550565b6000600a905090565b600360009054906101000a900473ffffffffffffffffffffffffffffffffffffffff1673ffffffffffffffffffffffffffffffffffffffff163373ffffffffffffffffffffffffffffffffffffffff1614611d1b576040517f08c379a0000000000000000000000000000000000000000000000000000000008152600401611d1290614c94565b60405180910390fd5b600160009054906101000a900473ffffffffffffffffffffffffffffffffffffffff1673ffffffffffffffffffffffffffffffffffffffff16633a66f901600160009054906101000a900473ffffffffffffffffffffffffffffffffffffffff16600085604051602001611d8f919061484c565b604051602081830303815290604052856040518563ffffffff1660e01b8152600401611dbe9493929190614890565b602060405180830381600087803b158015611dd857600080fd5b505af1158015611dec573d6000803e3d6000fd5b505050506040513d601f19601f82011682018060405250810190611e109190613688565b505050565b600360009054906101000a900473ffffffffffffffffffffffffffffffffffffffff1673ffffffffffffffffffffffffffffffffffffffff163373ffffffffffffffffffffffffffffffffffffffff1614611ea5576040517f08c379a0000000000000000000000000000000000000000000000000000000008152600401611e9c90614db4565b60405180910390fd5b80600160006101000a81548173ffffffffffffffffffffffffffffffffffffffff021916908373ffffffffffffffffffffffffffffffffffffffff16021790555050565b600069d3c21bcecceda1000000905090565b600360009054906101000a900473ffffffffffffffffffffffffffffffffffffffff1673ffffffffffffffffffffffffffffffffffffffff163373ffffffffffffffffffffffffffffffffffffffff1614611f8b576040517f08c379a0000000000000000000000000000000000000000000000000000000008152600401611f8290614bb4565b60405180910390fd5b600160009054906101000a900473ffffffffffffffffffffffffffffffffffffffff1673ffffffffffffffffffffffffffffffffffffffff16630e18b6816040518163ffffffff1660e01b8152600401600060405180830381600087803b158015611ff557600080fd5b505af1158015612009573d6000803e3d6000fd5b50505050565b600160009054906101000a900473ffffffffffffffffffffffffffffffffffffffff1681565b60045481565b6004600781111561204857fe5b61205182610dc0565b600781111561205c57fe5b1461209c576040517f08c379a000000000000000000000000000000000000000000000000000000000815260040161209390614cb4565b60405180910390fd5b6000600560008381526020019081526020016000209050600061215e42600160009054906101000a900473ffffffffffffffffffffffffffffffffffffffff1673ffffffffffffffffffffffffffffffffffffffff16636a42b8f86040518163ffffffff1660e01b815260040160206040518083038186803b15801561212157600080fd5b505afa158015612135573d6000803e3d6000fd5b505050506040513d601f19601f82011682018060405250810190612159919061371b565b612a28565b905060005b82600301805490508110156123405761233383600301828154811061218457fe5b9060005260206000200160009054906101000a900473ffffffffffffffffffffffffffffffffffffffff168460040183815481106121be57fe5b90600052602060002001548560050184815481106121d857fe5b906000526020600020018054600181600116156101000203166002900480601f0160208091040260200160405190810160405280929190818152602001828054600181600116156101000203166002900480156122765780601f1061224b57610100808354040283529160200191612276565b820191906000526020600020905b81548152906001019060200180831161225957829003601f168201915b505050505086600601858154811061228a57fe5b906000526020600020018054600181600116156101000203166002900480601f0160208091040260200160405190810160405280929190818152602001828054600181600116156101000203166002900480156123285780601f106122fd57610100808354040283529160200191612328565b820191906000526020600020905b81548152906001019060200180831161230b57829003601f168201915b505050505086612ada565b8080600101915050612163565b508082600201819055507f9a2e42fd6722813d69113e7d0079d3d940171428df7373df9c7f7617cfda2892838260405161237b929190615033565b60405180910390a1505050565b7f8e25870c07e0b0b3884c78da52790939a455c275406c44ae8b434b692fb916ee81565b6123b4612f57565b60056000848152602001908152602001600020600e0160008373ffffffffffffffffffffffffffffffffffffffff1673ffffffffffffffffffffffffffffffffffffffff1681526020019081526020016000206040518060600160405290816000820160009054906101000a900460ff161515151581526020016000820160019054906101000a900460ff161515151581526020016000820160029054906101000a90046bffffffffffffffffffffffff166bffffffffffffffffffffffff166bffffffffffffffffffffffff1681525050905092915050565b600360009054906101000a900473ffffffffffffffffffffffffffffffffffffffff1673ffffffffffffffffffffffffffffffffffffffff163373ffffffffffffffffffffffffffffffffffffffff161461251e576040517f08c379a000000000000000000000000000000000000000000000000000000000815260040161251590614df4565b60405180910390fd5b8060008190555050565b6005600781111561253557fe5b61253e82610dc0565b600781111561254957fe5b14612589576040517f08c379a000000000000000000000000000000000000000000000000000000000815260040161258090614bf4565b60405180910390fd5b6000600560008381526020019081526020016000209050600181600b0160016101000a81548160ff02191690831515021790555060005b816003018054905081101561271d57600160009054906101000a900473ffffffffffffffffffffffffffffffffffffffff1673ffffffffffffffffffffffffffffffffffffffff16630825f38f83600301838154811061261c57fe5b9060005260206000200160009054906101000a900473ffffffffffffffffffffffffffffffffffffffff1684600401848154811061265657fe5b906000526020600020015485600501858154811061267057fe5b9060005260206000200186600601868154811061268957fe5b9060005260206000200187600201546040518663ffffffff1660e01b81526004016126b89594939291906149be565b600060405180830381600087803b1580156126d257600080fd5b505af11580156126e6573d6000803e3d6000fd5b505050506040513d6000823e3d601f19601f8201168201806040525081019061270f91906136b1565b5080806001019150506125c0565b507f712ae1383f79ac853f8d882153778e0260ef8f03b504e2866e0593e04d2b291f8260405161274d9190614eaf565b60405180910390a15050565b6001600781111561276657fe5b61276f83610dc0565b600781111561277a57fe5b146127ba576040517f08c379a00000000000000000000000000000000000000000000000000000000081526004016127b190614e34565b60405180910390fd5b6000600560008481526020019081526020016000209050600081600e0160008673ffffffffffffffffffffffffffffffffffffffff1673ffffffffffffffffffffffffffffffffffffffff1681526020019081526020016000209050600015158160000160009054906101000a900460ff1615151461286e576040517f08c379a000000000000000000000000000000000000000000000000000000000815260040161286590614c54565b60405180910390fd5b6000600260009054906101000a900473ffffffffffffffffffffffffffffffffffffffff1673ffffffffffffffffffffffffffffffffffffffff1663782d6fe18785600701546040518363ffffffff1660e01b81526004016128d19291906148ef565b60206040518083038186803b1580156128e957600080fd5b505afa1580156128fd573d6000803e3d6000fd5b505050506040513d601f19601f820116820180604052508101906129219190613833565b90508315612952576129458360090154826bffffffffffffffffffffffff16612a28565b8360090181905550612977565b61296e83600a0154826bffffffffffffffffffffffff16612a28565b83600a01819055505b60018260000160006101000a81548160ff021916908315150217905550838260000160016101000a81548160ff021916908315150217905550808260000160026101000a8154816bffffffffffffffffffffffff02191690836bffffffffffffffffffffffff1602179055507f877856338e13f63d0c36822ff0ef736b80934cd90574a3a5bc9262c39d217c4686868684604051612a189493929190614918565b60405180910390a1505050505050565b600080828401905083811015612a73576040517f08c379a0000000000000000000000000000000000000000000000000000000008152600401612a6a90614cf4565b60405180910390fd5b8091505092915050565b600082821115612ac2576040517f08c379a0000000000000000000000000000000000000000000000000000000008152600401612ab990614e54565b60405180910390fd5b818303905092915050565b6000804690508091505090565b600160009054906101000a900473ffffffffffffffffffffffffffffffffffffffff1673ffffffffffffffffffffffffffffffffffffffff1663f2b065378686868686604051602001612b3195949392919061495d565b604051602081830303815290604052805190602001206040518263ffffffff1660e01b8152600401612b639190614a80565b60206040518083038186803b158015612b7b57600080fd5b505afa158015612b8f573d6000803e3d6000fd5b505050506040513d601f19601f82011682018060405250810190612bb3919061365f565b15612bf3576040517f08c379a0000000000000000000000000000000000000000000000000000000008152600401612bea90614d34565b60405180910390fd5b600160009054906101000a900473ffffffffffffffffffffffffffffffffffffffff1673ffffffffffffffffffffffffffffffffffffffff16633a66f90186868686866040518663ffffffff1660e01b8152600401612c5695949392919061495d565b602060405180830381600087803b158015612c7057600080fd5b505af1158015612c84573d6000803e3d6000fd5b505050506040513d601f19601f82011682018060405250810190612ca89190613688565b505050505050565b604051806101e0016040528060008152602001600073ffffffffffffffffffffffffffffffffffffffff16815260200160008152602001606081526020016060815260200160608152602001606081526020016000815260200160008152602001600081526020016000815260200160001515815260200160001515815260200160608152602001606081525090565b828054828255906000526020600020908101928215612db9579160200282015b82811115612db85782518260006101000a81548173ffffffffffffffffffffffffffffffffffffffff021916908373ffffffffffffffffffffffffffffffffffffffff16021790555091602001919060010190612d60565b5b509050612dc69190612f8a565b5090565b828054828255906000526020600020908101928215612e06579160200282015b82811115612e05578251825591602001919060010190612dea565b5b509050612e139190612fc5565b5090565b828054828255906000526020600020908101928215612e66579160200282015b82811115612e65578251829080519060200190612e55929190612ed7565b5091602001919060010190612e37565b5b509050612e739190612fe2565b5090565b828054828255906000526020600020908101928215612ec6579160200282015b82811115612ec5578251829080519060200190612eb5929190613006565b5091602001919060010190612e97565b5b509050612ed39190613086565b5090565b828054600181600116156101000203166002900490600052602060002090601f016020900481019282601f10612f1857805160ff1916838001178555612f46565b82800160010185558215612f46579182015b82811115612f45578251825591602001919060010190612f2a565b5b509050612f539190612fc5565b5090565b604051806060016040528060001515815260200160001515815260200160006bffffffffffffffffffffffff1681525090565b5b80821115612fc157600081816101000a81549073ffffffffffffffffffffffffffffffffffffffff021916905550600101612f8b565b5090565b5b80821115612fde576000816000905550600101612fc6565b5090565b5b808211156130025760008181612ff991906130aa565b50600101612fe3565b5090565b828054600181600116156101000203166002900490600052602060002090601f016020900481019282601f1061304757805160ff1916838001178555613075565b82800160010185558215613075579182015b82811115613074578251825591602001919060010190613059565b5b5090506130829190612fc5565b5090565b5b808211156130a6576000818161309d91906130f2565b50600101613087565b5090565b50805460018160011615610100020316600290046000825580601f106130d057506130ef565b601f0160209004906000526020600020908101906130ee9190612fc5565b5b50565b50805460018160011615610100020316600290046000825580601f106131185750613137565b601f0160209004906000526020600020908101906131369190612fc5565b5b50565b60008135905061314981615478565b92915050565b600082601f83011261316057600080fd5b813561317361316e82615089565b61505c565b9150818183526020840193506020810190508385602084028201111561319857600080fd5b60005b838110156131c857816131ae888261313a565b84526020840193506020830192505060018101905061319b565b5050505092915050565b600082601f8301126131e357600080fd5b81356131f66131f1826150b1565b61505c565b9150818183526020840193506020810190508360005b8381101561323c57813586016132228882613391565b84526020840193506020830192505060018101905061320c565b5050505092915050565b600082601f83011261325757600080fd5b813561326a613265826150d9565b61505c565b9150818183526020840193506020810190508360005b838110156132b057813586016132968882613439565b845260208401935060208301925050600181019050613280565b5050505092915050565b600082601f8301126132cb57600080fd5b81356132de6132d982615101565b61505c565b9150818183526020840193506020810190508385602084028201111561330357600080fd5b60005b838110156133335781613319888261348d565b845260208401935060208301925050600181019050613306565b5050505092915050565b60008135905061334c8161548f565b92915050565b6000815190506133618161548f565b92915050565b600081359050613376816154a6565b92915050565b60008151905061338b816154a6565b92915050565b600082601f8301126133a257600080fd5b81356133b56133b082615129565b61505c565b915080825260208301602083018583830111156133d157600080fd5b6133dc83828461540e565b50505092915050565b600082601f8301126133f657600080fd5b815161340961340482615129565b61505c565b9150808252602083016020830185838301111561342557600080fd5b61343083828461541d565b50505092915050565b600082601f83011261344a57600080fd5b813561345d61345882615155565b61505c565b9150808252602083016020830185838301111561347957600080fd5b61348483828461540e565b50505092915050565b60008135905061349c816154bd565b92915050565b6000815190506134b1816154bd565b92915050565b6000813590506134c6816154d4565b92915050565b6000815190506134db816154eb565b92915050565b6000602082840312156134f357600080fd5b60006135018482850161313a565b91505092915050565b6000806040838503121561351d57600080fd5b600061352b8582860161313a565b925050602061353c8582860161348d565b9150509250929050565b60008060008060008060c0878903121561355f57600080fd5b600087013567ffffffffffffffff81111561357957600080fd5b61358589828a0161314f565b965050602087013567ffffffffffffffff8111156135a257600080fd5b6135ae89828a016132ba565b955050604087013567ffffffffffffffff8111156135cb57600080fd5b6135d789828a01613246565b945050606087013567ffffffffffffffff8111156135f457600080fd5b61360089828a016131d2565b935050608087013567ffffffffffffffff81111561361d57600080fd5b61362989828a01613439565b92505060a087013567ffffffffffffffff81111561364657600080fd5b61365289828a01613439565b9150509295509295509295565b60006020828403121561367157600080fd5b600061367f84828501613352565b91505092915050565b60006020828403121561369a57600080fd5b60006136a88482850161337c565b91505092915050565b6000602082840312156136c357600080fd5b600082015167ffffffffffffffff8111156136dd57600080fd5b6136e9848285016133e5565b91505092915050565b60006020828403121561370457600080fd5b60006137128482850161348d565b91505092915050565b60006020828403121561372d57600080fd5b600061373b848285016134a2565b91505092915050565b6000806040838503121561375757600080fd5b60006137658582860161348d565b92505060206137768582860161313a565b9150509250929050565b6000806040838503121561379357600080fd5b60006137a18582860161348d565b92505060206137b28582860161333d565b9150509250929050565b600080600080600060a086880312156137d457600080fd5b60006137e28882890161348d565b95505060206137f38882890161333d565b9450506040613804888289016134b7565b935050606061381588828901613367565b925050608061382688828901613367565b9150509295509295909350565b60006020828403121561384557600080fd5b6000613853848285016134cc565b91505092915050565b600061386883836138c3565b60208301905092915050565b60006138808383613acb565b905092915050565b60006138948383613bf9565b905092915050565b60006138a883836147ca565b60208301905092915050565b6138bd8161537e565b82525050565b6138cc816152f4565b82525050565b6138db816152f4565b82525050565b60006138ec826151eb565b6138f68185615261565b935061390183615181565b8060005b83811015613932578151613919888261385c565b97506139248361522d565b925050600181019050613905565b5085935050505092915050565b600061394a826151f6565b6139548185615272565b93508360208202850161396685615191565b8060005b858110156139a257848403895281516139838582613874565b945061398e8361523a565b925060208a0199505060018101905061396a565b50829750879550505050505092915050565b60006139bf82615201565b6139c98185615283565b9350836020820285016139db856151a1565b8060005b85811015613a1757848403895281516139f88582613888565b9450613a0383615247565b925060208a019950506001810190506139df565b50829750879550505050505092915050565b6000613a348261520c565b613a3e8185615294565b9350613a49836151b1565b8060005b83811015613a7a578151613a61888261389c565b9750613a6c83615254565b925050600181019050613a4d565b5085935050505092915050565b613a9081615306565b82525050565b613a9f81615306565b82525050565b613aae81615312565b82525050565b613ac5613ac082615312565b615450565b82525050565b6000613ad682615217565b613ae081856152a5565b9350613af081856020860161541d565b613af98161545a565b840191505092915050565b6000613b0f82615217565b613b1981856152b6565b9350613b2981856020860161541d565b613b328161545a565b840191505092915050565b600081546001811660008114613b5a5760018114613b8057613bc4565b607f6002830416613b6b81876152b6565b955060ff198316865260208601935050613bc4565b60028204613b8e81876152b6565b9550613b99856151c1565b60005b82811015613bbb57815481890152600182019150602081019050613b9c565b80880195505050505b505092915050565b613bd581615390565b82525050565b613be4816153b4565b82525050565b613bf3816153c6565b82525050565b6000613c0482615222565b613c0e81856152c7565b9350613c1e81856020860161541d565b613c278161545a565b840191505092915050565b6000613c3d82615222565b613c4781856152d8565b9350613c5781856020860161541d565b613c608161545a565b840191505092915050565b600081546001811660008114613c885760018114613cae57613cf2565b607f6002830416613c9981876152d8565b955060ff198316865260208601935050613cf2565b60028204613cbc81876152d8565b9550613cc7856151d6565b60005b82811015613ce957815481890152600182019150602081019050613cca565b80880195505050505b505092915050565b6000613d076039836152d8565b91507f476f7665726e6f72416c7068613a3a5f5f61636365707441646d696e3a20736560008301527f6e646572206d75737420626520676f7620677561726469616e000000000000006020830152604082019050919050565b6000613d6d6035836152d8565b91507f476f7665726e6f72416c7068613a3a63616e63656c3a2070726f706f7365722060008301527f6174206f722061626f7665207468726573686f6c6400000000000000000000006020830152604082019050919050565b6000613dd36045836152d8565b91507f476f7665726e6f72416c7068613a3a657865637574653a2070726f706f73616c60008301527f2063616e206f6e6c79206265206578656375746564206966206974206973207160208301527f75657565640000000000000000000000000000000000000000000000000000006040830152606082019050919050565b6000613e5f6002836152e9565b91507f19010000000000000000000000000000000000000000000000000000000000006000830152600282019050919050565b6000613e9f604c836152d8565b91507f476f7665726e6f72416c7068613a3a5f5f6578656375746553657454696d656c60008301527f6f636b50656e64696e6741646d696e3a2073656e646572206d7573742062652060208301527f676f7620677561726469616e00000000000000000000000000000000000000006040830152606082019050919050565b6000613f2b6018836152d8565b91507f73657450656e64696e6741646d696e28616464726573732900000000000000006000830152602082019050919050565b6000613f6b6029836152d8565b91507f476f7665726e6f72416c7068613a3a73746174653a20696e76616c696420707260008301527f6f706f73616c20696400000000000000000000000000000000000000000000006020830152604082019050919050565b6000613fd1602d836152d8565b91507f476f7665726e6f72416c7068613a3a5f63617374566f74653a20766f7465722060008301527f616c726561647920766f746564000000000000000000000000000000000000006020830152604082019050919050565b60006140376059836152d8565b91507f476f7665726e6f72416c7068613a3a70726f706f73653a206f6e65206c69766560008301527f2070726f706f73616c207065722070726f706f7365722c20666f756e6420616e60208301527f20616c72656164792070656e64696e672070726f706f73616c000000000000006040830152606082019050919050565b60006140c3604a836152d8565b91507f476f7665726e6f72416c7068613a3a5f5f717565756553657454696d656c6f6360008301527f6b50656e64696e6741646d696e3a2073656e646572206d75737420626520676f60208301527f7620677561726469616e000000000000000000000000000000000000000000006040830152606082019050919050565b600061414f6041836152d8565b91507f476f7665726e6f72416c7068613a3a71756575653a2070726f706f73616c206360008301527f616e206f6e6c792062652071756575656420696620697420737563636565646560208301527f64000000000000000000000000000000000000000000000000000000000000006040830152606082019050919050565b60006141db6028836152d8565b91507f476f7665726e6f72416c7068613a3a70726f706f73653a20746f6f206d616e7960008301527f20616374696f6e730000000000000000000000000000000000000000000000006020830152604082019050919050565b60006142416011836152d8565b91507f6164646974696f6e206f766572666c6f770000000000000000000000000000006000830152602082019050919050565b60006142816044836152d8565b91507f476f7665726e6f72416c7068613a3a70726f706f73653a2070726f706f73616c60008301527f2066756e6374696f6e20696e666f726d6174696f6e206172697479206d69736d60208301527f61746368000000000000000000000000000000000000000000000000000000006040830152606082019050919050565b600061430d6044836152d8565b91507f476f7665726e6f72416c7068613a3a5f71756575654f725265766572743a207060008301527f726f706f73616c20616374696f6e20616c72656164792071756575656420617460208301527f20657461000000000000000000000000000000000000000000000000000000006040830152606082019050919050565b6000614399602c836152d8565b91507f476f7665726e6f72416c7068613a3a70726f706f73653a206d7573742070726f60008301527f7669646520616374696f6e7300000000000000000000000000000000000000006020830152604082019050919050565b60006143ff603f836152d8565b91507f476f7665726e6f72416c7068613a3a70726f706f73653a2070726f706f73657260008301527f20766f7465732062656c6f772070726f706f73616c207468726573686f6c64006020830152604082019050919050565b6000614465602f836152d8565b91507f476f7665726e6f72416c7068613a3a63617374566f746542795369673a20696e60008301527f76616c6964207369676e617475726500000000000000000000000000000000006020830152604082019050919050565b60006144cb6040836152d8565b91507f476f7665726e6f72416c7068613a3a5f5f73657454696d656c6f636b4164647260008301527f6573733a2073656e646572206d75737420626520676f7620677561726469616e6020830152604082019050919050565b60006145316058836152d8565b91507f476f7665726e6f72416c7068613a3a70726f706f73653a206f6e65206c69766560008301527f2070726f706f73616c207065722070726f706f7365722c20666f756e6420616e60208301527f20616c7265616479206163746976652070726f706f73616c00000000000000006040830152606082019050919050565b60006145bd603d836152d8565b91507f476f7665726e6f72416c7068613a3a5f5f736574566f74696e67506572696f6460008301527f3a2073656e646572206d75737420626520676f7620677561726469616e0000006020830152604082019050919050565b60006146236036836152d8565b91507f476f7665726e6f72416c7068613a3a63616e63656c3a2063616e6e6f7420636160008301527f6e63656c2065786563757465642070726f706f73616c000000000000000000006020830152604082019050919050565b6000614689602a836152d8565b91507f476f7665726e6f72416c7068613a3a5f63617374566f74653a20766f74696e6760008301527f20697320636c6f736564000000000000000000000000000000000000000000006020830152604082019050919050565b60006146ef6015836152d8565b91507f7375627472616374696f6e20756e646572666c6f7700000000000000000000006000830152602082019050919050565b600061472f6036836152d8565b91507f476f7665726e6f72416c7068613a3a5f5f61626469636174653a2073656e646560008301527f72206d75737420626520676f7620677561726469616e000000000000000000006020830152604082019050919050565b60608201600082015161479e6000850182613a87565b5060208201516147b16020850182613a87565b5060408201516147c46040850182614806565b50505050565b6147d38161534f565b82525050565b6147e28161534f565b82525050565b6147f181615359565b82525050565b614800816153fc565b82525050565b61480f81615366565b82525050565b600061482082613e52565b915061482c8285613ab4565b60208201915061483c8284613ab4565b6020820191508190509392505050565b600060208201905061486160008301846138d2565b92915050565b600060408201905061487c60008301856138b4565b61488960208301846147d9565b9392505050565b600060a0820190506148a560008301876138d2565b6148b26020830186613bea565b81810360408301526148c381613f1e565b905081810360608301526148d78185613b04565b90506148e660808301846147d9565b95945050505050565b600060408201905061490460008301856138d2565b61491160208301846147d9565b9392505050565b600060808201905061492d60008301876138d2565b61493a60208301866147d9565b6149476040830185613a96565b61495460608301846147f7565b95945050505050565b600060a08201905061497260008301886138d2565b61497f60208301876147d9565b81810360408301526149918186613c32565b905081810360608301526149a58185613b04565b90506149b460808301846147d9565b9695505050505050565b600060a0820190506149d360008301886138d2565b6149e060208301876147d9565b81810360408301526149f28186613c6b565b90508181036060830152614a068185613b3d565b9050614a1560808301846147d9565b9695505050505050565b60006080820190508181036000830152614a3981876138e1565b90508181036020830152614a4d8186613a29565b90508181036040830152614a6181856139b4565b90508181036060830152614a75818461393f565b905095945050505050565b6000602082019050614a956000830184613aa5565b92915050565b6000608082019050614ab06000830187613aa5565b614abd6020830186613aa5565b614aca60408301856147d9565b614ad760608301846138d2565b95945050505050565b6000606082019050614af56000830186613aa5565b614b0260208301856147d9565b614b0f6040830184613a96565b949350505050565b6000608082019050614b2c6000830187613aa5565b614b3960208301866147e8565b614b466040830185613aa5565b614b536060830184613aa5565b95945050505050565b6000602082019050614b716000830184613bcc565b92915050565b6000602082019050614b8c6000830184613bdb565b92915050565b60006020820190508181036000830152614bac8184613c32565b905092915050565b60006020820190508181036000830152614bcd81613cfa565b9050919050565b60006020820190508181036000830152614bed81613d60565b9050919050565b60006020820190508181036000830152614c0d81613dc6565b9050919050565b60006020820190508181036000830152614c2d81613e92565b9050919050565b60006020820190508181036000830152614c4d81613f5e565b9050919050565b60006020820190508181036000830152614c6d81613fc4565b9050919050565b60006020820190508181036000830152614c8d8161402a565b9050919050565b60006020820190508181036000830152614cad816140b6565b9050919050565b60006020820190508181036000830152614ccd81614142565b9050919050565b60006020820190508181036000830152614ced816141ce565b9050919050565b60006020820190508181036000830152614d0d81614234565b9050919050565b60006020820190508181036000830152614d2d81614274565b9050919050565b60006020820190508181036000830152614d4d81614300565b9050919050565b60006020820190508181036000830152614d6d8161438c565b9050919050565b60006020820190508181036000830152614d8d816143f2565b9050919050565b60006020820190508181036000830152614dad81614458565b9050919050565b60006020820190508181036000830152614dcd816144be565b9050919050565b60006020820190508181036000830152614ded81614524565b9050919050565b60006020820190508181036000830152614e0d816145b0565b9050919050565b60006020820190508181036000830152614e2d81614616565b9050919050565b60006020820190508181036000830152614e4d8161467c565b9050919050565b60006020820190508181036000830152614e6d816146e2565b9050919050565b60006020820190508181036000830152614e8d81614722565b9050919050565b6000606082019050614ea96000830184614788565b92915050565b6000602082019050614ec460008301846147d9565b92915050565b600061012082019050614ee0600083018c6147d9565b614eed602083018b6138b4565b8181036040830152614eff818a6138e1565b90508181036060830152614f138189613a29565b90508181036080830152614f2781886139b4565b905081810360a0830152614f3b818761393f565b9050614f4a60c08301866147d9565b614f5760e08301856147d9565b818103610100830152614f6a8184613c32565b90509a9950505050505050505050565b600061016082019050614f90600083018e6147d9565b614f9d602083018d6138d2565b614faa604083018c6147d9565b614fb7606083018b6147d9565b614fc4608083018a6147d9565b614fd160a08301896147d9565b614fde60c08301886147d9565b614feb60e0830187613a96565b614ff9610100830186613a96565b81810361012083015261500c8185613c32565b90508181036101408301526150218184613c32565b90509c9b505050505050505050505050565b600060408201905061504860008301856147d9565b61505560208301846147d9565b9392505050565b6000604051905081810181811067ffffffffffffffff8211171561507f57600080fd5b8060405250919050565b600067ffffffffffffffff8211156150a057600080fd5b602082029050602081019050919050565b600067ffffffffffffffff8211156150c857600080fd5b602082029050602081019050919050565b600067ffffffffffffffff8211156150f057600080fd5b602082029050602081019050919050565b600067ffffffffffffffff82111561511857600080fd5b602082029050602081019050919050565b600067ffffffffffffffff82111561514057600080fd5b601f19601f8301169050602081019050919050565b600067ffffffffffffffff82111561516c57600080fd5b601f19601f8301169050602081019050919050565b6000819050602082019050919050565b6000819050602082019050919050565b6000819050602082019050919050565b6000819050602082019050919050565b60008190508160005260206000209050919050565b60008190508160005260206000209050919050565b600081519050919050565b600081519050919050565b600081519050919050565b600081519050919050565b600081519050919050565b600081519050919050565b6000602082019050919050565b6000602082019050919050565b6000602082019050919050565b6000602082019050919050565b600082825260208201905092915050565b600082825260208201905092915050565b600082825260208201905092915050565b600082825260208201905092915050565b600082825260208201905092915050565b600082825260208201905092915050565b600082825260208201905092915050565b600082825260208201905092915050565b600081905092915050565b60006152ff8261532f565b9050919050565b60008115159050919050565b6000819050919050565b600081905061532a8261546b565b919050565b600073ffffffffffffffffffffffffffffffffffffffff82169050919050565b6000819050919050565b600060ff82169050919050565b60006bffffffffffffffffffffffff82169050919050565b6000615389826153d8565b9050919050565b600061539b826153a2565b9050919050565b60006153ad8261532f565b9050919050565b60006153bf8261531c565b9050919050565b60006153d18261534f565b9050919050565b60006153e3826153ea565b9050919050565b60006153f58261532f565b9050919050565b600061540782615366565b9050919050565b82818337600083830152505050565b60005b8381101561543b578082015181840152602081019050615420565b8381111561544a576000848401525b50505050565b6000819050919050565b6000601f19601f8301169050919050565b6008811061547557fe5b50565b615481816152f4565b811461548c57600080fd5b50565b61549881615306565b81146154a357600080fd5b50565b6154af81615312565b81146154ba57600080fd5b50565b6154c68161534f565b81146154d157600080fd5b50565b6154dd81615359565b81146154e857600080fd5b50565b6154f481615366565b81146154ff57600080fd5b5056fea2646970667358221220c8e4ac71b9079ca49d9b42ccb3327118cd5d345126fb9c2360d88d6db3f27edd64736f6c634300060c0033",
  "immutableReferences": {},
  "source": "// SPDX-License-Identifier: MIT\npragma solidity ^0.6.0 <0.7.0;\npragma experimental ABIEncoderV2;\n\nimport \"../FXS/FXS.sol\";\n\n// From https://compound.finance/docs/governance\n// and https://github.com/compound-finance/compound-protocol/tree/master/contracts/Governance\ncontract GovernorAlpha {\n    /// @notice The name of this contract\n    string public constant name = \"FXS Governor Alpha\";\n\n    /// @notice The number of votes in support of a proposal required in order for a quorum to be reached and for a vote to succeed\n    function quorumVotes() public pure returns (uint) { return 4000000e18; } // 4,000,000 = 4% of FXS\n\n    /// @notice The number of votes required in order for a voter to become a proposer\n    function proposalThreshold() public pure returns (uint) { return 1000000e18; } // 1,000,000 = 1% of FXS\n\n    /// @notice The maximum number of actions that can be included in a proposal\n    function proposalMaxOperations() public pure returns (uint) { return 10; } // 10 actions\n\n    /// @notice The delay before voting on a proposal may take place, once proposed\n    function votingDelay() public pure returns (uint) { return 1; } // 1 block\n\n    /// @notice The duration of voting on a proposal, in blocks\n    // function votingPeriod() public pure returns (uint) { return 17280; } // ~3 days in blocks (assuming 15s blocks)\n    uint public votingPeriod = 17280;\n    \n    /// @notice The address of the Timelock\n    TimelockInterface public timelock;\n\n    // The address of the FXS token\n    FRAXShares private fxs;\n\n    /// @notice The address of the Governor Guardian\n    address public guardian;\n\n    /// @notice The total number of proposals\n    uint public proposalCount = 0;\n\n    struct Proposal {\n        // @notice Unique id for looking up a proposal\n        uint id;\n\n        // @notice Creator of the proposal\n        address proposer;\n\n        // @notice The timestamp that the proposal will be available for execution, set once the vote succeeds\n        uint eta;\n\n        // @notice the ordered list of target addresses for calls to be made\n        address[] targets;\n\n        // @notice The ordered list of values (i.e. msg.value) to be passed to the calls to be made\n        uint[] values;\n\n        // @notice The ordered list of function signatures to be called\n        string[] signatures;\n\n        // @notice The ordered list of calldata to be passed to each call\n        bytes[] calldatas;\n\n        // @notice The block at which voting begins: holders must delegate their votes prior to this block\n        uint startBlock;\n\n        // @notice The block at which voting ends: votes must be cast prior to this block\n        uint endBlock;\n\n        // @notice Current number of votes in favor of this proposal\n        uint forVotes;\n\n        // @notice Current number of votes in opposition to this proposal\n        uint againstVotes;\n\n        // @notice Flag marking whether the proposal has been canceled\n        bool canceled;\n\n        // @notice Flag marking whether the proposal has been executed\n        bool executed;\n\n        // @notice Title of the proposal (human-readable)\n        string title;\n\n        // @notice Description of the proposall (human-readable)\n        string description;\n\n        // @notice Receipts of ballots for the entire set of voters\n        mapping (address => Receipt) receipts;\n    }\n\n    /// @notice Ballot receipt record for a voter\n    struct Receipt {\n        // @notice Whether or not a vote has been cast\n        bool hasVoted;\n\n        // @notice Whether or not the voter supports the proposal\n        bool support;\n\n        // @notice The number of votes the voter had, which were cast\n        uint96 votes;\n    }\n\n    /// @notice Possible states that a proposal may be in\n    enum ProposalState {\n        Pending,\n        Active,\n        Canceled,\n        Defeated,\n        Succeeded,\n        Queued,\n        Expired,\n        Executed\n    }\n\n    /// @notice The official record of all proposals ever proposed\n    mapping (uint => Proposal) public proposals;\n\n    uint[] public proposal_ids; // List of all proposal ids. Use in tandem with the proposals mapping\n\n    /// @notice The latest proposal for each proposer\n    mapping (address => uint) public latestProposalIds;\n\n    /// @notice The EIP-712 typehash for the contract's domain\n    bytes32 public constant DOMAIN_TYPEHASH = keccak256(\"EIP712Domain(string name,uint256 chainId,address verifyingContract)\");\n\n    /// @notice The EIP-712 typehash for the ballot struct used by the contract\n    bytes32 public constant BALLOT_TYPEHASH = keccak256(\"Ballot(uint256 proposalId,bool support)\");\n\n    /// @notice An event emitted when a new proposal is created\n    event ProposalCreated(uint id, address proposer, address[] targets, uint[] values, string[] signatures, bytes[] calldatas, uint startBlock, uint endBlock, string description);\n\n    /// @notice An event emitted when a vote has been cast on a proposal\n    event VoteCast(address voter, uint proposalId, bool support, uint votes);\n\n    /// @notice An event emitted when a proposal has been canceled\n    event ProposalCanceled(uint id);\n\n    /// @notice An event emitted when a proposal has been queued in the Timelock\n    event ProposalQueued(uint id, uint eta);\n\n    /// @notice An event emitted when a proposal has been executed in the Timelock\n    event ProposalExecuted(uint id);\n\n    constructor(address timelock_, address fxs_, address guardian_) public {\n        timelock = TimelockInterface(timelock_);\n        fxs = FRAXShares(fxs_);\n        guardian = guardian_;\n    }\n\n    function propose(address[] memory targets, uint[] memory values, string[] memory signatures, bytes[] memory calldatas, string memory title, string memory description) public returns (uint) {\n        require(fxs.getPriorVotes(msg.sender, sub256(block.number, 1)) >= proposalThreshold(), \"GovernorAlpha::propose: proposer votes below proposal threshold\");\n        require(targets.length == values.length && targets.length == signatures.length && targets.length == calldatas.length, \"GovernorAlpha::propose: proposal function information arity mismatch\");\n        require(targets.length != 0, \"GovernorAlpha::propose: must provide actions\");\n        require(targets.length <= proposalMaxOperations(), \"GovernorAlpha::propose: too many actions\");\n\n        uint latestProposalId = latestProposalIds[msg.sender];\n        if (latestProposalId != 0) {\n          ProposalState proposersLatestProposalState = state(latestProposalId);\n          require(proposersLatestProposalState != ProposalState.Active, \"GovernorAlpha::propose: one live proposal per proposer, found an already active proposal\");\n          require(proposersLatestProposalState != ProposalState.Pending, \"GovernorAlpha::propose: one live proposal per proposer, found an already pending proposal\");\n        }\n\n        uint startBlock = add256(block.number, votingDelay());\n        uint endBlock = add256(startBlock, votingPeriod);\n\n        proposalCount++;\n        Proposal memory newProposal = Proposal({\n            id: proposalCount,\n            proposer: msg.sender,\n            eta: 0,\n            targets: targets,\n            values: values,\n            signatures: signatures,\n            calldatas: calldatas,\n            startBlock: startBlock,\n            endBlock: endBlock,\n            forVotes: 0,\n            againstVotes: 0,\n            canceled: false,\n            executed: false,\n            title: title,\n            description: description\n        });\n\n        proposals[newProposal.id] = newProposal;\n        latestProposalIds[newProposal.proposer] = newProposal.id;\n        proposal_ids.push(newProposal.id);\n\n        emit ProposalCreated(newProposal.id, msg.sender, targets, values, signatures, calldatas, startBlock, endBlock, description);\n        return newProposal.id;\n    }\n\n    function queue(uint proposalId) public {\n        require(state(proposalId) == ProposalState.Succeeded, \"GovernorAlpha::queue: proposal can only be queued if it succeeded\");\n        Proposal storage proposal = proposals[proposalId];\n        uint eta = add256(block.timestamp, timelock.delay());\n        for (uint i = 0; i < proposal.targets.length; i++) {\n            _queueOrRevert(proposal.targets[i], proposal.values[i], proposal.signatures[i], proposal.calldatas[i], eta);\n        }\n        proposal.eta = eta;\n        emit ProposalQueued(proposalId, eta);\n    }\n\n    function _queueOrRevert(address target, uint value, string memory signature, bytes memory data, uint eta) internal {\n        require(!timelock.queuedTransactions(keccak256(abi.encode(target, value, signature, data, eta))), \"GovernorAlpha::_queueOrRevert: proposal action already queued at eta\");\n        timelock.queueTransaction(target, value, signature, data, eta);\n    }\n\n    function execute(uint proposalId) public payable {\n        require(state(proposalId) == ProposalState.Queued, \"GovernorAlpha::execute: proposal can only be executed if it is queued\");\n        Proposal storage proposal = proposals[proposalId];\n        proposal.executed = true;\n        for (uint i = 0; i < proposal.targets.length; i++) {\n            timelock.executeTransaction(proposal.targets[i], proposal.values[i], proposal.signatures[i], proposal.calldatas[i], proposal.eta);\n        }\n        emit ProposalExecuted(proposalId);\n    }\n\n    function cancel(uint proposalId) public {\n        ProposalState state = state(proposalId);\n        require(state != ProposalState.Executed, \"GovernorAlpha::cancel: cannot cancel executed proposal\");\n\n        Proposal storage proposal = proposals[proposalId];\n        require(msg.sender == guardian || fxs.getPriorVotes(proposal.proposer, sub256(block.number, 1)) < proposalThreshold(), \"GovernorAlpha::cancel: proposer at or above threshold\");\n\n        proposal.canceled = true;\n        for (uint i = 0; i < proposal.targets.length; i++) {\n            timelock.cancelTransaction(proposal.targets[i], proposal.values[i], proposal.signatures[i], proposal.calldatas[i], proposal.eta);\n        }\n\n        emit ProposalCanceled(proposalId);\n    }\n\n    function getActions(uint proposalId) public view returns (address[] memory targets, uint[] memory values, string[] memory signatures, bytes[] memory calldatas) {\n        Proposal storage p = proposals[proposalId];\n        return (p.targets, p.values, p.signatures, p.calldatas);\n    }\n\n    function getReceipt(uint proposalId, address voter) public view returns (Receipt memory) {\n        return proposals[proposalId].receipts[voter];\n    }\n\n    function state(uint proposalId) public view returns (ProposalState) {\n        require(proposalCount >= proposalId && proposalId > 0, \"GovernorAlpha::state: invalid proposal id\");\n        Proposal storage proposal = proposals[proposalId];\n        if (proposal.canceled) {\n            return ProposalState.Canceled;\n        } else if (block.number <= proposal.startBlock) {\n            return ProposalState.Pending;\n        } else if (block.number <= proposal.endBlock) {\n            return ProposalState.Active;\n        } else if (proposal.forVotes <= proposal.againstVotes || proposal.forVotes < quorumVotes()) {\n            return ProposalState.Defeated;\n        } else if (proposal.eta == 0) {\n            return ProposalState.Succeeded;\n        } else if (proposal.executed) {\n            return ProposalState.Executed;\n        } else if (block.timestamp >= add256(proposal.eta, timelock.GRACE_PERIOD())) {\n            return ProposalState.Expired;\n        } else {\n            return ProposalState.Queued;\n        }\n    }\n\n    function castVote(uint proposalId, bool support) public {\n        return _castVote(msg.sender, proposalId, support);\n    }\n\n    function castVoteBySig(uint proposalId, bool support, uint8 v, bytes32 r, bytes32 s) public {\n        bytes32 domainSeparator = keccak256(abi.encode(DOMAIN_TYPEHASH, keccak256(bytes(name)), getChainId(), address(this)));\n        bytes32 structHash = keccak256(abi.encode(BALLOT_TYPEHASH, proposalId, support));\n        bytes32 digest = keccak256(abi.encodePacked(\"\\x19\\x01\", domainSeparator, structHash));\n        address signatory = ecrecover(digest, v, r, s);\n        require(signatory != address(0), \"GovernorAlpha::castVoteBySig: invalid signature\");\n        return _castVote(signatory, proposalId, support);\n    }\n\n    function _castVote(address voter, uint proposalId, bool support) internal {\n        require(state(proposalId) == ProposalState.Active, \"GovernorAlpha::_castVote: voting is closed\");\n        Proposal storage proposal = proposals[proposalId];\n        Receipt storage receipt = proposal.receipts[voter];\n        require(receipt.hasVoted == false, \"GovernorAlpha::_castVote: voter already voted\");\n        uint96 votes = fxs.getPriorVotes(voter, proposal.startBlock);\n\n        if (support) {\n            proposal.forVotes = add256(proposal.forVotes, votes);\n        } else {\n            proposal.againstVotes = add256(proposal.againstVotes, votes);\n        }\n\n        receipt.hasVoted = true;\n        receipt.support = support;\n        receipt.votes = votes;\n\n        emit VoteCast(voter, proposalId, support, votes);\n    }\n\n    function __acceptAdmin() public {\n        require(msg.sender == guardian, \"GovernorAlpha::__acceptAdmin: sender must be gov guardian\");\n        timelock.acceptAdmin();\n    }\n\n    function __abdicate() public {\n        require(msg.sender == guardian, \"GovernorAlpha::__abdicate: sender must be gov guardian\");\n        guardian = address(0);\n    }\n\n    function __setVotingPeriod(uint period) public {\n        require(msg.sender == guardian, \"GovernorAlpha::__setVotingPeriod: sender must be gov guardian\");\n        votingPeriod = period;\n    }\n\n    function __setTimelockAddress(address timelock_) public {\n        require(msg.sender == guardian, \"GovernorAlpha::__setTimelockAddress: sender must be gov guardian\");\n        timelock = TimelockInterface(timelock_);\n    }\n\n    function __queueSetTimelockPendingAdmin(address newPendingAdmin, uint eta) public {\n        require(msg.sender == guardian, \"GovernorAlpha::__queueSetTimelockPendingAdmin: sender must be gov guardian\");\n        timelock.queueTransaction(address(timelock), 0, \"setPendingAdmin(address)\", abi.encode(newPendingAdmin), eta);\n    }\n\n    function __executeSetTimelockPendingAdmin(address newPendingAdmin, uint eta) public {\n        require(msg.sender == guardian, \"GovernorAlpha::__executeSetTimelockPendingAdmin: sender must be gov guardian\");\n        timelock.executeTransaction(address(timelock), 0, \"setPendingAdmin(address)\", abi.encode(newPendingAdmin), eta);\n    }\n\n    function add256(uint256 a, uint256 b) internal pure returns (uint) {\n        uint c = a + b;\n        require(c >= a, \"addition overflow\");\n        return c;\n    }\n\n    function sub256(uint256 a, uint256 b) internal pure returns (uint) {\n        require(b <= a, \"subtraction underflow\");\n        return a - b;\n    }\n\n    function getChainId() internal pure returns (uint) {\n        uint chainId;\n        assembly { chainId := chainid() }\n        return chainId;\n    }\n}\n\ninterface TimelockInterface {\n    function delay() external view returns (uint);\n    function GRACE_PERIOD() external view returns (uint);\n    function acceptAdmin() external;\n    function queuedTransactions(bytes32 hash) external view returns (bool);\n    function queueTransaction(address target, uint value, string calldata signature, bytes calldata data, uint eta) external returns (bytes32);\n    function cancelTransaction(address target, uint value, string calldata signature, bytes calldata data, uint eta) external;\n    function executeTransaction(address target, uint value, string calldata signature, bytes calldata data, uint eta) external payable returns (bytes memory);\n}\n",
  "sourcePath": "/home/travis/Documents/Ubuntu_Shared/frax-price-feed/src/truffle/contracts/Governance/Governance.sol",
  "compiler": {
    "name": "solc",
    "version": "0.6.12+commit.27d51765.Emscripten.clang"
  },
  "schemaVersion": "3.2.4",
  "updatedAt": "2020-10-08T23:05:58.515Z",
  "networkType": "ethereum",
  "devdoc": {
    "kind": "dev",
    "methods": {},
    "version": 1
  },
  "userdoc": {
    "events": {
      "ProposalCanceled(uint256)": {
        "notice": "An event emitted when a proposal has been canceled"
      },
      "ProposalCreated(uint256,address,address[],uint256[],string[],bytes[],uint256,uint256,string)": {
        "notice": "An event emitted when a new proposal is created"
      },
      "ProposalExecuted(uint256)": {
        "notice": "An event emitted when a proposal has been executed in the Timelock"
      },
      "ProposalQueued(uint256,uint256)": {
        "notice": "An event emitted when a proposal has been queued in the Timelock"
      },
      "VoteCast(address,uint256,bool,uint256)": {
        "notice": "An event emitted when a vote has been cast on a proposal"
      }
    },
    "kind": "user",
    "methods": {
      "BALLOT_TYPEHASH()": {
        "notice": "The EIP-712 typehash for the ballot struct used by the contract"
      },
      "DOMAIN_TYPEHASH()": {
        "notice": "The EIP-712 typehash for the contract's domain"
      },
      "guardian()": {
        "notice": "The address of the Governor Guardian"
      },
      "latestProposalIds(address)": {
        "notice": "The latest proposal for each proposer"
      },
      "name()": {
        "notice": "The name of this contract"
      },
      "proposalCount()": {
        "notice": "The total number of proposals"
      },
      "proposalMaxOperations()": {
        "notice": "The maximum number of actions that can be included in a proposal"
      },
      "proposalThreshold()": {
        "notice": "The number of votes required in order for a voter to become a proposer"
      },
      "proposals(uint256)": {
        "notice": "The official record of all proposals ever proposed"
      },
      "quorumVotes()": {
        "notice": "The number of votes in support of a proposal required in order for a quorum to be reached and for a vote to succeed"
      },
      "timelock()": {
        "notice": "The address of the Timelock"
      },
      "votingDelay()": {
        "notice": "The delay before voting on a proposal may take place, once proposed"
      },
      "votingPeriod()": {
        "notice": "The duration of voting on a proposal, in blocks"
      }
    },
    "version": 1
  }
}