{
  "contractName": "Pool_yUSD",
  "abi": [
    {
      "inputs": [
        {
          "internalType": "address",
          "name": "_collateral_address",
          "type": "address"
        },
        {
          "internalType": "address",
          "name": "_oracle_address",
          "type": "address"
        },
        {
          "internalType": "address",
          "name": "_creator_address",
          "type": "address"
        },
        {
          "internalType": "address",
          "name": "_timelock_address",
          "type": "address"
        },
        {
          "internalType": "uint256",
          "name": "_pool_ceiling",
          "type": "uint256"
        }
      ],
      "stateMutability": "nonpayable",
      "type": "constructor"
    },
    {
      "anonymous": false,
      "inputs": [
        {
          "indexed": true,
          "internalType": "bytes32",
          "name": "role",
          "type": "bytes32"
        },
        {
          "indexed": true,
          "internalType": "bytes32",
          "name": "previousAdminRole",
          "type": "bytes32"
        },
        {
          "indexed": true,
          "internalType": "bytes32",
          "name": "newAdminRole",
          "type": "bytes32"
        }
      ],
      "name": "RoleAdminChanged",
      "type": "event"
    },
    {
      "anonymous": false,
      "inputs": [
        {
          "indexed": true,
          "internalType": "bytes32",
          "name": "role",
          "type": "bytes32"
        },
        {
          "indexed": true,
          "internalType": "address",
          "name": "account",
          "type": "address"
        },
        {
          "indexed": true,
          "internalType": "address",
          "name": "sender",
          "type": "address"
        }
      ],
      "name": "RoleGranted",
      "type": "event"
    },
    {
      "anonymous": false,
      "inputs": [
        {
          "indexed": true,
          "internalType": "bytes32",
          "name": "role",
          "type": "bytes32"
        },
        {
          "indexed": true,
          "internalType": "address",
          "name": "account",
          "type": "address"
        },
        {
          "indexed": true,
          "internalType": "address",
          "name": "sender",
          "type": "address"
        }
      ],
      "name": "RoleRevoked",
      "type": "event"
    },
    {
      "inputs": [],
      "name": "DEFAULT_ADMIN_ROLE",
      "outputs": [
        {
          "internalType": "bytes32",
          "name": "",
          "type": "bytes32"
        }
      ],
      "stateMutability": "view",
      "type": "function",
      "constant": true
    },
    {
      "inputs": [
        {
          "internalType": "address",
          "name": "owner_address",
          "type": "address"
        }
      ],
      "name": "addOwner",
      "outputs": [],
      "stateMutability": "nonpayable",
      "type": "function"
    },
    {
      "inputs": [],
      "name": "availableExcessCollatDV",
      "outputs": [
        {
          "internalType": "uint256",
          "name": "",
          "type": "uint256"
        }
      ],
      "stateMutability": "view",
      "type": "function",
      "constant": true
    },
    {
      "inputs": [
        {
          "internalType": "uint256",
          "name": "FXS_amount",
          "type": "uint256"
        }
      ],
      "name": "buyBackFXS",
      "outputs": [],
      "stateMutability": "nonpayable",
      "type": "function"
    },
    {
      "inputs": [],
      "name": "collatDollarBalance",
      "outputs": [
        {
          "internalType": "uint256",
          "name": "",
          "type": "uint256"
        }
      ],
      "stateMutability": "view",
      "type": "function",
      "constant": true
    },
    {
      "inputs": [],
      "name": "collectRedemption",
      "outputs": [],
      "stateMutability": "nonpayable",
      "type": "function"
    },
    {
      "inputs": [
        {
          "internalType": "bytes32",
          "name": "role",
          "type": "bytes32"
        }
      ],
      "name": "getRoleAdmin",
      "outputs": [
        {
          "internalType": "bytes32",
          "name": "",
          "type": "bytes32"
        }
      ],
      "stateMutability": "view",
      "type": "function",
      "constant": true
    },
    {
      "inputs": [
        {
          "internalType": "bytes32",
          "name": "role",
          "type": "bytes32"
        },
        {
          "internalType": "uint256",
          "name": "index",
          "type": "uint256"
        }
      ],
      "name": "getRoleMember",
      "outputs": [
        {
          "internalType": "address",
          "name": "",
          "type": "address"
        }
      ],
      "stateMutability": "view",
      "type": "function",
      "constant": true
    },
    {
      "inputs": [
        {
          "internalType": "bytes32",
          "name": "role",
          "type": "bytes32"
        }
      ],
      "name": "getRoleMemberCount",
      "outputs": [
        {
          "internalType": "uint256",
          "name": "",
          "type": "uint256"
        }
      ],
      "stateMutability": "view",
      "type": "function",
      "constant": true
    },
    {
      "inputs": [
        {
          "internalType": "bytes32",
          "name": "role",
          "type": "bytes32"
        },
        {
          "internalType": "address",
          "name": "account",
          "type": "address"
        }
      ],
      "name": "grantRole",
      "outputs": [],
      "stateMutability": "nonpayable",
      "type": "function"
    },
    {
      "inputs": [
        {
          "internalType": "bytes32",
          "name": "role",
          "type": "bytes32"
        },
        {
          "internalType": "address",
          "name": "account",
          "type": "address"
        }
      ],
      "name": "hasRole",
      "outputs": [
        {
          "internalType": "bool",
          "name": "",
          "type": "bool"
        }
      ],
      "stateMutability": "view",
      "type": "function",
      "constant": true
    },
    {
      "inputs": [
        {
          "internalType": "uint256",
          "name": "collateral_amount_d18",
          "type": "uint256"
        }
      ],
      "name": "mint1t1FRAX",
      "outputs": [],
      "stateMutability": "nonpayable",
      "type": "function"
    },
    {
      "inputs": [
        {
          "internalType": "uint256",
          "name": "fxs_amount_d18",
          "type": "uint256"
        }
      ],
      "name": "mintAlgorithmicFRAX",
      "outputs": [],
      "stateMutability": "nonpayable",
      "type": "function"
    },
    {
      "inputs": [
        {
          "internalType": "uint256",
          "name": "collateral_amount",
          "type": "uint256"
        },
        {
          "internalType": "uint256",
          "name": "fxs_amount",
          "type": "uint256"
        }
      ],
      "name": "mintFractionalFRAX",
      "outputs": [],
      "stateMutability": "nonpayable",
      "type": "function"
    },
    {
      "inputs": [],
      "name": "recollateralizeAmount",
      "outputs": [
        {
          "internalType": "uint256",
          "name": "recollateralization_left",
          "type": "uint256"
        }
      ],
      "stateMutability": "view",
      "type": "function",
      "constant": true
    },
    {
      "inputs": [
        {
          "internalType": "uint256",
          "name": "collateral_amount_d18",
          "type": "uint256"
        }
      ],
      "name": "recollateralizeFrax",
      "outputs": [],
      "stateMutability": "nonpayable",
      "type": "function"
    },
    {
      "inputs": [
        {
          "internalType": "uint256",
          "name": "FRAX_amount",
          "type": "uint256"
        }
      ],
      "name": "redeem1t1FRAX",
      "outputs": [],
      "stateMutability": "nonpayable",
      "type": "function"
    },
    {
      "inputs": [
        {
          "internalType": "uint256",
          "name": "FRAX_amount",
          "type": "uint256"
        }
      ],
      "name": "redeemAlgorithmicFRAX",
      "outputs": [],
      "stateMutability": "nonpayable",
      "type": "function"
    },
    {
      "inputs": [
        {
          "internalType": "uint256",
          "name": "FRAX_amount",
          "type": "uint256"
        }
      ],
      "name": "redeemFractionalFRAX",
      "outputs": [],
      "stateMutability": "nonpayable",
      "type": "function"
    },
    {
      "inputs": [
        {
          "internalType": "address",
          "name": "owner_address",
          "type": "address"
        }
      ],
      "name": "removeOwner",
      "outputs": [],
      "stateMutability": "nonpayable",
      "type": "function"
    },
    {
      "inputs": [
        {
          "internalType": "bytes32",
          "name": "role",
          "type": "bytes32"
        },
        {
          "internalType": "address",
          "name": "account",
          "type": "address"
        }
      ],
      "name": "renounceRole",
      "outputs": [],
      "stateMutability": "nonpayable",
      "type": "function"
    },
    {
      "inputs": [
        {
          "internalType": "bytes32",
          "name": "role",
          "type": "bytes32"
        },
        {
          "internalType": "address",
          "name": "account",
          "type": "address"
        }
      ],
      "name": "revokeRole",
      "outputs": [],
      "stateMutability": "nonpayable",
      "type": "function"
    },
    {
      "inputs": [
        {
          "internalType": "address",
          "name": "_collateral_address",
          "type": "address"
        }
      ],
      "name": "setCollateralAdd",
      "outputs": [],
      "stateMutability": "nonpayable",
      "type": "function"
    },
    {
      "inputs": [
        {
          "internalType": "address",
          "name": "_frax_contract_address",
          "type": "address"
        }
      ],
      "name": "setFRAXAddress",
      "outputs": [],
      "stateMutability": "nonpayable",
      "type": "function"
    },
    {
      "inputs": [
        {
          "internalType": "address",
          "name": "_fxs_contract_address",
          "type": "address"
        }
      ],
      "name": "setFXSAddress",
      "outputs": [],
      "stateMutability": "nonpayable",
      "type": "function"
    },
    {
      "inputs": [
        {
          "internalType": "address",
          "name": "new_oracle",
          "type": "address"
        }
      ],
      "name": "setOracle",
      "outputs": [],
      "stateMutability": "nonpayable",
      "type": "function"
    },
    {
      "inputs": [
        {
          "internalType": "uint256",
          "name": "new_ceiling",
          "type": "uint256"
        }
      ],
      "name": "setPoolCeiling",
      "outputs": [],
      "stateMutability": "nonpayable",
      "type": "function"
    },
    {
      "inputs": [],
      "name": "toggleBuyBack",
      "outputs": [],
      "stateMutability": "nonpayable",
      "type": "function"
    },
    {
      "inputs": [],
      "name": "toggleMinting",
      "outputs": [],
      "stateMutability": "nonpayable",
      "type": "function"
    },
    {
      "inputs": [],
      "name": "toggleRedeeming",
      "outputs": [],
      "stateMutability": "nonpayable",
      "type": "function"
    },
    {
      "inputs": [
        {
          "internalType": "address",
          "name": "_account",
          "type": "address"
        }
      ],
      "name": "unclaimedCollateral",
      "outputs": [
        {
          "internalType": "uint256",
          "name": "",
          "type": "uint256"
        }
      ],
      "stateMutability": "view",
      "type": "function",
      "constant": true
    },
    {
      "inputs": [
        {
          "internalType": "address",
          "name": "_account",
          "type": "address"
        }
      ],
      "name": "unclaimedFXS",
      "outputs": [
        {
          "internalType": "uint256",
          "name": "",
          "type": "uint256"
        }
      ],
      "stateMutability": "view",
      "type": "function",
      "constant": true
    },
    {
      "inputs": [],
      "name": "unclaimedPoolCollateral",
      "outputs": [
        {
          "internalType": "uint256",
          "name": "",
          "type": "uint256"
        }
      ],
      "stateMutability": "view",
      "type": "function",
      "constant": true
    },
    {
      "inputs": [],
      "name": "unclaimedPoolFXS",
      "outputs": [
        {
          "internalType": "uint256",
          "name": "",
          "type": "uint256"
        }
      ],
      "stateMutability": "view",
      "type": "function",
      "constant": true
    }
  ],
  "bytecode": "0x608060405260006010556000601160006101000a81548160ff0219169083151502179055506000601160016101000a81548160ff0219169083151502179055506000601160026101000a81548160ff0219169083151502179055503480156200006757600080fd5b506040516200661e3803806200661e833981810160405260a08110156200008d57600080fd5b810190808051906020019092919080519060200190929190805190602001909291908051906020019092919080519060200190929190505050848484848484600260006101000a81548173ffffffffffffffffffffffffffffffffffffffff021916908373ffffffffffffffffffffffffffffffffffffffff16021790555083600460006101000a81548173ffffffffffffffffffffffffffffffffffffffff021916908373ffffffffffffffffffffffffffffffffffffffff16021790555081600760006101000a81548173ffffffffffffffffffffffffffffffffffffffff021916908373ffffffffffffffffffffffffffffffffffffffff1602179055506003839080600181540180825580915050600190039060005260206000200160009091909190916101000a81548173ffffffffffffffffffffffffffffffffffffffff021916908373ffffffffffffffffffffffffffffffffffffffff1602179055506003829080600181540180825580915050600190039060005260206000200160009091909190916101000a81548173ffffffffffffffffffffffffffffffffffffffff021916908373ffffffffffffffffffffffffffffffffffffffff16021790555083600a60006101000a81548173ffffffffffffffffffffffffffffffffffffffff021916908373ffffffffffffffffffffffffffffffffffffffff16021790555084600160006101000a81548173ffffffffffffffffffffffffffffffffffffffff021916908373ffffffffffffffffffffffffffffffffffffffff16021790555080601081905550620003016000801b620002f56200052d60201b60201c565b6200053560201b60201c565b620003557fc65532185ed70b2e999433e2e9fac124e083acb13ec183a4e05944da0792337b600460009054906101000a900473ffffffffffffffffffffffffffffffffffffffff166200054b60201b60201c565b620003a97fc65532185ed70b2e999433e2e9fac124e083acb13ec183a4e05944da0792337b600760009054906101000a900473ffffffffffffffffffffffffffffffffffffffff166200054b60201b60201c565b620003fd7fa84a5389ad41f9aab0831b01e5384cae76e7a7fd09131c206ff7927c201c3857600460009054906101000a900473ffffffffffffffffffffffffffffffffffffffff166200054b60201b60201c565b620004517fa84a5389ad41f9aab0831b01e5384cae76e7a7fd09131c206ff7927c201c3857600760009054906101000a900473ffffffffffffffffffffffffffffffffffffffff166200054b60201b60201c565b620004a57f103da79ff3755ff7a17a557d28b73d37cb4de0b3c3cc02fa6c48df0f35071fbf600460009054906101000a900473ffffffffffffffffffffffffffffffffffffffff166200054b60201b60201c565b620004f97f103da79ff3755ff7a17a557d28b73d37cb4de0b3c3cc02fa6c48df0f35071fbf600760009054906101000a900473ffffffffffffffffffffffffffffffffffffffff166200054b60201b60201c565b5050505050620005226000801b620005166200052d60201b60201c565b6200053560201b60201c565b5050505050620007d6565b600033905090565b620005478282620005ee60201b60201c565b5050565b6200058160008084815260200190815260200160002060020154620005756200052d60201b60201c565b6200069160201b60201c565b620005d8576040517f08c379a000000000000000000000000000000000000000000000000000000000815260040180806020018281038252602f815260200180620065ef602f913960400191505060405180910390fd5b620005ea8282620005ee60201b60201c565b5050565b6200061c81600080858152602001908152602001600020600001620006c960201b620050d91790919060201c565b156200068d57620006326200052d60201b60201c565b73ffffffffffffffffffffffffffffffffffffffff168173ffffffffffffffffffffffffffffffffffffffff16837f2f8788117e7eff1d82e926ec794901d17c78024a50270940304540a733656f0d60405160405180910390a45b5050565b6000620006c1826000808681526020019081526020016000206000016200070160201b620051091790919060201c565b905092915050565b6000620006f9836000018373ffffffffffffffffffffffffffffffffffffffff1660001b6200073960201b60201c565b905092915050565b600062000731836000018373ffffffffffffffffffffffffffffffffffffffff1660001b620007b360201b60201c565b905092915050565b60006200074d8383620007b360201b60201c565b620007a8578260000182908060018154018082558091505060019003906000526020600020016000909190919091505582600001805490508360010160008481526020019081526020016000208190555060019050620007ad565b600090505b92915050565b600080836001016000848152602001908152602001600020541415905092915050565b615e0980620007e66000396000f3fe608060405234801561001057600080fd5b50600436106102065760003560e01c80637d55094d1161011a578063bdea3454116100ad578063d547741f1161007c578063d547741f1461080f578063daa504851461085d578063e86bc61914610867578063f4cf0f0614610895578063f61adab2146108ed57610206565b8063bdea34541461072d578063c3bc89101461075b578063ca15c8731461079f578063cf0ad37a146107e157610206565b8063a217fddf116100e9578063a217fddf1461065b578063b01f3ff414610679578063b05cb2c7146106d1578063bb6637a1146106ff57610206565b80637d55094d146105535780637f68f8501461055d5780639010d07c1461059557806391d14854146105f757610206565b80634b3161c21161019d578063675ad39b1161016c578063675ad39b146104615780637058b9cf1461048f5780637065cb48146104ad5780637adbf973146104f15780637b0461e91461053557610206565b80634b3161c2146103b15780634c26203c146103f557806350c9ecd914610413578063556e98341461041d57610206565b80631de4f511116101d95780631de4f511146102a5578063248a9ca3146102d35780632f2ff15d1461031557806336568abe1461036357610206565b806312ace5a21461020b57806317284c9414610215578063173825d9146102335780631b9e040414610277575b600080fd5b61021361090b565b005b61021d610d7a565b6040518082815260200191505060405180910390f35b6102756004803603602081101561024957600080fd5b81019080803573ffffffffffffffffffffffffffffffffffffffff169060200190929190505050610fff565b005b6102a36004803603602081101561028d57600080fd5b81019080803590602001909291905050506111ee565b005b6102d1600480360360208110156102bb57600080fd5b81019080803590602001909291905050506117af565b005b6102ff600480360360208110156102e957600080fd5b8101908080359060200190929190505050611e11565b6040518082815260200191505060405180910390f35b6103616004803603604081101561032b57600080fd5b8101908080359060200190929190803573ffffffffffffffffffffffffffffffffffffffff169060200190929190505050611e30565b005b6103af6004803603604081101561037957600080fd5b8101908080359060200190929190803573ffffffffffffffffffffffffffffffffffffffff169060200190929190505050611eb9565b005b6103f3600480360360208110156103c757600080fd5b81019080803573ffffffffffffffffffffffffffffffffffffffff169060200190929190505050611f52565b005b6103fd6120de565b6040518082815260200191505060405180910390f35b61041b6120e4565b005b61045f6004803603602081101561043357600080fd5b81019080803573ffffffffffffffffffffffffffffffffffffffff169060200190929190505050612143565b005b61048d6004803603602081101561047757600080fd5b81019080803590602001909291905050506122cf565b005b6104976126b7565b6040518082815260200191505060405180910390f35b6104ef600480360360208110156104c357600080fd5b81019080803573ffffffffffffffffffffffffffffffffffffffff169060200190929190505050612802565b005b6105336004803603602081101561050757600080fd5b81019080803573ffffffffffffffffffffffffffffffffffffffff16906020019092919050505061296f565b005b61053d612b1d565b6040518082815260200191505060405180910390f35b61055b612b23565b005b6105936004803603604081101561057357600080fd5b810190808035906020019092919080359060200190929190505050612b82565b005b6105cb600480360360408110156105ab57600080fd5b810190808035906020019092919080359060200190929190505050613301565b604051808273ffffffffffffffffffffffffffffffffffffffff16815260200191505060405180910390f35b6106436004803603604081101561060d57600080fd5b8101908080359060200190929190803573ffffffffffffffffffffffffffffffffffffffff169060200190929190505050613332565b60405180821515815260200191505060405180910390f35b610663613363565b6040518082815260200191505060405180910390f35b6106bb6004803603602081101561068f57600080fd5b81019080803573ffffffffffffffffffffffffffffffffffffffff16906020019092919050505061336a565b6040518082815260200191505060405180910390f35b6106fd600480360360208110156106e757600080fd5b81019080803590602001909291905050506133b3565b005b61072b6004803603602081101561071557600080fd5b810190808035906020019092919050505061387a565b005b6107596004803603602081101561074357600080fd5b810190808035906020019092919050505061412f565b005b61079d6004803603602081101561077157600080fd5b81019080803573ffffffffffffffffffffffffffffffffffffffff1690602001909291905050506146fe565b005b6107cb600480360360208110156107b557600080fd5b810190808035906020019092919050505061488a565b6040518082815260200191505060405180910390f35b61080d600480360360208110156107f757600080fd5b81019080803590602001909291905050506148b0565b005b61085b6004803603604081101561082557600080fd5b8101908080359060200190929190803573ffffffffffffffffffffffffffffffffffffffff169060200190929190505050614d05565b005b610865614d8e565b005b6108936004803603602081101561087d57600080fd5b8101908080359060200190929190505050614ded565b005b6108d7600480360360208110156108ab57600080fd5b81019080803573ffffffffffffffffffffffffffffffffffffffff169060200190929190505050614efe565b6040518082815260200191505060405180910390f35b6108f5614f47565b6040518082815260200191505060405180910390f35b43600f60003373ffffffffffffffffffffffffffffffffffffffff1673ffffffffffffffffffffffffffffffffffffffff16815260200190815260200160002054106109a2576040517f08c379a0000000000000000000000000000000000000000000000000000000008152600401808060200182810382526039815260200180615cb56039913960400191505060405180910390fd5b6000600b60003373ffffffffffffffffffffffffffffffffffffffff1673ffffffffffffffffffffffffffffffffffffffff168152602001908152602001600020541115610b8d57600860009054906101000a900473ffffffffffffffffffffffffffffffffffffffff1673ffffffffffffffffffffffffffffffffffffffff1663a9059cbb33600b60003373ffffffffffffffffffffffffffffffffffffffff1673ffffffffffffffffffffffffffffffffffffffff168152602001908152602001600020546040518363ffffffff1660e01b8152600401808373ffffffffffffffffffffffffffffffffffffffff16815260200182815260200192505050602060405180830381600087803b158015610abc57600080fd5b505af1158015610ad0573d6000803e3d6000fd5b505050506040513d6020811015610ae657600080fd5b810190808051906020019092919050505050600b60003373ffffffffffffffffffffffffffffffffffffffff1673ffffffffffffffffffffffffffffffffffffffff16815260200190815260200160002054600e600082825403925050819055506000600b60003373ffffffffffffffffffffffffffffffffffffffff1673ffffffffffffffffffffffffffffffffffffffff168152602001908152602001600020819055505b6000600c60003373ffffffffffffffffffffffffffffffffffffffff1673ffffffffffffffffffffffffffffffffffffffff168152602001908152602001600020541115610d7857600160009054906101000a900473ffffffffffffffffffffffffffffffffffffffff1673ffffffffffffffffffffffffffffffffffffffff1663a9059cbb33600c60003373ffffffffffffffffffffffffffffffffffffffff1673ffffffffffffffffffffffffffffffffffffffff168152602001908152602001600020546040518363ffffffff1660e01b8152600401808373ffffffffffffffffffffffffffffffffffffffff16815260200182815260200192505050602060405180830381600087803b158015610ca757600080fd5b505af1158015610cbb573d6000803e3d6000fd5b505050506040513d6020811015610cd157600080fd5b810190808051906020019092919050505050600c60003373ffffffffffffffffffffffffffffffffffffffff1673ffffffffffffffffffffffffffffffffffffffff16815260200190815260200160002054600d600082825403925050819055506000600c60003373ffffffffffffffffffffffffffffffffffffffff1673ffffffffffffffffffffffffffffffffffffffff168152602001908152602001600020819055505b565b6000610ffa600960009054906101000a900473ffffffffffffffffffffffffffffffffffffffff1673ffffffffffffffffffffffffffffffffffffffff1663b4db09806040518163ffffffff1660e01b815260040160206040518083038186803b158015610de757600080fd5b505afa158015610dfb573d6000803e3d6000fd5b505050506040513d6020811015610e1157600080fd5b8101908080519060200190929190505050610fec600a60009054906101000a900473ffffffffffffffffffffffffffffffffffffffff1673ffffffffffffffffffffffffffffffffffffffff16633ddac953600560009054906101000a900473ffffffffffffffffffffffffffffffffffffffff16620f42406040518363ffffffff1660e01b8152600401808373ffffffffffffffffffffffffffffffffffffffff1681526020018281526020019250505060206040518083038186803b158015610edb57600080fd5b505afa158015610eef573d6000803e3d6000fd5b505050506040513d6020811015610f0557600080fd5b8101908080519060200190929190505050600d54600160009054906101000a900473ffffffffffffffffffffffffffffffffffffffff1673ffffffffffffffffffffffffffffffffffffffff166370a08231306040518263ffffffff1660e01b8152600401808273ffffffffffffffffffffffffffffffffffffffff16815260200191505060206040518083038186803b158015610fa257600080fd5b505afa158015610fb6573d6000803e3d6000fd5b505050506040513d6020811015610fcc57600080fd5b81019080805190602001909291905050500361513990919063ffffffff16565b6151bf90919063ffffffff16565b905090565b6000805b600380549050811015611091573373ffffffffffffffffffffffffffffffffffffffff166003828154811061103457fe5b9060005260206000200160009054906101000a900473ffffffffffffffffffffffffffffffffffffffff1673ffffffffffffffffffffffffffffffffffffffff1614156110845760019150611091565b8080600101915050611003565b5080611105576040517f08c379a00000000000000000000000000000000000000000000000000000000081526004018080602001828103825260138152602001807f596f75277265206e6f7420616e206f776e65720000000000000000000000000081525060200191505060405180910390fd5b60005b6003805490508110156111e9578273ffffffffffffffffffffffffffffffffffffffff166003828154811061113957fe5b9060005260206000200160009054906101000a900473ffffffffffffffffffffffffffffffffffffffff1673ffffffffffffffffffffffffffffffffffffffff1614156111dc5760006003828154811061118f57fe5b9060005260206000200160006101000a81548173ffffffffffffffffffffffffffffffffffffffff021916908373ffffffffffffffffffffffffffffffffffffffff1602179055506111e9565b8080600101915050611108565b505050565b60001515601160019054906101000a900460ff16151514611277576040517f08c379a00000000000000000000000000000000000000000000000000000000081526004018080602001828103825260138152602001807f52656465656d696e67206973207061757365640000000000000000000000000081525060200191505060405180910390fd5b600080600080600960009054906101000a900473ffffffffffffffffffffffffffffffffffffffff1673ffffffffffffffffffffffffffffffffffffffff1663df56e1686040518163ffffffff1660e01b815260040160e06040518083038186803b1580156112e557600080fd5b505afa1580156112f9573d6000803e3d6000fd5b505050506040513d60e081101561130f57600080fd5b81019080805190602001909291908051906020019092919080519060200190929190805190602001909291908051906020019092919080519060200190929190805190602001909291905050509650505094505093509350600082146113dd576040517f08c379a000000000000000000000000000000000000000000000000000000000815260040180806020018281038252601a8152602001807f436f6c6c61746572616c20726174696f206d757374206265203000000000000081525060200191505060405180910390fd5b6000611407856113f9620f42408961513990919063ffffffff16565b6151bf90919063ffffffff16565b9050611443611434620f4240611426858561513990919063ffffffff16565b6151bf90919063ffffffff16565b8261520990919063ffffffff16565b9050600860009054906101000a900473ffffffffffffffffffffffffffffffffffffffff1673ffffffffffffffffffffffffffffffffffffffff1663b4f56b26306114ac620f424061149e898761513990919063ffffffff16565b6151bf90919063ffffffff16565b6040518363ffffffff1660e01b8152600401808373ffffffffffffffffffffffffffffffffffffffff16815260200182815260200192505050600060405180830381600087803b1580156114ff57600080fd5b505af1158015611513573d6000803e3d6000fd5b50505050600860009054906101000a900473ffffffffffffffffffffffffffffffffffffffff1673ffffffffffffffffffffffffffffffffffffffff1663095ea7b33361157e620f4240611570898761513990919063ffffffff16565b6151bf90919063ffffffff16565b6040518363ffffffff1660e01b8152600401808373ffffffffffffffffffffffffffffffffffffffff16815260200182815260200192505050602060405180830381600087803b1580156115d157600080fd5b505af11580156115e5573d6000803e3d6000fd5b505050506040513d60208110156115fb57600080fd5b810190808051906020019092919050505050611635620f4240611627868461513990919063ffffffff16565b6151bf90919063ffffffff16565b600b60003373ffffffffffffffffffffffffffffffffffffffff1673ffffffffffffffffffffffffffffffffffffffff168152602001908152602001600020600082825401925050819055506116a9620f424061169b868461513990919063ffffffff16565b6151bf90919063ffffffff16565b600e6000828254019250508190555043600f60003373ffffffffffffffffffffffffffffffffffffffff1673ffffffffffffffffffffffffffffffffffffffff16815260200190815260200160002081905550600960009054906101000a900473ffffffffffffffffffffffffffffffffffffffff1673ffffffffffffffffffffffffffffffffffffffff1663a8a778ae33886040518363ffffffff1660e01b8152600401808373ffffffffffffffffffffffffffffffffffffffff16815260200182815260200192505050600060405180830381600087803b15801561178f57600080fd5b505af11580156117a3573d6000803e3d6000fd5b50505050505050505050565b60001515601160009054906101000a900460ff16151514611838576040517f08c379a00000000000000000000000000000000000000000000000000000000081526004018080602001828103825260118152602001807f4d696e74696e672069732070617573656400000000000000000000000000000081525060200191505060405180910390fd5b6000806000600960009054906101000a900473ffffffffffffffffffffffffffffffffffffffff1673ffffffffffffffffffffffffffffffffffffffff1663df56e1686040518163ffffffff1660e01b815260040160e06040518083038186803b1580156118a557600080fd5b505afa1580156118b9573d6000803e3d6000fd5b505050506040513d60e08110156118cf57600080fd5b810190808051906020019092919080519060200190929190805190602001909291908051906020019092919080519060200190929190805190602001909291908051906020019092919050505050955050945050509250620f424082101561199f576040517f08c379a000000000000000000000000000000000000000000000000000000000815260040180806020018281038252601d8152602001807f436f6c6c61746572616c20726174696f206d757374206265203e3d203100000081525060200191505060405180910390fd5b60105484600160009054906101000a900473ffffffffffffffffffffffffffffffffffffffff1673ffffffffffffffffffffffffffffffffffffffff166370a08231306040518263ffffffff1660e01b8152600401808273ffffffffffffffffffffffffffffffffffffffff16815260200191505060206040518083038186803b158015611a2c57600080fd5b505afa158015611a40573d6000803e3d6000fd5b505050506040513d6020811015611a5657600080fd5b8101908080519060200190929190505050011115611adc576040517f08c379a00000000000000000000000000000000000000000000000000000000081526004018080602001828103825260208152602001807f5b506f6f6c277320436c6f7365645d3a204365696c696e67207265616368656481525060200191505060405180910390fd5b600073__FraxPoolLibrary_______________________63e35178ca600a60009054906101000a900473ffffffffffffffffffffffffffffffffffffffff1673ffffffffffffffffffffffffffffffffffffffff16633ddac953600560009054906101000a900473ffffffffffffffffffffffffffffffffffffffff16620f42406040518363ffffffff1660e01b8152600401808373ffffffffffffffffffffffffffffffffffffffff1681526020018281526020019250505060206040518083038186803b158015611bae57600080fd5b505afa158015611bc2573d6000803e3d6000fd5b505050506040513d6020811015611bd857600080fd5b81019080805190602001909291905050508685896040518563ffffffff1660e01b81526004018085815260200184815260200183815260200182815260200194505050505060206040518083038186803b158015611c3557600080fd5b505af4158015611c49573d6000803e3d6000fd5b505050506040513d6020811015611c5f57600080fd5b81019080805190602001909291905050509050600160009054906101000a900473ffffffffffffffffffffffffffffffffffffffff1673ffffffffffffffffffffffffffffffffffffffff166323b872dd3330886040518463ffffffff1660e01b8152600401808473ffffffffffffffffffffffffffffffffffffffff1681526020018373ffffffffffffffffffffffffffffffffffffffff1681526020018281526020019350505050602060405180830381600087803b158015611d2357600080fd5b505af1158015611d37573d6000803e3d6000fd5b505050506040513d6020811015611d4d57600080fd5b810190808051906020019092919050505050600960009054906101000a900473ffffffffffffffffffffffffffffffffffffffff1673ffffffffffffffffffffffffffffffffffffffff1663b4f56b2633836040518363ffffffff1660e01b8152600401808373ffffffffffffffffffffffffffffffffffffffff16815260200182815260200192505050600060405180830381600087803b158015611df257600080fd5b505af1158015611e06573d6000803e3d6000fd5b505050505050505050565b6000806000838152602001908152602001600020600201549050919050565b611e5660008084815260200190815260200160002060020154611e51615253565b613332565b611eab576040517f08c379a000000000000000000000000000000000000000000000000000000000815260040180806020018281038252602f815260200180615c1e602f913960400191505060405180910390fd5b611eb5828261525b565b5050565b611ec1615253565b73ffffffffffffffffffffffffffffffffffffffff168173ffffffffffffffffffffffffffffffffffffffff1614611f44576040517f08c379a000000000000000000000000000000000000000000000000000000000815260040180806020018281038252602f815260200180615da5602f913960400191505060405180910390fd5b611f4e82826152ee565b5050565b6000805b600380549050811015611fe4573373ffffffffffffffffffffffffffffffffffffffff1660038281548110611f8757fe5b9060005260206000200160009054906101000a900473ffffffffffffffffffffffffffffffffffffffff1673ffffffffffffffffffffffffffffffffffffffff161415611fd75760019150611fe4565b8080600101915050611f56565b5080612058576040517f08c379a00000000000000000000000000000000000000000000000000000000081526004018080602001828103825260138152602001807f596f75277265206e6f7420616e206f776e65720000000000000000000000000081525060200191505060405180910390fd5b81600960006101000a81548173ffffffffffffffffffffffffffffffffffffffff021916908373ffffffffffffffffffffffffffffffffffffffff16021790555081600560006101000a81548173ffffffffffffffffffffffffffffffffffffffff021916908373ffffffffffffffffffffffffffffffffffffffff1602179055505050565b600e5481565b61210e7f103da79ff3755ff7a17a557d28b73d37cb4de0b3c3cc02fa6c48df0f35071fbf33613332565b61211757600080fd5b601160029054906101000a900460ff1615601160026101000a81548160ff021916908315150217905550565b6000805b6003805490508110156121d5573373ffffffffffffffffffffffffffffffffffffffff166003828154811061217857fe5b9060005260206000200160009054906101000a900473ffffffffffffffffffffffffffffffffffffffff1673ffffffffffffffffffffffffffffffffffffffff1614156121c857600191506121d5565b8080600101915050612147565b5080612249576040517f08c379a00000000000000000000000000000000000000000000000000000000081526004018080602001828103825260138152602001807f596f75277265206e6f7420616e206f776e65720000000000000000000000000081525060200191505060405180910390fd5b81600260006101000a81548173ffffffffffffffffffffffffffffffffffffffff021916908373ffffffffffffffffffffffffffffffffffffffff16021790555081600160006101000a81548173ffffffffffffffffffffffffffffffffffffffff021916908373ffffffffffffffffffffffffffffffffffffffff1602179055505050565b60001515601160009054906101000a900460ff16151514612358576040517f08c379a00000000000000000000000000000000000000000000000000000000081526004018080602001828103825260118152602001807f4d696e74696e672069732070617573656400000000000000000000000000000081525060200191505060405180910390fd5b6000806000600960009054906101000a900473ffffffffffffffffffffffffffffffffffffffff1673ffffffffffffffffffffffffffffffffffffffff1663df56e1686040518163ffffffff1660e01b815260040160e06040518083038186803b1580156123c557600080fd5b505afa1580156123d9573d6000803e3d6000fd5b505050506040513d60e08110156123ef57600080fd5b810190808051906020019092919080519060200190929190805190602001909291908051906020019092919080519060200190929190805190602001909291908051906020019092919050505050955050945050935050600082146124bc576040517f08c379a000000000000000000000000000000000000000000000000000000000815260040180806020018281038252601a8152602001807f436f6c6c61746572616c20726174696f206d757374206265203000000000000081525060200191505060405180910390fd5b600073__FraxPoolLibrary_______________________63f69a7aa88386886040518463ffffffff1660e01b815260040180848152602001838152602001828152602001935050505060206040518083038186803b15801561251d57600080fd5b505af4158015612531573d6000803e3d6000fd5b505050506040513d602081101561254757600080fd5b81019080805190602001909291905050509050600860009054906101000a900473ffffffffffffffffffffffffffffffffffffffff1673ffffffffffffffffffffffffffffffffffffffff1663a8a778ae33876040518363ffffffff1660e01b8152600401808373ffffffffffffffffffffffffffffffffffffffff16815260200182815260200192505050600060405180830381600087803b1580156125ed57600080fd5b505af1158015612601573d6000803e3d6000fd5b50505050600960009054906101000a900473ffffffffffffffffffffffffffffffffffffffff1673ffffffffffffffffffffffffffffffffffffffff1663b4f56b2633836040518363ffffffff1660e01b8152600401808373ffffffffffffffffffffffffffffffffffffffff16815260200182815260200192505050600060405180830381600087803b15801561269857600080fd5b505af11580156126ac573d6000803e3d6000fd5b505050505050505050565b600080600080600960009054906101000a900473ffffffffffffffffffffffffffffffffffffffff1673ffffffffffffffffffffffffffffffffffffffff1663df56e1686040518163ffffffff1660e01b815260040160e06040518083038186803b15801561272557600080fd5b505afa158015612739573d6000803e3d6000fd5b505050506040513d60e081101561274f57600080fd5b81019080805190602001909291908051906020019092919080519060200190929190805190602001909291908051906020019092919080519060200190929190805190602001909291905050505050945094509450505060006127d264e8d4a510006127c4858761513990919063ffffffff16565b6151bf90919063ffffffff16565b9050818111156127f6576127ef828261520990919063ffffffff16565b94506127fb565b600094505b5050505090565b6000805b600380549050811015612894573373ffffffffffffffffffffffffffffffffffffffff166003828154811061283757fe5b9060005260206000200160009054906101000a900473ffffffffffffffffffffffffffffffffffffffff1673ffffffffffffffffffffffffffffffffffffffff1614156128875760019150612894565b8080600101915050612806565b5080612908576040517f08c379a00000000000000000000000000000000000000000000000000000000081526004018080602001828103825260138152602001807f596f75277265206e6f7420616e206f776e65720000000000000000000000000081525060200191505060405180910390fd5b6003829080600181540180825580915050600190039060005260206000200160009091909190916101000a81548173ffffffffffffffffffffffffffffffffffffffff021916908373ffffffffffffffffffffffffffffffffffffffff1602179055505050565b6000805b600380549050811015612a01573373ffffffffffffffffffffffffffffffffffffffff16600382815481106129a457fe5b9060005260206000200160009054906101000a900473ffffffffffffffffffffffffffffffffffffffff1673ffffffffffffffffffffffffffffffffffffffff1614156129f45760019150612a01565b8080600101915050612973565b5080612a75576040517f08c379a00000000000000000000000000000000000000000000000000000000081526004018080602001828103825260138152602001807f596f75277265206e6f7420616e206f776e65720000000000000000000000000081525060200191505060405180910390fd5b81600460006101000a81548173ffffffffffffffffffffffffffffffffffffffff021916908373ffffffffffffffffffffffffffffffffffffffff160217905550600460009054906101000a900473ffffffffffffffffffffffffffffffffffffffff16600a60006101000a81548173ffffffffffffffffffffffffffffffffffffffff021916908373ffffffffffffffffffffffffffffffffffffffff1602179055505050565b600d5481565b612b4d7fc65532185ed70b2e999433e2e9fac124e083acb13ec183a4e05944da0792337b33613332565b612b5657600080fd5b601160009054906101000a900460ff1615601160006101000a81548160ff021916908315150217905550565b60001515601160009054906101000a900460ff16151514612c0b576040517f08c379a00000000000000000000000000000000000000000000000000000000081526004018080602001828103825260118152602001807f4d696e74696e672069732070617573656400000000000000000000000000000081525060200191505060405180910390fd5b600080600080600960009054906101000a900473ffffffffffffffffffffffffffffffffffffffff1673ffffffffffffffffffffffffffffffffffffffff1663df56e1686040518163ffffffff1660e01b815260040160e06040518083038186803b158015612c7957600080fd5b505afa158015612c8d573d6000803e3d6000fd5b505050506040513d60e0811015612ca357600080fd5b81019080805190602001909291908051906020019092919080519060200190929190805190602001909291908051906020019092919080519060200190929190805190602001909291905050505095505094505093509350620f424082108015612d0d5750600082115b612d62576040517f08c379a0000000000000000000000000000000000000000000000000000000008152600401808060200182810382526038815260200180615c7d6038913960400191505060405180910390fd5b612d6a615b80565b604051806101200160405280838152602001858152602001868152602001600a60009054906101000a900473ffffffffffffffffffffffffffffffffffffffff1673ffffffffffffffffffffffffffffffffffffffff16633ddac953600560009054906101000a900473ffffffffffffffffffffffffffffffffffffffff16620f42406040518363ffffffff1660e01b8152600401808373ffffffffffffffffffffffffffffffffffffffff1681526020018281526020019250505060206040518083038186803b158015612e3e57600080fd5b505afa158015612e52573d6000803e3d6000fd5b505050506040513d6020811015612e6857600080fd5b81019080805190602001909291905050508152602001878152602001888152602001600160009054906101000a900473ffffffffffffffffffffffffffffffffffffffff1673ffffffffffffffffffffffffffffffffffffffff166370a08231306040518263ffffffff1660e01b8152600401808273ffffffffffffffffffffffffffffffffffffffff16815260200191505060206040518083038186803b158015612f1357600080fd5b505afa158015612f27573d6000803e3d6000fd5b505050506040513d6020811015612f3d57600080fd5b8101908080519060200190929190505050815260200160105481526020018481525090506000806000612f6f84615381565b92509250925060105483600160009054906101000a900473ffffffffffffffffffffffffffffffffffffffff1673ffffffffffffffffffffffffffffffffffffffff166370a08231306040518263ffffffff1660e01b8152600401808273ffffffffffffffffffffffffffffffffffffffff16815260200191505060206040518083038186803b15801561300257600080fd5b505afa158015613016573d6000803e3d6000fd5b505050506040513d602081101561302c57600080fd5b81019080805190602001909291905050500111156130b2576040517f08c379a00000000000000000000000000000000000000000000000000000000081526004018080602001828103825260208152602001807f5b506f6f6c277320436c6f7365645d3a204365696c696e67207265616368656481525060200191505060405180910390fd5b600160009054906101000a900473ffffffffffffffffffffffffffffffffffffffff1673ffffffffffffffffffffffffffffffffffffffff166323b872dd3330866040518463ffffffff1660e01b8152600401808473ffffffffffffffffffffffffffffffffffffffff1681526020018373ffffffffffffffffffffffffffffffffffffffff1681526020018281526020019350505050602060405180830381600087803b15801561316357600080fd5b505af1158015613177573d6000803e3d6000fd5b505050506040513d602081101561318d57600080fd5b810190808051906020019092919050505050600960009054906101000a900473ffffffffffffffffffffffffffffffffffffffff1673ffffffffffffffffffffffffffffffffffffffff1663b4f56b2633846040518363ffffffff1660e01b8152600401808373ffffffffffffffffffffffffffffffffffffffff16815260200182815260200192505050600060405180830381600087803b15801561323257600080fd5b505af1158015613246573d6000803e3d6000fd5b50505050600860009054906101000a900473ffffffffffffffffffffffffffffffffffffffff1673ffffffffffffffffffffffffffffffffffffffff166379cc679033836040518363ffffffff1660e01b8152600401808373ffffffffffffffffffffffffffffffffffffffff16815260200182815260200192505050600060405180830381600087803b1580156132dd57600080fd5b505af11580156132f1573d6000803e3d6000fd5b5050505050505050505050505050565b600061332a8260008086815260200190815260200160002060000161559b90919063ffffffff16565b905092915050565b600061335b8260008086815260200190815260200160002060000161510990919063ffffffff16565b905092915050565b6000801b81565b6000600c60008373ffffffffffffffffffffffffffffffffffffffff1673ffffffffffffffffffffffffffffffffffffffff168152602001908152602001600020549050919050565b60006133bd6126b7565b11613430576040517f08c379a000000000000000000000000000000000000000000000000000000000815260040180806020018281038252601a8152602001807f6e6f20657874726120636f6c6c61746572616c206e656564656400000000000081525060200191505060405180910390fd5b600080600960009054906101000a900473ffffffffffffffffffffffffffffffffffffffff1673ffffffffffffffffffffffffffffffffffffffff1663df56e1686040518163ffffffff1660e01b815260040160e06040518083038186803b15801561349b57600080fd5b505afa1580156134af573d6000803e3d6000fd5b505050506040513d60e08110156134c557600080fd5b81019080805190602001909291908051906020019092919080519060200190929190805190602001909291908051906020019092919080519060200190929190805190602001909291905050505050505050915091506000600a60009054906101000a900473ffffffffffffffffffffffffffffffffffffffff1673ffffffffffffffffffffffffffffffffffffffff16633ddac953600560009054906101000a900473ffffffffffffffffffffffffffffffffffffffff16620f42406040518363ffffffff1660e01b8152600401808373ffffffffffffffffffffffffffffffffffffffff1681526020018281526020019250505060206040518083038186803b1580156135d357600080fd5b505afa1580156135e7573d6000803e3d6000fd5b505050506040513d60208110156135fd57600080fd5b81019080805190602001909291905050509050600061363a8461362c620f42408561513990919063ffffffff16565b6151bf90919063ffffffff16565b90506000613666620f4240613658848961513990919063ffffffff16565b6151bf90919063ffffffff16565b905060006136726126b7565b905081811061368357819050613687565b8091505b60006136af6136a06064846151bf90919063ffffffff16565b846155b590919063ffffffff16565b9050600160009054906101000a900473ffffffffffffffffffffffffffffffffffffffff1673ffffffffffffffffffffffffffffffffffffffff166323b872dd33308b6040518463ffffffff1660e01b8152600401808473ffffffffffffffffffffffffffffffffffffffff1681526020018373ffffffffffffffffffffffffffffffffffffffff1681526020018281526020019350505050602060405180830381600087803b15801561376257600080fd5b505af1158015613776573d6000803e3d6000fd5b505050506040513d602081101561378c57600080fd5b810190808051906020019092919050505050600860009054906101000a900473ffffffffffffffffffffffffffffffffffffffff1673ffffffffffffffffffffffffffffffffffffffff1663b4f56b2632613805620f42406137f78b8761513990919063ffffffff16565b6151bf90919063ffffffff16565b6040518363ffffffff1660e01b8152600401808373ffffffffffffffffffffffffffffffffffffffff16815260200182815260200192505050600060405180830381600087803b15801561385857600080fd5b505af115801561386c573d6000803e3d6000fd5b505050505050505050505050565b60001515601160019054906101000a900460ff16151514613903576040517f08c379a00000000000000000000000000000000000000000000000000000000081526004018080602001828103825260138152602001807f52656465656d696e67206973207061757365640000000000000000000000000081525060200191505060405180910390fd5b600080600080600960009054906101000a900473ffffffffffffffffffffffffffffffffffffffff1673ffffffffffffffffffffffffffffffffffffffff1663df56e1686040518163ffffffff1660e01b815260040160e06040518083038186803b15801561397157600080fd5b505afa158015613985573d6000803e3d6000fd5b505050506040513d60e081101561399b57600080fd5b81019080805190602001909291908051906020019092919080519060200190929190805190602001909291908051906020019092919080519060200190929190805190602001909291905050509650505094505093509350620f424082108015613a055750600082115b613a5a576040517f08c379a0000000000000000000000000000000000000000000000000000000008152600401808060200182810382526038815260200180615c7d6038913960400191505060405180910390fd5b6000613a8485613a76620f42408961513990919063ffffffff16565b6151bf90919063ffffffff16565b90506000613ba086613b92620f4240600a60009054906101000a900473ffffffffffffffffffffffffffffffffffffffff1673ffffffffffffffffffffffffffffffffffffffff16633ddac953600560009054906101000a900473ffffffffffffffffffffffffffffffffffffffff16620f42406040518363ffffffff1660e01b8152600401808373ffffffffffffffffffffffffffffffffffffffff1681526020018281526020019250505060206040518083038186803b158015613b4957600080fd5b505afa158015613b5d573d6000803e3d6000fd5b505050506040513d6020811015613b7357600080fd5b810190808051906020019092919050505061513990919063ffffffff16565b6151bf90919063ffffffff16565b9050613bdc613bcd620f4240613bbf868661513990919063ffffffff16565b6151bf90919063ffffffff16565b8361520990919063ffffffff16565b91506000613c08620f4240613bfa878661513990919063ffffffff16565b6151bf90919063ffffffff16565b90506000613c1f828561520990919063ffffffff16565b9050600160009054906101000a900473ffffffffffffffffffffffffffffffffffffffff1673ffffffffffffffffffffffffffffffffffffffff1663095ea7b333613c88620f4240613c7a888861513990919063ffffffff16565b6151bf90919063ffffffff16565b6040518363ffffffff1660e01b8152600401808373ffffffffffffffffffffffffffffffffffffffff16815260200182815260200192505050602060405180830381600087803b158015613cdb57600080fd5b505af1158015613cef573d6000803e3d6000fd5b505050506040513d6020811015613d0557600080fd5b810190808051906020019092919050505050613d3f620f4240613d31858561513990919063ffffffff16565b6151bf90919063ffffffff16565b600c60003373ffffffffffffffffffffffffffffffffffffffff1673ffffffffffffffffffffffffffffffffffffffff16815260200190815260200160002060008282540192505081905550613db3620f4240613da5858561513990919063ffffffff16565b6151bf90919063ffffffff16565b600d60008282540192505081905550600860009054906101000a900473ffffffffffffffffffffffffffffffffffffffff1673ffffffffffffffffffffffffffffffffffffffff1663b4f56b2630613e29620f4240613e1b8c8761513990919063ffffffff16565b6151bf90919063ffffffff16565b6040518363ffffffff1660e01b8152600401808373ffffffffffffffffffffffffffffffffffffffff16815260200182815260200192505050600060405180830381600087803b158015613e7c57600080fd5b505af1158015613e90573d6000803e3d6000fd5b50505050600860009054906101000a900473ffffffffffffffffffffffffffffffffffffffff1673ffffffffffffffffffffffffffffffffffffffff1663095ea7b333613efb620f4240613eed8c8761513990919063ffffffff16565b6151bf90919063ffffffff16565b6040518363ffffffff1660e01b8152600401808373ffffffffffffffffffffffffffffffffffffffff16815260200182815260200192505050602060405180830381600087803b158015613f4e57600080fd5b505af1158015613f62573d6000803e3d6000fd5b505050506040513d6020811015613f7857600080fd5b810190808051906020019092919050505050613fb2620f4240613fa4898461513990919063ffffffff16565b6151bf90919063ffffffff16565b600b60003373ffffffffffffffffffffffffffffffffffffffff1673ffffffffffffffffffffffffffffffffffffffff16815260200190815260200160002060008282540192505081905550614026620f4240614018898461513990919063ffffffff16565b6151bf90919063ffffffff16565b600e6000828254019250508190555043600f60003373ffffffffffffffffffffffffffffffffffffffff1673ffffffffffffffffffffffffffffffffffffffff16815260200190815260200160002081905550600960009054906101000a900473ffffffffffffffffffffffffffffffffffffffff1673ffffffffffffffffffffffffffffffffffffffff1663a8a778ae338b6040518363ffffffff1660e01b8152600401808373ffffffffffffffffffffffffffffffffffffffff16815260200182815260200192505050600060405180830381600087803b15801561410c57600080fd5b505af1158015614120573d6000803e3d6000fd5b50505050505050505050505050565b60001515601160019054906101000a900460ff161515146141b8576040517f08c379a00000000000000000000000000000000000000000000000000000000081526004018080602001828103825260138152602001807f52656465656d696e67206973207061757365640000000000000000000000000081525060200191505060405180910390fd5b6000806000600960009054906101000a900473ffffffffffffffffffffffffffffffffffffffff1673ffffffffffffffffffffffffffffffffffffffff1663df56e1686040518163ffffffff1660e01b815260040160e06040518083038186803b15801561422557600080fd5b505afa158015614239573d6000803e3d6000fd5b505050506040513d60e081101561424f57600080fd5b810190808051906020019092919080519060200190929190805190602001909291908051906020019092919080519060200190929190805190602001909291908051906020019092919050505096505050945050509250620f424082101561431f576040517f08c379a000000000000000000000000000000000000000000000000000000000815260040180806020018281038252601d8152602001807f436f6c6c61746572616c20726174696f206d757374206265203e3d203100000081525060200191505060405180910390fd5b600073__FraxPoolLibrary_______________________63258980fc8561445487614446620f4240600a60009054906101000a900473ffffffffffffffffffffffffffffffffffffffff1673ffffffffffffffffffffffffffffffffffffffff16633ddac953600560009054906101000a900473ffffffffffffffffffffffffffffffffffffffff16620f42406040518363ffffffff1660e01b8152600401808373ffffffffffffffffffffffffffffffffffffffff1681526020018281526020019250505060206040518083038186803b1580156143fd57600080fd5b505afa158015614411573d6000803e3d6000fd5b505050506040513d602081101561442757600080fd5b810190808051906020019092919050505061513990919063ffffffff16565b6151bf90919063ffffffff16565b88866040518563ffffffff1660e01b81526004018085815260200184815260200183815260200182815260200194505050505060206040518083038186803b15801561449f57600080fd5b505af41580156144b3573d6000803e3d6000fd5b505050506040513d60208110156144c957600080fd5b81019080805190602001909291905050509050600160009054906101000a900473ffffffffffffffffffffffffffffffffffffffff1673ffffffffffffffffffffffffffffffffffffffff1663095ea7b333836040518363ffffffff1660e01b8152600401808373ffffffffffffffffffffffffffffffffffffffff16815260200182815260200192505050602060405180830381600087803b15801561456f57600080fd5b505af1158015614583573d6000803e3d6000fd5b505050506040513d602081101561459957600080fd5b81019080805190602001909291905050505080600c60003373ffffffffffffffffffffffffffffffffffffffff1673ffffffffffffffffffffffffffffffffffffffff1681526020019081526020016000206000828254019250508190555080600d6000828254019250508190555043600f60003373ffffffffffffffffffffffffffffffffffffffff1673ffffffffffffffffffffffffffffffffffffffff16815260200190815260200160002081905550600960009054906101000a900473ffffffffffffffffffffffffffffffffffffffff1673ffffffffffffffffffffffffffffffffffffffff1663a8a778ae33876040518363ffffffff1660e01b8152600401808373ffffffffffffffffffffffffffffffffffffffff16815260200182815260200192505050600060405180830381600087803b1580156146df57600080fd5b505af11580156146f3573d6000803e3d6000fd5b505050505050505050565b6000805b600380549050811015614790573373ffffffffffffffffffffffffffffffffffffffff166003828154811061473357fe5b9060005260206000200160009054906101000a900473ffffffffffffffffffffffffffffffffffffffff1673ffffffffffffffffffffffffffffffffffffffff1614156147835760019150614790565b8080600101915050614702565b5080614804576040517f08c379a00000000000000000000000000000000000000000000000000000000081526004018080602001828103825260138152602001807f596f75277265206e6f7420616e206f776e65720000000000000000000000000081525060200191505060405180910390fd5b81600860006101000a81548173ffffffffffffffffffffffffffffffffffffffff021916908373ffffffffffffffffffffffffffffffffffffffff16021790555081600660006101000a81548173ffffffffffffffffffffffffffffffffffffffff021916908373ffffffffffffffffffffffffffffffffffffffff1602179055505050565b60006148a960008084815260200190815260200160002060000161563d565b9050919050565b60001515601160029054906101000a900460ff16151514614939576040517f08c379a00000000000000000000000000000000000000000000000000000000081526004018080602001828103825260118152602001807f4275796261636b2069732070617573656400000000000000000000000000000081525060200191505060405180910390fd5b6000806000600960009054906101000a900473ffffffffffffffffffffffffffffffffffffffff1673ffffffffffffffffffffffffffffffffffffffff1663df56e1686040518163ffffffff1660e01b815260040160e06040518083038186803b1580156149a657600080fd5b505afa1580156149ba573d6000803e3d6000fd5b505050506040513d60e08110156149d057600080fd5b810190808051906020019092919080519060200190929190805190602001909291908051906020019092919080519060200190929190805190602001909291908051906020019092919050505096505050505092509250614a2f615bcc565b6040518060a00160405280838152602001614a48614f47565b8152602001848152602001614b6b86614b5d620f4240600a60009054906101000a900473ffffffffffffffffffffffffffffffffffffffff1673ffffffffffffffffffffffffffffffffffffffff16633ddac953600560009054906101000a900473ffffffffffffffffffffffffffffffffffffffff16620f42406040518363ffffffff1660e01b8152600401808373ffffffffffffffffffffffffffffffffffffffff1681526020018281526020019250505060206040518083038186803b158015614b1457600080fd5b505afa158015614b28573d6000803e3d6000fd5b505050506040513d6020811015614b3e57600080fd5b810190808051906020019092919050505061513990919063ffffffff16565b6151bf90919063ffffffff16565b81526020018681525090506000614b8182615652565b9050600160009054906101000a900473ffffffffffffffffffffffffffffffffffffffff1673ffffffffffffffffffffffffffffffffffffffff1663a9059cbb33836040518363ffffffff1660e01b8152600401808373ffffffffffffffffffffffffffffffffffffffff16815260200182815260200192505050602060405180830381600087803b158015614c1657600080fd5b505af1158015614c2a573d6000803e3d6000fd5b505050506040513d6020811015614c4057600080fd5b810190808051906020019092919050505050600860009054906101000a900473ffffffffffffffffffffffffffffffffffffffff1673ffffffffffffffffffffffffffffffffffffffff166379cc679033886040518363ffffffff1660e01b8152600401808373ffffffffffffffffffffffffffffffffffffffff16815260200182815260200192505050600060405180830381600087803b158015614ce557600080fd5b505af1158015614cf9573d6000803e3d6000fd5b50505050505050505050565b614d2b60008084815260200190815260200160002060020154614d26615253565b613332565b614d80576040517f08c379a0000000000000000000000000000000000000000000000000000000008152600401808060200182810382526030815260200180615d0f6030913960400191505060405180910390fd5b614d8a82826152ee565b5050565b614db87fa84a5389ad41f9aab0831b01e5384cae76e7a7fd09131c206ff7927c201c385733613332565b614dc157600080fd5b601160019054906101000a900460ff1615601160016101000a81548160ff021916908315150217905550565b6000805b600380549050811015614e7f573373ffffffffffffffffffffffffffffffffffffffff1660038281548110614e2257fe5b9060005260206000200160009054906101000a900473ffffffffffffffffffffffffffffffffffffffff1673ffffffffffffffffffffffffffffffffffffffff161415614e725760019150614e7f565b8080600101915050614df1565b5080614ef3576040517f08c379a00000000000000000000000000000000000000000000000000000000081526004018080602001828103825260138152602001807f596f75277265206e6f7420616e206f776e65720000000000000000000000000081525060200191505060405180910390fd5b816010819055505050565b6000600b60008373ffffffffffffffffffffffffffffffffffffffff1673ffffffffffffffffffffffffffffffffffffffff168152602001908152602001600020549050919050565b6000806000806000600960009054906101000a900473ffffffffffffffffffffffffffffffffffffffff1673ffffffffffffffffffffffffffffffffffffffff1663df56e1686040518163ffffffff1660e01b815260040160e06040518083038186803b158015614fb757600080fd5b505afa158015614fcb573d6000803e3d6000fd5b505050506040513d60e0811015614fe157600080fd5b81019080805190602001909291908051906020019092919080519060200190929190805190602001909291908051906020019092919080519060200190929190805190602001909291905050505050945094509450509350600061506385615055620f42408761513990919063ffffffff16565b6151bf90919063ffffffff16565b9050620f424083111561507757620f424092505b60006150a1620f4240615093868561513990919063ffffffff16565b6151bf90919063ffffffff16565b9050808311156150cb576150be818461520990919063ffffffff16565b96505050505050506150d6565b600096505050505050505b90565b6000615101836000018373ffffffffffffffffffffffffffffffffffffffff1660001b6157bb565b905092915050565b6000615131836000018373ffffffffffffffffffffffffffffffffffffffff1660001b61582b565b905092915050565b60008083141561514c57600090506151b9565b600082840290508284828161515d57fe5b04146151b4576040517f08c379a0000000000000000000000000000000000000000000000000000000008152600401808060200182810382526021815260200180615d3f6021913960400191505060405180910390fd5b809150505b92915050565b600061520183836040518060400160405280601a81526020017f536166654d6174683a206469766973696f6e206279207a65726f00000000000081525061584e565b905092915050565b600061524b83836040518060400160405280601e81526020017f536166654d6174683a207375627472616374696f6e206f766572666c6f770000815250615914565b905092915050565b600033905090565b615282816000808581526020019081526020016000206000016150d990919063ffffffff16565b156152ea5761528f615253565b73ffffffffffffffffffffffffffffffffffffffff168173ffffffffffffffffffffffffffffffffffffffff16837f2f8788117e7eff1d82e926ec794901d17c78024a50270940304540a733656f0d60405160405180910390a45b5050565b615315816000808581526020019081526020016000206000016159d490919063ffffffff16565b1561537d57615322615253565b73ffffffffffffffffffffffffffffffffffffffff168173ffffffffffffffffffffffffffffffffffffffff16837ff6391f5c32d9c69d2a47ea670b442974b53935d1edc7fd64eb21e047a839171b60405160405180910390a45b5050565b6000806000806000806000806153bd89604001516153af620f42408c6060015161513990919063ffffffff16565b6151bf90919063ffffffff16565b90506153ef89602001516153e1620f42408c6080015161513990919063ffffffff16565b6151bf90919063ffffffff16565b925061541d8161540f620f42408c60a0015161513990919063ffffffff16565b6151bf90919063ffffffff16565b9150615447620f4240615439838561513990919063ffffffff16565b6151bf90919063ffffffff16565b9350508760e00151838960c0015101106154ac576040517f08c379a0000000000000000000000000000000000000000000000000000000008152600401808060200182810382526045815260200180615d606045913960600191505060405180910390fd5b615516620f42406155088a602001516154fa856154ec8e61010001516154de620f42408a61513990919063ffffffff16565b6151bf90919063ffffffff16565b61520990919063ffffffff16565b61513990919063ffffffff16565b6151bf90919063ffffffff16565b93506155448860200151615536620f42408761513990919063ffffffff16565b6151bf90919063ffffffff16565b915082615589615578620f424061556a8c6000015187870161513990919063ffffffff16565b6151bf90919063ffffffff16565b84840161520990919063ffffffff16565b85965096509650505050509193909250565b60006155aa8360000183615a04565b60001c905092915050565b600080828401905083811015615633576040517f08c379a000000000000000000000000000000000000000000000000000000000815260040180806020018281038252601b8152602001807f536166654d6174683a206164646974696f6e206f766572666c6f77000000000081525060200191505060405180910390fd5b8091505092915050565b600061564b82600001615a87565b9050919050565b6000808260200151116156b0576040517f08c379a0000000000000000000000000000000000000000000000000000000008152600401808060200182810382526021815260200180615cee6021913960400191505060405180910390fd5b60006156e283604001516156d4620f4240866080015161513990919063ffffffff16565b6151bf90919063ffffffff16565b90508260200151811115615741576040517f08c379a0000000000000000000000000000000000000000000000000000000008152600401808060200182810382526030815260200180615c4d6030913960400191505060405180910390fd5b600061576f8460600151615761620f42408561513990919063ffffffff16565b6151bf90919063ffffffff16565b90506157af6157a0620f424061579287600001518561513990919063ffffffff16565b6151bf90919063ffffffff16565b8261520990919063ffffffff16565b90508092505050919050565b60006157c7838361582b565b615820578260000182908060018154018082558091505060019003906000526020600020016000909190919091505582600001805490508360010160008481526020019081526020016000208190555060019050615825565b600090505b92915050565b600080836001016000848152602001908152602001600020541415905092915050565b600080831182906158fa576040517f08c379a00000000000000000000000000000000000000000000000000000000081526004018080602001828103825283818151815260200191508051906020019080838360005b838110156158bf5780820151818401526020810190506158a4565b50505050905090810190601f1680156158ec5780820380516001836020036101000a031916815260200191505b509250505060405180910390fd5b50600083858161590657fe5b049050809150509392505050565b60008383111582906159c1576040517f08c379a00000000000000000000000000000000000000000000000000000000081526004018080602001828103825283818151815260200191508051906020019080838360005b8381101561598657808201518184015260208101905061596b565b50505050905090810190601f1680156159b35780820380516001836020036101000a031916815260200191505b509250505060405180910390fd5b5060008385039050809150509392505050565b60006159fc836000018373ffffffffffffffffffffffffffffffffffffffff1660001b615a98565b905092915050565b600081836000018054905011615a65576040517f08c379a0000000000000000000000000000000000000000000000000000000008152600401808060200182810382526022815260200180615bfc6022913960400191505060405180910390fd5b826000018281548110615a7457fe5b9060005260206000200154905092915050565b600081600001805490509050919050565b60008083600101600084815260200190815260200160002054905060008114615b745760006001820390506000600186600001805490500390506000866000018281548110615ae357fe5b9060005260206000200154905080876000018481548110615b0057fe5b9060005260206000200181905550600183018760010160008381526020019081526020016000208190555086600001805480615b3857fe5b60019003818190600052602060002001600090559055866001016000878152602001908152602001600020600090556001945050505050615b7a565b60009150505b92915050565b6040518061012001604052806000815260200160008152602001600081526020016000815260200160008152602001600081526020016000815260200160008152602001600081525090565b6040518060a001604052806000815260200160008152602001600081526020016000815260200160008152509056fe456e756d657261626c655365743a20696e646578206f7574206f6620626f756e6473416363657373436f6e74726f6c3a2073656e646572206d75737420626520616e2061646d696e20746f206772616e74596f752061726520747279696e6720746f20627579206261636b206d6f7265207468616e207468652065786365737321436f6c6c61746572616c20726174696f206e6565647320746f206265206265747765656e202e30303030303120616e64202e3939393939396d7573742077616974206174206c65617374206f6e6520626c6f636b206265666f726520636f6c6c656374696e6720726564656d7074696f6e4e6f2065786365737320636f6c6c61746572616c20746f20627579206261636b21416363657373436f6e74726f6c3a2073656e646572206d75737420626520616e2061646d696e20746f207265766f6b65536166654d6174683a206d756c7469706c69636174696f6e206f766572666c6f77506f6f6c206365696c696e6720726561636865642c206e6f206d6f726520465241582063616e206265206d696e7465642077697468207468697320636f6c6c61746572616c416363657373436f6e74726f6c3a2063616e206f6e6c792072656e6f756e636520726f6c657320666f722073656c66a2646970667358221220ec8e0f08f4554c0df6255bf9b61f7cff142ad2d1267452fd0004e3280c9564cc64736f6c634300060c0033416363657373436f6e74726f6c3a2073656e646572206d75737420626520616e2061646d696e20746f206772616e74",
  "immutableReferences": {},
  "source": "// SPDX-License-Identifier: MIT\npragma solidity ^0.6.0 <0.7.0;\n\nimport \"./FraxPool.sol\";\n\ncontract Pool_yUSD is FraxPool {\n    constructor(\n        address _collateral_address,\n        address _oracle_address,\n        address _creator_address,\n        address _timelock_address,\n        uint256 _pool_ceiling\n    ) \n    FraxPool(_collateral_address, _oracle_address, _creator_address, _timelock_address, _pool_ceiling)\n    public {\n    \t_setupRole(DEFAULT_ADMIN_ROLE, _msgSender());\n    }\n}\n",
  "sourcePath": "/home/travis/Documents/Ubuntu_Shared/frax-price-feed/src/truffle/contracts/Frax/Pools/Pool_yUSD.sol",
  "compiler": {
    "name": "solc",
    "version": "0.6.12+commit.27d51765.Emscripten.clang"
  },
  "schemaVersion": "3.2.4",
  "updatedAt": "2020-10-08T23:05:58.483Z",
  "networkType": "ethereum",
  "devdoc": {
    "kind": "dev",
    "methods": {
      "getRoleAdmin(bytes32)": {
        "details": "Returns the admin role that controls `role`. See {grantRole} and {revokeRole}. To change a role's admin, use {_setRoleAdmin}."
      },
      "getRoleMember(bytes32,uint256)": {
        "details": "Returns one of the accounts that have `role`. `index` must be a value between 0 and {getRoleMemberCount}, non-inclusive. Role bearers are not sorted in any particular way, and their ordering may change at any point. WARNING: When using {getRoleMember} and {getRoleMemberCount}, make sure you perform all queries on the same block. See the following https://forum.openzeppelin.com/t/iterating-over-elements-on-enumerableset-in-openzeppelin-contracts/2296[forum post] for more information."
      },
      "getRoleMemberCount(bytes32)": {
        "details": "Returns the number of accounts that have `role`. Can be used together with {getRoleMember} to enumerate all bearers of a role."
      },
      "grantRole(bytes32,address)": {
        "details": "Grants `role` to `account`. If `account` had not been already granted `role`, emits a {RoleGranted} event. Requirements: - the caller must have ``role``'s admin role."
      },
      "hasRole(bytes32,address)": {
        "details": "Returns `true` if `account` has been granted `role`."
      },
      "renounceRole(bytes32,address)": {
        "details": "Revokes `role` from the calling account. Roles are often managed via {grantRole} and {revokeRole}: this function's purpose is to provide a mechanism for accounts to lose their privileges if they are compromised (such as when a trusted device is misplaced). If the calling account had been granted `role`, emits a {RoleRevoked} event. Requirements: - the caller must be `account`."
      },
      "revokeRole(bytes32,address)": {
        "details": "Revokes `role` from `account`. If `account` had been granted `role`, emits a {RoleRevoked} event. Requirements: - the caller must have ``role``'s admin role."
      }
    },
    "version": 1
  },
  "userdoc": {
    "kind": "user",
    "methods": {},
    "version": 1
  }
}