{
  "contractName": "StakingRewards",
  "abi": [
    {
      "inputs": [
        {
          "internalType": "address",
          "name": "_owner",
          "type": "address"
        },
        {
          "internalType": "address",
          "name": "_rewardsDistribution",
          "type": "address"
        },
        {
          "internalType": "address",
          "name": "_rewardsToken",
          "type": "address"
        },
        {
          "internalType": "address",
          "name": "_stakingToken",
          "type": "address"
        },
        {
          "internalType": "address",
          "name": "_frax_address",
          "type": "address"
        }
      ],
      "stateMutability": "nonpayable",
      "type": "constructor"
    },
    {
      "anonymous": false,
      "inputs": [],
      "name": "DefaultInitialization",
      "type": "event"
    },
    {
      "anonymous": false,
      "inputs": [
        {
          "indexed": false,
          "internalType": "uint256",
          "name": "multiplier",
          "type": "uint256"
        }
      ],
      "name": "LockedStakeMaxMultiplierUpdated",
      "type": "event"
    },
    {
      "anonymous": false,
      "inputs": [
        {
          "indexed": false,
          "internalType": "uint256",
          "name": "secs",
          "type": "uint256"
        }
      ],
      "name": "LockedStakeMinTime",
      "type": "event"
    },
    {
      "anonymous": false,
      "inputs": [
        {
          "indexed": false,
          "internalType": "uint256",
          "name": "secs",
          "type": "uint256"
        }
      ],
      "name": "LockedStakeTimeForMaxMultiplier",
      "type": "event"
    },
    {
      "anonymous": false,
      "inputs": [
        {
          "indexed": false,
          "internalType": "uint256",
          "name": "multiplier",
          "type": "uint256"
        }
      ],
      "name": "MaxCRBoostMultiplier",
      "type": "event"
    },
    {
      "anonymous": false,
      "inputs": [
        {
          "indexed": false,
          "internalType": "address",
          "name": "oldOwner",
          "type": "address"
        },
        {
          "indexed": false,
          "internalType": "address",
          "name": "newOwner",
          "type": "address"
        }
      ],
      "name": "OwnerChanged",
      "type": "event"
    },
    {
      "anonymous": false,
      "inputs": [
        {
          "indexed": false,
          "internalType": "address",
          "name": "newOwner",
          "type": "address"
        }
      ],
      "name": "OwnerNominated",
      "type": "event"
    },
    {
      "anonymous": false,
      "inputs": [
        {
          "indexed": false,
          "internalType": "bool",
          "name": "isPaused",
          "type": "bool"
        }
      ],
      "name": "PauseChanged",
      "type": "event"
    },
    {
      "anonymous": false,
      "inputs": [
        {
          "indexed": false,
          "internalType": "address",
          "name": "token",
          "type": "address"
        },
        {
          "indexed": false,
          "internalType": "uint256",
          "name": "amount",
          "type": "uint256"
        }
      ],
      "name": "Recovered",
      "type": "event"
    },
    {
      "anonymous": false,
      "inputs": [
        {
          "indexed": false,
          "internalType": "uint256",
          "name": "reward",
          "type": "uint256"
        }
      ],
      "name": "RewardAdded",
      "type": "event"
    },
    {
      "anonymous": false,
      "inputs": [
        {
          "indexed": true,
          "internalType": "address",
          "name": "user",
          "type": "address"
        },
        {
          "indexed": false,
          "internalType": "uint256",
          "name": "reward",
          "type": "uint256"
        }
      ],
      "name": "RewardPaid",
      "type": "event"
    },
    {
      "anonymous": false,
      "inputs": [
        {
          "indexed": false,
          "internalType": "uint256",
          "name": "newDuration",
          "type": "uint256"
        }
      ],
      "name": "RewardsDurationUpdated",
      "type": "event"
    },
    {
      "anonymous": false,
      "inputs": [
        {
          "indexed": false,
          "internalType": "address",
          "name": "token",
          "type": "address"
        }
      ],
      "name": "RewardsPeriodRenewed",
      "type": "event"
    },
    {
      "anonymous": false,
      "inputs": [
        {
          "indexed": true,
          "internalType": "address",
          "name": "user",
          "type": "address"
        },
        {
          "indexed": false,
          "internalType": "uint256",
          "name": "amount",
          "type": "uint256"
        },
        {
          "indexed": false,
          "internalType": "uint256",
          "name": "secs",
          "type": "uint256"
        }
      ],
      "name": "StakeLocked",
      "type": "event"
    },
    {
      "anonymous": false,
      "inputs": [
        {
          "indexed": true,
          "internalType": "address",
          "name": "user",
          "type": "address"
        },
        {
          "indexed": false,
          "internalType": "uint256",
          "name": "amount",
          "type": "uint256"
        }
      ],
      "name": "Staked",
      "type": "event"
    },
    {
      "anonymous": false,
      "inputs": [
        {
          "indexed": true,
          "internalType": "address",
          "name": "user",
          "type": "address"
        },
        {
          "indexed": false,
          "internalType": "uint256",
          "name": "amount",
          "type": "uint256"
        }
      ],
      "name": "Withdrawn",
      "type": "event"
    },
    {
      "anonymous": false,
      "inputs": [
        {
          "indexed": true,
          "internalType": "address",
          "name": "user",
          "type": "address"
        },
        {
          "indexed": false,
          "internalType": "uint256",
          "name": "amount",
          "type": "uint256"
        },
        {
          "indexed": false,
          "internalType": "bytes32",
          "name": "kek_id",
          "type": "bytes32"
        }
      ],
      "name": "WithdrawnLocked",
      "type": "event"
    },
    {
      "inputs": [],
      "name": "acceptOwnership",
      "outputs": [],
      "stateMutability": "nonpayable",
      "type": "function"
    },
    {
      "inputs": [],
      "name": "cr_boost_max_multiplier",
      "outputs": [
        {
          "internalType": "uint256",
          "name": "",
          "type": "uint256"
        }
      ],
      "stateMutability": "view",
      "type": "function"
    },
    {
      "inputs": [],
      "name": "lastPauseTime",
      "outputs": [
        {
          "internalType": "uint256",
          "name": "",
          "type": "uint256"
        }
      ],
      "stateMutability": "view",
      "type": "function"
    },
    {
      "inputs": [],
      "name": "lastUpdateTime",
      "outputs": [
        {
          "internalType": "uint256",
          "name": "",
          "type": "uint256"
        }
      ],
      "stateMutability": "view",
      "type": "function"
    },
    {
      "inputs": [],
      "name": "locked_stake_max_multiplier",
      "outputs": [
        {
          "internalType": "uint256",
          "name": "",
          "type": "uint256"
        }
      ],
      "stateMutability": "view",
      "type": "function"
    },
    {
      "inputs": [],
      "name": "locked_stake_min_time",
      "outputs": [
        {
          "internalType": "uint256",
          "name": "",
          "type": "uint256"
        }
      ],
      "stateMutability": "view",
      "type": "function"
    },
    {
      "inputs": [],
      "name": "locked_stake_min_time_str",
      "outputs": [
        {
          "internalType": "string",
          "name": "",
          "type": "string"
        }
      ],
      "stateMutability": "view",
      "type": "function"
    },
    {
      "inputs": [],
      "name": "locked_stake_time_for_max_multiplier",
      "outputs": [
        {
          "internalType": "uint256",
          "name": "",
          "type": "uint256"
        }
      ],
      "stateMutability": "view",
      "type": "function"
    },
    {
      "inputs": [
        {
          "internalType": "address",
          "name": "_owner",
          "type": "address"
        }
      ],
      "name": "nominateNewOwner",
      "outputs": [],
      "stateMutability": "nonpayable",
      "type": "function"
    },
    {
      "inputs": [],
      "name": "nominatedOwner",
      "outputs": [
        {
          "internalType": "address",
          "name": "",
          "type": "address"
        }
      ],
      "stateMutability": "view",
      "type": "function"
    },
    {
      "inputs": [],
      "name": "owner",
      "outputs": [
        {
          "internalType": "address",
          "name": "",
          "type": "address"
        }
      ],
      "stateMutability": "view",
      "type": "function"
    },
    {
      "inputs": [],
      "name": "paused",
      "outputs": [
        {
          "internalType": "bool",
          "name": "",
          "type": "bool"
        }
      ],
      "stateMutability": "view",
      "type": "function"
    },
    {
      "inputs": [],
      "name": "periodFinish",
      "outputs": [
        {
          "internalType": "uint256",
          "name": "",
          "type": "uint256"
        }
      ],
      "stateMutability": "view",
      "type": "function"
    },
    {
      "inputs": [],
      "name": "rewardPerTokenStored",
      "outputs": [
        {
          "internalType": "uint256",
          "name": "",
          "type": "uint256"
        }
      ],
      "stateMutability": "view",
      "type": "function"
    },
    {
      "inputs": [],
      "name": "rewardRate",
      "outputs": [
        {
          "internalType": "uint256",
          "name": "",
          "type": "uint256"
        }
      ],
      "stateMutability": "view",
      "type": "function"
    },
    {
      "inputs": [
        {
          "internalType": "address",
          "name": "",
          "type": "address"
        }
      ],
      "name": "rewards",
      "outputs": [
        {
          "internalType": "uint256",
          "name": "",
          "type": "uint256"
        }
      ],
      "stateMutability": "view",
      "type": "function"
    },
    {
      "inputs": [],
      "name": "rewardsDistribution",
      "outputs": [
        {
          "internalType": "address",
          "name": "",
          "type": "address"
        }
      ],
      "stateMutability": "view",
      "type": "function"
    },
    {
      "inputs": [],
      "name": "rewardsDuration",
      "outputs": [
        {
          "internalType": "uint256",
          "name": "",
          "type": "uint256"
        }
      ],
      "stateMutability": "view",
      "type": "function"
    },
    {
      "inputs": [],
      "name": "rewardsToken",
      "outputs": [
        {
          "internalType": "contract ERC20",
          "name": "",
          "type": "address"
        }
      ],
      "stateMutability": "view",
      "type": "function"
    },
    {
      "inputs": [
        {
          "internalType": "bool",
          "name": "_paused",
          "type": "bool"
        }
      ],
      "name": "setPaused",
      "outputs": [],
      "stateMutability": "nonpayable",
      "type": "function"
    },
    {
      "inputs": [
        {
          "internalType": "address",
          "name": "_rewardsDistribution",
          "type": "address"
        }
      ],
      "name": "setRewardsDistribution",
      "outputs": [],
      "stateMutability": "nonpayable",
      "type": "function"
    },
    {
      "inputs": [],
      "name": "stakingToken",
      "outputs": [
        {
          "internalType": "contract ERC20",
          "name": "",
          "type": "address"
        }
      ],
      "stateMutability": "view",
      "type": "function"
    },
    {
      "inputs": [
        {
          "internalType": "address",
          "name": "",
          "type": "address"
        }
      ],
      "name": "userRewardPerTokenPaid",
      "outputs": [
        {
          "internalType": "uint256",
          "name": "",
          "type": "uint256"
        }
      ],
      "stateMutability": "view",
      "type": "function"
    },
    {
      "inputs": [],
      "name": "totalSupply",
      "outputs": [
        {
          "internalType": "uint256",
          "name": "",
          "type": "uint256"
        }
      ],
      "stateMutability": "view",
      "type": "function"
    },
    {
      "inputs": [
        {
          "internalType": "uint256",
          "name": "secs",
          "type": "uint256"
        }
      ],
      "name": "stakingMultiplier",
      "outputs": [
        {
          "internalType": "uint256",
          "name": "",
          "type": "uint256"
        }
      ],
      "stateMutability": "view",
      "type": "function"
    },
    {
      "inputs": [],
      "name": "crBoostMultiplier",
      "outputs": [
        {
          "internalType": "uint256",
          "name": "",
          "type": "uint256"
        }
      ],
      "stateMutability": "view",
      "type": "function"
    },
    {
      "inputs": [],
      "name": "stakingTokenSupply",
      "outputs": [
        {
          "internalType": "uint256",
          "name": "",
          "type": "uint256"
        }
      ],
      "stateMutability": "view",
      "type": "function"
    },
    {
      "inputs": [
        {
          "internalType": "address",
          "name": "account",
          "type": "address"
        }
      ],
      "name": "balanceOf",
      "outputs": [
        {
          "internalType": "uint256",
          "name": "",
          "type": "uint256"
        }
      ],
      "stateMutability": "view",
      "type": "function"
    },
    {
      "inputs": [
        {
          "internalType": "address",
          "name": "account",
          "type": "address"
        }
      ],
      "name": "boostedBalanceOf",
      "outputs": [
        {
          "internalType": "uint256",
          "name": "",
          "type": "uint256"
        }
      ],
      "stateMutability": "view",
      "type": "function"
    },
    {
      "inputs": [
        {
          "internalType": "address",
          "name": "account",
          "type": "address"
        }
      ],
      "name": "lockedBalanceOf",
      "outputs": [
        {
          "internalType": "uint256",
          "name": "",
          "type": "uint256"
        }
      ],
      "stateMutability": "view",
      "type": "function"
    },
    {
      "inputs": [
        {
          "internalType": "address",
          "name": "account",
          "type": "address"
        }
      ],
      "name": "unlockedBalanceOf",
      "outputs": [
        {
          "internalType": "uint256",
          "name": "",
          "type": "uint256"
        }
      ],
      "stateMutability": "view",
      "type": "function"
    },
    {
      "inputs": [
        {
          "internalType": "address",
          "name": "account",
          "type": "address"
        }
      ],
      "name": "lockedStakesOf",
      "outputs": [
        {
          "components": [
            {
              "internalType": "bytes32",
              "name": "kek_id",
              "type": "bytes32"
            },
            {
              "internalType": "uint256",
              "name": "start_timestamp",
              "type": "uint256"
            },
            {
              "internalType": "uint256",
              "name": "amount",
              "type": "uint256"
            },
            {
              "internalType": "uint256",
              "name": "ending_timestamp",
              "type": "uint256"
            },
            {
              "internalType": "uint256",
              "name": "multiplier",
              "type": "uint256"
            }
          ],
          "internalType": "struct StakingRewards.LockedStake[]",
          "name": "",
          "type": "tuple[]"
        }
      ],
      "stateMutability": "view",
      "type": "function"
    },
    {
      "inputs": [],
      "name": "stakingDecimals",
      "outputs": [
        {
          "internalType": "uint256",
          "name": "",
          "type": "uint256"
        }
      ],
      "stateMutability": "view",
      "type": "function"
    },
    {
      "inputs": [
        {
          "internalType": "address",
          "name": "account",
          "type": "address"
        }
      ],
      "name": "rewardsFor",
      "outputs": [
        {
          "internalType": "uint256",
          "name": "",
          "type": "uint256"
        }
      ],
      "stateMutability": "view",
      "type": "function"
    },
    {
      "inputs": [],
      "name": "lastTimeRewardApplicable",
      "outputs": [
        {
          "internalType": "uint256",
          "name": "",
          "type": "uint256"
        }
      ],
      "stateMutability": "view",
      "type": "function"
    },
    {
      "inputs": [],
      "name": "rewardPerToken",
      "outputs": [
        {
          "internalType": "uint256",
          "name": "",
          "type": "uint256"
        }
      ],
      "stateMutability": "view",
      "type": "function"
    },
    {
      "inputs": [
        {
          "internalType": "address",
          "name": "account",
          "type": "address"
        }
      ],
      "name": "earned",
      "outputs": [
        {
          "internalType": "uint256",
          "name": "",
          "type": "uint256"
        }
      ],
      "stateMutability": "view",
      "type": "function"
    },
    {
      "inputs": [],
      "name": "getRewardForDuration",
      "outputs": [
        {
          "internalType": "uint256",
          "name": "",
          "type": "uint256"
        }
      ],
      "stateMutability": "view",
      "type": "function"
    },
    {
      "inputs": [
        {
          "internalType": "uint256",
          "name": "amount",
          "type": "uint256"
        }
      ],
      "name": "stake",
      "outputs": [],
      "stateMutability": "nonpayable",
      "type": "function"
    },
    {
      "inputs": [
        {
          "internalType": "uint256",
          "name": "amount",
          "type": "uint256"
        },
        {
          "internalType": "uint256",
          "name": "secs",
          "type": "uint256"
        }
      ],
      "name": "stakeLocked",
      "outputs": [],
      "stateMutability": "nonpayable",
      "type": "function"
    },
    {
      "inputs": [
        {
          "internalType": "uint256",
          "name": "amount",
          "type": "uint256"
        }
      ],
      "name": "withdraw",
      "outputs": [],
      "stateMutability": "nonpayable",
      "type": "function"
    },
    {
      "inputs": [
        {
          "internalType": "bytes32",
          "name": "kek_id",
          "type": "bytes32"
        }
      ],
      "name": "withdrawLocked",
      "outputs": [],
      "stateMutability": "nonpayable",
      "type": "function"
    },
    {
      "inputs": [],
      "name": "getReward",
      "outputs": [],
      "stateMutability": "nonpayable",
      "type": "function"
    },
    {
      "inputs": [],
      "name": "exit",
      "outputs": [],
      "stateMutability": "nonpayable",
      "type": "function"
    },
    {
      "inputs": [],
      "name": "renewIfApplicable",
      "outputs": [],
      "stateMutability": "nonpayable",
      "type": "function"
    },
    {
      "inputs": [
        {
          "internalType": "uint256",
          "name": "reward",
          "type": "uint256"
        }
      ],
      "name": "notifyRewardAmount",
      "outputs": [],
      "stateMutability": "nonpayable",
      "type": "function"
    },
    {
      "inputs": [
        {
          "internalType": "address",
          "name": "tokenAddress",
          "type": "address"
        },
        {
          "internalType": "uint256",
          "name": "tokenAmount",
          "type": "uint256"
        }
      ],
      "name": "recoverERC20",
      "outputs": [],
      "stateMutability": "nonpayable",
      "type": "function"
    },
    {
      "inputs": [
        {
          "internalType": "uint256",
          "name": "_rewardsDuration",
          "type": "uint256"
        }
      ],
      "name": "setRewardsDuration",
      "outputs": [],
      "stateMutability": "nonpayable",
      "type": "function"
    },
    {
      "inputs": [
        {
          "internalType": "uint256",
          "name": "_locked_stake_max_multiplier",
          "type": "uint256"
        }
      ],
      "name": "setLockedStakeMaxMultiplierUpdated",
      "outputs": [],
      "stateMutability": "nonpayable",
      "type": "function"
    },
    {
      "inputs": [
        {
          "internalType": "uint256",
          "name": "_locked_stake_time_for_max_multiplier",
          "type": "uint256"
        }
      ],
      "name": "setLockedStakeTimeForMaxMultiplier",
      "outputs": [],
      "stateMutability": "nonpayable",
      "type": "function"
    },
    {
      "inputs": [
        {
          "internalType": "uint256",
          "name": "_locked_stake_min_time",
          "type": "uint256"
        }
      ],
      "name": "setLockedStakeMinTime",
      "outputs": [],
      "stateMutability": "nonpayable",
      "type": "function"
    },
    {
      "inputs": [
        {
          "internalType": "uint256",
          "name": "_max_boost_multiplier",
          "type": "uint256"
        }
      ],
      "name": "setMaxCRBoostMultiplier",
      "outputs": [],
      "stateMutability": "nonpayable",
      "type": "function"
    },
    {
      "inputs": [],
      "name": "initializeDefault",
      "outputs": [],
      "stateMutability": "nonpayable",
      "type": "function"
    }
  ],
  "bytecode": "0x60806040526200002d6312cc03006a2a2fab8a32d357130000006200038660201b62003c2b1790919060201c565b60095562093a80600a556000600c55622dc6c0600d556301e13380600e5562093a80600f556040518060400160405280600681526020017f3630343830300000000000000000000000000000000000000000000000000000815250601090805190602001906200009f9291906200043d565b50621e848060115560006014556000601555348015620000be57600080fd5b5060405162006470380380620064708339818101604052810190620000e49190620004fa565b84600073ffffffffffffffffffffffffffffffffffffffff168173ffffffffffffffffffffffffffffffffffffffff16141562000158576040517f08c379a00000000000000000000000000000000000000000000000000000000081526004016200014f90620006d6565b60405180910390fd5b806000806101000a81548173ffffffffffffffffffffffffffffffffffffffff021916908373ffffffffffffffffffffffffffffffffffffffff1602179055507fb532073b38c83145e3e5135377a08bf9aab55bc0fd7c1179cd4fb995d2a5159c600082604051620001cc92919062000663565b60405180910390a1506001600381905550600073ffffffffffffffffffffffffffffffffffffffff1660008054906101000a900473ffffffffffffffffffffffffffffffffffffffff1673ffffffffffffffffffffffffffffffffffffffff16141562000270576040517f08c379a00000000000000000000000000000000000000000000000000000000081526004016200026790620006b4565b60405180910390fd5b82600660006101000a81548173ffffffffffffffffffffffffffffffffffffffff021916908373ffffffffffffffffffffffffffffffffffffffff16021790555081600760006101000a81548173ffffffffffffffffffffffffffffffffffffffff021916908373ffffffffffffffffffffffffffffffffffffffff16021790555080600560016101000a81548173ffffffffffffffffffffffffffffffffffffffff021916908373ffffffffffffffffffffffffffffffffffffffff16021790555083600260006101000a81548173ffffffffffffffffffffffffffffffffffffffff021916908373ffffffffffffffffffffffffffffffffffffffff16021790555042600b819055505050505050620007e5565b6000620003d083836040518060400160405280601a81526020017f536166654d6174683a206469766973696f6e206279207a65726f000000000000815250620003d860201b60201c565b905092915050565b6000808311829062000422576040517f08c379a000000000000000000000000000000000000000000000000000000000815260040162000419919062000690565b60405180910390fd5b5060008385816200042f57fe5b049050809150509392505050565b828054600181600116156101000203166002900490600052602060002090601f016020900481019282601f106200048057805160ff1916838001178555620004b1565b82800160010185558215620004b1579182015b82811115620004b057825182559160200191906001019062000493565b5b509050620004c09190620004c4565b5090565b5b80821115620004df576000816000905550600101620004c5565b5090565b600081519050620004f481620007cb565b92915050565b600080600080600060a086880312156200051357600080fd5b60006200052388828901620004e3565b95505060206200053688828901620004e3565b94505060406200054988828901620004e3565b93505060606200055c88828901620004e3565b92505060806200056f88828901620004e3565b9150509295509295909350565b620005878162000748565b82525050565b620005988162000714565b82525050565b6000620005ab82620006f8565b620005b7818562000703565b9350620005c981856020860162000784565b620005d481620007ba565b840191505092915050565b6000620005ee60118362000703565b91507f4f776e6572206d757374206265207365740000000000000000000000000000006000830152602082019050919050565b60006200063060198362000703565b91507f4f776e657220616464726573732063616e6e6f742062652030000000000000006000830152602082019050919050565b60006040820190506200067a60008301856200057c565b6200068960208301846200058d565b9392505050565b60006020820190508181036000830152620006ac81846200059e565b905092915050565b60006020820190508181036000830152620006cf81620005df565b9050919050565b60006020820190508181036000830152620006f18162000621565b9050919050565b600081519050919050565b600082825260208201905092915050565b6000620007218262000728565b9050919050565b600073ffffffffffffffffffffffffffffffffffffffff82169050919050565b600062000755826200075c565b9050919050565b6000620007698262000770565b9050919050565b60006200077d8262000728565b9050919050565b60005b83811015620007a457808201518184015260208101905062000787565b83811115620007b4576000848401525b50505050565b6000601f19601f8301169050919050565b620007d68162000714565b8114620007e257600080fd5b50565b615c7b80620007f56000396000f3fe608060405234801561001057600080fd5b50600436106103265760003560e01c806380faa57d116101b8578063c11f534411610104578063df136d65116100a2578063ebaa4dbb1161007c578063ebaa4dbb14610933578063ebe2b12b1461094f578063fd7379e11461096d578063fee2eae61461098b57610326565b8063df136d65146108ed578063e0c18f701461090b578063e9fad8ee1461092957610326565b8063cd3daf9d116100de578063cd3daf9d14610877578063ce08bf1314610895578063d1af0c7d146108b3578063dce04ee6146108d157610326565b8063c11f53441461081f578063c8f33c911461083d578063cc1a378f1461085b57610326565b806393b52be811610171578063a694fc3a1161014b578063a694fc3a1461079b578063a87574ae146107b7578063b51f7902146107d3578063c0ccb4011461080357610326565b806393b52be8146107415780639477eb1c1461075f578063948de6ad1461077d57610326565b806380faa57d1461066b57806384955c88146106895780638980f11f146106b95780638b876347146106d55780638da5cb5b1461070557806391b4ded91461072357610326565b8063386a95251161027757806353a47bb71161023057806370a082311161020a57806370a08231146105f557806372f702f31461062557806379ba5097146106435780637b0a47ee1461064d57610326565b806353a47bb71461058957806359355736146105a75780635c975abb146105d757610326565b8063386a9525146104db5780633c6b16ab146104f95780633d18b912146105155780633fc6df6e1461051f5780634f232d501461053d57806351e3fc171461056d57610326565b806318160ddd116102e45780631c1f78eb116102be5780631c1f78eb146104535780631e090f01146104715780632e1a7d4d146104a15780633236e10a146104bd57610326565b806318160ddd146103e957806319762143146104075780631beabcd21461042357610326565b80628cc2621461032b5780630700037d1461035b5780631627540c1461038b578063169d27ef146103a757806316c38b3c146103b157806317b18c89146103cd575b600080fd5b61034560048036038101906103409190614a4a565b610995565b604051610352919061598d565b60405180910390f35b61037560048036038101906103709190614a4a565b610ab3565b604051610382919061598d565b60405180910390f35b6103a560048036038101906103a09190614a4a565b610acb565b005b6103af610bd4565b005b6103cb60048036038101906103c69190614aaf565b610cb2565b005b6103e760048036038101906103e29190614bbd565b610de1565b005b6103f16114cb565b6040516103fe919061598d565b60405180910390f35b610421600480360381019061041c9190614a4a565b6114d5565b005b61043d60048036038101906104389190614a4a565b6115a7565b60405161044a919061598d565b60405180910390f35b61045b6115f0565b604051610468919061598d565b60405180910390f35b61048b60048036038101906104869190614a4a565b61163c565b6040516104989190615673565b60405180910390f35b6104bb60048036038101906104b69190614b6b565b61170c565b005b6104c5611aa0565b6040516104d2919061598d565b60405180910390f35b6104e3611aaa565b6040516104f0919061598d565b60405180910390f35b610513600480360381019061050e9190614b6b565b611ab0565b005b61051d611e8a565b005b61052761210e565b60405161053491906155cf565b60405180910390f35b61055760048036038101906105529190614b6b565b612134565b604051610564919061598d565b60405180910390f35b61058760048036038101906105829190614b01565b612193565b005b6105916127af565b60405161059e91906155cf565b60405180910390f35b6105c160048036038101906105bc9190614a4a565b6127d5565b6040516105ce919061598d565b60405180910390f35b6105df612904565b6040516105ec9190615695565b60405180910390f35b61060f600480360381019061060a9190614a4a565b612917565b60405161061c919061598d565b60405180910390f35b61062d612960565b60405161063a91906156b0565b60405180910390f35b61064b612986565b005b610655612b37565b604051610662919061598d565b60405180910390f35b610673612b3d565b604051610680919061598d565b60405180910390f35b6106a3600480360381019061069e9190614a4a565b612b50565b6040516106b0919061598d565b60405180910390f35b6106d360048036038101906106ce9190614a73565b612bb3565b005b6106ef60048036038101906106ea9190614a4a565b612e8b565b6040516106fc919061598d565b60405180910390f35b61070d612ea3565b60405161071a91906155cf565b60405180910390f35b61072b612ec7565b604051610738919061598d565b60405180910390f35b610749612ecd565b604051610756919061598d565b60405180910390f35b610767612fcf565b604051610774919061598d565b60405180910390f35b610785612fd5565b604051610792919061598d565b60405180910390f35b6107b560048036038101906107b09190614b6b565b612fdb565b005b6107d160048036038101906107cc9190614b6b565b6133a0565b005b6107ed60048036038101906107e89190614a4a565b6134d2565b6040516107fa919061598d565b60405180910390f35b61081d60048036038101906108189190614b6b565b61351b565b005b610827613630565b604051610834919061598d565b60405180910390f35b6108456136da565b604051610852919061598d565b60405180910390f35b61087560048036038101906108709190614b6b565b6136e0565b005b61087f613802565b60405161088c919061598d565b60405180910390f35b61089d6138be565b6040516108aa919061598d565b60405180910390f35b6108bb6138c4565b6040516108c891906156b0565b60405180910390f35b6108eb60048036038101906108e69190614b6b565b6138ea565b005b6108f56139ff565b604051610902919061598d565b60405180910390f35b610913613a05565b604051610920919061598d565b60405180910390f35b610931613a0b565b005b61094d60048036038101906109489190614b6b565b613a5d565b005b610957613b72565b604051610964919061598d565b60405180910390f35b610975613b78565b60405161098291906156cb565b60405180910390f35b610993613c16565b005b6000610aac601360008473ffffffffffffffffffffffffffffffffffffffff1673ffffffffffffffffffffffffffffffffffffffff16815260200190815260200160002054610a9e670de0b6b3a7640000610a90610a42601260008973ffffffffffffffffffffffffffffffffffffffff1673ffffffffffffffffffffffffffffffffffffffff16815260200190815260200160002054610a34613802565b613c7590919063ffffffff16565b601760008973ffffffffffffffffffffffffffffffffffffffff1673ffffffffffffffffffffffffffffffffffffffff16815260200190815260200160002054613cbf90919063ffffffff16565b613c2b90919063ffffffff16565b613d2f90919063ffffffff16565b9050919050565b60136020528060005260406000206000915090505481565b60008054906101000a900473ffffffffffffffffffffffffffffffffffffffff1673ffffffffffffffffffffffffffffffffffffffff163373ffffffffffffffffffffffffffffffffffffffff1614610b59576040517f08c379a0000000000000000000000000000000000000000000000000000000008152600401610b50906157ad565b60405180910390fd5b80600160006101000a81548173ffffffffffffffffffffffffffffffffffffffff021916908373ffffffffffffffffffffffffffffffffffffffff1602179055507f906a1c6bd7e3091ea86693dd029a831c19049ce77f1dce2ce0bab1cacbabce2281604051610bc991906155cf565b60405180910390a150565b60008054906101000a900473ffffffffffffffffffffffffffffffffffffffff1673ffffffffffffffffffffffffffffffffffffffff163373ffffffffffffffffffffffffffffffffffffffff1614610c62576040517f08c379a0000000000000000000000000000000000000000000000000000000008152600401610c59906157ad565b60405180910390fd5b42600b81905550610c7e600a5442613d2f90919063ffffffff16565b6008819055507fb5cfe3ccd03847076864f081609024cbc2eb98c38da4d8b2cebe9479a9a1ef3760405160405180910390a1565b60008054906101000a900473ffffffffffffffffffffffffffffffffffffffff1673ffffffffffffffffffffffffffffffffffffffff163373ffffffffffffffffffffffffffffffffffffffff1614610d40576040517f08c379a0000000000000000000000000000000000000000000000000000000008152600401610d37906157ad565b60405180910390fd5b600560009054906101000a900460ff1615158115151415610d6057610dde565b80600560006101000a81548160ff021916908315150217905550600560009054906101000a900460ff1615610d9757426004819055505b7f8fb6c181ee25a520cf3dd6565006ef91229fcfe5a989566c2a3b8c115570cec5600560009054906101000a900460ff16604051610dd59190615695565b60405180910390a15b50565b60026003541415610e27576040517f08c379a0000000000000000000000000000000000000000000000000000000008152600401610e1e9061594d565b60405180910390fd5b6002600381905550600560009054906101000a900460ff1615610e7f576040517f08c379a0000000000000000000000000000000000000000000000000000000008152600401610e769061582d565b60405180910390fd5b33600854421115610e9757610e92613d84565b610eb4565b610e9f613802565b600c81905550610ead612b3d565b600b819055505b600073ffffffffffffffffffffffffffffffffffffffff168173ffffffffffffffffffffffffffffffffffffffff1614610f7b57610ef181610995565b601360008373ffffffffffffffffffffffffffffffffffffffff1673ffffffffffffffffffffffffffffffffffffffff16815260200190815260200160002081905550600c54601260008373ffffffffffffffffffffffffffffffffffffffff1673ffffffffffffffffffffffffffffffffffffffff168152602001908152602001600020819055505b60008311610fbe576040517f08c379a0000000000000000000000000000000000000000000000000000000008152600401610fb59061576d565b60405180910390fd5b60008211611001576040517f08c379a0000000000000000000000000000000000000000000000000000000008152600401610ff89061596d565b60405180910390fd5b600f548210156111166040518060400160405280601c81526020017f4d696e696d756d207374616b652074696d65206e6f74206d657420280000000081525060108054600181600116156101000203166002900480601f0160208091040260200160405190810160405280929190818152602001828054600181600116156101000203166002900480156110d65780601f106110ab576101008083540402835291602001916110d6565b820191906000526020600020905b8154815290600101906020018083116110b957829003601f168201915b50505050506040518060400160405280600181526020017f2900000000000000000000000000000000000000000000000000000000000000815250613f9e565b90611157576040517f08c379a000000000000000000000000000000000000000000000000000000000815260040161114e91906156cb565b60405180910390fd5b50600061116383612134565b9050600061118f620f42406111818488613cbf90919063ffffffff16565b613c2b90919063ffffffff16565b9050601860003373ffffffffffffffffffffffffffffffffffffffff1673ffffffffffffffffffffffffffffffffffffffff1681526020019081526020016000206040518060a001604052803342896040516020016111f09392919061557b565b60405160208183030381529060405280519060200120815260200142815260200187815260200161122a8742613d2f90919063ffffffff16565b8152602001848152509080600181540180825580915050600190039060005260206000209060050201600090919091909150600082015181600001556020820151816001015560408201518160020155606082015181600301556080820151816004015550506112a585601454613d2f90919063ffffffff16565b6014819055506112c081601554613d2f90919063ffffffff16565b60158190555061131885601660003373ffffffffffffffffffffffffffffffffffffffff1673ffffffffffffffffffffffffffffffffffffffff16815260200190815260200160002054613d2f90919063ffffffff16565b601660003373ffffffffffffffffffffffffffffffffffffffff1673ffffffffffffffffffffffffffffffffffffffff168152602001908152602001600020819055506113ad81601760003373ffffffffffffffffffffffffffffffffffffffff1673ffffffffffffffffffffffffffffffffffffffff16815260200190815260200160002054613d2f90919063ffffffff16565b601760003373ffffffffffffffffffffffffffffffffffffffff1673ffffffffffffffffffffffffffffffffffffffff1681526020019081526020016000208190555061141e600760009054906101000a900473ffffffffffffffffffffffffffffffffffffffff16333088613fd4565b3373ffffffffffffffffffffffffffffffffffffffff167f9e71bc8eea02a63969f509818f2dafb9254532904319f9dbda79b67bd34a5f3d86604051611464919061598d565b60405180910390a23373ffffffffffffffffffffffffffffffffffffffff167fa5ae833d0bb1dcd632d98a8b70973e8516812898e19bf27b70071ebc8dc52c0186866040516114b49291906159d1565b60405180910390a250505060016003819055505050565b6000601454905090565b60008054906101000a900473ffffffffffffffffffffffffffffffffffffffff1673ffffffffffffffffffffffffffffffffffffffff163373ffffffffffffffffffffffffffffffffffffffff1614611563576040517f08c379a000000000000000000000000000000000000000000000000000000000815260040161155a906157ad565b60405180910390fd5b80600260006101000a81548173ffffffffffffffffffffffffffffffffffffffff021916908373ffffffffffffffffffffffffffffffffffffffff16021790555050565b6000601760008373ffffffffffffffffffffffffffffffffffffffff1673ffffffffffffffffffffffffffffffffffffffff168152602001908152602001600020549050919050565b6000611637620f4240611629611604612ecd565b61161b600a54600954613cbf90919063ffffffff16565b613cbf90919063ffffffff16565b613c2b90919063ffffffff16565b905090565b6060601860008373ffffffffffffffffffffffffffffffffffffffff1673ffffffffffffffffffffffffffffffffffffffff168152602001908152602001600020805480602002602001604051908101604052809291908181526020016000905b8282101561170157838290600052602060002090600502016040518060a0016040529081600082015481526020016001820154815260200160028201548152602001600382015481526020016004820154815250508152602001906001019061169d565b505050509050919050565b60026003541415611752576040517f08c379a00000000000000000000000000000000000000000000000000000000081526004016117499061594d565b60405180910390fd5b6002600381905550336008544211156117725761176d613d84565b61178f565b61177a613802565b600c81905550611788612b3d565b600b819055505b600073ffffffffffffffffffffffffffffffffffffffff168173ffffffffffffffffffffffffffffffffffffffff1614611856576117cc81610995565b601360008373ffffffffffffffffffffffffffffffffffffffff1673ffffffffffffffffffffffffffffffffffffffff16815260200190815260200160002081905550600c54601260008373ffffffffffffffffffffffffffffffffffffffff1673ffffffffffffffffffffffffffffffffffffffff168152602001908152602001600020819055505b60008211611899576040517f08c379a0000000000000000000000000000000000000000000000000000000008152600401611890906157cd565b60405180910390fd5b6118ae82601454613c7590919063ffffffff16565b6014819055506118c982601554613c7590919063ffffffff16565b60158190555061192182601660003373ffffffffffffffffffffffffffffffffffffffff1673ffffffffffffffffffffffffffffffffffffffff16815260200190815260200160002054613c7590919063ffffffff16565b601660003373ffffffffffffffffffffffffffffffffffffffff1673ffffffffffffffffffffffffffffffffffffffff168152602001908152602001600020819055506119b682601760003373ffffffffffffffffffffffffffffffffffffffff1673ffffffffffffffffffffffffffffffffffffffff16815260200190815260200160002054613c7590919063ffffffff16565b601760003373ffffffffffffffffffffffffffffffffffffffff1673ffffffffffffffffffffffffffffffffffffffff16815260200190815260200160002081905550611a463383600760009054906101000a900473ffffffffffffffffffffffffffffffffffffffff1673ffffffffffffffffffffffffffffffffffffffff1661410e9092919063ffffffff16565b3373ffffffffffffffffffffffffffffffffffffffff167f7084f5476618d8e60b11ef0d7d3f06914655adb8793e28ff7f018d4c76d505d583604051611a8c919061598d565b60405180910390a250600160038190555050565b6000601454905090565b600a5481565b600260009054906101000a900473ffffffffffffffffffffffffffffffffffffffff1673ffffffffffffffffffffffffffffffffffffffff163373ffffffffffffffffffffffffffffffffffffffff1614611b40576040517f08c379a0000000000000000000000000000000000000000000000000000000008152600401611b37906158cd565b60405180910390fd5b6000600854421115611b5957611b54613d84565b611b76565b611b61613802565b600c81905550611b6f612b3d565b600b819055505b600073ffffffffffffffffffffffffffffffffffffffff168173ffffffffffffffffffffffffffffffffffffffff1614611c3d57611bb381610995565b601360008373ffffffffffffffffffffffffffffffffffffffff1673ffffffffffffffffffffffffffffffffffffffff16815260200190815260200160002081905550600c54601260008373ffffffffffffffffffffffffffffffffffffffff1673ffffffffffffffffffffffffffffffffffffffff168152602001908152602001600020819055505b6008544210611c9457611c89620f4240611c7b600a54611c6d611c5e612ecd565b87613cbf90919063ffffffff16565b613c2b90919063ffffffff16565b613c2b90919063ffffffff16565b600981905550611d24565b6000611cab42600854613c7590919063ffffffff16565b90506000611cc460095483613cbf90919063ffffffff16565b9050611d1b620f4240611d0d600a54611cff85611cf1611ce2612ecd565b8b613cbf90919063ffffffff16565b613d2f90919063ffffffff16565b613c2b90919063ffffffff16565b613c2b90919063ffffffff16565b60098190555050505b6000600660009054906101000a900473ffffffffffffffffffffffffffffffffffffffff1673ffffffffffffffffffffffffffffffffffffffff166370a08231306040518263ffffffff1660e01b8152600401611d8191906155cf565b60206040518083038186803b158015611d9957600080fd5b505afa158015611dad573d6000803e3d6000fd5b505050506040513d601f19601f82011682018060405250810190611dd19190614b94565b9050611de8600a5482613c2b90919063ffffffff16565b6009541115611e2c576040517f08c379a0000000000000000000000000000000000000000000000000000000008152600401611e239061580d565b60405180910390fd5b42600b81905550611e48600a5442613d2f90919063ffffffff16565b6008819055507fde88a922e0d3b88b24e9623efeb464919c6bf9f66857a65e2bfcf2ce87a9433d83604051611e7d919061598d565b60405180910390a1505050565b60026003541415611ed0576040517f08c379a0000000000000000000000000000000000000000000000000000000008152600401611ec79061594d565b60405180910390fd5b600260038190555033600854421115611ef057611eeb613d84565b611f0d565b611ef8613802565b600c81905550611f06612b3d565b600b819055505b600073ffffffffffffffffffffffffffffffffffffffff168173ffffffffffffffffffffffffffffffffffffffff1614611fd457611f4a81610995565b601360008373ffffffffffffffffffffffffffffffffffffffff1673ffffffffffffffffffffffffffffffffffffffff16815260200190815260200160002081905550600c54601260008373ffffffffffffffffffffffffffffffffffffffff1673ffffffffffffffffffffffffffffffffffffffff168152602001908152602001600020819055505b6000601360003373ffffffffffffffffffffffffffffffffffffffff1673ffffffffffffffffffffffffffffffffffffffff1681526020019081526020016000205490506000811115612102576000601360003373ffffffffffffffffffffffffffffffffffffffff1673ffffffffffffffffffffffffffffffffffffffff168152602001908152602001600020819055506120b33382600660009054906101000a900473ffffffffffffffffffffffffffffffffffffffff1673ffffffffffffffffffffffffffffffffffffffff1661410e9092919063ffffffff16565b3373ffffffffffffffffffffffffffffffffffffffff167fe2403640ba68fed3a2f88b7557551d1993f84b99bb10ff833f0cf8db0c5e0486826040516120f9919061598d565b60405180910390a25b50506001600381905550565b600260009054906101000a900473ffffffffffffffffffffffffffffffffffffffff1681565b600080612173600e546121656121566001600d54613c7590919063ffffffff16565b86613cbf90919063ffffffff16565b613c2b90919063ffffffff16565b620f4240019050600d5481111561218a57600d5490505b80915050919050565b600260035414156121d9576040517f08c379a00000000000000000000000000000000000000000000000000000000081526004016121d09061594d565b60405180910390fd5b6002600381905550336008544211156121f9576121f4613d84565b612216565b612201613802565b600c8190555061220f612b3d565b600b819055505b600073ffffffffffffffffffffffffffffffffffffffff168173ffffffffffffffffffffffffffffffffffffffff16146122dd5761225381610995565b601360008373ffffffffffffffffffffffffffffffffffffffff1673ffffffffffffffffffffffffffffffffffffffff16815260200190815260200160002081905550600c54601260008373ffffffffffffffffffffffffffffffffffffffff1673ffffffffffffffffffffffffffffffffffffffff168152602001908152602001600020819055505b6122e5614894565b600080600090505b601860003373ffffffffffffffffffffffffffffffffffffffff1673ffffffffffffffffffffffffffffffffffffffff1681526020019081526020016000208054905081101561244657601860003373ffffffffffffffffffffffffffffffffffffffff1673ffffffffffffffffffffffffffffffffffffffff168152602001908152602001600020818154811061238157fe5b90600052602060002090600502016000015485141561243957601860003373ffffffffffffffffffffffffffffffffffffffff1673ffffffffffffffffffffffffffffffffffffffff16815260200190815260200160002081815481106123e457fe5b90600052602060002090600502016040518060a0016040529081600082015481526020016001820154815260200160028201548152602001600382015481526020016004820154815250509250809150612446565b80806001019150506122ed565b50816060015142101561248e576040517f08c379a00000000000000000000000000000000000000000000000000000000081526004016124859061574d565b60405180910390fd5b60008260400151905060006124c5620f42406124b7866080015185613cbf90919063ffffffff16565b613c2b90919063ffffffff16565b9050600082111561279f576124e582601454613c7590919063ffffffff16565b60148190555061250081601554613c7590919063ffffffff16565b60158190555061255882601660003373ffffffffffffffffffffffffffffffffffffffff1673ffffffffffffffffffffffffffffffffffffffff16815260200190815260200160002054613c7590919063ffffffff16565b601660003373ffffffffffffffffffffffffffffffffffffffff1673ffffffffffffffffffffffffffffffffffffffff168152602001908152602001600020819055506125ed81601760003373ffffffffffffffffffffffffffffffffffffffff1673ffffffffffffffffffffffffffffffffffffffff16815260200190815260200160002054613c7590919063ffffffff16565b601760003373ffffffffffffffffffffffffffffffffffffffff1673ffffffffffffffffffffffffffffffffffffffff1681526020019081526020016000208190555061267d3383600760009054906101000a900473ffffffffffffffffffffffffffffffffffffffff1673ffffffffffffffffffffffffffffffffffffffff1661410e9092919063ffffffff16565b601860003373ffffffffffffffffffffffffffffffffffffffff1673ffffffffffffffffffffffffffffffffffffffff16815260200190815260200160002083815481106126c757fe5b9060005260206000209060050201600080820160009055600182016000905560028201600090556003820160009055600482016000905550503373ffffffffffffffffffffffffffffffffffffffff167f7084f5476618d8e60b11ef0d7d3f06914655adb8793e28ff7f018d4c76d505d583604051612746919061598d565b60405180910390a23373ffffffffffffffffffffffffffffffffffffffff167f1f70bda8ea2447de035db87c33fe8f03f7514d49c394293e5cffdb4c34352cf683886040516127969291906159a8565b60405180910390a25b5050505050600160038190555050565b600160009054906101000a900473ffffffffffffffffffffffffffffffffffffffff1681565b6000806000905060005b601860008573ffffffffffffffffffffffffffffffffffffffff1673ffffffffffffffffffffffffffffffffffffffff168152602001908152602001600020805490508110156128fa57601860008573ffffffffffffffffffffffffffffffffffffffff1673ffffffffffffffffffffffffffffffffffffffff168152602001908152602001600020818154811061287357fe5b9060005260206000209060050201600301544210156128ed57601860008573ffffffffffffffffffffffffffffffffffffffff1673ffffffffffffffffffffffffffffffffffffffff16815260200190815260200160002081815481106128d657fe5b906000526020600020906005020160020154820191505b80806001019150506127df565b5080915050919050565b600560009054906101000a900460ff1681565b6000601660008373ffffffffffffffffffffffffffffffffffffffff1673ffffffffffffffffffffffffffffffffffffffff168152602001908152602001600020549050919050565b600760009054906101000a900473ffffffffffffffffffffffffffffffffffffffff1681565b600160009054906101000a900473ffffffffffffffffffffffffffffffffffffffff1673ffffffffffffffffffffffffffffffffffffffff163373ffffffffffffffffffffffffffffffffffffffff1614612a16576040517f08c379a0000000000000000000000000000000000000000000000000000000008152600401612a0d9061570d565b60405180910390fd5b7fb532073b38c83145e3e5135377a08bf9aab55bc0fd7c1179cd4fb995d2a5159c60008054906101000a900473ffffffffffffffffffffffffffffffffffffffff16600160009054906101000a900473ffffffffffffffffffffffffffffffffffffffff16604051612a899291906155ea565b60405180910390a1600160009054906101000a900473ffffffffffffffffffffffffffffffffffffffff166000806101000a81548173ffffffffffffffffffffffffffffffffffffffff021916908373ffffffffffffffffffffffffffffffffffffffff1602179055506000600160006101000a81548173ffffffffffffffffffffffffffffffffffffffff021916908373ffffffffffffffffffffffffffffffffffffffff160217905550565b60095481565b6000612b4b42600854614194565b905090565b6000612bac612b5e836127d5565b601660008573ffffffffffffffffffffffffffffffffffffffff1673ffffffffffffffffffffffffffffffffffffffff16815260200190815260200160002054613c7590919063ffffffff16565b9050919050565b60008054906101000a900473ffffffffffffffffffffffffffffffffffffffff1673ffffffffffffffffffffffffffffffffffffffff163373ffffffffffffffffffffffffffffffffffffffff1614612c41576040517f08c379a0000000000000000000000000000000000000000000000000000000008152600401612c38906157ad565b60405180910390fd5b60008273ffffffffffffffffffffffffffffffffffffffff166395d89b416040518163ffffffff1660e01b815260040160006040518083038186803b158015612c8957600080fd5b505afa158015612c9d573d6000803e3d6000fd5b505050506040513d6000823e3d601f19601f82011682018060405250810190612cc69190614b2a565b805190602001206040518060400160405280600481526020017f465241580000000000000000000000000000000000000000000000000000000081525080519060200120149050600760009054906101000a900473ffffffffffffffffffffffffffffffffffffffff1673ffffffffffffffffffffffffffffffffffffffff168373ffffffffffffffffffffffffffffffffffffffff1614158015612db95750600660009054906101000a900473ffffffffffffffffffffffffffffffffffffffff1673ffffffffffffffffffffffffffffffffffffffff168373ffffffffffffffffffffffffffffffffffffffff1614155b8015612dc3575080155b612e02576040517f08c379a0000000000000000000000000000000000000000000000000000000008152600401612df99061588d565b60405180910390fd5b612e4d60008054906101000a900473ffffffffffffffffffffffffffffffffffffffff16838573ffffffffffffffffffffffffffffffffffffffff1661410e9092919063ffffffff16565b7f8c1256b8896378cd5044f80c202f9772b9d77dc85c8a6eb51967210b09bfaa288383604051612e7e92919061564a565b60405180910390a1505050565b60126020528060005260406000206000915090505481565b60008054906101000a900473ffffffffffffffffffffffffffffffffffffffff1681565b60045481565b600080612f99620f4240612f8b600560019054906101000a900473ffffffffffffffffffffffffffffffffffffffff1673ffffffffffffffffffffffffffffffffffffffff16632eb9771b6040518163ffffffff1660e01b815260040160206040518083038186803b158015612f4257600080fd5b505afa158015612f56573d6000803e3d6000fd5b505050506040513d601f19601f82011682018060405250810190612f7a9190614b94565b601154613cbf90919063ffffffff16565b613c2b90919063ffffffff16565b90506000612fc56001612fb784601154613c7590919063ffffffff16565b613d2f90919063ffffffff16565b9050809250505090565b600f5481565b600d5481565b60026003541415613021576040517f08c379a00000000000000000000000000000000000000000000000000000000081526004016130189061594d565b60405180910390fd5b6002600381905550600560009054906101000a900460ff1615613079576040517f08c379a00000000000000000000000000000000000000000000000000000000081526004016130709061582d565b60405180910390fd5b336008544211156130915761308c613d84565b6130ae565b613099613802565b600c819055506130a7612b3d565b600b819055505b600073ffffffffffffffffffffffffffffffffffffffff168173ffffffffffffffffffffffffffffffffffffffff1614613175576130eb81610995565b601360008373ffffffffffffffffffffffffffffffffffffffff1673ffffffffffffffffffffffffffffffffffffffff16815260200190815260200160002081905550600c54601260008373ffffffffffffffffffffffffffffffffffffffff1673ffffffffffffffffffffffffffffffffffffffff168152602001908152602001600020819055505b600082116131b8576040517f08c379a00000000000000000000000000000000000000000000000000000000081526004016131af9061576d565b60405180910390fd5b6131cd82601454613d2f90919063ffffffff16565b6014819055506131e882601554613d2f90919063ffffffff16565b60158190555061324082601660003373ffffffffffffffffffffffffffffffffffffffff1673ffffffffffffffffffffffffffffffffffffffff16815260200190815260200160002054613d2f90919063ffffffff16565b601660003373ffffffffffffffffffffffffffffffffffffffff1673ffffffffffffffffffffffffffffffffffffffff168152602001908152602001600020819055506132d582601760003373ffffffffffffffffffffffffffffffffffffffff1673ffffffffffffffffffffffffffffffffffffffff16815260200190815260200160002054613d2f90919063ffffffff16565b601760003373ffffffffffffffffffffffffffffffffffffffff1673ffffffffffffffffffffffffffffffffffffffff16815260200190815260200160002081905550613346600760009054906101000a900473ffffffffffffffffffffffffffffffffffffffff16333085613fd4565b3373ffffffffffffffffffffffffffffffffffffffff167f9e71bc8eea02a63969f509818f2dafb9254532904319f9dbda79b67bd34a5f3d8360405161338c919061598d565b60405180910390a250600160038190555050565b60008054906101000a900473ffffffffffffffffffffffffffffffffffffffff1673ffffffffffffffffffffffffffffffffffffffff163373ffffffffffffffffffffffffffffffffffffffff161461342e576040517f08c379a0000000000000000000000000000000000000000000000000000000008152600401613425906157ad565b60405180910390fd5b6001811015613472576040517f08c379a0000000000000000000000000000000000000000000000000000000008152600401613469906158ad565b60405180910390fd5b80600f81905550613482816141ad565b601090805190602001906134979291906148c6565b507f0534d208d75dfdbfacc1204745dd9b3c4c37e8cfc05eb5e8e3ae538aedb0a9fa816040516134c7919061598d565b60405180910390a150565b6000601360008373ffffffffffffffffffffffffffffffffffffffff1673ffffffffffffffffffffffffffffffffffffffff168152602001908152602001600020549050919050565b60008054906101000a900473ffffffffffffffffffffffffffffffffffffffff1673ffffffffffffffffffffffffffffffffffffffff163373ffffffffffffffffffffffffffffffffffffffff16146135a9576040517f08c379a00000000000000000000000000000000000000000000000000000000081526004016135a0906157ad565b60405180910390fd5b60018110156135ed576040517f08c379a00000000000000000000000000000000000000000000000000000000081526004016135e4906158ad565b60405180910390fd5b80600e819055507f0e3e3fae480c6f92291358a02bc83f04ee1971d5488596bffda7929d57ab470f600e54604051613625919061598d565b60405180910390a150565b6000600760009054906101000a900473ffffffffffffffffffffffffffffffffffffffff1673ffffffffffffffffffffffffffffffffffffffff1663313ce5676040518163ffffffff1660e01b815260040160206040518083038186803b15801561369a57600080fd5b505afa1580156136ae573d6000803e3d6000fd5b505050506040513d601f19601f820116820180604052508101906136d29190614bf9565b60ff16905090565b600b5481565b60008054906101000a900473ffffffffffffffffffffffffffffffffffffffff1673ffffffffffffffffffffffffffffffffffffffff163373ffffffffffffffffffffffffffffffffffffffff161461376e576040517f08c379a0000000000000000000000000000000000000000000000000000000008152600401613765906157ad565b60405180910390fd5b60006008541480613780575060085442115b6137bf576040517f08c379a00000000000000000000000000000000000000000000000000000000081526004016137b6906156ed565b60405180910390fd5b80600a819055507ffb46ca5a5e06d4540d6387b930a7c978bce0db5f449ec6b3f5d07c6e1d44f2d3600a546040516137f7919061598d565b60405180910390a150565b600080601454141561381857600c5490506138bb565b6138b86138a7601554613899620f424061388b670de0b6b3a764000061387d61383f612ecd565b61386f600954613861600b54613853612b3d565b613c7590919063ffffffff16565b613cbf90919063ffffffff16565b613cbf90919063ffffffff16565b613cbf90919063ffffffff16565b613c2b90919063ffffffff16565b613c2b90919063ffffffff16565b600c54613d2f90919063ffffffff16565b90505b90565b60115481565b600660009054906101000a900473ffffffffffffffffffffffffffffffffffffffff1681565b60008054906101000a900473ffffffffffffffffffffffffffffffffffffffff1673ffffffffffffffffffffffffffffffffffffffff163373ffffffffffffffffffffffffffffffffffffffff1614613978576040517f08c379a000000000000000000000000000000000000000000000000000000000815260040161396f906157ad565b60405180910390fd5b60018110156139bc576040517f08c379a00000000000000000000000000000000000000000000000000000000081526004016139b3906158ed565b60405180910390fd5b806011819055507f687125c69e38f71137de9edade0dac562abc4f76d751bb1330f16c0ffd51fd586011546040516139f4919061598d565b60405180910390a150565b600c5481565b600e5481565b613a53601660003373ffffffffffffffffffffffffffffffffffffffff1673ffffffffffffffffffffffffffffffffffffffff1681526020019081526020016000205461170c565b613a5b611e8a565b565b60008054906101000a900473ffffffffffffffffffffffffffffffffffffffff1673ffffffffffffffffffffffffffffffffffffffff163373ffffffffffffffffffffffffffffffffffffffff1614613aeb576040517f08c379a0000000000000000000000000000000000000000000000000000000008152600401613ae2906157ad565b60405180910390fd5b6001811015613b2f576040517f08c379a0000000000000000000000000000000000000000000000000000000008152600401613b269061584d565b60405180910390fd5b80600d819055507fa1676084a9eea08c6f205b60799323b364a1bd8e10aba89f0fbd94cfbf68b5dd600d54604051613b67919061598d565b60405180910390a150565b60085481565b60108054600181600116156101000203166002900480601f016020809104026020016040519081016040528092919081815260200182805460018160011615610100020316600290048015613c0e5780601f10613be357610100808354040283529160200191613c0e565b820191906000526020600020905b815481529060010190602001808311613bf157829003601f168201915b505050505081565b600854421115613c2957613c28613d84565b5b565b6000613c6d83836040518060400160405280601a81526020017f536166654d6174683a206469766973696f6e206279207a65726f0000000000008152506142f1565b905092915050565b6000613cb783836040518060400160405280601e81526020017f536166654d6174683a207375627472616374696f6e206f766572666c6f770000815250614352565b905092915050565b600080831415613cd25760009050613d29565b6000828402905082848281613ce357fe5b0414613d24576040517f08c379a0000000000000000000000000000000000000000000000000000000008152600401613d1b906157ed565b60405180910390fd5b809150505b92915050565b600080828401905083811015613d7a576040517f08c379a0000000000000000000000000000000000000000000000000000000008152600401613d719061578d565b60405180910390fd5b8091505092915050565b6000600a54613d9e60085442613c7590919063ffffffff16565b81613da557fe5b0490506000600660009054906101000a900473ffffffffffffffffffffffffffffffffffffffff1673ffffffffffffffffffffffffffffffffffffffff166370a08231306040518263ffffffff1660e01b8152600401613e0591906155cf565b60206040518083038186803b158015613e1d57600080fd5b505afa158015613e31573d6000803e3d6000fd5b505050506040513d601f19601f82011682018060405250810190613e559190614b94565b905080613eb2620f4240613ea460018601613e96613e71612ecd565b613e88600a54600954613cbf90919063ffffffff16565b613cbf90919063ffffffff16565b613cbf90919063ffffffff16565b613c2b90919063ffffffff16565b1115613ef3576040517f08c379a0000000000000000000000000000000000000000000000000000000008152600401613eea9061572d565b60405180910390fd5b613f1f613f0e600a5460018501613cbf90919063ffffffff16565b600854613d2f90919063ffffffff16565b600881905550613f2d613802565b600c81905550613f3b612b3d565b600b819055507f6f2b3b3aaf1881d69a5d40565500f93ea73df36e7b6a29bf48b21479a9237fe9600760009054906101000a900473ffffffffffffffffffffffffffffffffffffffff16604051613f9291906155cf565b60405180910390a15050565b6060613fcb84848460405180602001604052806000815250604051806020016040528060008152506143ad565b90509392505050565b600060608573ffffffffffffffffffffffffffffffffffffffff166323b872dd86868660405160240161400993929190615613565b6040516020818303038152906040529060e01b6020820180517bffffffffffffffffffffffffffffffffffffffffffffffffffffffff838183161783525050505060405161405791906155b8565b6000604051808303816000865af19150503d8060008114614094576040519150601f19603f3d011682016040523d82523d6000602084013e614099565b606091505b50915091508180156140c757506000815114806140c65750808060200190518101906140c59190614ad8565b5b5b614106576040517f08c379a00000000000000000000000000000000000000000000000000000000081526004016140fd9061592d565b60405180910390fd5b505050505050565b61418f8363a9059cbb60e01b848460405160240161412d92919061564a565b604051602081830303815290604052907bffffffffffffffffffffffffffffffffffffffffffffffffffffffff19166020820180517bffffffffffffffffffffffffffffffffffffffffffffffffffffffff838183161783525050505061467f565b505050565b60008183106141a357816141a5565b825b905092915050565b606060008214156141f5576040518060400160405280600181526020017f300000000000000000000000000000000000000000000000000000000000000081525090506142ec565b600082905060005b6000821461421f578080600101915050600a828161421757fe5b0491506141fd565b60608167ffffffffffffffff8111801561423857600080fd5b506040519080825280601f01601f19166020018201604052801561426b5781602001600182028036833780820191505090505b50905060006001830390505b600086146142e457600a868161428957fe5b0660300160f81b828280600190039350815181106142a357fe5b60200101907effffffffffffffffffffffffffffffffffffffffffffffffffffffffffffff1916908160001a905350600a86816142dc57fe5b049550614277565b819450505050505b919050565b60008083118290614338576040517f08c379a000000000000000000000000000000000000000000000000000000000815260040161432f91906156cb565b60405180910390fd5b50600083858161434457fe5b049050809150509392505050565b600083831115829061439a576040517f08c379a000000000000000000000000000000000000000000000000000000000815260040161439191906156cb565b60405180910390fd5b5060008385039050809150509392505050565b60608086905060608690506060869050606086905060608690506060815183518551875189510101010167ffffffffffffffff811180156143ed57600080fd5b506040519080825280601f01601f1916602001820160405280156144205781602001600182028036833780820191505090505b5090506060819050600080600090505b885181101561449e5788818151811061444557fe5b602001015160f81c60f81b83838060010194508151811061446257fe5b60200101907effffffffffffffffffffffffffffffffffffffffffffffffffffffffffffff1916908160001a9053508080600101915050614430565b600090505b8751811015614511578781815181106144b857fe5b602001015160f81c60f81b8383806001019450815181106144d557fe5b60200101907effffffffffffffffffffffffffffffffffffffffffffffffffffffffffffff1916908160001a90535080806001019150506144a3565b600090505b86518110156145845786818151811061452b57fe5b602001015160f81c60f81b83838060010194508151811061454857fe5b60200101907effffffffffffffffffffffffffffffffffffffffffffffffffffffffffffff1916908160001a9053508080600101915050614516565b600090505b85518110156145f75785818151811061459e57fe5b602001015160f81c60f81b8383806001019450815181106145bb57fe5b60200101907effffffffffffffffffffffffffffffffffffffffffffffffffffffffffffff1916908160001a9053508080600101915050614589565b600090505b845181101561466a5784818151811061461157fe5b602001015160f81c60f81b83838060010194508151811061462e57fe5b60200101907effffffffffffffffffffffffffffffffffffffffffffffffffffffffffffff1916908160001a90535080806001019150506145fc565b82995050505050505050505095945050505050565b60606146e1826040518060400160405280602081526020017f5361666545524332303a206c6f772d6c6576656c2063616c6c206661696c65648152508573ffffffffffffffffffffffffffffffffffffffff166147469092919063ffffffff16565b905060008151111561474157808060200190518101906147019190614ad8565b614740576040517f08c379a00000000000000000000000000000000000000000000000000000000081526004016147379061590d565b60405180910390fd5b5b505050565b6060614755848460008561475e565b90509392505050565b606061476985614881565b6147a8576040517f08c379a000000000000000000000000000000000000000000000000000000000815260040161479f9061586d565b60405180910390fd5b600060608673ffffffffffffffffffffffffffffffffffffffff1685876040516147d291906155b8565b60006040518083038185875af1925050503d806000811461480f576040519150601f19603f3d011682016040523d82523d6000602084013e614814565b606091505b50915091508115614829578092505050614879565b60008151111561483c5780518082602001fd5b836040517f08c379a000000000000000000000000000000000000000000000000000000000815260040161487091906156cb565b60405180910390fd5b949350505050565b600080823b905060008111915050919050565b6040518060a0016040528060008019168152602001600081526020016000815260200160008152602001600081525090565b828054600181600116156101000203166002900490600052602060002090601f016020900481019282601f1061490757805160ff1916838001178555614935565b82800160010185558215614935579182015b82811115614934578251825591602001919060010190614919565b5b5090506149429190614946565b5090565b5b8082111561495f576000816000905550600101614947565b5090565b60008135905061497281615bd2565b92915050565b60008135905061498781615be9565b92915050565b60008151905061499c81615be9565b92915050565b6000813590506149b181615c00565b92915050565b600082601f8301126149c857600080fd5b81516149db6149d682615a27565b6159fa565b915080825260208301602083018583830111156149f757600080fd5b614a02838284615b53565b50505092915050565b600081359050614a1a81615c17565b92915050565b600081519050614a2f81615c17565b92915050565b600081519050614a4481615c2e565b92915050565b600060208284031215614a5c57600080fd5b6000614a6a84828501614963565b91505092915050565b60008060408385031215614a8657600080fd5b6000614a9485828601614963565b9250506020614aa585828601614a0b565b9150509250929050565b600060208284031215614ac157600080fd5b6000614acf84828501614978565b91505092915050565b600060208284031215614aea57600080fd5b6000614af88482850161498d565b91505092915050565b600060208284031215614b1357600080fd5b6000614b21848285016149a2565b91505092915050565b600060208284031215614b3c57600080fd5b600082015167ffffffffffffffff811115614b5657600080fd5b614b62848285016149b7565b91505092915050565b600060208284031215614b7d57600080fd5b6000614b8b84828501614a0b565b91505092915050565b600060208284031215614ba657600080fd5b6000614bb484828501614a20565b91505092915050565b60008060408385031215614bd057600080fd5b6000614bde85828601614a0b565b9250506020614bef85828601614a0b565b9150509250929050565b600060208284031215614c0b57600080fd5b6000614c1984828501614a35565b91505092915050565b6000614c2e83836154de565b60a08301905092915050565b614c4b614c4682615ad0565b615b86565b82525050565b614c5a81615abe565b82525050565b6000614c6b82615a63565b614c758185615a91565b9350614c8083615a53565b8060005b83811015614cb1578151614c988882614c22565b9750614ca383615a84565b925050600181019050614c84565b5085935050505092915050565b614cc781615ae2565b82525050565b614cd681615aee565b82525050565b614ce581615aee565b82525050565b6000614cf682615a6e565b614d008185615aa2565b9350614d10818560208601615b53565b80840191505092915050565b614d2581615b2f565b82525050565b6000614d3682615a79565b614d408185615aad565b9350614d50818560208601615b53565b614d5981615bb4565b840191505092915050565b6000614d71605883615aad565b91507f50726576696f7573207265776172647320706572696f64206d7573742062652060008301527f636f6d706c657465206265666f7265206368616e67696e67207468652064757260208301527f6174696f6e20666f7220746865206e657720706572696f6400000000000000006040830152606082019050919050565b6000614dfd603583615aad565b91507f596f75206d757374206265206e6f6d696e61746564206265666f726520796f7560008301527f2063616e20616363657074206f776e65727368697000000000000000000000006020830152604082019050919050565b6000614e63602583615aad565b91507f4e6f7420656e6f7567682046585320617661696c61626c6520666f722072657760008301527f61726473210000000000000000000000000000000000000000000000000000006020830152604082019050919050565b6000614ec9601683615aad565b91507f5374616b65206973207374696c6c206c6f636b656421000000000000000000006000830152602082019050919050565b6000614f09600e83615aad565b91507f43616e6e6f74207374616b6520300000000000000000000000000000000000006000830152602082019050919050565b6000614f49601b83615aad565b91507f536166654d6174683a206164646974696f6e206f766572666c6f7700000000006000830152602082019050919050565b6000614f89602f83615aad565b91507f4f6e6c792074686520636f6e7472616374206f776e6572206d6179207065726660008301527f6f726d207468697320616374696f6e00000000000000000000000000000000006020830152604082019050919050565b6000614fef601183615aad565b91507f43616e6e6f7420776974686472617720300000000000000000000000000000006000830152602082019050919050565b600061502f602183615aad565b91507f536166654d6174683a206d756c7469706c69636174696f6e206f766572666c6f60008301527f77000000000000000000000000000000000000000000000000000000000000006020830152604082019050919050565b6000615095601883615aad565b91507f50726f76696465642072657761726420746f6f206869676800000000000000006000830152602082019050919050565b60006150d5603c83615aad565b91507f5468697320616374696f6e2063616e6e6f7420626520706572666f726d65642060008301527f7768696c652074686520636f6e747261637420697320706175736564000000006020830152604082019050919050565b600061513b602d83615aad565b91507f4d756c7469706c696572206d7573742062652067726561746572207468616e2060008301527f6f7220657175616c20746f2031000000000000000000000000000000000000006020830152604082019050919050565b60006151a1601d83615aad565b91507f416464726573733a2063616c6c20746f206e6f6e2d636f6e74726163740000006000830152602082019050919050565b60006151e1602d83615aad565b91507f43616e6e6f7420776974686472617720746865207374616b696e67206f72207260008301527f65776172647320746f6b656e73000000000000000000000000000000000000006020830152604082019050919050565b6000615247603683615aad565b91507f4d756c7469706c696572204d61782054696d65206d757374206265206772656160008301527f746572207468616e206f7220657175616c20746f2031000000000000000000006020830152604082019050919050565b60006152ad602a83615aad565b91507f43616c6c6572206973206e6f742052657761726473446973747269627574696f60008301527f6e20636f6e7472616374000000000000000000000000000000000000000000006020830152604082019050919050565b6000615313602f83615aad565b91507f4d617820435220426f6f7374206d75737420626520677265617465722074686160008301527f6e206f7220657175616c20746f203100000000000000000000000000000000006020830152604082019050919050565b6000615379602a83615aad565b91507f5361666545524332303a204552433230206f7065726174696f6e20646964206e60008301527f6f742073756363656564000000000000000000000000000000000000000000006020830152604082019050919050565b60006153df602483615aad565b91507f5472616e7366657248656c7065723a205452414e534645525f46524f4d5f464160008301527f494c4544000000000000000000000000000000000000000000000000000000006020830152604082019050919050565b6000615445601f83615aad565b91507f5265656e7472616e637947756172643a207265656e7472616e742063616c6c006000830152602082019050919050565b6000615485602183615aad565b91507f43616e6e6f74207761697420666f722061206e65676174697665206e756d626560008301527f72000000000000000000000000000000000000000000000000000000000000006020830152604082019050919050565b60a0820160008201516154f46000850182614ccd565b5060208201516155076020850182615546565b50604082015161551a6040850182615546565b50606082015161552d6060850182615546565b5060808201516155406080850182615546565b50505050565b61554f81615b18565b82525050565b61555e81615b18565b82525050565b61557561557082615b18565b615baa565b82525050565b60006155878286614c3a565b6014820191506155978285615564565b6020820191506155a78284615564565b602082019150819050949350505050565b60006155c48284614ceb565b915081905092915050565b60006020820190506155e46000830184614c51565b92915050565b60006040820190506155ff6000830185614c51565b61560c6020830184614c51565b9392505050565b60006060820190506156286000830186614c51565b6156356020830185614c51565b6156426040830184615555565b949350505050565b600060408201905061565f6000830185614c51565b61566c6020830184615555565b9392505050565b6000602082019050818103600083015261568d8184614c60565b905092915050565b60006020820190506156aa6000830184614cbe565b92915050565b60006020820190506156c56000830184614d1c565b92915050565b600060208201905081810360008301526156e58184614d2b565b905092915050565b6000602082019050818103600083015261570681614d64565b9050919050565b6000602082019050818103600083015261572681614df0565b9050919050565b6000602082019050818103600083015261574681614e56565b9050919050565b6000602082019050818103600083015261576681614ebc565b9050919050565b6000602082019050818103600083015261578681614efc565b9050919050565b600060208201905081810360008301526157a681614f3c565b9050919050565b600060208201905081810360008301526157c681614f7c565b9050919050565b600060208201905081810360008301526157e681614fe2565b9050919050565b6000602082019050818103600083015261580681615022565b9050919050565b6000602082019050818103600083015261582681615088565b9050919050565b60006020820190508181036000830152615846816150c8565b9050919050565b600060208201905081810360008301526158668161512e565b9050919050565b6000602082019050818103600083015261588681615194565b9050919050565b600060208201905081810360008301526158a6816151d4565b9050919050565b600060208201905081810360008301526158c68161523a565b9050919050565b600060208201905081810360008301526158e6816152a0565b9050919050565b6000602082019050818103600083015261590681615306565b9050919050565b600060208201905081810360008301526159268161536c565b9050919050565b60006020820190508181036000830152615946816153d2565b9050919050565b6000602082019050818103600083015261596681615438565b9050919050565b6000602082019050818103600083015261598681615478565b9050919050565b60006020820190506159a26000830184615555565b92915050565b60006040820190506159bd6000830185615555565b6159ca6020830184614cdc565b9392505050565b60006040820190506159e66000830185615555565b6159f36020830184615555565b9392505050565b6000604051905081810181811067ffffffffffffffff82111715615a1d57600080fd5b8060405250919050565b600067ffffffffffffffff821115615a3e57600080fd5b601f19601f8301169050602081019050919050565b6000819050602082019050919050565b600081519050919050565b600081519050919050565b600081519050919050565b6000602082019050919050565b600082825260208201905092915050565b600081905092915050565b600082825260208201905092915050565b6000615ac982615af8565b9050919050565b6000615adb82615af8565b9050919050565b60008115159050919050565b6000819050919050565b600073ffffffffffffffffffffffffffffffffffffffff82169050919050565b6000819050919050565b600060ff82169050919050565b6000615b3a82615b41565b9050919050565b6000615b4c82615af8565b9050919050565b60005b83811015615b71578082015181840152602081019050615b56565b83811115615b80576000848401525b50505050565b6000615b9182615b98565b9050919050565b6000615ba382615bc5565b9050919050565b6000819050919050565b6000601f19601f8301169050919050565b60008160601b9050919050565b615bdb81615abe565b8114615be657600080fd5b50565b615bf281615ae2565b8114615bfd57600080fd5b50565b615c0981615aee565b8114615c1457600080fd5b50565b615c2081615b18565b8114615c2b57600080fd5b50565b615c3781615b22565b8114615c4257600080fd5b5056fea2646970667358221220cf31a1717a168e9f20e90123e2645f16c19d5072962099c632ab99a7b9da5c2764736f6c634300060c0033",
  "immutableReferences": {},
  "source": "// SPDX-License-Identifier: MIT\npragma solidity ^0.6.0 <0.7.0;\npragma experimental ABIEncoderV2;\n\n// Stolen with love from Synthetixio\n// https://raw.githubusercontent.com/Synthetixio/synthetix/develop/contracts/StakingRewards.sol\n\nimport \"../Math/Math.sol\";\nimport \"../Math/SafeMath.sol\";\nimport \"../ERC20/ERC20.sol\";\nimport '../Uniswap/TransferHelper.sol';\nimport \"../ERC20/SafeERC20.sol\";\nimport \"../Frax/Frax.sol\";\nimport \"../Utils/ReentrancyGuard.sol\";\nimport \"../Utils/StringHelpers.sol\";\n\n// Inheritance\nimport \"./IStakingRewards.sol\";\nimport \"./RewardsDistributionRecipient.sol\";\nimport \"./Pausable.sol\";\n\ncontract StakingRewards is IStakingRewards, RewardsDistributionRecipient, ReentrancyGuard, Pausable {\n    using SafeMath for uint256;\n    using SafeERC20 for ERC20;\n\n    /* ========== STATE VARIABLES ========== */\n\n    FRAXStablecoin private FRAX;\n    ERC20 public rewardsToken;\n    ERC20 public stakingToken;\n    uint256 public periodFinish;\n\n    // Max reward per second\n    uint256 public rewardRate = (uint256(51000000e18)).div(10 * (365 * 86400)); // 51M FXS over 10 years\n\n    // uint256 public rewardsDuration = 86400 hours;\n    uint256 public rewardsDuration = 7 * 86400; // 7 days\n\n    uint256 public lastUpdateTime;\n    uint256 public rewardPerTokenStored = 0;\n\n    uint256 public locked_stake_max_multiplier = 3000000; // 6 decimals of precision. 1x = 1000000\n    uint256 public locked_stake_time_for_max_multiplier = 365 * 86400; // 1 year\n    uint256 public locked_stake_min_time = 7 * 86400; // 7 days\n    string public locked_stake_min_time_str = \"604800\"; // 7 days\n\n    uint256 public cr_boost_max_multiplier = 2000000; // 6 decimals of precision. 1x = 0\n\n    mapping(address => uint256) public userRewardPerTokenPaid;\n    mapping(address => uint256) public rewards;\n\n    uint256 private _staking_token_supply = 0;\n    uint256 private _staking_token_boosted_supply = 0;\n    mapping(address => uint256) private _balances;\n    mapping(address => uint256) private _boosted_balances;\n\n    mapping(address => LockedStake[]) private lockedStakes;\n\n    struct LockedStake {\n        bytes32 kek_id;\n        uint256 start_timestamp;\n        uint256 amount;\n        uint256 ending_timestamp;\n        uint256 multiplier; // 6 decimals of precision. 1x = 1000000\n    }\n\n    /* ========== CONSTRUCTOR ========== */\n\n    constructor(\n        address _owner,\n        address _rewardsDistribution,\n        address _rewardsToken,\n        address _stakingToken,\n        address _frax_address\n    ) public Owned(_owner) {\n        rewardsToken = ERC20(_rewardsToken);\n        stakingToken = ERC20(_stakingToken);\n        FRAX = FRAXStablecoin(_frax_address);\n        rewardsDistribution = _rewardsDistribution;\n        lastUpdateTime = block.timestamp;\n    }\n\n    /* ========== VIEWS ========== */\n\n    function totalSupply() external override view returns (uint256) {\n        return _staking_token_supply;\n    }\n\n    function stakingMultiplier(uint256 secs) public view returns (uint256) {\n        uint256 multiplier = 1000000 + secs.mul(locked_stake_max_multiplier.sub(1)).div(locked_stake_time_for_max_multiplier);\n        if (multiplier > locked_stake_max_multiplier) multiplier = locked_stake_max_multiplier;\n        return multiplier;\n    }\n\n    function crBoostMultiplier() public view returns (uint256) {\n        uint256 boost_to_subtract = cr_boost_max_multiplier.mul(FRAX.global_collateral_ratio()).div(1e6);\n        uint256 multiplier = (cr_boost_max_multiplier.sub(boost_to_subtract)).add(1);\n        return multiplier;\n    }\n\n    function stakingTokenSupply() external view returns (uint256) {\n        return _staking_token_supply;\n    }\n\n    function balanceOf(address account) external override view returns (uint256) {\n        return _balances[account];\n    }\n\n    function boostedBalanceOf(address account) external view returns (uint256) {\n        return _boosted_balances[account];\n    }\n\n\n    function lockedBalanceOf(address account) public view returns (uint256) {\n        uint256 total_locked_balance = 0;\n        for (uint i = 0; i < lockedStakes[account].length; i++){ \n            if ( block.timestamp < lockedStakes[account][i].ending_timestamp ){\n                total_locked_balance += lockedStakes[account][i].amount;\n            }\n        }\n        return total_locked_balance;\n    }\n\n    function unlockedBalanceOf(address account) external view returns (uint256) {\n        return (_balances[account]).sub(lockedBalanceOf(account));\n    }\n\n\n    function lockedStakesOf(address account) external view returns (LockedStake[] memory) {\n        return lockedStakes[account];\n    }\n\n    function stakingDecimals() external view returns (uint256) {\n        return stakingToken.decimals();\n    }\n\n    function rewardsFor(address account) external view returns (uint256) {\n        // You may have use earned() instead, because of the order in which the contract executes \n        return rewards[account];\n    }\n\n    function lastTimeRewardApplicable() public override view returns (uint256) {\n        return Math.min(block.timestamp, periodFinish);\n    }\n\n    function rewardPerToken() public override view returns (uint256) {\n        if (_staking_token_supply == 0) {\n            return rewardPerTokenStored;\n        }\n        else {\n            // return lastTimeRewardApplicable().sub(lastUpdateTime);\n            return rewardPerTokenStored.add(\n                lastTimeRewardApplicable().sub(lastUpdateTime).mul(rewardRate).mul(crBoostMultiplier()).mul(1e18).div(1e6).div(_staking_token_boosted_supply)\n            );\n            // rewardPerTokenStored.add(\n            //     lastTimeRewardApplicable().sub(lastUpdateTime).mul(rewardRate).div(_staking_token_supply)\n            // );\n        }\n    }\n\n    function earned(address account) public override view returns (uint256) {\n        return _boosted_balances[account].mul(rewardPerToken().sub(userRewardPerTokenPaid[account])).div(1e18).add(rewards[account]);\n    }\n\n    // function earned(address account) public override view returns (uint256) {\n    //     return _balances[account].mul(rewardPerToken().sub(userRewardPerTokenPaid[account])).add(rewards[account]);\n    // }\n\n    function getRewardForDuration() external override view returns (uint256) {\n        return rewardRate.mul(rewardsDuration).mul(crBoostMultiplier()).div(1e6);\n    }\n\n    /* ========== MUTATIVE FUNCTIONS ========== */\n\n    function stake(uint256 amount) external override nonReentrant notPaused updateReward(msg.sender) {\n        require(amount > 0, \"Cannot stake 0\");\n\n        // Staking token supply and boosted supply\n        _staking_token_supply = _staking_token_supply.add(amount);\n        _staking_token_boosted_supply = _staking_token_boosted_supply.add(amount);\n\n        // Staking token balance and boosted balance\n        _balances[msg.sender] = _balances[msg.sender].add(amount);\n        _boosted_balances[msg.sender] = _boosted_balances[msg.sender].add(amount);\n\n        // Pull the tokens from the staker\n        TransferHelper.safeTransferFrom(address(stakingToken), msg.sender, address(this), amount);\n        emit Staked(msg.sender, amount);\n    }\n\n    function stakeLocked(uint256 amount, uint256 secs) external nonReentrant notPaused updateReward(msg.sender) {\n        require(amount > 0, \"Cannot stake 0\");\n        require(secs > 0, \"Cannot wait for a negative number\");\n        require(secs >= locked_stake_min_time, StringHelpers.strConcat(\"Minimum stake time not met (\", locked_stake_min_time_str, \")\") );\n\n        uint256 multiplier = stakingMultiplier(secs);\n        uint256 boostedAmount = amount.mul(multiplier).div(1e6);\n        lockedStakes[msg.sender].push(LockedStake(\n            keccak256(abi.encodePacked(msg.sender, block.timestamp, amount)),\n            block.timestamp,\n            amount,\n            block.timestamp.add(secs),\n            multiplier\n        ));\n\n        // Staking token supply and boosted supply\n        _staking_token_supply = _staking_token_supply.add(amount);\n        _staking_token_boosted_supply = _staking_token_boosted_supply.add(boostedAmount);\n\n        // Staking token balance and boosted balance\n        _balances[msg.sender] = _balances[msg.sender].add(amount);\n        _boosted_balances[msg.sender] = _boosted_balances[msg.sender].add(boostedAmount);\n\n        // Pull the tokens from the staker\n        TransferHelper.safeTransferFrom(address(stakingToken), msg.sender, address(this), amount);\n        \n        emit Staked(msg.sender, amount);\n        emit StakeLocked(msg.sender, amount, secs);\n    }\n\n    function withdraw(uint256 amount) public override nonReentrant updateReward(msg.sender) {\n        require(amount > 0, \"Cannot withdraw 0\");\n\n        // Staking token supply and boosted supply\n        _staking_token_supply = _staking_token_supply.sub(amount);\n        _staking_token_boosted_supply = _staking_token_boosted_supply.sub(amount);\n\n        // Staking token balance and boosted balance\n        _balances[msg.sender] = _balances[msg.sender].sub(amount);\n        _boosted_balances[msg.sender] = _boosted_balances[msg.sender].sub(amount);\n\n        // Give the tokens to the withdrawer\n        stakingToken.safeTransfer(msg.sender, amount);\n        emit Withdrawn(msg.sender, amount);\n    }\n\n    function withdrawLocked(bytes32 kek_id) public nonReentrant updateReward(msg.sender) {\n        LockedStake memory thisStake;\n        uint theIndex;\n        for (uint i = 0; i < lockedStakes[msg.sender].length; i++){ \n            if (kek_id == lockedStakes[msg.sender][i].kek_id){\n                thisStake = lockedStakes[msg.sender][i];\n                theIndex = i;\n                break;\n            }\n        }\n        require(block.timestamp >= thisStake.ending_timestamp, \"Stake is still locked!\");\n\n        uint256 theAmount = thisStake.amount;\n        uint256 boostedAmount = theAmount.mul(thisStake.multiplier).div(1e6);\n        if (theAmount > 0){\n            // Staking token supply and boosted supply\n            _staking_token_supply = _staking_token_supply.sub(theAmount);\n            _staking_token_boosted_supply = _staking_token_boosted_supply.sub(boostedAmount);\n\n            // Staking token balance and boosted balance\n            _balances[msg.sender] = _balances[msg.sender].sub(theAmount);\n            _boosted_balances[msg.sender] = _boosted_balances[msg.sender].sub(boostedAmount);\n\n            // Give the tokens to the withdrawer\n            stakingToken.safeTransfer(msg.sender, theAmount);\n\n            // Remove the stake from the array\n            delete lockedStakes[msg.sender][theIndex];\n\n            emit Withdrawn(msg.sender, theAmount);\n            emit WithdrawnLocked(msg.sender, theAmount, kek_id);\n        }\n\n    }\n\n    function getReward() public override nonReentrant updateReward(msg.sender) {\n        uint256 reward = rewards[msg.sender];\n        if (reward > 0) {\n            rewards[msg.sender] = 0;\n            rewardsToken.safeTransfer(msg.sender, reward);\n            emit RewardPaid(msg.sender, reward);\n        }\n    }\n\n    function exit() external override {\n        withdraw(_balances[msg.sender]);\n\n        // TODO: Add locked stakes too?\n\n        getReward();\n    }\n\n    function renewIfApplicable() external {\n        if (block.timestamp > periodFinish) {\n            retroCatchUp();\n        }\n    }\n\n    // If the period expired, renew it\n    function retroCatchUp() internal {\n        // Ensure the provided reward amount is not more than the balance in the contract.\n        // This keeps the reward rate in the right range, preventing overflows due to\n        // very high values of rewardRate in the earned and rewardsPerToken functions;\n        // Reward + leftover must be less than 2^256 / 10^18 to avoid overflow.\n        uint256 num_periods_elapsed = uint256(block.timestamp.sub(periodFinish)) / rewardsDuration; // Floor division to the nearest period\n        uint balance = rewardsToken.balanceOf(address(this));\n        require(rewardRate.mul(rewardsDuration).mul(crBoostMultiplier()).mul(num_periods_elapsed + 1).div(1e6) <= balance, \"Not enough FXS available for rewards!\");\n\n        // uint256 old_lastUpdateTime = lastUpdateTime;\n        // uint256 new_lastUpdateTime = block.timestamp;\n\n        // lastUpdateTime = periodFinish;\n        periodFinish = periodFinish.add((num_periods_elapsed + 1).mul(rewardsDuration));\n\n        rewardPerTokenStored = rewardPerToken();\n        lastUpdateTime = lastTimeRewardApplicable();\n\n        emit RewardsPeriodRenewed(address(stakingToken));\n    }\n\n    /* ========== RESTRICTED FUNCTIONS ========== */\n\n    // This notifies people that the reward is being changed\n    function notifyRewardAmount(uint256 reward) external override onlyRewardsDistribution updateReward(address(0)) {\n        if (block.timestamp >= periodFinish) {\n            rewardRate = reward.mul(crBoostMultiplier()).div(rewardsDuration).div(1e6);\n        } else {\n            uint256 remaining = periodFinish.sub(block.timestamp);\n            uint256 leftover = remaining.mul(rewardRate);\n            rewardRate = reward.mul(crBoostMultiplier()).add(leftover).div(rewardsDuration).div(1e6);\n        }\n\n        // Ensure the provided reward amount is not more than the balance in the contract.\n        // This keeps the reward rate in the right range, preventing overflows due to\n        // very high values of rewardRate in the earned and rewardsPerToken functions;\n        // Reward + leftover must be less than 2^256 / 10^18 to avoid overflow.\n        uint balance = rewardsToken.balanceOf(address(this));\n        require(rewardRate <= balance.div(rewardsDuration), \"Provided reward too high\");\n\n        lastUpdateTime = block.timestamp;\n        periodFinish = block.timestamp.add(rewardsDuration);\n        emit RewardAdded(reward);\n    }\n\n    // Added to support recovering LP Rewards from other systems to be distributed to holders\n    function recoverERC20(address tokenAddress, uint256 tokenAmount) external onlyOwner {\n        // If it's FRAX we have to query the token symbol to ensure its not a proxy or underlying\n        bool isFRAX = (keccak256(bytes(\"FRAX\")) == keccak256(bytes(ERC20(tokenAddress).symbol())));\n        // Cannot recover the staking token or the rewards token\n        require(\n            tokenAddress != address(stakingToken) && tokenAddress != address(rewardsToken) && !isFRAX,\n            \"Cannot withdraw the staking or rewards tokens\"\n        );\n        ERC20(tokenAddress).safeTransfer(owner, tokenAmount);\n        emit Recovered(tokenAddress, tokenAmount);\n    }\n\n    function setRewardsDuration(uint256 _rewardsDuration) external onlyOwner {\n        require(\n            periodFinish == 0 || block.timestamp > periodFinish,\n            \"Previous rewards period must be complete before changing the duration for the new period\"\n        );\n        rewardsDuration = _rewardsDuration;\n        emit RewardsDurationUpdated(rewardsDuration);\n    }\n\n    function setLockedStakeMaxMultiplierUpdated(uint256 _locked_stake_max_multiplier) external onlyOwner {\n        require(_locked_stake_max_multiplier >= 1, \"Multiplier must be greater than or equal to 1\");\n        locked_stake_max_multiplier = _locked_stake_max_multiplier;\n        emit LockedStakeMaxMultiplierUpdated(locked_stake_max_multiplier);\n    }\n\n    function setLockedStakeTimeForMaxMultiplier(uint256 _locked_stake_time_for_max_multiplier) external onlyOwner {\n        require(_locked_stake_time_for_max_multiplier >= 1, \"Multiplier Max Time must be greater than or equal to 1\");\n        locked_stake_time_for_max_multiplier = _locked_stake_time_for_max_multiplier;\n        emit LockedStakeTimeForMaxMultiplier(locked_stake_time_for_max_multiplier);\n    }\n\n    function setLockedStakeMinTime(uint256 _locked_stake_min_time) external onlyOwner {\n        require(_locked_stake_min_time >= 1, \"Multiplier Max Time must be greater than or equal to 1\");\n        locked_stake_min_time = _locked_stake_min_time;\n        locked_stake_min_time_str = StringHelpers.uint2str(_locked_stake_min_time);\n        emit LockedStakeMinTime(_locked_stake_min_time);\n    }\n\n    function setMaxCRBoostMultiplier(uint256 _max_boost_multiplier) external onlyOwner {\n        require(_max_boost_multiplier >= 1, \"Max CR Boost must be greater than or equal to 1\");\n        cr_boost_max_multiplier = _max_boost_multiplier;\n        emit MaxCRBoostMultiplier(cr_boost_max_multiplier);\n    }\n\n    function initializeDefault() external onlyOwner {\n        lastUpdateTime = block.timestamp;\n        periodFinish = block.timestamp.add(rewardsDuration);\n        emit DefaultInitialization();\n    }\n\n    /* ========== MODIFIERS ========== */\n\n    modifier updateReward(address account) {\n        // Need to retro-adjust some things if the period hasn't been renewed, then start a new one\n        if (block.timestamp > periodFinish) {\n            retroCatchUp();\n        }\n        else {\n            rewardPerTokenStored = rewardPerToken();\n            lastUpdateTime = lastTimeRewardApplicable();\n        }\n        if (account != address(0)) {\n            rewards[account] = earned(account);\n            userRewardPerTokenPaid[account] = rewardPerTokenStored;\n        }\n        _;\n    }\n\n    /* ========== EVENTS ========== */\n\n    event RewardAdded(uint256 reward);\n    event Staked(address indexed user, uint256 amount);\n    event StakeLocked(address indexed user, uint256 amount, uint256 secs);\n    event Withdrawn(address indexed user, uint256 amount);\n    event WithdrawnLocked(address indexed user, uint256 amount, bytes32 kek_id);\n    event RewardPaid(address indexed user, uint256 reward);\n    event RewardsDurationUpdated(uint256 newDuration);\n    event Recovered(address token, uint256 amount);\n    event RewardsPeriodRenewed(address token);\n    event DefaultInitialization();\n    event LockedStakeMaxMultiplierUpdated(uint256 multiplier);\n    event LockedStakeTimeForMaxMultiplier(uint256 secs);\n    event LockedStakeMinTime(uint256 secs);\n    event MaxCRBoostMultiplier(uint256 multiplier);\n}",
  "sourcePath": "/home/travis/Documents/Ubuntu_Shared/frax-price-feed/src/truffle/contracts/Staking/StakingRewards.sol",
  "compiler": {
    "name": "solc",
    "version": "0.6.12+commit.27d51765.Emscripten.clang"
  },
  "schemaVersion": "3.2.4",
  "updatedAt": "2020-10-08T23:05:43.563Z",
  "devdoc": {
    "kind": "dev",
    "methods": {
      "setPaused(bool)": {
        "details": "Only the contract owner may call this."
      }
    },
    "version": 1
  },
  "userdoc": {
    "kind": "user",
    "methods": {
      "setPaused(bool)": {
        "notice": "Change the paused state of the contract"
      }
    },
    "version": 1
  }
}