{
  "contractName": "UniswapPairOracle_FRAX_USDC",
  "abi": [
    {
      "inputs": [
        {
          "internalType": "address",
          "name": "factory",
          "type": "address"
        },
        {
          "internalType": "address",
          "name": "tokenA",
          "type": "address"
        },
        {
          "internalType": "address",
          "name": "tokenB",
          "type": "address"
        }
      ],
      "stateMutability": "nonpayable",
      "type": "constructor"
    },
    {
      "inputs": [],
      "name": "PERIOD",
      "outputs": [
        {
          "internalType": "uint256",
          "name": "",
          "type": "uint256"
        }
      ],
      "stateMutability": "view",
      "type": "function",
      "constant": true
    },
    {
      "inputs": [],
      "name": "blockTimestampLast",
      "outputs": [
        {
          "internalType": "uint32",
          "name": "",
          "type": "uint32"
        }
      ],
      "stateMutability": "view",
      "type": "function",
      "constant": true
    },
    {
      "inputs": [
        {
          "internalType": "address",
          "name": "token",
          "type": "address"
        },
        {
          "internalType": "uint256",
          "name": "amountIn",
          "type": "uint256"
        }
      ],
      "name": "consult",
      "outputs": [
        {
          "internalType": "uint256",
          "name": "amountOut",
          "type": "uint256"
        }
      ],
      "stateMutability": "view",
      "type": "function",
      "constant": true
    },
    {
      "inputs": [],
      "name": "pair",
      "outputs": [
        {
          "internalType": "contract IUniswapV2Pair",
          "name": "",
          "type": "address"
        }
      ],
      "stateMutability": "view",
      "type": "function",
      "constant": true
    },
    {
      "inputs": [],
      "name": "price0Average",
      "outputs": [
        {
          "internalType": "uint224",
          "name": "_x",
          "type": "uint224"
        }
      ],
      "stateMutability": "view",
      "type": "function",
      "constant": true
    },
    {
      "inputs": [],
      "name": "price0CumulativeLast",
      "outputs": [
        {
          "internalType": "uint256",
          "name": "",
          "type": "uint256"
        }
      ],
      "stateMutability": "view",
      "type": "function",
      "constant": true
    },
    {
      "inputs": [],
      "name": "price1Average",
      "outputs": [
        {
          "internalType": "uint224",
          "name": "_x",
          "type": "uint224"
        }
      ],
      "stateMutability": "view",
      "type": "function",
      "constant": true
    },
    {
      "inputs": [],
      "name": "price1CumulativeLast",
      "outputs": [
        {
          "internalType": "uint256",
          "name": "",
          "type": "uint256"
        }
      ],
      "stateMutability": "view",
      "type": "function",
      "constant": true
    },
    {
      "inputs": [],
      "name": "token0",
      "outputs": [
        {
          "internalType": "address",
          "name": "",
          "type": "address"
        }
      ],
      "stateMutability": "view",
      "type": "function",
      "constant": true
    },
    {
      "inputs": [],
      "name": "token1",
      "outputs": [
        {
          "internalType": "address",
          "name": "",
          "type": "address"
        }
      ],
      "stateMutability": "view",
      "type": "function",
      "constant": true
    },
    {
      "inputs": [],
      "name": "update",
      "outputs": [],
      "stateMutability": "nonpayable",
      "type": "function"
    }
  ],
  "bytecode": "0x60e06040523480156200001157600080fd5b506040516200177a3803806200177a833981810160405260608110156200003757600080fd5b81019080805190602001909291908051906020019092919080519060200190929190505050828282600062000079848484620004b660201b6200083e1760201c565b90508073ffffffffffffffffffffffffffffffffffffffff1660808173ffffffffffffffffffffffffffffffffffffffff1660601b815250508073ffffffffffffffffffffffffffffffffffffffff16630dfe16816040518163ffffffff1660e01b815260040160206040518083038186803b158015620000f957600080fd5b505afa1580156200010e573d6000803e3d6000fd5b505050506040513d60208110156200012557600080fd5b810190808051906020019092919050505073ffffffffffffffffffffffffffffffffffffffff1660a08173ffffffffffffffffffffffffffffffffffffffff1660601b815250508073ffffffffffffffffffffffffffffffffffffffff1663d21220a76040518163ffffffff1660e01b815260040160206040518083038186803b158015620001b357600080fd5b505afa158015620001c8573d6000803e3d6000fd5b505050506040513d6020811015620001df57600080fd5b810190808051906020019092919050505073ffffffffffffffffffffffffffffffffffffffff1660c08173ffffffffffffffffffffffffffffffffffffffff1660601b815250508073ffffffffffffffffffffffffffffffffffffffff16635909c0d56040518163ffffffff1660e01b815260040160206040518083038186803b1580156200026d57600080fd5b505afa15801562000282573d6000803e3d6000fd5b505050506040513d60208110156200029957600080fd5b81019080805190602001909291905050506000819055508073ffffffffffffffffffffffffffffffffffffffff16635a3d54936040518163ffffffff1660e01b815260040160206040518083038186803b158015620002f757600080fd5b505afa1580156200030c573d6000803e3d6000fd5b505050506040513d60208110156200032357600080fd5b81019080805190602001909291905050506001819055506000808273ffffffffffffffffffffffffffffffffffffffff16630902f1ac6040518163ffffffff1660e01b815260040160606040518083038186803b1580156200038457600080fd5b505afa15801562000399573d6000803e3d6000fd5b505050506040513d6060811015620003b057600080fd5b81019080805190602001909291908051906020019092919080519060200190929190505050600260008291906101000a81548163ffffffff021916908363ffffffff1602179055508193508294505050506000826dffffffffffffffffffffffffffff16141580156200043457506000816dffffffffffffffffffffffffffff1614155b620004a7576040517f08c379a000000000000000000000000000000000000000000000000000000000815260040180806020018281038252601e8152602001807f556e6973776170506169724f7261636c653a204e4f5f5245534552564553000081525060200191505060405180910390fd5b5050505050505050506200071b565b6000806000620004cd85856200059f60201b60201c565b915091508573ffffffffffffffffffffffffffffffffffffffff1663e6a4390583836040518363ffffffff1660e01b8152600401808373ffffffffffffffffffffffffffffffffffffffff1681526020018273ffffffffffffffffffffffffffffffffffffffff1681526020019250505060206040518083038186803b1580156200055757600080fd5b505afa1580156200056c573d6000803e3d6000fd5b505050506040513d60208110156200058357600080fd5b8101908080519060200190929190505050925050509392505050565b6000808273ffffffffffffffffffffffffffffffffffffffff168473ffffffffffffffffffffffffffffffffffffffff16141562000629576040517f08c379a0000000000000000000000000000000000000000000000000000000008152600401808060200182810382526025815260200180620017556025913960400191505060405180910390fd5b8273ffffffffffffffffffffffffffffffffffffffff168473ffffffffffffffffffffffffffffffffffffffff16106200066557828462000668565b83835b8092508193505050600073ffffffffffffffffffffffffffffffffffffffff168273ffffffffffffffffffffffffffffffffffffffff16141562000714576040517f08c379a000000000000000000000000000000000000000000000000000000000815260040180806020018281038252601e8152602001807f556e697377617056324c6962726172793a205a45524f5f41444452455353000081525060200191505060405180910390fd5b9250929050565b60805160601c60a05160601c60c05160601c610ff562000760600039806103d8528061081c5250806102ae52806102d452508061059352806107db5250610ff56000f3fe608060405234801561001057600080fd5b50600436106100a95760003560e01c8063a2e6204511610071578063a2e62045146101bc578063a6bb4539146101c6578063a8aa1b3114610202578063b4d1d79514610236578063c5700a0214610254578063d21220a714610278576100a9565b80630dfe1681146100ae5780633ddac953146100e25780635909c0d5146101445780635a3d5493146101625780635e6aaf2c14610180575b600080fd5b6100b66102ac565b604051808273ffffffffffffffffffffffffffffffffffffffff16815260200191505060405180910390f35b61012e600480360360408110156100f857600080fd5b81019080803573ffffffffffffffffffffffffffffffffffffffff169060200190929190803590602001909291905050506102d0565b6040518082815260200191505060405180910390f35b61014c610549565b6040518082815260200191505060405180910390f35b61016a61054f565b6040518082815260200191505060405180910390f35b610188610555565b60405180827bffffffffffffffffffffffffffffffffffffffffffffffffffffffff16815260200191505060405180910390f35b6101c4610589565b005b6101ce6107a5565b60405180827bffffffffffffffffffffffffffffffffffffffffffffffffffffffff16815260200191505060405180910390f35b61020a6107d9565b604051808273ffffffffffffffffffffffffffffffffffffffff16815260200191505060405180910390f35b61023e6107fd565b6040518082815260200191505060405180910390f35b61025c610804565b604051808263ffffffff16815260200191505060405180910390f35b61028061081a565b604051808273ffffffffffffffffffffffffffffffffffffffff16815260200191505060405180910390f35b7f000000000000000000000000000000000000000000000000000000000000000081565b60007f000000000000000000000000000000000000000000000000000000000000000073ffffffffffffffffffffffffffffffffffffffff168373ffffffffffffffffffffffffffffffffffffffff1614156103d6576103bb6103b68360036040518060200160405290816000820160009054906101000a90047bffffffffffffffffffffffffffffffffffffffffffffffffffffffff167bffffffffffffffffffffffffffffffffffffffffffffffffffffffff167bffffffffffffffffffffffffffffffffffffffffffffffffffffffff168152505061091c90919063ffffffff16565b6109f2565b71ffffffffffffffffffffffffffffffffffff169050610543565b7f000000000000000000000000000000000000000000000000000000000000000073ffffffffffffffffffffffffffffffffffffffff168373ffffffffffffffffffffffffffffffffffffffff1614610497576040517f08c379a00000000000000000000000000000000000000000000000000000000081526004018080602001828103825260208152602001807f556e6973776170506169724f7261636c653a20494e56414c49445f544f4b454e81525060200191505060405180910390fd5b61052c6105278360046040518060200160405290816000820160009054906101000a90047bffffffffffffffffffffffffffffffffffffffffffffffffffffffff167bffffffffffffffffffffffffffffffffffffffffffffffffffffffff167bffffffffffffffffffffffffffffffffffffffffffffffffffffffff168152505061091c90919063ffffffff16565b6109f2565b71ffffffffffffffffffffffffffffffffffff1690505b92915050565b60005481565b60015481565b60048060000160009054906101000a90047bffffffffffffffffffffffffffffffffffffffffffffffffffffffff16905081565b60008060006105b77f0000000000000000000000000000000000000000000000000000000000000000610a07565b9250925092506000600260009054906101000a900463ffffffff1682039050620151808163ffffffff161015610638576040517f08c379a0000000000000000000000000000000000000000000000000000000008152600401808060200182810382526025815260200180610f786025913960400191505060405180910390fd5b60405180602001604052808263ffffffff1660005487038161065657fe5b047bffffffffffffffffffffffffffffffffffffffffffffffffffffffff16815250600360008201518160000160006101000a8154817bffffffffffffffffffffffffffffffffffffffffffffffffffffffff02191690837bffffffffffffffffffffffffffffffffffffffffffffffffffffffff16021790555090505060405180602001604052808263ffffffff166001548603816106f257fe5b047bffffffffffffffffffffffffffffffffffffffffffffffffffffffff16815250600460008201518160000160006101000a8154817bffffffffffffffffffffffffffffffffffffffffffffffffffffffff02191690837bffffffffffffffffffffffffffffffffffffffffffffffffffffffff160217905550905050836000819055508260018190555081600260006101000a81548163ffffffff021916908363ffffffff16021790555050505050565b60038060000160009054906101000a90047bffffffffffffffffffffffffffffffffffffffffffffffffffffffff16905081565b7f000000000000000000000000000000000000000000000000000000000000000081565b6201518081565b600260009054906101000a900463ffffffff1681565b7f000000000000000000000000000000000000000000000000000000000000000081565b600080600061084d8585610c52565b915091508573ffffffffffffffffffffffffffffffffffffffff1663e6a4390583836040518363ffffffff1660e01b8152600401808373ffffffffffffffffffffffffffffffffffffffff1681526020018273ffffffffffffffffffffffffffffffffffffffff1681526020019250505060206040518083038186803b1580156108d657600080fd5b505afa1580156108ea573d6000803e3d6000fd5b505050506040513d602081101561090057600080fd5b8101908080519060200190929190505050925050509392505050565b610924610f0e565b600080831480610985575083600001517bffffffffffffffffffffffffffffffffffffffffffffffffffffffff16838486600001517bffffffffffffffffffffffffffffffffffffffffffffffffffffffff16029250828161098257fe5b04145b6109da576040517f08c379a0000000000000000000000000000000000000000000000000000000008152600401808060200182810382526023815260200180610f9d6023913960400191505060405180910390fd5b60405180602001604052808281525091505092915050565b6000607060ff168260000151901c9050919050565b6000806000610a14610dc9565b90508373ffffffffffffffffffffffffffffffffffffffff16635909c0d56040518163ffffffff1660e01b815260040160206040518083038186803b158015610a5c57600080fd5b505afa158015610a70573d6000803e3d6000fd5b505050506040513d6020811015610a8657600080fd5b810190808051906020019092919050505092508373ffffffffffffffffffffffffffffffffffffffff16635a3d54936040518163ffffffff1660e01b815260040160206040518083038186803b158015610adf57600080fd5b505afa158015610af3573d6000803e3d6000fd5b505050506040513d6020811015610b0957600080fd5b8101908080519060200190929190505050915060008060008673ffffffffffffffffffffffffffffffffffffffff16630902f1ac6040518163ffffffff1660e01b815260040160606040518083038186803b158015610b6757600080fd5b505afa158015610b7b573d6000803e3d6000fd5b505050506040513d6060811015610b9157600080fd5b810190808051906020019092919080519060200190929190805190602001909291905050509250925092508363ffffffff168163ffffffff1614610c4857600081850390508063ffffffff16610be78486610ddf565b600001517bffffffffffffffffffffffffffffffffffffffffffffffffffffffff1602870196508063ffffffff16610c1f8585610ddf565b600001517bffffffffffffffffffffffffffffffffffffffffffffffffffffffff160286019550505b5050509193909250565b6000808273ffffffffffffffffffffffffffffffffffffffff168473ffffffffffffffffffffffffffffffffffffffff161415610cda576040517f08c379a0000000000000000000000000000000000000000000000000000000008152600401808060200182810382526025815260200180610f536025913960400191505060405180910390fd5b8273ffffffffffffffffffffffffffffffffffffffff168473ffffffffffffffffffffffffffffffffffffffff1610610d14578284610d17565b83835b8092508193505050600073ffffffffffffffffffffffffffffffffffffffff168273ffffffffffffffffffffffffffffffffffffffff161415610dc2576040517f08c379a000000000000000000000000000000000000000000000000000000000815260040180806020018281038252601e8152602001807f556e697377617056324c6962726172793a205a45524f5f41444452455353000081525060200191505060405180910390fd5b9250929050565b60006401000000004281610dd957fe5b06905090565b610de7610f21565b6000826dffffffffffffffffffffffffffff1611610e6d576040517f08c379a00000000000000000000000000000000000000000000000000000000081526004018080602001828103825260178152602001807f4669786564506f696e743a204449565f42595f5a45524f00000000000000000081525060200191505060405180910390fd5b6040518060200160405280836dffffffffffffffffffffffffffff16607060ff16866dffffffffffffffffffffffffffff167bffffffffffffffffffffffffffffffffffffffffffffffffffffffff16901b7bffffffffffffffffffffffffffffffffffffffffffffffffffffffff1681610ee457fe5b047bffffffffffffffffffffffffffffffffffffffffffffffffffffffff16815250905092915050565b6040518060200160405280600081525090565b604051806020016040528060007bffffffffffffffffffffffffffffffffffffffffffffffffffffffff168152509056fe556e697377617056324c6962726172793a204944454e544943414c5f414444524553534553556e6973776170506169724f7261636c653a20504552494f445f4e4f545f454c41505345444669786564506f696e743a204d554c5449504c49434154494f4e5f4f564552464c4f57a264697066735822122059ba4be9dc1d1a21dd74d715e41b303fe812ee0d59806cfa7252b9f28ba0480464736f6c634300060c0033556e697377617056324c6962726172793a204944454e544943414c5f414444524553534553",
  "immutableReferences": {
    "8911": [
      {
        "length": 32,
        "start": 1427
      },
      {
        "length": 32,
        "start": 2011
      }
    ],
    "8913": [
      {
        "length": 32,
        "start": 686
      },
      {
        "length": 32,
        "start": 724
      }
    ],
    "8915": [
      {
        "length": 32,
        "start": 984
      },
      {
        "length": 32,
        "start": 2076
      }
    ]
  },
  "source": "// SPDX-License-Identifier: MIT\npragma solidity ^0.6.0 <0.7.0;\n\nimport '../UniswapPairOracle.sol';\n\n// Fixed window oracle that recomputes the average price for the entire period once every period\n// Note that the price average is only guaranteed to be over at least 1 period, but may be over a longer period\ncontract UniswapPairOracle_FRAX_USDC is UniswapPairOracle {\n    constructor(address factory, address tokenA, address tokenB) \n    UniswapPairOracle(factory, tokenA, tokenB) \n    public {}\n}\n",
  "sourcePath": "/home/travis/Documents/Ubuntu_Shared/frax-price-feed/src/truffle/contracts/Oracle/Fakes/UniswapPairOracle_FRAX_USDC.sol",
  "compiler": {
    "name": "solc",
    "version": "0.6.12+commit.27d51765.Emscripten.clang"
  },
  "schemaVersion": "3.2.4",
  "updatedAt": "2020-10-08T23:05:58.487Z",
  "networkType": "ethereum",
  "devdoc": {
    "kind": "dev",
    "methods": {},
    "version": 1
  },
  "userdoc": {
    "kind": "user",
    "methods": {},
    "version": 1
  }
}